{
	"contracts/voting.sol": {
		"Voting": {
			"abi": [
				{
					"anonymous": false,
					"inputs": [
						{
							"indexed": true,
							"internalType": "address",
							"name": "previousOwner",
							"type": "address"
						},
						{
							"indexed": true,
							"internalType": "address",
							"name": "newOwner",
							"type": "address"
						}
					],
					"name": "OwnershipTransferred",
					"type": "event"
				},
				{
					"anonymous": false,
					"inputs": [
						{
							"indexed": false,
							"internalType": "uint256",
							"name": "proposalId",
							"type": "uint256"
						}
					],
					"name": "ProposalRegistred",
					"type": "event"
				},
				{
					"anonymous": false,
					"inputs": [],
					"name": "ProposalsRegistrationEnded",
					"type": "event"
				},
				{
					"anonymous": false,
					"inputs": [],
					"name": "ProposalsRegistrationStarted",
					"type": "event"
				},
				{
					"anonymous": false,
					"inputs": [
						{
							"indexed": false,
							"internalType": "address",
							"name": "voter",
							"type": "address"
						},
						{
							"indexed": false,
							"internalType": "uint256",
							"name": "proposalId",
							"type": "uint256"
						}
					],
					"name": "Voted",
					"type": "event"
				},
				{
					"anonymous": false,
					"inputs": [
						{
							"indexed": false,
							"internalType": "address",
							"name": "voterAddress",
							"type": "address"
						}
					],
					"name": "VoterRegistrered",
					"type": "event"
				},
				{
					"anonymous": false,
					"inputs": [],
					"name": "VotesTallied",
					"type": "event"
				},
				{
					"anonymous": false,
					"inputs": [],
					"name": "VotingSessionEnded",
					"type": "event"
				},
				{
					"anonymous": false,
					"inputs": [],
					"name": "VotingSessionStarted",
					"type": "event"
				},
				{
					"anonymous": false,
					"inputs": [
						{
							"indexed": false,
							"internalType": "enum Voting.WorkflowStatus",
							"name": "previousStatus",
							"type": "uint8"
						},
						{
							"indexed": false,
							"internalType": "enum Voting.WorkflowStatus",
							"name": "newStatus",
							"type": "uint8"
						}
					],
					"name": "WorkflowStatusChange",
					"type": "event"
				},
				{
					"inputs": [
						{
							"internalType": "uint256",
							"name": "proposal_id",
							"type": "uint256"
						}
					],
					"name": "DoingTheVote",
					"outputs": [],
					"stateMutability": "nonpayable",
					"type": "function"
				},
				{
					"inputs": [],
					"name": "LookAtTheWinningProposal",
					"outputs": [
						{
							"internalType": "string",
							"name": "proposalName",
							"type": "string"
						}
					],
					"stateMutability": "view",
					"type": "function"
				},
				{
					"inputs": [
						{
							"internalType": "address",
							"name": "",
							"type": "address"
						}
					],
					"name": "RegisteredVoters",
					"outputs": [
						{
							"internalType": "bool",
							"name": "isRegistred",
							"type": "bool"
						},
						{
							"internalType": "bool",
							"name": "hasVoted",
							"type": "bool"
						},
						{
							"internalType": "uint256",
							"name": "votedProposalId",
							"type": "uint256"
						}
					],
					"stateMutability": "view",
					"type": "function"
				},
				{
					"inputs": [
						{
							"internalType": "string",
							"name": "_description",
							"type": "string"
						}
					],
					"name": "addProposal",
					"outputs": [],
					"stateMutability": "nonpayable",
					"type": "function"
				},
				{
					"inputs": [
						{
							"internalType": "address",
							"name": "_address",
							"type": "address"
						}
					],
					"name": "addVoterToList",
					"outputs": [],
					"stateMutability": "nonpayable",
					"type": "function"
				},
				{
					"inputs": [
						{
							"internalType": "uint256",
							"name": "",
							"type": "uint256"
						}
					],
					"name": "addresses",
					"outputs": [
						{
							"internalType": "address",
							"name": "",
							"type": "address"
						}
					],
					"stateMutability": "view",
					"type": "function"
				},
				{
					"inputs": [],
					"name": "currentWorkflowStatus",
					"outputs": [
						{
							"internalType": "enum Voting.WorkflowStatus",
							"name": "",
							"type": "uint8"
						}
					],
					"stateMutability": "view",
					"type": "function"
				},
				{
					"inputs": [],
					"name": "endOfRegisteringProposal",
					"outputs": [],
					"stateMutability": "nonpayable",
					"type": "function"
				},
				{
					"inputs": [],
					"name": "endVote",
					"outputs": [],
					"stateMutability": "nonpayable",
					"type": "function"
				},
				{
					"inputs": [],
					"name": "getAddresses",
					"outputs": [
						{
							"internalType": "address[]",
							"name": "",
							"type": "address[]"
						}
					],
					"stateMutability": "view",
					"type": "function"
				},
				{
					"inputs": [],
					"name": "getProposals",
					"outputs": [
						{
							"components": [
								{
									"internalType": "string",
									"name": "description",
									"type": "string"
								},
								{
									"internalType": "uint256",
									"name": "voteCount",
									"type": "uint256"
								}
							],
							"internalType": "struct Voting.Proposal[]",
							"name": "",
							"type": "tuple[]"
						}
					],
					"stateMutability": "view",
					"type": "function"
				},
				{
					"inputs": [],
					"name": "owner",
					"outputs": [
						{
							"internalType": "address",
							"name": "",
							"type": "address"
						}
					],
					"stateMutability": "view",
					"type": "function"
				},
				{
					"inputs": [
						{
							"internalType": "uint256",
							"name": "",
							"type": "uint256"
						}
					],
					"name": "proposals",
					"outputs": [
						{
							"internalType": "string",
							"name": "description",
							"type": "string"
						},
						{
							"internalType": "uint256",
							"name": "voteCount",
							"type": "uint256"
						}
					],
					"stateMutability": "view",
					"type": "function"
				},
				{
					"inputs": [],
					"name": "renounceOwnership",
					"outputs": [],
					"stateMutability": "nonpayable",
					"type": "function"
				},
				{
					"inputs": [],
					"name": "startRegisteringProposal",
					"outputs": [],
					"stateMutability": "nonpayable",
					"type": "function"
				},
				{
					"inputs": [],
					"name": "startVote",
					"outputs": [],
					"stateMutability": "nonpayable",
					"type": "function"
				},
				{
					"inputs": [],
					"name": "tallyVotes",
					"outputs": [],
					"stateMutability": "nonpayable",
					"type": "function"
				},
				{
					"inputs": [
						{
							"internalType": "address",
							"name": "newOwner",
							"type": "address"
						}
					],
					"name": "transferOwnership",
					"outputs": [],
					"stateMutability": "nonpayable",
					"type": "function"
				},
				{
					"inputs": [],
					"name": "votesTallied",
					"outputs": [
						{
							"internalType": "uint256",
							"name": "",
							"type": "uint256"
						}
					],
					"stateMutability": "nonpayable",
					"type": "function"
				}
			],
			"devdoc": {
				"kind": "dev",
				"methods": {
					"owner()": {
						"details": "Returns the address of the current owner."
					},
					"renounceOwnership()": {
						"details": "Leaves the contract without owner. It will not be possible to call `onlyOwner` functions anymore. Can only be called by the current owner. NOTE: Renouncing ownership will leave the contract without an owner, thereby removing any functionality that is only available to the owner."
					},
					"transferOwnership(address)": {
						"details": "Transfers ownership of the contract to a new account (`newOwner`). Can only be called by the current owner."
					}
				},
				"version": 1
			},
			"evm": {
				"assembly": "    /* \"contracts/voting.sol\":170:4946  contract Voting is Ownable{... */\n  mstore(0x40, 0x80)\n    /* \"contracts/voting.sol\":441:442  0 */\n  0x00\n    /* \"contracts/voting.sol\":418:442  uint countProposalId = 0 */\n  0x02\n  sstore\n    /* \"contracts/voting.sol\":788:820  WorkflowStatus.RegisteringVoters */\n  0x00\n    /* \"contracts/voting.sol\":742:820  WorkflowStatus public currentWorkflowStatus = WorkflowStatus.RegisteringVoters */\n  0x06\n  exp(0x0100, 0x00)\n  dup2\n  sload\n  dup2\n  0xff\n  mul\n  not\n  and\n  swap1\n  dup4\n  0x05\n  dup2\n  gt\n  iszero\n  tag_1\n  jumpi\n  tag_2\n  tag_3\n  jump\t// in\ntag_2:\ntag_1:\n  mul\n  or\n  swap1\n  sstore\n  pop\n    /* \"contracts/voting.sol\":170:4946  contract Voting is Ownable{... */\n  callvalue\n  dup1\n  iszero\n  tag_4\n  jumpi\n  0x00\n  dup1\n  revert\ntag_4:\n  pop\n    /* \"@openzeppelin/contracts/access/Ownable.sol\":921:953  _transferOwnership(_msgSender()) */\n  tag_7\n    /* \"@openzeppelin/contracts/access/Ownable.sol\":940:952  _msgSender() */\n  tag_8\n    /* \"@openzeppelin/contracts/access/Ownable.sol\":940:950  _msgSender */\n  shl(0x20, tag_9)\n    /* \"@openzeppelin/contracts/access/Ownable.sol\":940:952  _msgSender() */\n  0x20\n  shr\n  jump\t// in\ntag_8:\n    /* \"@openzeppelin/contracts/access/Ownable.sol\":921:939  _transferOwnership */\n  shl(0x20, tag_10)\n    /* \"@openzeppelin/contracts/access/Ownable.sol\":921:953  _transferOwnership(_msgSender()) */\n  0x20\n  shr\n  jump\t// in\ntag_7:\n    /* \"contracts/voting.sol\":170:4946  contract Voting is Ownable{... */\n  jump(tag_11)\n    /* \"@openzeppelin/contracts/utils/Context.sol\":640:736  function _msgSender() internal view virtual returns (address) {... */\ntag_9:\n    /* \"@openzeppelin/contracts/utils/Context.sol\":693:700  address */\n  0x00\n    /* \"@openzeppelin/contracts/utils/Context.sol\":719:729  msg.sender */\n  caller\n    /* \"@openzeppelin/contracts/utils/Context.sol\":712:729  return msg.sender */\n  swap1\n  pop\n    /* \"@openzeppelin/contracts/utils/Context.sol\":640:736  function _msgSender() internal view virtual returns (address) {... */\n  swap1\n  jump\t// out\n    /* \"@openzeppelin/contracts/access/Ownable.sol\":2270:2457  function _transferOwnership(address newOwner) internal virtual {... */\ntag_10:\n    /* \"@openzeppelin/contracts/access/Ownable.sol\":2343:2359  address oldOwner */\n  0x00\n    /* \"@openzeppelin/contracts/access/Ownable.sol\":2362:2368  _owner */\n  dup1\n  0x00\n  swap1\n  sload\n  swap1\n  0x0100\n  exp\n  swap1\n  div\n  0xffffffffffffffffffffffffffffffffffffffff\n  and\n    /* \"@openzeppelin/contracts/access/Ownable.sol\":2343:2368  address oldOwner = _owner */\n  swap1\n  pop\n    /* \"@openzeppelin/contracts/access/Ownable.sol\":2387:2395  newOwner */\n  dup2\n    /* \"@openzeppelin/contracts/access/Ownable.sol\":2378:2384  _owner */\n  0x00\n  dup1\n    /* \"@openzeppelin/contracts/access/Ownable.sol\":2378:2395  _owner = newOwner */\n  0x0100\n  exp\n  dup2\n  sload\n  dup2\n  0xffffffffffffffffffffffffffffffffffffffff\n  mul\n  not\n  and\n  swap1\n  dup4\n  0xffffffffffffffffffffffffffffffffffffffff\n  and\n  mul\n  or\n  swap1\n  sstore\n  pop\n    /* \"@openzeppelin/contracts/access/Ownable.sol\":2441:2449  newOwner */\n  dup2\n    /* \"@openzeppelin/contracts/access/Ownable.sol\":2410:2450  OwnershipTransferred(oldOwner, newOwner) */\n  0xffffffffffffffffffffffffffffffffffffffff\n  and\n    /* \"@openzeppelin/contracts/access/Ownable.sol\":2431:2439  oldOwner */\n  dup2\n    /* \"@openzeppelin/contracts/access/Ownable.sol\":2410:2450  OwnershipTransferred(oldOwner, newOwner) */\n  0xffffffffffffffffffffffffffffffffffffffff\n  and\n  0x8be0079c531659141344cd1fd0a4f28419497f9722a3daafe3b4186f6b6457e0\n  mload(0x40)\n  mload(0x40)\n  dup1\n  swap2\n  sub\n  swap1\n  log3\n    /* \"@openzeppelin/contracts/access/Ownable.sol\":2333:2457  {... */\n  pop\n    /* \"@openzeppelin/contracts/access/Ownable.sol\":2270:2457  function _transferOwnership(address newOwner) internal virtual {... */\n  pop\n  jump\t// out\n    /* \"#utility.yul\":7:187   */\ntag_3:\n    /* \"#utility.yul\":55:132   */\n  0x4e487b7100000000000000000000000000000000000000000000000000000000\n    /* \"#utility.yul\":52:53   */\n  0x00\n    /* \"#utility.yul\":45:133   */\n  mstore\n    /* \"#utility.yul\":152:156   */\n  0x21\n    /* \"#utility.yul\":149:150   */\n  0x04\n    /* \"#utility.yul\":142:157   */\n  mstore\n    /* \"#utility.yul\":176:180   */\n  0x24\n    /* \"#utility.yul\":173:174   */\n  0x00\n    /* \"#utility.yul\":166:181   */\n  revert\n    /* \"contracts/voting.sol\":170:4946  contract Voting is Ownable{... */\ntag_11:\n  dataSize(sub_0)\n  dup1\n  dataOffset(sub_0)\n  0x00\n  codecopy\n  0x00\n  return\nstop\n\nsub_0: assembly {\n        /* \"contracts/voting.sol\":170:4946  contract Voting is Ownable{... */\n      mstore(0x40, 0x80)\n      callvalue\n      dup1\n      iszero\n      tag_1\n      jumpi\n      0x00\n      dup1\n      revert\n    tag_1:\n      pop\n      jumpi(tag_2, lt(calldatasize, 0x04))\n      shr(0xe0, calldataload(0x00))\n      dup1\n      0x8da5cb5b\n      gt\n      tag_22\n      jumpi\n      dup1\n      0xd1f165d5\n      gt\n      tag_23\n      jumpi\n      dup1\n      0xd1f165d5\n      eq\n      tag_17\n      jumpi\n      dup1\n      0xedf26d9b\n      eq\n      tag_18\n      jumpi\n      dup1\n      0xf2fde38b\n      eq\n      tag_19\n      jumpi\n      dup1\n      0xf7ad7645\n      eq\n      tag_20\n      jumpi\n      dup1\n      0xfbed253a\n      eq\n      tag_21\n      jumpi\n      jump(tag_2)\n    tag_23:\n      dup1\n      0x8da5cb5b\n      eq\n      tag_12\n      jumpi\n      dup1\n      0x8f20cd05\n      eq\n      tag_13\n      jumpi\n      dup1\n      0xa39fac12\n      eq\n      tag_14\n      jumpi\n      dup1\n      0xada7415f\n      eq\n      tag_15\n      jumpi\n      dup1\n      0xb9223946\n      eq\n      tag_16\n      jumpi\n      jump(tag_2)\n    tag_22:\n      dup1\n      0x4c0a6af0\n      gt\n      tag_24\n      jumpi\n      dup1\n      0x4c0a6af0\n      eq\n      tag_7\n      jumpi\n      dup1\n      0x62564c48\n      eq\n      tag_8\n      jumpi\n      dup1\n      0x67ffc3c3\n      eq\n      tag_9\n      jumpi\n      dup1\n      0x715018a6\n      eq\n      tag_10\n      jumpi\n      dup1\n      0x77331897\n      eq\n      tag_11\n      jumpi\n      jump(tag_2)\n    tag_24:\n      dup1\n      0x013cf08b\n      eq\n      tag_3\n      jumpi\n      dup1\n      0x1930dc58\n      eq\n      tag_4\n      jumpi\n      dup1\n      0x2fdae3c5\n      eq\n      tag_5\n      jumpi\n      dup1\n      0x378a2178\n      eq\n      tag_6\n      jumpi\n    tag_2:\n      0x00\n      dup1\n      revert\n        /* \"contracts/voting.sol\":500:527  Proposal[] public proposals */\n    tag_3:\n      tag_25\n      0x04\n      dup1\n      calldatasize\n      sub\n      dup2\n      add\n      swap1\n      tag_26\n      swap2\n      swap1\n      tag_27\n      jump\t// in\n    tag_26:\n      tag_28\n      jump\t// in\n    tag_25:\n      mload(0x40)\n      tag_29\n      swap3\n      swap2\n      swap1\n      tag_30\n      jump\t// in\n    tag_29:\n      mload(0x40)\n      dup1\n      swap2\n      sub\n      swap1\n      return\n        /* \"contracts/voting.sol\":3247:3794  function DoingTheVote (uint proposal_id) public inState(WorkflowStatus.VotingSessionStarted)... */\n    tag_4:\n      tag_31\n      0x04\n      dup1\n      calldatasize\n      sub\n      dup2\n      add\n      swap1\n      tag_32\n      swap2\n      swap1\n      tag_27\n      jump\t// in\n    tag_32:\n      tag_33\n      jump\t// in\n    tag_31:\n      stop\n        /* \"contracts/voting.sol\":2206:2587  function addProposal(string memory _description) public inState(WorkflowStatus.ProposalsRegistrationStarted)... */\n    tag_5:\n      tag_34\n      0x04\n      dup1\n      calldatasize\n      sub\n      dup2\n      add\n      swap1\n      tag_35\n      swap2\n      swap1\n      tag_36\n      jump\t// in\n    tag_35:\n      tag_37\n      jump\t// in\n    tag_34:\n      stop\n        /* \"contracts/voting.sol\":4092:4436  function tallyVotes() public inState(WorkflowStatus.VotingSessionEnded) onlyOwner ... */\n    tag_6:\n      tag_38\n      tag_39\n      jump\t// in\n    tag_38:\n      stop\n        /* \"contracts/voting.sol\":2939:3241  function startVote() public onlyOwner inState(WorkflowStatus.ProposalsRegistrationEnded)... */\n    tag_7:\n      tag_40\n      tag_41\n      jump\t// in\n    tag_40:\n      stop\n        /* \"contracts/voting.sol\":1329:1424  function getProposals() public view returns(Proposal[] memory){... */\n    tag_8:\n      tag_42\n      tag_43\n      jump\t// in\n    tag_42:\n      mload(0x40)\n      tag_44\n      swap2\n      swap1\n      tag_45\n      jump\t// in\n    tag_44:\n      mload(0x40)\n      dup1\n      swap2\n      sub\n      swap1\n      return\n        /* \"contracts/voting.sol\":447:496  mapping(address => Voter) public RegisteredVoters */\n    tag_9:\n      tag_46\n      0x04\n      dup1\n      calldatasize\n      sub\n      dup2\n      add\n      swap1\n      tag_47\n      swap2\n      swap1\n      tag_48\n      jump\t// in\n    tag_47:\n      tag_49\n      jump\t// in\n    tag_46:\n      mload(0x40)\n      tag_50\n      swap4\n      swap3\n      swap2\n      swap1\n      tag_51\n      jump\t// in\n    tag_50:\n      mload(0x40)\n      dup1\n      swap2\n      sub\n      swap1\n      return\n        /* \"@openzeppelin/contracts/access/Ownable.sol\":1668:1769  function renounceOwnership() public virtual onlyOwner {... */\n    tag_10:\n      tag_52\n      tag_53\n      jump\t// in\n    tag_52:\n      stop\n        /* \"contracts/voting.sol\":2593:2932  function endOfRegisteringProposal() public onlyOwner inState(WorkflowStatus.ProposalsRegistrationStarted)... */\n    tag_11:\n      tag_54\n      tag_55\n      jump\t// in\n    tag_54:\n      stop\n        /* \"@openzeppelin/contracts/access/Ownable.sol\":1036:1121  function owner() public view virtual returns (address) {... */\n    tag_12:\n      tag_56\n      tag_57\n      jump\t// in\n    tag_56:\n      mload(0x40)\n      tag_58\n      swap2\n      swap1\n      tag_59\n      jump\t// in\n    tag_58:\n      mload(0x40)\n      dup1\n      swap2\n      sub\n      swap1\n      return\n        /* \"contracts/voting.sol\":1523:1866  function addVoterToList(address _address) public onlyOwner inState(WorkflowStatus.RegisteringVoters)... */\n    tag_13:\n      tag_60\n      0x04\n      dup1\n      calldatasize\n      sub\n      dup2\n      add\n      swap1\n      tag_61\n      swap2\n      swap1\n      tag_48\n      jump\t// in\n    tag_61:\n      tag_62\n      jump\t// in\n    tag_60:\n      stop\n        /* \"contracts/voting.sol\":1430:1517  function getAddresses() public view returns(address[] memory){... */\n    tag_14:\n      tag_63\n      tag_64\n      jump\t// in\n    tag_63:\n      mload(0x40)\n      tag_65\n      swap2\n      swap1\n      tag_66\n      jump\t// in\n    tag_65:\n      mload(0x40)\n      dup1\n      swap2\n      sub\n      swap1\n      return\n        /* \"contracts/voting.sol\":4440:4725  function votesTallied() public inState(WorkflowStatus.VotingSessionEnded) onlyOwner returns(uint)... */\n    tag_15:\n      tag_67\n      tag_68\n      jump\t// in\n    tag_67:\n      mload(0x40)\n      tag_69\n      swap2\n      swap1\n      tag_70\n      jump\t// in\n    tag_69:\n      mload(0x40)\n      dup1\n      swap2\n      sub\n      swap1\n      return\n        /* \"contracts/voting.sol\":3798:4080  function endVote() public inState(WorkflowStatus.VotingSessionStarted) onlyOwner... */\n    tag_16:\n      tag_71\n      tag_72\n      jump\t// in\n    tag_71:\n      stop\n        /* \"contracts/voting.sol\":4735:4932  function LookAtTheWinningProposal() public view returns (string memory proposalName)... */\n    tag_17:\n      tag_73\n      tag_74\n      jump\t// in\n    tag_73:\n      mload(0x40)\n      tag_75\n      swap2\n      swap1\n      tag_76\n      jump\t// in\n    tag_75:\n      mload(0x40)\n      dup1\n      swap2\n      sub\n      swap1\n      return\n        /* \"contracts/voting.sol\":530:556  address[] public addresses */\n    tag_18:\n      tag_77\n      0x04\n      dup1\n      calldatasize\n      sub\n      dup2\n      add\n      swap1\n      tag_78\n      swap2\n      swap1\n      tag_27\n      jump\t// in\n    tag_78:\n      tag_79\n      jump\t// in\n    tag_77:\n      mload(0x40)\n      tag_80\n      swap2\n      swap1\n      tag_59\n      jump\t// in\n    tag_80:\n      mload(0x40)\n      dup1\n      swap2\n      sub\n      swap1\n      return\n        /* \"@openzeppelin/contracts/access/Ownable.sol\":1918:2116  function transferOwnership(address newOwner) public virtual onlyOwner {... */\n    tag_19:\n      tag_81\n      0x04\n      dup1\n      calldatasize\n      sub\n      dup2\n      add\n      swap1\n      tag_82\n      swap2\n      swap1\n      tag_48\n      jump\t// in\n    tag_82:\n      tag_83\n      jump\t// in\n    tag_81:\n      stop\n        /* \"contracts/voting.sol\":742:820  WorkflowStatus public currentWorkflowStatus = WorkflowStatus.RegisteringVoters */\n    tag_20:\n      tag_84\n      tag_85\n      jump\t// in\n    tag_84:\n      mload(0x40)\n      tag_86\n      swap2\n      swap1\n      tag_87\n      jump\t// in\n    tag_86:\n      mload(0x40)\n      dup1\n      swap2\n      sub\n      swap1\n      return\n        /* \"contracts/voting.sol\":1872:2200  function startRegisteringProposal() public onlyOwner inState(WorkflowStatus.RegisteringVoters)... */\n    tag_21:\n      tag_88\n      tag_89\n      jump\t// in\n    tag_88:\n      stop\n        /* \"contracts/voting.sol\":500:527  Proposal[] public proposals */\n    tag_28:\n      0x04\n      dup2\n      dup2\n      sload\n      dup2\n      lt\n      tag_90\n      jumpi\n      0x00\n      dup1\n      revert\n    tag_90:\n      swap1\n      0x00\n      mstore\n      keccak256(0x00, 0x20)\n      swap1\n      0x02\n      mul\n      add\n      0x00\n      swap2\n      pop\n      swap1\n      pop\n      dup1\n      0x00\n      add\n      dup1\n      sload\n      tag_92\n      swap1\n      tag_93\n      jump\t// in\n    tag_92:\n      dup1\n      0x1f\n      add\n      0x20\n      dup1\n      swap2\n      div\n      mul\n      0x20\n      add\n      mload(0x40)\n      swap1\n      dup2\n      add\n      0x40\n      mstore\n      dup1\n      swap3\n      swap2\n      swap1\n      dup2\n      dup2\n      mstore\n      0x20\n      add\n      dup3\n      dup1\n      sload\n      tag_94\n      swap1\n      tag_93\n      jump\t// in\n    tag_94:\n      dup1\n      iszero\n      tag_95\n      jumpi\n      dup1\n      0x1f\n      lt\n      tag_96\n      jumpi\n      0x0100\n      dup1\n      dup4\n      sload\n      div\n      mul\n      dup4\n      mstore\n      swap2\n      0x20\n      add\n      swap2\n      jump(tag_95)\n    tag_96:\n      dup3\n      add\n      swap2\n      swap1\n      0x00\n      mstore\n      keccak256(0x00, 0x20)\n      swap1\n    tag_97:\n      dup2\n      sload\n      dup2\n      mstore\n      swap1\n      0x01\n      add\n      swap1\n      0x20\n      add\n      dup1\n      dup4\n      gt\n      tag_97\n      jumpi\n      dup3\n      swap1\n      sub\n      0x1f\n      and\n      dup3\n      add\n      swap2\n    tag_95:\n      pop\n      pop\n      pop\n      pop\n      pop\n      swap1\n      dup1\n      0x01\n      add\n      sload\n      swap1\n      pop\n      dup3\n      jump\t// out\n        /* \"contracts/voting.sol\":3247:3794  function DoingTheVote (uint proposal_id) public inState(WorkflowStatus.VotingSessionStarted)... */\n    tag_33:\n        /* \"contracts/voting.sol\":3303:3338  WorkflowStatus.VotingSessionStarted */\n      0x03\n        /* \"contracts/voting.sol\":890:911  currentWorkflowStatus */\n      0x06\n      0x00\n      swap1\n      sload\n      swap1\n      0x0100\n      exp\n      swap1\n      div\n      0xff\n      and\n        /* \"contracts/voting.sol\":881:911  state == currentWorkflowStatus */\n      0x05\n      dup2\n      gt\n      iszero\n      tag_99\n      jumpi\n      tag_100\n      tag_101\n      jump\t// in\n    tag_100:\n    tag_99:\n        /* \"contracts/voting.sol\":881:886  state */\n      dup2\n        /* \"contracts/voting.sol\":881:911  state == currentWorkflowStatus */\n      0x05\n      dup2\n      gt\n      iszero\n      tag_102\n      jumpi\n      tag_103\n      tag_101\n      jump\t// in\n    tag_103:\n    tag_102:\n      eq\n        /* \"contracts/voting.sol\":872:912  require (state == currentWorkflowStatus) */\n      tag_104\n      jumpi\n      0x00\n      dup1\n      revert\n    tag_104:\n        /* \"contracts/voting.sol\":3399:3403  true */\n      0x01\n        /* \"contracts/voting.sol\":3355:3403  RegisteredVoters[msg.sender].isRegistred == true */\n      iszero\n      iszero\n        /* \"contracts/voting.sol\":3355:3371  RegisteredVoters */\n      0x03\n        /* \"contracts/voting.sol\":3355:3383  RegisteredVoters[msg.sender] */\n      0x00\n        /* \"contracts/voting.sol\":3372:3382  msg.sender */\n      caller\n        /* \"contracts/voting.sol\":3355:3383  RegisteredVoters[msg.sender] */\n      0xffffffffffffffffffffffffffffffffffffffff\n      and\n      0xffffffffffffffffffffffffffffffffffffffff\n      and\n      dup2\n      mstore\n      0x20\n      add\n      swap1\n      dup2\n      mstore\n      0x20\n      add\n      0x00\n      keccak256\n        /* \"contracts/voting.sol\":3355:3395  RegisteredVoters[msg.sender].isRegistred */\n      0x00\n      add\n      0x00\n      swap1\n      sload\n      swap1\n      0x0100\n      exp\n      swap1\n      div\n      0xff\n      and\n        /* \"contracts/voting.sol\":3355:3403  RegisteredVoters[msg.sender].isRegistred == true */\n      iszero\n      iszero\n      eq\n        /* \"contracts/voting.sol\":3346:3445  require (RegisteredVoters[msg.sender].isRegistred == true, \"You're not registered, you can't vote\") */\n      tag_106\n      jumpi\n      mload(0x40)\n      0x08c379a000000000000000000000000000000000000000000000000000000000\n      dup2\n      mstore\n      0x04\n      add\n      tag_107\n      swap1\n      tag_108\n      jump\t// in\n    tag_107:\n      mload(0x40)\n      dup1\n      swap2\n      sub\n      swap1\n      revert\n    tag_106:\n        /* \"contracts/voting.sol\":3499:3504  false */\n      0x00\n        /* \"contracts/voting.sol\":3458:3504  RegisteredVoters[msg.sender].hasVoted == false */\n      iszero\n      iszero\n        /* \"contracts/voting.sol\":3458:3474  RegisteredVoters */\n      0x03\n        /* \"contracts/voting.sol\":3458:3486  RegisteredVoters[msg.sender] */\n      0x00\n        /* \"contracts/voting.sol\":3475:3485  msg.sender */\n      caller\n        /* \"contracts/voting.sol\":3458:3486  RegisteredVoters[msg.sender] */\n      0xffffffffffffffffffffffffffffffffffffffff\n      and\n      0xffffffffffffffffffffffffffffffffffffffff\n      and\n      dup2\n      mstore\n      0x20\n      add\n      swap1\n      dup2\n      mstore\n      0x20\n      add\n      0x00\n      keccak256\n        /* \"contracts/voting.sol\":3458:3495  RegisteredVoters[msg.sender].hasVoted */\n      0x00\n      add\n      0x01\n      swap1\n      sload\n      swap1\n      0x0100\n      exp\n      swap1\n      div\n      0xff\n      and\n        /* \"contracts/voting.sol\":3458:3504  RegisteredVoters[msg.sender].hasVoted == false */\n      iszero\n      iszero\n      eq\n        /* \"contracts/voting.sol\":3449:3543  require (RegisteredVoters[msg.sender].hasVoted == false, \"You've already vote for a proposal\") */\n      tag_109\n      jumpi\n      mload(0x40)\n      0x08c379a000000000000000000000000000000000000000000000000000000000\n      dup2\n      mstore\n      0x04\n      add\n      tag_110\n      swap1\n      tag_111\n      jump\t// in\n    tag_110:\n      mload(0x40)\n      dup1\n      swap2\n      sub\n      swap1\n      revert\n    tag_109:\n        /* \"contracts/voting.sol\":3597:3608  proposal_id */\n      dup2\n        /* \"contracts/voting.sol\":3550:3566  RegisteredVoters */\n      0x03\n        /* \"contracts/voting.sol\":3550:3578  RegisteredVoters[msg.sender] */\n      0x00\n        /* \"contracts/voting.sol\":3567:3577  msg.sender */\n      caller\n        /* \"contracts/voting.sol\":3550:3578  RegisteredVoters[msg.sender] */\n      0xffffffffffffffffffffffffffffffffffffffff\n      and\n      0xffffffffffffffffffffffffffffffffffffffff\n      and\n      dup2\n      mstore\n      0x20\n      add\n      swap1\n      dup2\n      mstore\n      0x20\n      add\n      0x00\n      keccak256\n        /* \"contracts/voting.sol\":3550:3594  RegisteredVoters[msg.sender].votedProposalId */\n      0x01\n      add\n        /* \"contracts/voting.sol\":3550:3608  RegisteredVoters[msg.sender].votedProposalId = proposal_id */\n      dup2\n      swap1\n      sstore\n      pop\n        /* \"contracts/voting.sol\":3654:3658  true */\n      0x01\n        /* \"contracts/voting.sol\":3614:3630  RegisteredVoters */\n      0x03\n        /* \"contracts/voting.sol\":3614:3642  RegisteredVoters[msg.sender] */\n      0x00\n        /* \"contracts/voting.sol\":3631:3641  msg.sender */\n      caller\n        /* \"contracts/voting.sol\":3614:3642  RegisteredVoters[msg.sender] */\n      0xffffffffffffffffffffffffffffffffffffffff\n      and\n      0xffffffffffffffffffffffffffffffffffffffff\n      and\n      dup2\n      mstore\n      0x20\n      add\n      swap1\n      dup2\n      mstore\n      0x20\n      add\n      0x00\n      keccak256\n        /* \"contracts/voting.sol\":3614:3651  RegisteredVoters[msg.sender].hasVoted */\n      0x00\n      add\n      0x01\n        /* \"contracts/voting.sol\":3614:3658  RegisteredVoters[msg.sender].hasVoted = true */\n      0x0100\n      exp\n      dup2\n      sload\n      dup2\n      0xff\n      mul\n      not\n      and\n      swap1\n      dup4\n      iszero\n      iszero\n      mul\n      or\n      swap1\n      sstore\n      pop\n        /* \"contracts/voting.sol\":3699:3740  (proposals[proposal_id].voteCount).add(1) */\n      tag_112\n        /* \"contracts/voting.sol\":3738:3739  1 */\n      0x01\n        /* \"contracts/voting.sol\":3700:3709  proposals */\n      0x04\n        /* \"contracts/voting.sol\":3710:3721  proposal_id */\n      dup5\n        /* \"contracts/voting.sol\":3700:3722  proposals[proposal_id] */\n      dup2\n      sload\n      dup2\n      lt\n      tag_113\n      jumpi\n      tag_114\n      tag_115\n      jump\t// in\n    tag_114:\n    tag_113:\n      swap1\n      0x00\n      mstore\n      keccak256(0x00, 0x20)\n      swap1\n      0x02\n      mul\n      add\n        /* \"contracts/voting.sol\":3700:3732  proposals[proposal_id].voteCount */\n      0x01\n      add\n      sload\n        /* \"contracts/voting.sol\":3699:3737  (proposals[proposal_id].voteCount).add */\n      tag_117\n      swap1\n        /* \"contracts/voting.sol\":3699:3740  (proposals[proposal_id].voteCount).add(1) */\n      swap2\n      swap1\n      0xffffffff\n      and\n      jump\t// in\n    tag_112:\n        /* \"contracts/voting.sol\":3663:3672  proposals */\n      0x04\n        /* \"contracts/voting.sol\":3673:3684  proposal_id */\n      dup4\n        /* \"contracts/voting.sol\":3663:3685  proposals[proposal_id] */\n      dup2\n      sload\n      dup2\n      lt\n      tag_118\n      jumpi\n      tag_119\n      tag_115\n      jump\t// in\n    tag_119:\n    tag_118:\n      swap1\n      0x00\n      mstore\n      keccak256(0x00, 0x20)\n      swap1\n      0x02\n      mul\n      add\n        /* \"contracts/voting.sol\":3663:3695  proposals[proposal_id].voteCount */\n      0x01\n      add\n        /* \"contracts/voting.sol\":3663:3740  proposals[proposal_id].voteCount =  (proposals[proposal_id].voteCount).add(1) */\n      dup2\n      swap1\n      sstore\n      pop\n        /* \"contracts/voting.sol\":3758:3789  Voted (msg.sender, proposal_id) */\n      0x4d99b957a2bc29a30ebd96a7be8e68fe50a3c701db28a91436490b7d53870ca4\n        /* \"contracts/voting.sol\":3765:3775  msg.sender */\n      caller\n        /* \"contracts/voting.sol\":3777:3788  proposal_id */\n      dup4\n        /* \"contracts/voting.sol\":3758:3789  Voted (msg.sender, proposal_id) */\n      mload(0x40)\n      tag_121\n      swap3\n      swap2\n      swap1\n      tag_122\n      jump\t// in\n    tag_121:\n      mload(0x40)\n      dup1\n      swap2\n      sub\n      swap1\n      log1\n        /* \"contracts/voting.sol\":3247:3794  function DoingTheVote (uint proposal_id) public inState(WorkflowStatus.VotingSessionStarted)... */\n      pop\n      pop\n      jump\t// out\n        /* \"contracts/voting.sol\":2206:2587  function addProposal(string memory _description) public inState(WorkflowStatus.ProposalsRegistrationStarted)... */\n    tag_37:\n        /* \"contracts/voting.sol\":2270:2313  WorkflowStatus.ProposalsRegistrationStarted */\n      0x01\n        /* \"contracts/voting.sol\":890:911  currentWorkflowStatus */\n      0x06\n      0x00\n      swap1\n      sload\n      swap1\n      0x0100\n      exp\n      swap1\n      div\n      0xff\n      and\n        /* \"contracts/voting.sol\":881:911  state == currentWorkflowStatus */\n      0x05\n      dup2\n      gt\n      iszero\n      tag_124\n      jumpi\n      tag_125\n      tag_101\n      jump\t// in\n    tag_125:\n    tag_124:\n        /* \"contracts/voting.sol\":881:886  state */\n      dup2\n        /* \"contracts/voting.sol\":881:911  state == currentWorkflowStatus */\n      0x05\n      dup2\n      gt\n      iszero\n      tag_126\n      jumpi\n      tag_127\n      tag_101\n      jump\t// in\n    tag_127:\n    tag_126:\n      eq\n        /* \"contracts/voting.sol\":872:912  require (state == currentWorkflowStatus) */\n      tag_128\n      jumpi\n      0x00\n      dup1\n      revert\n    tag_128:\n        /* \"contracts/voting.sol\":2379:2383  true */\n      0x01\n        /* \"contracts/voting.sol\":2335:2383  RegisteredVoters[msg.sender].isRegistred == true */\n      iszero\n      iszero\n        /* \"contracts/voting.sol\":2335:2351  RegisteredVoters */\n      0x03\n        /* \"contracts/voting.sol\":2335:2363  RegisteredVoters[msg.sender] */\n      0x00\n        /* \"contracts/voting.sol\":2352:2362  msg.sender */\n      caller\n        /* \"contracts/voting.sol\":2335:2363  RegisteredVoters[msg.sender] */\n      0xffffffffffffffffffffffffffffffffffffffff\n      and\n      0xffffffffffffffffffffffffffffffffffffffff\n      and\n      dup2\n      mstore\n      0x20\n      add\n      swap1\n      dup2\n      mstore\n      0x20\n      add\n      0x00\n      keccak256\n        /* \"contracts/voting.sol\":2335:2375  RegisteredVoters[msg.sender].isRegistred */\n      0x00\n      add\n      0x00\n      swap1\n      sload\n      swap1\n      0x0100\n      exp\n      swap1\n      div\n      0xff\n      and\n        /* \"contracts/voting.sol\":2335:2383  RegisteredVoters[msg.sender].isRegistred == true */\n      iszero\n      iszero\n      eq\n        /* \"contracts/voting.sol\":2326:2438  require (RegisteredVoters[msg.sender].isRegistred == true, \"You're not registered, you can't submit a proposal\") */\n      tag_130\n      jumpi\n      mload(0x40)\n      0x08c379a000000000000000000000000000000000000000000000000000000000\n      dup2\n      mstore\n      0x04\n      add\n      tag_131\n      swap1\n      tag_132\n      jump\t// in\n    tag_131:\n      mload(0x40)\n      dup1\n      swap2\n      sub\n      swap1\n      revert\n    tag_130:\n        /* \"contracts/voting.sol\":2445:2454  proposals */\n      0x04\n        /* \"contracts/voting.sol\":2460:2485  Proposal(_description, 0) */\n      mload(0x40)\n      dup1\n      0x40\n      add\n      0x40\n      mstore\n      dup1\n        /* \"contracts/voting.sol\":2469:2481  _description */\n      dup5\n        /* \"contracts/voting.sol\":2460:2485  Proposal(_description, 0) */\n      dup2\n      mstore\n      0x20\n      add\n        /* \"contracts/voting.sol\":2483:2484  0 */\n      0x00\n        /* \"contracts/voting.sol\":2460:2485  Proposal(_description, 0) */\n      dup2\n      mstore\n      pop\n        /* \"contracts/voting.sol\":2445:2486  proposals.push(Proposal(_description, 0)) */\n      swap1\n      dup1\n      0x01\n      dup2\n      sload\n      add\n      dup1\n      dup3\n      sstore\n      dup1\n      swap2\n      pop\n      pop\n      0x01\n      swap1\n      sub\n      swap1\n      0x00\n      mstore\n      keccak256(0x00, 0x20)\n      swap1\n      0x02\n      mul\n      add\n      0x00\n      swap1\n      swap2\n      swap1\n      swap2\n      swap1\n      swap2\n      pop\n      0x00\n      dup3\n      add\n      mload\n      dup2\n      0x00\n      add\n      swap1\n      dup2\n      tag_134\n      swap2\n      swap1\n      tag_135\n      jump\t// in\n    tag_134:\n      pop\n      0x20\n      dup3\n      add\n      mload\n      dup2\n      0x01\n      add\n      sstore\n      pop\n      pop\n        /* \"contracts/voting.sol\":2511:2533  countProposalId.add(1) */\n      tag_136\n        /* \"contracts/voting.sol\":2531:2532  1 */\n      0x01\n        /* \"contracts/voting.sol\":2511:2526  countProposalId */\n      sload(0x02)\n        /* \"contracts/voting.sol\":2511:2530  countProposalId.add */\n      tag_117\n      swap1\n        /* \"contracts/voting.sol\":2511:2533  countProposalId.add(1) */\n      swap2\n      swap1\n      0xffffffff\n      and\n      jump\t// in\n    tag_136:\n        /* \"contracts/voting.sol\":2493:2508  countProposalId */\n      0x02\n        /* \"contracts/voting.sol\":2493:2533  countProposalId = countProposalId.add(1) */\n      dup2\n      swap1\n      sstore\n      pop\n        /* \"contracts/voting.sol\":2546:2580  ProposalRegistred(countProposalId) */\n      0x57fd9a443a206aa57d09a57a5778b78d50d0e2003641ec27cd3f767359c97eba\n        /* \"contracts/voting.sol\":2564:2579  countProposalId */\n      sload(0x02)\n        /* \"contracts/voting.sol\":2546:2580  ProposalRegistred(countProposalId) */\n      mload(0x40)\n      tag_137\n      swap2\n      swap1\n      tag_70\n      jump\t// in\n    tag_137:\n      mload(0x40)\n      dup1\n      swap2\n      sub\n      swap1\n      log1\n        /* \"contracts/voting.sol\":2206:2587  function addProposal(string memory _description) public inState(WorkflowStatus.ProposalsRegistrationStarted)... */\n      pop\n      pop\n      jump\t// out\n        /* \"contracts/voting.sol\":4092:4436  function tallyVotes() public inState(WorkflowStatus.VotingSessionEnded) onlyOwner ... */\n    tag_39:\n        /* \"contracts/voting.sol\":4129:4162  WorkflowStatus.VotingSessionEnded */\n      0x04\n        /* \"contracts/voting.sol\":890:911  currentWorkflowStatus */\n      0x06\n      0x00\n      swap1\n      sload\n      swap1\n      0x0100\n      exp\n      swap1\n      div\n      0xff\n      and\n        /* \"contracts/voting.sol\":881:911  state == currentWorkflowStatus */\n      0x05\n      dup2\n      gt\n      iszero\n      tag_139\n      jumpi\n      tag_140\n      tag_101\n      jump\t// in\n    tag_140:\n    tag_139:\n        /* \"contracts/voting.sol\":881:886  state */\n      dup2\n        /* \"contracts/voting.sol\":881:911  state == currentWorkflowStatus */\n      0x05\n      dup2\n      gt\n      iszero\n      tag_141\n      jumpi\n      tag_142\n      tag_101\n      jump\t// in\n    tag_142:\n    tag_141:\n      eq\n        /* \"contracts/voting.sol\":872:912  require (state == currentWorkflowStatus) */\n      tag_143\n      jumpi\n      0x00\n      dup1\n      revert\n    tag_143:\n        /* \"@openzeppelin/contracts/access/Ownable.sol\":1259:1271  _msgSender() */\n      tag_145\n        /* \"@openzeppelin/contracts/access/Ownable.sol\":1259:1269  _msgSender */\n      tag_146\n        /* \"@openzeppelin/contracts/access/Ownable.sol\":1259:1271  _msgSender() */\n      jump\t// in\n    tag_145:\n        /* \"@openzeppelin/contracts/access/Ownable.sol\":1248:1271  owner() == _msgSender() */\n      0xffffffffffffffffffffffffffffffffffffffff\n      and\n        /* \"@openzeppelin/contracts/access/Ownable.sol\":1248:1255  owner() */\n      tag_147\n        /* \"@openzeppelin/contracts/access/Ownable.sol\":1248:1253  owner */\n      tag_57\n        /* \"@openzeppelin/contracts/access/Ownable.sol\":1248:1255  owner() */\n      jump\t// in\n    tag_147:\n        /* \"@openzeppelin/contracts/access/Ownable.sol\":1248:1271  owner() == _msgSender() */\n      0xffffffffffffffffffffffffffffffffffffffff\n      and\n      eq\n        /* \"@openzeppelin/contracts/access/Ownable.sol\":1240:1308  require(owner() == _msgSender(), \"Ownable: caller is not the owner\") */\n      tag_148\n      jumpi\n      mload(0x40)\n      0x08c379a000000000000000000000000000000000000000000000000000000000\n      dup2\n      mstore\n      0x04\n      add\n      tag_149\n      swap1\n      tag_150\n      jump\t// in\n    tag_149:\n      mload(0x40)\n      dup1\n      swap2\n      sub\n      swap1\n      revert\n    tag_148:\n        /* \"contracts/voting.sol\":4182:4203  uint winningVoteCount */\n      0x00\n        /* \"contracts/voting.sol\":4218:4224  uint i */\n      dup1\n        /* \"contracts/voting.sol\":4213:4421  for (uint i=0; i <proposals.length; i++) {... */\n    tag_152:\n        /* \"contracts/voting.sol\":4231:4240  proposals */\n      0x04\n        /* \"contracts/voting.sol\":4231:4247  proposals.length */\n      dup1\n      sload\n      swap1\n      pop\n        /* \"contracts/voting.sol\":4228:4229  i */\n      dup2\n        /* \"contracts/voting.sol\":4228:4247  i <proposals.length */\n      lt\n        /* \"contracts/voting.sol\":4213:4421  for (uint i=0; i <proposals.length; i++) {... */\n      iszero\n      tag_153\n      jumpi\n        /* \"contracts/voting.sol\":4289:4305  winningVoteCount */\n      dup2\n        /* \"contracts/voting.sol\":4264:4273  proposals */\n      0x04\n        /* \"contracts/voting.sol\":4274:4275  i */\n      dup3\n        /* \"contracts/voting.sol\":4264:4276  proposals[i] */\n      dup2\n      sload\n      dup2\n      lt\n      tag_155\n      jumpi\n      tag_156\n      tag_115\n      jump\t// in\n    tag_156:\n    tag_155:\n      swap1\n      0x00\n      mstore\n      keccak256(0x00, 0x20)\n      swap1\n      0x02\n      mul\n      add\n        /* \"contracts/voting.sol\":4264:4286  proposals[i].voteCount */\n      0x01\n      add\n      sload\n        /* \"contracts/voting.sol\":4264:4305  proposals[i].voteCount > winningVoteCount */\n      gt\n        /* \"contracts/voting.sol\":4260:4416  if (proposals[i].voteCount > winningVoteCount) {... */\n      iszero\n      tag_158\n      jumpi\n        /* \"contracts/voting.sol\":4333:4342  proposals */\n      0x04\n        /* \"contracts/voting.sol\":4343:4344  i */\n      dup2\n        /* \"contracts/voting.sol\":4333:4345  proposals[i] */\n      dup2\n      sload\n      dup2\n      lt\n      tag_159\n      jumpi\n      tag_160\n      tag_115\n      jump\t// in\n    tag_160:\n    tag_159:\n      swap1\n      0x00\n      mstore\n      keccak256(0x00, 0x20)\n      swap1\n      0x02\n      mul\n      add\n        /* \"contracts/voting.sol\":4333:4355  proposals[i].voteCount */\n      0x01\n      add\n      sload\n        /* \"contracts/voting.sol\":4314:4355  winningVoteCount = proposals[i].voteCount */\n      swap2\n      pop\n        /* \"contracts/voting.sol\":4382:4383  i */\n      dup1\n        /* \"contracts/voting.sol\":4362:4379  winningProposalId */\n      0x01\n        /* \"contracts/voting.sol\":4362:4383  winningProposalId = i */\n      dup2\n      swap1\n      sstore\n      pop\n        /* \"contracts/voting.sol\":4260:4416  if (proposals[i].voteCount > winningVoteCount) {... */\n    tag_158:\n        /* \"contracts/voting.sol\":4249:4252  i++ */\n      dup1\n      dup1\n      tag_162\n      swap1\n      tag_163\n      jump\t// in\n    tag_162:\n      swap2\n      pop\n      pop\n        /* \"contracts/voting.sol\":4213:4421  for (uint i=0; i <proposals.length; i++) {... */\n      jump(tag_152)\n    tag_153:\n      pop\n        /* \"contracts/voting.sol\":4177:4436  {... */\n      pop\n        /* \"contracts/voting.sol\":4092:4436  function tallyVotes() public inState(WorkflowStatus.VotingSessionEnded) onlyOwner ... */\n      pop\n      jump\t// out\n        /* \"contracts/voting.sol\":2939:3241  function startVote() public onlyOwner inState(WorkflowStatus.ProposalsRegistrationEnded)... */\n    tag_41:\n        /* \"@openzeppelin/contracts/access/Ownable.sol\":1259:1271  _msgSender() */\n      tag_165\n        /* \"@openzeppelin/contracts/access/Ownable.sol\":1259:1269  _msgSender */\n      tag_146\n        /* \"@openzeppelin/contracts/access/Ownable.sol\":1259:1271  _msgSender() */\n      jump\t// in\n    tag_165:\n        /* \"@openzeppelin/contracts/access/Ownable.sol\":1248:1271  owner() == _msgSender() */\n      0xffffffffffffffffffffffffffffffffffffffff\n      and\n        /* \"@openzeppelin/contracts/access/Ownable.sol\":1248:1255  owner() */\n      tag_166\n        /* \"@openzeppelin/contracts/access/Ownable.sol\":1248:1253  owner */\n      tag_57\n        /* \"@openzeppelin/contracts/access/Ownable.sol\":1248:1255  owner() */\n      jump\t// in\n    tag_166:\n        /* \"@openzeppelin/contracts/access/Ownable.sol\":1248:1271  owner() == _msgSender() */\n      0xffffffffffffffffffffffffffffffffffffffff\n      and\n      eq\n        /* \"@openzeppelin/contracts/access/Ownable.sol\":1240:1308  require(owner() == _msgSender(), \"Ownable: caller is not the owner\") */\n      tag_167\n      jumpi\n      mload(0x40)\n      0x08c379a000000000000000000000000000000000000000000000000000000000\n      dup2\n      mstore\n      0x04\n      add\n      tag_168\n      swap1\n      tag_150\n      jump\t// in\n    tag_168:\n      mload(0x40)\n      dup1\n      swap2\n      sub\n      swap1\n      revert\n    tag_167:\n        /* \"contracts/voting.sol\":2985:3026  WorkflowStatus.ProposalsRegistrationEnded */\n      0x02\n        /* \"contracts/voting.sol\":890:911  currentWorkflowStatus */\n      0x06\n      0x00\n      swap1\n      sload\n      swap1\n      0x0100\n      exp\n      swap1\n      div\n      0xff\n      and\n        /* \"contracts/voting.sol\":881:911  state == currentWorkflowStatus */\n      0x05\n      dup2\n      gt\n      iszero\n      tag_170\n      jumpi\n      tag_171\n      tag_101\n      jump\t// in\n    tag_171:\n    tag_170:\n        /* \"contracts/voting.sol\":881:886  state */\n      dup2\n        /* \"contracts/voting.sol\":881:911  state == currentWorkflowStatus */\n      0x05\n      dup2\n      gt\n      iszero\n      tag_172\n      jumpi\n      tag_173\n      tag_101\n      jump\t// in\n    tag_173:\n    tag_172:\n      eq\n        /* \"contracts/voting.sol\":872:912  require (state == currentWorkflowStatus) */\n      tag_174\n      jumpi\n      0x00\n      dup1\n      revert\n    tag_174:\n        /* \"contracts/voting.sol\":3059:3094  WorkflowStatus.VotingSessionStarted */\n      0x03\n        /* \"contracts/voting.sol\":3035:3056  currentWorkflowStatus */\n      0x06\n      0x00\n        /* \"contracts/voting.sol\":3035:3094  currentWorkflowStatus = WorkflowStatus.VotingSessionStarted */\n      0x0100\n      exp\n      dup2\n      sload\n      dup2\n      0xff\n      mul\n      not\n      and\n      swap1\n      dup4\n      0x05\n      dup2\n      gt\n      iszero\n      tag_176\n      jumpi\n      tag_177\n      tag_101\n      jump\t// in\n    tag_177:\n    tag_176:\n      mul\n      or\n      swap1\n      sstore\n      pop\n        /* \"contracts/voting.sol\":3104:3126  VotingSessionStarted() */\n      0x1b8e19a458c1bcd88553332c518cc5c4e2d5793e712ee766d4f1c14f672ef1f5\n      mload(0x40)\n      mload(0x40)\n      dup1\n      swap2\n      sub\n      swap1\n      log1\n        /* \"contracts/voting.sol\":3136:3236  WorkflowStatusChange(WorkflowStatus.ProposalsRegistrationEnded, WorkflowStatus.VotingSessionStarted) */\n      0x0a97a4ee45751e2abf3e4fc8946939630b11b371ea8ae39ccdc3056e98f5cc3f\n        /* \"contracts/voting.sol\":3157:3198  WorkflowStatus.ProposalsRegistrationEnded */\n      0x02\n        /* \"contracts/voting.sol\":3200:3235  WorkflowStatus.VotingSessionStarted */\n      0x03\n        /* \"contracts/voting.sol\":3136:3236  WorkflowStatusChange(WorkflowStatus.ProposalsRegistrationEnded, WorkflowStatus.VotingSessionStarted) */\n      mload(0x40)\n      tag_178\n      swap3\n      swap2\n      swap1\n      tag_179\n      jump\t// in\n    tag_178:\n      mload(0x40)\n      dup1\n      swap2\n      sub\n      swap1\n      log1\n        /* \"@openzeppelin/contracts/access/Ownable.sol\":1318:1319  _ */\n      pop\n        /* \"contracts/voting.sol\":2939:3241  function startVote() public onlyOwner inState(WorkflowStatus.ProposalsRegistrationEnded)... */\n      jump\t// out\n        /* \"contracts/voting.sol\":1329:1424  function getProposals() public view returns(Proposal[] memory){... */\n    tag_43:\n        /* \"contracts/voting.sol\":1373:1390  Proposal[] memory */\n      0x60\n        /* \"contracts/voting.sol\":1407:1416  proposals */\n      0x04\n        /* \"contracts/voting.sol\":1400:1416  return proposals */\n      dup1\n      sload\n      dup1\n      0x20\n      mul\n      0x20\n      add\n      mload(0x40)\n      swap1\n      dup2\n      add\n      0x40\n      mstore\n      dup1\n      swap3\n      swap2\n      swap1\n      dup2\n      dup2\n      mstore\n      0x20\n      add\n      0x00\n      swap1\n    tag_181:\n      dup3\n      dup3\n      lt\n      iszero\n      tag_182\n      jumpi\n      dup4\n      dup3\n      swap1\n      0x00\n      mstore\n      keccak256(0x00, 0x20)\n      swap1\n      0x02\n      mul\n      add\n      mload(0x40)\n      dup1\n      0x40\n      add\n      0x40\n      mstore\n      swap1\n      dup2\n      0x00\n      dup3\n      add\n      dup1\n      sload\n      tag_184\n      swap1\n      tag_93\n      jump\t// in\n    tag_184:\n      dup1\n      0x1f\n      add\n      0x20\n      dup1\n      swap2\n      div\n      mul\n      0x20\n      add\n      mload(0x40)\n      swap1\n      dup2\n      add\n      0x40\n      mstore\n      dup1\n      swap3\n      swap2\n      swap1\n      dup2\n      dup2\n      mstore\n      0x20\n      add\n      dup3\n      dup1\n      sload\n      tag_185\n      swap1\n      tag_93\n      jump\t// in\n    tag_185:\n      dup1\n      iszero\n      tag_186\n      jumpi\n      dup1\n      0x1f\n      lt\n      tag_187\n      jumpi\n      0x0100\n      dup1\n      dup4\n      sload\n      div\n      mul\n      dup4\n      mstore\n      swap2\n      0x20\n      add\n      swap2\n      jump(tag_186)\n    tag_187:\n      dup3\n      add\n      swap2\n      swap1\n      0x00\n      mstore\n      keccak256(0x00, 0x20)\n      swap1\n    tag_188:\n      dup2\n      sload\n      dup2\n      mstore\n      swap1\n      0x01\n      add\n      swap1\n      0x20\n      add\n      dup1\n      dup4\n      gt\n      tag_188\n      jumpi\n      dup3\n      swap1\n      sub\n      0x1f\n      and\n      dup3\n      add\n      swap2\n    tag_186:\n      pop\n      pop\n      pop\n      pop\n      pop\n      dup2\n      mstore\n      0x20\n      add\n      0x01\n      dup3\n      add\n      sload\n      dup2\n      mstore\n      pop\n      pop\n      dup2\n      mstore\n      0x20\n      add\n      swap1\n      0x01\n      add\n      swap1\n      jump(tag_181)\n    tag_182:\n      pop\n      pop\n      pop\n      pop\n      swap1\n      pop\n        /* \"contracts/voting.sol\":1329:1424  function getProposals() public view returns(Proposal[] memory){... */\n      swap1\n      jump\t// out\n        /* \"contracts/voting.sol\":447:496  mapping(address => Voter) public RegisteredVoters */\n    tag_49:\n      mstore(0x20, 0x03)\n      dup1\n      0x00\n      mstore\n      keccak256(0x00, 0x40)\n      0x00\n      swap2\n      pop\n      swap1\n      pop\n      dup1\n      0x00\n      add\n      0x00\n      swap1\n      sload\n      swap1\n      0x0100\n      exp\n      swap1\n      div\n      0xff\n      and\n      swap1\n      dup1\n      0x00\n      add\n      0x01\n      swap1\n      sload\n      swap1\n      0x0100\n      exp\n      swap1\n      div\n      0xff\n      and\n      swap1\n      dup1\n      0x01\n      add\n      sload\n      swap1\n      pop\n      dup4\n      jump\t// out\n        /* \"@openzeppelin/contracts/access/Ownable.sol\":1668:1769  function renounceOwnership() public virtual onlyOwner {... */\n    tag_53:\n        /* \"@openzeppelin/contracts/access/Ownable.sol\":1259:1271  _msgSender() */\n      tag_190\n        /* \"@openzeppelin/contracts/access/Ownable.sol\":1259:1269  _msgSender */\n      tag_146\n        /* \"@openzeppelin/contracts/access/Ownable.sol\":1259:1271  _msgSender() */\n      jump\t// in\n    tag_190:\n        /* \"@openzeppelin/contracts/access/Ownable.sol\":1248:1271  owner() == _msgSender() */\n      0xffffffffffffffffffffffffffffffffffffffff\n      and\n        /* \"@openzeppelin/contracts/access/Ownable.sol\":1248:1255  owner() */\n      tag_191\n        /* \"@openzeppelin/contracts/access/Ownable.sol\":1248:1253  owner */\n      tag_57\n        /* \"@openzeppelin/contracts/access/Ownable.sol\":1248:1255  owner() */\n      jump\t// in\n    tag_191:\n        /* \"@openzeppelin/contracts/access/Ownable.sol\":1248:1271  owner() == _msgSender() */\n      0xffffffffffffffffffffffffffffffffffffffff\n      and\n      eq\n        /* \"@openzeppelin/contracts/access/Ownable.sol\":1240:1308  require(owner() == _msgSender(), \"Ownable: caller is not the owner\") */\n      tag_192\n      jumpi\n      mload(0x40)\n      0x08c379a000000000000000000000000000000000000000000000000000000000\n      dup2\n      mstore\n      0x04\n      add\n      tag_193\n      swap1\n      tag_150\n      jump\t// in\n    tag_193:\n      mload(0x40)\n      dup1\n      swap2\n      sub\n      swap1\n      revert\n    tag_192:\n        /* \"@openzeppelin/contracts/access/Ownable.sol\":1732:1762  _transferOwnership(address(0)) */\n      tag_195\n        /* \"@openzeppelin/contracts/access/Ownable.sol\":1759:1760  0 */\n      0x00\n        /* \"@openzeppelin/contracts/access/Ownable.sol\":1732:1750  _transferOwnership */\n      tag_196\n        /* \"@openzeppelin/contracts/access/Ownable.sol\":1732:1762  _transferOwnership(address(0)) */\n      jump\t// in\n    tag_195:\n        /* \"@openzeppelin/contracts/access/Ownable.sol\":1668:1769  function renounceOwnership() public virtual onlyOwner {... */\n      jump\t// out\n        /* \"contracts/voting.sol\":2593:2932  function endOfRegisteringProposal() public onlyOwner inState(WorkflowStatus.ProposalsRegistrationStarted)... */\n    tag_55:\n        /* \"@openzeppelin/contracts/access/Ownable.sol\":1259:1271  _msgSender() */\n      tag_198\n        /* \"@openzeppelin/contracts/access/Ownable.sol\":1259:1269  _msgSender */\n      tag_146\n        /* \"@openzeppelin/contracts/access/Ownable.sol\":1259:1271  _msgSender() */\n      jump\t// in\n    tag_198:\n        /* \"@openzeppelin/contracts/access/Ownable.sol\":1248:1271  owner() == _msgSender() */\n      0xffffffffffffffffffffffffffffffffffffffff\n      and\n        /* \"@openzeppelin/contracts/access/Ownable.sol\":1248:1255  owner() */\n      tag_199\n        /* \"@openzeppelin/contracts/access/Ownable.sol\":1248:1253  owner */\n      tag_57\n        /* \"@openzeppelin/contracts/access/Ownable.sol\":1248:1255  owner() */\n      jump\t// in\n    tag_199:\n        /* \"@openzeppelin/contracts/access/Ownable.sol\":1248:1271  owner() == _msgSender() */\n      0xffffffffffffffffffffffffffffffffffffffff\n      and\n      eq\n        /* \"@openzeppelin/contracts/access/Ownable.sol\":1240:1308  require(owner() == _msgSender(), \"Ownable: caller is not the owner\") */\n      tag_200\n      jumpi\n      mload(0x40)\n      0x08c379a000000000000000000000000000000000000000000000000000000000\n      dup2\n      mstore\n      0x04\n      add\n      tag_201\n      swap1\n      tag_150\n      jump\t// in\n    tag_201:\n      mload(0x40)\n      dup1\n      swap2\n      sub\n      swap1\n      revert\n    tag_200:\n        /* \"contracts/voting.sol\":2654:2697  WorkflowStatus.ProposalsRegistrationStarted */\n      0x01\n        /* \"contracts/voting.sol\":890:911  currentWorkflowStatus */\n      0x06\n      0x00\n      swap1\n      sload\n      swap1\n      0x0100\n      exp\n      swap1\n      div\n      0xff\n      and\n        /* \"contracts/voting.sol\":881:911  state == currentWorkflowStatus */\n      0x05\n      dup2\n      gt\n      iszero\n      tag_203\n      jumpi\n      tag_204\n      tag_101\n      jump\t// in\n    tag_204:\n    tag_203:\n        /* \"contracts/voting.sol\":881:886  state */\n      dup2\n        /* \"contracts/voting.sol\":881:911  state == currentWorkflowStatus */\n      0x05\n      dup2\n      gt\n      iszero\n      tag_205\n      jumpi\n      tag_206\n      tag_101\n      jump\t// in\n    tag_206:\n    tag_205:\n      eq\n        /* \"contracts/voting.sol\":872:912  require (state == currentWorkflowStatus) */\n      tag_207\n      jumpi\n      0x00\n      dup1\n      revert\n    tag_207:\n        /* \"contracts/voting.sol\":2730:2771  WorkflowStatus.ProposalsRegistrationEnded */\n      0x02\n        /* \"contracts/voting.sol\":2706:2727  currentWorkflowStatus */\n      0x06\n      0x00\n        /* \"contracts/voting.sol\":2706:2771  currentWorkflowStatus = WorkflowStatus.ProposalsRegistrationEnded */\n      0x0100\n      exp\n      dup2\n      sload\n      dup2\n      0xff\n      mul\n      not\n      and\n      swap1\n      dup4\n      0x05\n      dup2\n      gt\n      iszero\n      tag_209\n      jumpi\n      tag_210\n      tag_101\n      jump\t// in\n    tag_210:\n    tag_209:\n      mul\n      or\n      swap1\n      sstore\n      pop\n        /* \"contracts/voting.sol\":2781:2809  ProposalsRegistrationEnded() */\n      0x240cb87b2e4df4c318e72bd714d45a9cad60249e883ff56b1fffd83a4595a8fa\n      mload(0x40)\n      mload(0x40)\n      dup1\n      swap2\n      sub\n      swap1\n      log1\n        /* \"contracts/voting.sol\":2819:2927  WorkflowStatusChange(WorkflowStatus.ProposalsRegistrationStarted, WorkflowStatus.ProposalsRegistrationEnded) */\n      0x0a97a4ee45751e2abf3e4fc8946939630b11b371ea8ae39ccdc3056e98f5cc3f\n        /* \"contracts/voting.sol\":2840:2883  WorkflowStatus.ProposalsRegistrationStarted */\n      0x01\n        /* \"contracts/voting.sol\":2885:2926  WorkflowStatus.ProposalsRegistrationEnded */\n      0x02\n        /* \"contracts/voting.sol\":2819:2927  WorkflowStatusChange(WorkflowStatus.ProposalsRegistrationStarted, WorkflowStatus.ProposalsRegistrationEnded) */\n      mload(0x40)\n      tag_211\n      swap3\n      swap2\n      swap1\n      tag_179\n      jump\t// in\n    tag_211:\n      mload(0x40)\n      dup1\n      swap2\n      sub\n      swap1\n      log1\n        /* \"@openzeppelin/contracts/access/Ownable.sol\":1318:1319  _ */\n      pop\n        /* \"contracts/voting.sol\":2593:2932  function endOfRegisteringProposal() public onlyOwner inState(WorkflowStatus.ProposalsRegistrationStarted)... */\n      jump\t// out\n        /* \"@openzeppelin/contracts/access/Ownable.sol\":1036:1121  function owner() public view virtual returns (address) {... */\n    tag_57:\n        /* \"@openzeppelin/contracts/access/Ownable.sol\":1082:1089  address */\n      0x00\n        /* \"@openzeppelin/contracts/access/Ownable.sol\":1108:1114  _owner */\n      dup1\n      0x00\n      swap1\n      sload\n      swap1\n      0x0100\n      exp\n      swap1\n      div\n      0xffffffffffffffffffffffffffffffffffffffff\n      and\n        /* \"@openzeppelin/contracts/access/Ownable.sol\":1101:1114  return _owner */\n      swap1\n      pop\n        /* \"@openzeppelin/contracts/access/Ownable.sol\":1036:1121  function owner() public view virtual returns (address) {... */\n      swap1\n      jump\t// out\n        /* \"contracts/voting.sol\":1523:1866  function addVoterToList(address _address) public onlyOwner inState(WorkflowStatus.RegisteringVoters)... */\n    tag_62:\n        /* \"@openzeppelin/contracts/access/Ownable.sol\":1259:1271  _msgSender() */\n      tag_214\n        /* \"@openzeppelin/contracts/access/Ownable.sol\":1259:1269  _msgSender */\n      tag_146\n        /* \"@openzeppelin/contracts/access/Ownable.sol\":1259:1271  _msgSender() */\n      jump\t// in\n    tag_214:\n        /* \"@openzeppelin/contracts/access/Ownable.sol\":1248:1271  owner() == _msgSender() */\n      0xffffffffffffffffffffffffffffffffffffffff\n      and\n        /* \"@openzeppelin/contracts/access/Ownable.sol\":1248:1255  owner() */\n      tag_215\n        /* \"@openzeppelin/contracts/access/Ownable.sol\":1248:1253  owner */\n      tag_57\n        /* \"@openzeppelin/contracts/access/Ownable.sol\":1248:1255  owner() */\n      jump\t// in\n    tag_215:\n        /* \"@openzeppelin/contracts/access/Ownable.sol\":1248:1271  owner() == _msgSender() */\n      0xffffffffffffffffffffffffffffffffffffffff\n      and\n      eq\n        /* \"@openzeppelin/contracts/access/Ownable.sol\":1240:1308  require(owner() == _msgSender(), \"Ownable: caller is not the owner\") */\n      tag_216\n      jumpi\n      mload(0x40)\n      0x08c379a000000000000000000000000000000000000000000000000000000000\n      dup2\n      mstore\n      0x04\n      add\n      tag_217\n      swap1\n      tag_150\n      jump\t// in\n    tag_217:\n      mload(0x40)\n      dup1\n      swap2\n      sub\n      swap1\n      revert\n    tag_216:\n        /* \"contracts/voting.sol\":1590:1622  WorkflowStatus.RegisteringVoters */\n      0x00\n        /* \"contracts/voting.sol\":890:911  currentWorkflowStatus */\n      0x06\n      0x00\n      swap1\n      sload\n      swap1\n      0x0100\n      exp\n      swap1\n      div\n      0xff\n      and\n        /* \"contracts/voting.sol\":881:911  state == currentWorkflowStatus */\n      0x05\n      dup2\n      gt\n      iszero\n      tag_219\n      jumpi\n      tag_220\n      tag_101\n      jump\t// in\n    tag_220:\n    tag_219:\n        /* \"contracts/voting.sol\":881:886  state */\n      dup2\n        /* \"contracts/voting.sol\":881:911  state == currentWorkflowStatus */\n      0x05\n      dup2\n      gt\n      iszero\n      tag_221\n      jumpi\n      tag_222\n      tag_101\n      jump\t// in\n    tag_222:\n    tag_221:\n      eq\n        /* \"contracts/voting.sol\":872:912  require (state == currentWorkflowStatus) */\n      tag_223\n      jumpi\n      0x00\n      dup1\n      revert\n    tag_223:\n        /* \"contracts/voting.sol\":1687:1691  true */\n      0x01\n        /* \"contracts/voting.sol\":1645:1691  RegisteredVoters[_address].isRegistred != true */\n      iszero\n      iszero\n        /* \"contracts/voting.sol\":1645:1661  RegisteredVoters */\n      0x03\n        /* \"contracts/voting.sol\":1645:1671  RegisteredVoters[_address] */\n      0x00\n        /* \"contracts/voting.sol\":1662:1670  _address */\n      dup5\n        /* \"contracts/voting.sol\":1645:1671  RegisteredVoters[_address] */\n      0xffffffffffffffffffffffffffffffffffffffff\n      and\n      0xffffffffffffffffffffffffffffffffffffffff\n      and\n      dup2\n      mstore\n      0x20\n      add\n      swap1\n      dup2\n      mstore\n      0x20\n      add\n      0x00\n      keccak256\n        /* \"contracts/voting.sol\":1645:1683  RegisteredVoters[_address].isRegistred */\n      0x00\n      add\n      0x00\n      swap1\n      sload\n      swap1\n      0x0100\n      exp\n      swap1\n      div\n      0xff\n      and\n        /* \"contracts/voting.sol\":1645:1691  RegisteredVoters[_address].isRegistred != true */\n      iszero\n      iszero\n      sub\n        /* \"contracts/voting.sol\":1637:1731  require(RegisteredVoters[_address].isRegistred != true, \"This address is already registred !\") */\n      tag_225\n      jumpi\n      mload(0x40)\n      0x08c379a000000000000000000000000000000000000000000000000000000000\n      dup2\n      mstore\n      0x04\n      add\n      tag_226\n      swap1\n      tag_227\n      jump\t// in\n    tag_226:\n      mload(0x40)\n      dup1\n      swap2\n      sub\n      swap1\n      revert\n    tag_225:\n        /* \"contracts/voting.sol\":1769:1790  Voter(true, false, 0) */\n      mload(0x40)\n      dup1\n      0x60\n      add\n      0x40\n      mstore\n      dup1\n        /* \"contracts/voting.sol\":1775:1779  true */\n      0x01\n        /* \"contracts/voting.sol\":1769:1790  Voter(true, false, 0) */\n      iszero\n      iszero\n      dup2\n      mstore\n      0x20\n      add\n        /* \"contracts/voting.sol\":1781:1786  false */\n      0x00\n        /* \"contracts/voting.sol\":1769:1790  Voter(true, false, 0) */\n      iszero\n      iszero\n      dup2\n      mstore\n      0x20\n      add\n        /* \"contracts/voting.sol\":1788:1789  0 */\n      0x00\n        /* \"contracts/voting.sol\":1769:1790  Voter(true, false, 0) */\n      dup2\n      mstore\n      pop\n        /* \"contracts/voting.sol\":1740:1756  RegisteredVoters */\n      0x03\n        /* \"contracts/voting.sol\":1740:1766  RegisteredVoters[_address] */\n      0x00\n        /* \"contracts/voting.sol\":1757:1765  _address */\n      dup5\n        /* \"contracts/voting.sol\":1740:1766  RegisteredVoters[_address] */\n      0xffffffffffffffffffffffffffffffffffffffff\n      and\n      0xffffffffffffffffffffffffffffffffffffffff\n      and\n      dup2\n      mstore\n      0x20\n      add\n      swap1\n      dup2\n      mstore\n      0x20\n      add\n      0x00\n      keccak256\n        /* \"contracts/voting.sol\":1740:1790  RegisteredVoters[_address] = Voter(true, false, 0) */\n      0x00\n      dup3\n      add\n      mload\n      dup2\n      0x00\n      add\n      exp(0x0100, 0x00)\n      dup2\n      sload\n      dup2\n      0xff\n      mul\n      not\n      and\n      swap1\n      dup4\n      iszero\n      iszero\n      mul\n      or\n      swap1\n      sstore\n      pop\n      0x20\n      dup3\n      add\n      mload\n      dup2\n      0x00\n      add\n      exp(0x0100, 0x01)\n      dup2\n      sload\n      dup2\n      0xff\n      mul\n      not\n      and\n      swap1\n      dup4\n      iszero\n      iszero\n      mul\n      or\n      swap1\n      sstore\n      pop\n      0x40\n      dup3\n      add\n      mload\n      dup2\n      0x01\n      add\n      sstore\n      swap1\n      pop\n      pop\n        /* \"contracts/voting.sol\":1797:1806  addresses */\n      0x05\n        /* \"contracts/voting.sol\":1812:1820  _address */\n      dup3\n        /* \"contracts/voting.sol\":1797:1821  addresses.push(_address) */\n      swap1\n      dup1\n      0x01\n      dup2\n      sload\n      add\n      dup1\n      dup3\n      sstore\n      dup1\n      swap2\n      pop\n      pop\n      0x01\n      swap1\n      sub\n      swap1\n      0x00\n      mstore\n      keccak256(0x00, 0x20)\n      add\n      0x00\n      swap1\n      swap2\n      swap1\n      swap2\n      swap1\n      swap2\n      0x0100\n      exp\n      dup2\n      sload\n      dup2\n      0xffffffffffffffffffffffffffffffffffffffff\n      mul\n      not\n      and\n      swap1\n      dup4\n      0xffffffffffffffffffffffffffffffffffffffff\n      and\n      mul\n      or\n      swap1\n      sstore\n      pop\n        /* \"contracts/voting.sol\":1835:1861  VoterRegistrered(_address) */\n      0x9358bb242636b892ffeabcf2266d52aae96f1fc29d6157ad1225e89e858baa69\n        /* \"contracts/voting.sol\":1852:1860  _address */\n      dup3\n        /* \"contracts/voting.sol\":1835:1861  VoterRegistrered(_address) */\n      mload(0x40)\n      tag_229\n      swap2\n      swap1\n      tag_59\n      jump\t// in\n    tag_229:\n      mload(0x40)\n      dup1\n      swap2\n      sub\n      swap1\n      log1\n        /* \"@openzeppelin/contracts/access/Ownable.sol\":1318:1319  _ */\n      pop\n        /* \"contracts/voting.sol\":1523:1866  function addVoterToList(address _address) public onlyOwner inState(WorkflowStatus.RegisteringVoters)... */\n      pop\n      jump\t// out\n        /* \"contracts/voting.sol\":1430:1517  function getAddresses() public view returns(address[] memory){... */\n    tag_64:\n        /* \"contracts/voting.sol\":1474:1490  address[] memory */\n      0x60\n        /* \"contracts/voting.sol\":1503:1512  addresses */\n      0x05\n        /* \"contracts/voting.sol\":1496:1512  return addresses */\n      dup1\n      sload\n      dup1\n      0x20\n      mul\n      0x20\n      add\n      mload(0x40)\n      swap1\n      dup2\n      add\n      0x40\n      mstore\n      dup1\n      swap3\n      swap2\n      swap1\n      dup2\n      dup2\n      mstore\n      0x20\n      add\n      dup3\n      dup1\n      sload\n      dup1\n      iszero\n      tag_231\n      jumpi\n      0x20\n      mul\n      dup3\n      add\n      swap2\n      swap1\n      0x00\n      mstore\n      keccak256(0x00, 0x20)\n      swap1\n    tag_232:\n      dup2\n      0x00\n      swap1\n      sload\n      swap1\n      0x0100\n      exp\n      swap1\n      div\n      0xffffffffffffffffffffffffffffffffffffffff\n      and\n      0xffffffffffffffffffffffffffffffffffffffff\n      and\n      dup2\n      mstore\n      0x20\n      add\n      swap1\n      0x01\n      add\n      swap1\n      dup1\n      dup4\n      gt\n      tag_232\n      jumpi\n    tag_231:\n      pop\n      pop\n      pop\n      pop\n      pop\n      swap1\n      pop\n        /* \"contracts/voting.sol\":1430:1517  function getAddresses() public view returns(address[] memory){... */\n      swap1\n      jump\t// out\n        /* \"contracts/voting.sol\":4440:4725  function votesTallied() public inState(WorkflowStatus.VotingSessionEnded) onlyOwner returns(uint)... */\n    tag_68:\n        /* \"contracts/voting.sol\":4532:4536  uint */\n      0x00\n        /* \"contracts/voting.sol\":4479:4512  WorkflowStatus.VotingSessionEnded */\n      0x04\n        /* \"contracts/voting.sol\":890:911  currentWorkflowStatus */\n      0x06\n      0x00\n      swap1\n      sload\n      swap1\n      0x0100\n      exp\n      swap1\n      div\n      0xff\n      and\n        /* \"contracts/voting.sol\":881:911  state == currentWorkflowStatus */\n      0x05\n      dup2\n      gt\n      iszero\n      tag_234\n      jumpi\n      tag_235\n      tag_101\n      jump\t// in\n    tag_235:\n    tag_234:\n        /* \"contracts/voting.sol\":881:886  state */\n      dup2\n        /* \"contracts/voting.sol\":881:911  state == currentWorkflowStatus */\n      0x05\n      dup2\n      gt\n      iszero\n      tag_236\n      jumpi\n      tag_237\n      tag_101\n      jump\t// in\n    tag_237:\n    tag_236:\n      eq\n        /* \"contracts/voting.sol\":872:912  require (state == currentWorkflowStatus) */\n      tag_238\n      jumpi\n      0x00\n      dup1\n      revert\n    tag_238:\n        /* \"@openzeppelin/contracts/access/Ownable.sol\":1259:1271  _msgSender() */\n      tag_240\n        /* \"@openzeppelin/contracts/access/Ownable.sol\":1259:1269  _msgSender */\n      tag_146\n        /* \"@openzeppelin/contracts/access/Ownable.sol\":1259:1271  _msgSender() */\n      jump\t// in\n    tag_240:\n        /* \"@openzeppelin/contracts/access/Ownable.sol\":1248:1271  owner() == _msgSender() */\n      0xffffffffffffffffffffffffffffffffffffffff\n      and\n        /* \"@openzeppelin/contracts/access/Ownable.sol\":1248:1255  owner() */\n      tag_241\n        /* \"@openzeppelin/contracts/access/Ownable.sol\":1248:1253  owner */\n      tag_57\n        /* \"@openzeppelin/contracts/access/Ownable.sol\":1248:1255  owner() */\n      jump\t// in\n    tag_241:\n        /* \"@openzeppelin/contracts/access/Ownable.sol\":1248:1271  owner() == _msgSender() */\n      0xffffffffffffffffffffffffffffffffffffffff\n      and\n      eq\n        /* \"@openzeppelin/contracts/access/Ownable.sol\":1240:1308  require(owner() == _msgSender(), \"Ownable: caller is not the owner\") */\n      tag_242\n      jumpi\n      mload(0x40)\n      0x08c379a000000000000000000000000000000000000000000000000000000000\n      dup2\n      mstore\n      0x04\n      add\n      tag_243\n      swap1\n      tag_150\n      jump\t// in\n    tag_243:\n      mload(0x40)\n      dup1\n      swap2\n      sub\n      swap1\n      revert\n    tag_242:\n        /* \"contracts/voting.sol\":4569:4596  WorkflowStatus.VotesTallied */\n      0x05\n        /* \"contracts/voting.sol\":4545:4566  currentWorkflowStatus */\n      0x06\n      0x00\n        /* \"contracts/voting.sol\":4545:4596  currentWorkflowStatus = WorkflowStatus.VotesTallied */\n      0x0100\n      exp\n      dup2\n      sload\n      dup2\n      0xff\n      mul\n      not\n      and\n      swap1\n      dup4\n      0x05\n      dup2\n      gt\n      iszero\n      tag_245\n      jumpi\n      tag_246\n      tag_101\n      jump\t// in\n    tag_246:\n    tag_245:\n      mul\n      or\n      swap1\n      sstore\n      pop\n        /* \"contracts/voting.sol\":4609:4623  VotesTallied() */\n      0x0e5e95ff8725ab3e7a4b6b59998a4c344c2aa8d1485f5e60cb7f337768e61347\n      mload(0x40)\n      mload(0x40)\n      dup1\n      swap2\n      sub\n      swap1\n      log1\n        /* \"contracts/voting.sol\":4636:4720  WorkflowStatusChange(WorkflowStatus.VotingSessionEnded, WorkflowStatus.VotesTallied) */\n      0x0a97a4ee45751e2abf3e4fc8946939630b11b371ea8ae39ccdc3056e98f5cc3f\n        /* \"contracts/voting.sol\":4657:4690  WorkflowStatus.VotingSessionEnded */\n      0x04\n        /* \"contracts/voting.sol\":4692:4719  WorkflowStatus.VotesTallied */\n      0x05\n        /* \"contracts/voting.sol\":4636:4720  WorkflowStatusChange(WorkflowStatus.VotingSessionEnded, WorkflowStatus.VotesTallied) */\n      mload(0x40)\n      tag_247\n      swap3\n      swap2\n      swap1\n      tag_179\n      jump\t// in\n    tag_247:\n      mload(0x40)\n      dup1\n      swap2\n      sub\n      swap1\n      log1\n        /* \"contracts/voting.sol\":4440:4725  function votesTallied() public inState(WorkflowStatus.VotingSessionEnded) onlyOwner returns(uint)... */\n      pop\n      swap1\n      jump\t// out\n        /* \"contracts/voting.sol\":3798:4080  function endVote() public inState(WorkflowStatus.VotingSessionStarted) onlyOwner... */\n    tag_72:\n        /* \"contracts/voting.sol\":3832:3867  WorkflowStatus.VotingSessionStarted */\n      0x03\n        /* \"contracts/voting.sol\":890:911  currentWorkflowStatus */\n      0x06\n      0x00\n      swap1\n      sload\n      swap1\n      0x0100\n      exp\n      swap1\n      div\n      0xff\n      and\n        /* \"contracts/voting.sol\":881:911  state == currentWorkflowStatus */\n      0x05\n      dup2\n      gt\n      iszero\n      tag_249\n      jumpi\n      tag_250\n      tag_101\n      jump\t// in\n    tag_250:\n    tag_249:\n        /* \"contracts/voting.sol\":881:886  state */\n      dup2\n        /* \"contracts/voting.sol\":881:911  state == currentWorkflowStatus */\n      0x05\n      dup2\n      gt\n      iszero\n      tag_251\n      jumpi\n      tag_252\n      tag_101\n      jump\t// in\n    tag_252:\n    tag_251:\n      eq\n        /* \"contracts/voting.sol\":872:912  require (state == currentWorkflowStatus) */\n      tag_253\n      jumpi\n      0x00\n      dup1\n      revert\n    tag_253:\n        /* \"@openzeppelin/contracts/access/Ownable.sol\":1259:1271  _msgSender() */\n      tag_255\n        /* \"@openzeppelin/contracts/access/Ownable.sol\":1259:1269  _msgSender */\n      tag_146\n        /* \"@openzeppelin/contracts/access/Ownable.sol\":1259:1271  _msgSender() */\n      jump\t// in\n    tag_255:\n        /* \"@openzeppelin/contracts/access/Ownable.sol\":1248:1271  owner() == _msgSender() */\n      0xffffffffffffffffffffffffffffffffffffffff\n      and\n        /* \"@openzeppelin/contracts/access/Ownable.sol\":1248:1255  owner() */\n      tag_256\n        /* \"@openzeppelin/contracts/access/Ownable.sol\":1248:1253  owner */\n      tag_57\n        /* \"@openzeppelin/contracts/access/Ownable.sol\":1248:1255  owner() */\n      jump\t// in\n    tag_256:\n        /* \"@openzeppelin/contracts/access/Ownable.sol\":1248:1271  owner() == _msgSender() */\n      0xffffffffffffffffffffffffffffffffffffffff\n      and\n      eq\n        /* \"@openzeppelin/contracts/access/Ownable.sol\":1240:1308  require(owner() == _msgSender(), \"Ownable: caller is not the owner\") */\n      tag_257\n      jumpi\n      mload(0x40)\n      0x08c379a000000000000000000000000000000000000000000000000000000000\n      dup2\n      mstore\n      0x04\n      add\n      tag_258\n      swap1\n      tag_150\n      jump\t// in\n    tag_258:\n      mload(0x40)\n      dup1\n      swap2\n      sub\n      swap1\n      revert\n    tag_257:\n        /* \"contracts/voting.sol\":3910:3943  WorkflowStatus.VotingSessionEnded */\n      0x04\n        /* \"contracts/voting.sol\":3886:3907  currentWorkflowStatus */\n      0x06\n      0x00\n        /* \"contracts/voting.sol\":3886:3943  currentWorkflowStatus = WorkflowStatus.VotingSessionEnded */\n      0x0100\n      exp\n      dup2\n      sload\n      dup2\n      0xff\n      mul\n      not\n      and\n      swap1\n      dup4\n      0x05\n      dup2\n      gt\n      iszero\n      tag_260\n      jumpi\n      tag_261\n      tag_101\n      jump\t// in\n    tag_261:\n    tag_260:\n      mul\n      or\n      swap1\n      sstore\n      pop\n        /* \"contracts/voting.sol\":3953:3973  VotingSessionEnded() */\n      0xc379d349a6301baf50fb2f98d829f4ae10b1cdb7c66f4e4d8117302df7b8cd4c\n      mload(0x40)\n      mload(0x40)\n      dup1\n      swap2\n      sub\n      swap1\n      log1\n        /* \"contracts/voting.sol\":3983:4075  WorkflowStatusChange(WorkflowStatus.VotingSessionStarted, WorkflowStatus.VotingSessionEnded) */\n      0x0a97a4ee45751e2abf3e4fc8946939630b11b371ea8ae39ccdc3056e98f5cc3f\n        /* \"contracts/voting.sol\":4004:4039  WorkflowStatus.VotingSessionStarted */\n      0x03\n        /* \"contracts/voting.sol\":4041:4074  WorkflowStatus.VotingSessionEnded */\n      0x04\n        /* \"contracts/voting.sol\":3983:4075  WorkflowStatusChange(WorkflowStatus.VotingSessionStarted, WorkflowStatus.VotingSessionEnded) */\n      mload(0x40)\n      tag_262\n      swap3\n      swap2\n      swap1\n      tag_179\n      jump\t// in\n    tag_262:\n      mload(0x40)\n      dup1\n      swap2\n      sub\n      swap1\n      log1\n        /* \"contracts/voting.sol\":3798:4080  function endVote() public inState(WorkflowStatus.VotingSessionStarted) onlyOwner... */\n      pop\n      jump\t// out\n        /* \"contracts/voting.sol\":4735:4932  function LookAtTheWinningProposal() public view returns (string memory proposalName)... */\n    tag_74:\n        /* \"contracts/voting.sol\":4792:4818  string memory proposalName */\n      0x60\n        /* \"contracts/voting.sol\":4851:4860  proposals */\n      0x04\n        /* \"contracts/voting.sol\":4861:4878  winningProposalId */\n      sload(0x01)\n        /* \"contracts/voting.sol\":4851:4879  proposals[winningProposalId] */\n      dup2\n      sload\n      dup2\n      lt\n      tag_264\n      jumpi\n      tag_265\n      tag_115\n      jump\t// in\n    tag_265:\n    tag_264:\n      swap1\n      0x00\n      mstore\n      keccak256(0x00, 0x20)\n      swap1\n      0x02\n      mul\n      add\n        /* \"contracts/voting.sol\":4851:4891  proposals[winningProposalId].description */\n      0x00\n      add\n        /* \"contracts/voting.sol\":4836:4891  proposalName = proposals[winningProposalId].description */\n      dup1\n      sload\n      tag_267\n      swap1\n      tag_93\n      jump\t// in\n    tag_267:\n      dup1\n      0x1f\n      add\n      0x20\n      dup1\n      swap2\n      div\n      mul\n      0x20\n      add\n      mload(0x40)\n      swap1\n      dup2\n      add\n      0x40\n      mstore\n      dup1\n      swap3\n      swap2\n      swap1\n      dup2\n      dup2\n      mstore\n      0x20\n      add\n      dup3\n      dup1\n      sload\n      tag_268\n      swap1\n      tag_93\n      jump\t// in\n    tag_268:\n      dup1\n      iszero\n      tag_269\n      jumpi\n      dup1\n      0x1f\n      lt\n      tag_270\n      jumpi\n      0x0100\n      dup1\n      dup4\n      sload\n      div\n      mul\n      dup4\n      mstore\n      swap2\n      0x20\n      add\n      swap2\n      jump(tag_269)\n    tag_270:\n      dup3\n      add\n      swap2\n      swap1\n      0x00\n      mstore\n      keccak256(0x00, 0x20)\n      swap1\n    tag_271:\n      dup2\n      sload\n      dup2\n      mstore\n      swap1\n      0x01\n      add\n      swap1\n      0x20\n      add\n      dup1\n      dup4\n      gt\n      tag_271\n      jumpi\n      dup3\n      swap1\n      sub\n      0x1f\n      and\n      dup3\n      add\n      swap2\n    tag_269:\n      pop\n      pop\n      pop\n      pop\n      pop\n      swap1\n      pop\n        /* \"contracts/voting.sol\":4735:4932  function LookAtTheWinningProposal() public view returns (string memory proposalName)... */\n      swap1\n      jump\t// out\n        /* \"contracts/voting.sol\":530:556  address[] public addresses */\n    tag_79:\n      0x05\n      dup2\n      dup2\n      sload\n      dup2\n      lt\n      tag_272\n      jumpi\n      0x00\n      dup1\n      revert\n    tag_272:\n      swap1\n      0x00\n      mstore\n      keccak256(0x00, 0x20)\n      add\n      0x00\n      swap2\n      pop\n      sload\n      swap1\n      0x0100\n      exp\n      swap1\n      div\n      0xffffffffffffffffffffffffffffffffffffffff\n      and\n      dup2\n      jump\t// out\n        /* \"@openzeppelin/contracts/access/Ownable.sol\":1918:2116  function transferOwnership(address newOwner) public virtual onlyOwner {... */\n    tag_83:\n        /* \"@openzeppelin/contracts/access/Ownable.sol\":1259:1271  _msgSender() */\n      tag_275\n        /* \"@openzeppelin/contracts/access/Ownable.sol\":1259:1269  _msgSender */\n      tag_146\n        /* \"@openzeppelin/contracts/access/Ownable.sol\":1259:1271  _msgSender() */\n      jump\t// in\n    tag_275:\n        /* \"@openzeppelin/contracts/access/Ownable.sol\":1248:1271  owner() == _msgSender() */\n      0xffffffffffffffffffffffffffffffffffffffff\n      and\n        /* \"@openzeppelin/contracts/access/Ownable.sol\":1248:1255  owner() */\n      tag_276\n        /* \"@openzeppelin/contracts/access/Ownable.sol\":1248:1253  owner */\n      tag_57\n        /* \"@openzeppelin/contracts/access/Ownable.sol\":1248:1255  owner() */\n      jump\t// in\n    tag_276:\n        /* \"@openzeppelin/contracts/access/Ownable.sol\":1248:1271  owner() == _msgSender() */\n      0xffffffffffffffffffffffffffffffffffffffff\n      and\n      eq\n        /* \"@openzeppelin/contracts/access/Ownable.sol\":1240:1308  require(owner() == _msgSender(), \"Ownable: caller is not the owner\") */\n      tag_277\n      jumpi\n      mload(0x40)\n      0x08c379a000000000000000000000000000000000000000000000000000000000\n      dup2\n      mstore\n      0x04\n      add\n      tag_278\n      swap1\n      tag_150\n      jump\t// in\n    tag_278:\n      mload(0x40)\n      dup1\n      swap2\n      sub\n      swap1\n      revert\n    tag_277:\n        /* \"@openzeppelin/contracts/access/Ownable.sol\":2026:2027  0 */\n      0x00\n        /* \"@openzeppelin/contracts/access/Ownable.sol\":2006:2028  newOwner != address(0) */\n      0xffffffffffffffffffffffffffffffffffffffff\n      and\n        /* \"@openzeppelin/contracts/access/Ownable.sol\":2006:2014  newOwner */\n      dup2\n        /* \"@openzeppelin/contracts/access/Ownable.sol\":2006:2028  newOwner != address(0) */\n      0xffffffffffffffffffffffffffffffffffffffff\n      and\n      sub\n        /* \"@openzeppelin/contracts/access/Ownable.sol\":1998:2071  require(newOwner != address(0), \"Ownable: new owner is the zero address\") */\n      tag_280\n      jumpi\n      mload(0x40)\n      0x08c379a000000000000000000000000000000000000000000000000000000000\n      dup2\n      mstore\n      0x04\n      add\n      tag_281\n      swap1\n      tag_282\n      jump\t// in\n    tag_281:\n      mload(0x40)\n      dup1\n      swap2\n      sub\n      swap1\n      revert\n    tag_280:\n        /* \"@openzeppelin/contracts/access/Ownable.sol\":2081:2109  _transferOwnership(newOwner) */\n      tag_283\n        /* \"@openzeppelin/contracts/access/Ownable.sol\":2100:2108  newOwner */\n      dup2\n        /* \"@openzeppelin/contracts/access/Ownable.sol\":2081:2099  _transferOwnership */\n      tag_196\n        /* \"@openzeppelin/contracts/access/Ownable.sol\":2081:2109  _transferOwnership(newOwner) */\n      jump\t// in\n    tag_283:\n        /* \"@openzeppelin/contracts/access/Ownable.sol\":1918:2116  function transferOwnership(address newOwner) public virtual onlyOwner {... */\n      pop\n      jump\t// out\n        /* \"contracts/voting.sol\":742:820  WorkflowStatus public currentWorkflowStatus = WorkflowStatus.RegisteringVoters */\n    tag_85:\n      0x06\n      0x00\n      swap1\n      sload\n      swap1\n      0x0100\n      exp\n      swap1\n      div\n      0xff\n      and\n      dup2\n      jump\t// out\n        /* \"contracts/voting.sol\":1872:2200  function startRegisteringProposal() public onlyOwner inState(WorkflowStatus.RegisteringVoters)... */\n    tag_89:\n        /* \"@openzeppelin/contracts/access/Ownable.sol\":1259:1271  _msgSender() */\n      tag_285\n        /* \"@openzeppelin/contracts/access/Ownable.sol\":1259:1269  _msgSender */\n      tag_146\n        /* \"@openzeppelin/contracts/access/Ownable.sol\":1259:1271  _msgSender() */\n      jump\t// in\n    tag_285:\n        /* \"@openzeppelin/contracts/access/Ownable.sol\":1248:1271  owner() == _msgSender() */\n      0xffffffffffffffffffffffffffffffffffffffff\n      and\n        /* \"@openzeppelin/contracts/access/Ownable.sol\":1248:1255  owner() */\n      tag_286\n        /* \"@openzeppelin/contracts/access/Ownable.sol\":1248:1253  owner */\n      tag_57\n        /* \"@openzeppelin/contracts/access/Ownable.sol\":1248:1255  owner() */\n      jump\t// in\n    tag_286:\n        /* \"@openzeppelin/contracts/access/Ownable.sol\":1248:1271  owner() == _msgSender() */\n      0xffffffffffffffffffffffffffffffffffffffff\n      and\n      eq\n        /* \"@openzeppelin/contracts/access/Ownable.sol\":1240:1308  require(owner() == _msgSender(), \"Ownable: caller is not the owner\") */\n      tag_287\n      jumpi\n      mload(0x40)\n      0x08c379a000000000000000000000000000000000000000000000000000000000\n      dup2\n      mstore\n      0x04\n      add\n      tag_288\n      swap1\n      tag_150\n      jump\t// in\n    tag_288:\n      mload(0x40)\n      dup1\n      swap2\n      sub\n      swap1\n      revert\n    tag_287:\n        /* \"contracts/voting.sol\":1933:1965  WorkflowStatus.RegisteringVoters */\n      0x00\n        /* \"contracts/voting.sol\":890:911  currentWorkflowStatus */\n      0x06\n      0x00\n      swap1\n      sload\n      swap1\n      0x0100\n      exp\n      swap1\n      div\n      0xff\n      and\n        /* \"contracts/voting.sol\":881:911  state == currentWorkflowStatus */\n      0x05\n      dup2\n      gt\n      iszero\n      tag_290\n      jumpi\n      tag_291\n      tag_101\n      jump\t// in\n    tag_291:\n    tag_290:\n        /* \"contracts/voting.sol\":881:886  state */\n      dup2\n        /* \"contracts/voting.sol\":881:911  state == currentWorkflowStatus */\n      0x05\n      dup2\n      gt\n      iszero\n      tag_292\n      jumpi\n      tag_293\n      tag_101\n      jump\t// in\n    tag_293:\n    tag_292:\n      eq\n        /* \"contracts/voting.sol\":872:912  require (state == currentWorkflowStatus) */\n      tag_294\n      jumpi\n      0x00\n      dup1\n      revert\n    tag_294:\n        /* \"contracts/voting.sol\":1981:2011  ProposalsRegistrationStarted() */\n      0x344c25562921d075a298d34b6dd1fd00d36ff293974539dfd4a8c625d9f0064c\n      mload(0x40)\n      mload(0x40)\n      dup1\n      swap2\n      sub\n      swap1\n      log1\n        /* \"contracts/voting.sol\":2041:2084  WorkflowStatus.ProposalsRegistrationStarted */\n      0x01\n        /* \"contracts/voting.sol\":2017:2038  currentWorkflowStatus */\n      0x06\n      0x00\n        /* \"contracts/voting.sol\":2017:2084  currentWorkflowStatus = WorkflowStatus.ProposalsRegistrationStarted */\n      0x0100\n      exp\n      dup2\n      sload\n      dup2\n      0xff\n      mul\n      not\n      and\n      swap1\n      dup4\n      0x05\n      dup2\n      gt\n      iszero\n      tag_296\n      jumpi\n      tag_297\n      tag_101\n      jump\t// in\n    tag_297:\n    tag_296:\n      mul\n      or\n      swap1\n      sstore\n      pop\n        /* \"contracts/voting.sol\":2095:2194  WorkflowStatusChange(WorkflowStatus.RegisteringVoters, WorkflowStatus.ProposalsRegistrationStarted) */\n      0x0a97a4ee45751e2abf3e4fc8946939630b11b371ea8ae39ccdc3056e98f5cc3f\n        /* \"contracts/voting.sol\":2116:2148  WorkflowStatus.RegisteringVoters */\n      0x00\n        /* \"contracts/voting.sol\":2150:2193  WorkflowStatus.ProposalsRegistrationStarted */\n      0x01\n        /* \"contracts/voting.sol\":2095:2194  WorkflowStatusChange(WorkflowStatus.RegisteringVoters, WorkflowStatus.ProposalsRegistrationStarted) */\n      mload(0x40)\n      tag_298\n      swap3\n      swap2\n      swap1\n      tag_179\n      jump\t// in\n    tag_298:\n      mload(0x40)\n      dup1\n      swap2\n      sub\n      swap1\n      log1\n        /* \"@openzeppelin/contracts/access/Ownable.sol\":1318:1319  _ */\n      pop\n        /* \"contracts/voting.sol\":1872:2200  function startRegisteringProposal() public onlyOwner inState(WorkflowStatus.RegisteringVoters)... */\n      jump\t// out\n        /* \"@openzeppelin/contracts/utils/math/SafeMath.sol\":2755:2851  function add(uint256 a, uint256 b) internal pure returns (uint256) {... */\n    tag_117:\n        /* \"@openzeppelin/contracts/utils/math/SafeMath.sol\":2813:2820  uint256 */\n      0x00\n        /* \"@openzeppelin/contracts/utils/math/SafeMath.sol\":2843:2844  b */\n      dup2\n        /* \"@openzeppelin/contracts/utils/math/SafeMath.sol\":2839:2840  a */\n      dup4\n        /* \"@openzeppelin/contracts/utils/math/SafeMath.sol\":2839:2844  a + b */\n      tag_300\n      swap2\n      swap1\n      tag_301\n      jump\t// in\n    tag_300:\n        /* \"@openzeppelin/contracts/utils/math/SafeMath.sol\":2832:2844  return a + b */\n      swap1\n      pop\n        /* \"@openzeppelin/contracts/utils/math/SafeMath.sol\":2755:2851  function add(uint256 a, uint256 b) internal pure returns (uint256) {... */\n      swap3\n      swap2\n      pop\n      pop\n      jump\t// out\n        /* \"@openzeppelin/contracts/utils/Context.sol\":640:736  function _msgSender() internal view virtual returns (address) {... */\n    tag_146:\n        /* \"@openzeppelin/contracts/utils/Context.sol\":693:700  address */\n      0x00\n        /* \"@openzeppelin/contracts/utils/Context.sol\":719:729  msg.sender */\n      caller\n        /* \"@openzeppelin/contracts/utils/Context.sol\":712:729  return msg.sender */\n      swap1\n      pop\n        /* \"@openzeppelin/contracts/utils/Context.sol\":640:736  function _msgSender() internal view virtual returns (address) {... */\n      swap1\n      jump\t// out\n        /* \"@openzeppelin/contracts/access/Ownable.sol\":2270:2457  function _transferOwnership(address newOwner) internal virtual {... */\n    tag_196:\n        /* \"@openzeppelin/contracts/access/Ownable.sol\":2343:2359  address oldOwner */\n      0x00\n        /* \"@openzeppelin/contracts/access/Ownable.sol\":2362:2368  _owner */\n      dup1\n      0x00\n      swap1\n      sload\n      swap1\n      0x0100\n      exp\n      swap1\n      div\n      0xffffffffffffffffffffffffffffffffffffffff\n      and\n        /* \"@openzeppelin/contracts/access/Ownable.sol\":2343:2368  address oldOwner = _owner */\n      swap1\n      pop\n        /* \"@openzeppelin/contracts/access/Ownable.sol\":2387:2395  newOwner */\n      dup2\n        /* \"@openzeppelin/contracts/access/Ownable.sol\":2378:2384  _owner */\n      0x00\n      dup1\n        /* \"@openzeppelin/contracts/access/Ownable.sol\":2378:2395  _owner = newOwner */\n      0x0100\n      exp\n      dup2\n      sload\n      dup2\n      0xffffffffffffffffffffffffffffffffffffffff\n      mul\n      not\n      and\n      swap1\n      dup4\n      0xffffffffffffffffffffffffffffffffffffffff\n      and\n      mul\n      or\n      swap1\n      sstore\n      pop\n        /* \"@openzeppelin/contracts/access/Ownable.sol\":2441:2449  newOwner */\n      dup2\n        /* \"@openzeppelin/contracts/access/Ownable.sol\":2410:2450  OwnershipTransferred(oldOwner, newOwner) */\n      0xffffffffffffffffffffffffffffffffffffffff\n      and\n        /* \"@openzeppelin/contracts/access/Ownable.sol\":2431:2439  oldOwner */\n      dup2\n        /* \"@openzeppelin/contracts/access/Ownable.sol\":2410:2450  OwnershipTransferred(oldOwner, newOwner) */\n      0xffffffffffffffffffffffffffffffffffffffff\n      and\n      0x8be0079c531659141344cd1fd0a4f28419497f9722a3daafe3b4186f6b6457e0\n      mload(0x40)\n      mload(0x40)\n      dup1\n      swap2\n      sub\n      swap1\n      log3\n        /* \"@openzeppelin/contracts/access/Ownable.sol\":2333:2457  {... */\n      pop\n        /* \"@openzeppelin/contracts/access/Ownable.sol\":2270:2457  function _transferOwnership(address newOwner) internal virtual {... */\n      pop\n      jump\t// out\n        /* \"#utility.yul\":7:82   */\n    tag_304:\n        /* \"#utility.yul\":40:46   */\n      0x00\n        /* \"#utility.yul\":73:75   */\n      0x40\n        /* \"#utility.yul\":67:76   */\n      mload\n        /* \"#utility.yul\":57:76   */\n      swap1\n      pop\n        /* \"#utility.yul\":7:82   */\n      swap1\n      jump\t// out\n        /* \"#utility.yul\":88:205   */\n    tag_305:\n        /* \"#utility.yul\":197:198   */\n      0x00\n        /* \"#utility.yul\":194:195   */\n      dup1\n        /* \"#utility.yul\":187:199   */\n      revert\n        /* \"#utility.yul\":211:328   */\n    tag_306:\n        /* \"#utility.yul\":320:321   */\n      0x00\n        /* \"#utility.yul\":317:318   */\n      dup1\n        /* \"#utility.yul\":310:322   */\n      revert\n        /* \"#utility.yul\":334:411   */\n    tag_307:\n        /* \"#utility.yul\":371:378   */\n      0x00\n        /* \"#utility.yul\":400:405   */\n      dup2\n        /* \"#utility.yul\":389:405   */\n      swap1\n      pop\n        /* \"#utility.yul\":334:411   */\n      swap2\n      swap1\n      pop\n      jump\t// out\n        /* \"#utility.yul\":417:539   */\n    tag_308:\n        /* \"#utility.yul\":490:514   */\n      tag_388\n        /* \"#utility.yul\":508:513   */\n      dup2\n        /* \"#utility.yul\":490:514   */\n      tag_307\n      jump\t// in\n    tag_388:\n        /* \"#utility.yul\":483:488   */\n      dup2\n        /* \"#utility.yul\":480:515   */\n      eq\n        /* \"#utility.yul\":470:533   */\n      tag_389\n      jumpi\n        /* \"#utility.yul\":529:530   */\n      0x00\n        /* \"#utility.yul\":526:527   */\n      dup1\n        /* \"#utility.yul\":519:531   */\n      revert\n        /* \"#utility.yul\":470:533   */\n    tag_389:\n        /* \"#utility.yul\":417:539   */\n      pop\n      jump\t// out\n        /* \"#utility.yul\":545:684   */\n    tag_309:\n        /* \"#utility.yul\":591:596   */\n      0x00\n        /* \"#utility.yul\":629:635   */\n      dup2\n        /* \"#utility.yul\":616:636   */\n      calldataload\n        /* \"#utility.yul\":607:636   */\n      swap1\n      pop\n        /* \"#utility.yul\":645:678   */\n      tag_391\n        /* \"#utility.yul\":672:677   */\n      dup2\n        /* \"#utility.yul\":645:678   */\n      tag_308\n      jump\t// in\n    tag_391:\n        /* \"#utility.yul\":545:684   */\n      swap3\n      swap2\n      pop\n      pop\n      jump\t// out\n        /* \"#utility.yul\":690:1019   */\n    tag_27:\n        /* \"#utility.yul\":749:755   */\n      0x00\n        /* \"#utility.yul\":798:800   */\n      0x20\n        /* \"#utility.yul\":786:795   */\n      dup3\n        /* \"#utility.yul\":777:784   */\n      dup5\n        /* \"#utility.yul\":773:796   */\n      sub\n        /* \"#utility.yul\":769:801   */\n      slt\n        /* \"#utility.yul\":766:885   */\n      iszero\n      tag_393\n      jumpi\n        /* \"#utility.yul\":804:883   */\n      tag_394\n      tag_305\n      jump\t// in\n    tag_394:\n        /* \"#utility.yul\":766:885   */\n    tag_393:\n        /* \"#utility.yul\":924:925   */\n      0x00\n        /* \"#utility.yul\":949:1002   */\n      tag_395\n        /* \"#utility.yul\":994:1001   */\n      dup5\n        /* \"#utility.yul\":985:991   */\n      dup3\n        /* \"#utility.yul\":974:983   */\n      dup6\n        /* \"#utility.yul\":970:992   */\n      add\n        /* \"#utility.yul\":949:1002   */\n      tag_309\n      jump\t// in\n    tag_395:\n        /* \"#utility.yul\":939:1002   */\n      swap2\n      pop\n        /* \"#utility.yul\":895:1012   */\n      pop\n        /* \"#utility.yul\":690:1019   */\n      swap3\n      swap2\n      pop\n      pop\n      jump\t// out\n        /* \"#utility.yul\":1025:1124   */\n    tag_310:\n        /* \"#utility.yul\":1077:1083   */\n      0x00\n        /* \"#utility.yul\":1111:1116   */\n      dup2\n        /* \"#utility.yul\":1105:1117   */\n      mload\n        /* \"#utility.yul\":1095:1117   */\n      swap1\n      pop\n        /* \"#utility.yul\":1025:1124   */\n      swap2\n      swap1\n      pop\n      jump\t// out\n        /* \"#utility.yul\":1130:1299   */\n    tag_311:\n        /* \"#utility.yul\":1214:1225   */\n      0x00\n        /* \"#utility.yul\":1248:1254   */\n      dup3\n        /* \"#utility.yul\":1243:1246   */\n      dup3\n        /* \"#utility.yul\":1236:1255   */\n      mstore\n        /* \"#utility.yul\":1288:1292   */\n      0x20\n        /* \"#utility.yul\":1283:1286   */\n      dup3\n        /* \"#utility.yul\":1279:1293   */\n      add\n        /* \"#utility.yul\":1264:1293   */\n      swap1\n      pop\n        /* \"#utility.yul\":1130:1299   */\n      swap3\n      swap2\n      pop\n      pop\n      jump\t// out\n        /* \"#utility.yul\":1305:1612   */\n    tag_312:\n        /* \"#utility.yul\":1373:1374   */\n      0x00\n        /* \"#utility.yul\":1383:1496   */\n    tag_399:\n        /* \"#utility.yul\":1397:1403   */\n      dup4\n        /* \"#utility.yul\":1394:1395   */\n      dup2\n        /* \"#utility.yul\":1391:1404   */\n      lt\n        /* \"#utility.yul\":1383:1496   */\n      iszero\n      tag_401\n      jumpi\n        /* \"#utility.yul\":1482:1483   */\n      dup1\n        /* \"#utility.yul\":1477:1480   */\n      dup3\n        /* \"#utility.yul\":1473:1484   */\n      add\n        /* \"#utility.yul\":1467:1485   */\n      mload\n        /* \"#utility.yul\":1463:1464   */\n      dup2\n        /* \"#utility.yul\":1458:1461   */\n      dup5\n        /* \"#utility.yul\":1454:1465   */\n      add\n        /* \"#utility.yul\":1447:1486   */\n      mstore\n        /* \"#utility.yul\":1419:1421   */\n      0x20\n        /* \"#utility.yul\":1416:1417   */\n      dup2\n        /* \"#utility.yul\":1412:1422   */\n      add\n        /* \"#utility.yul\":1407:1422   */\n      swap1\n      pop\n        /* \"#utility.yul\":1383:1496   */\n      jump(tag_399)\n    tag_401:\n        /* \"#utility.yul\":1514:1520   */\n      dup4\n        /* \"#utility.yul\":1511:1512   */\n      dup2\n        /* \"#utility.yul\":1508:1521   */\n      gt\n        /* \"#utility.yul\":1505:1606   */\n      iszero\n      tag_402\n      jumpi\n        /* \"#utility.yul\":1594:1595   */\n      0x00\n        /* \"#utility.yul\":1585:1591   */\n      dup5\n        /* \"#utility.yul\":1580:1583   */\n      dup5\n        /* \"#utility.yul\":1576:1592   */\n      add\n        /* \"#utility.yul\":1569:1596   */\n      mstore\n        /* \"#utility.yul\":1505:1606   */\n    tag_402:\n        /* \"#utility.yul\":1354:1612   */\n      pop\n        /* \"#utility.yul\":1305:1612   */\n      pop\n      pop\n      pop\n      jump\t// out\n        /* \"#utility.yul\":1618:1720   */\n    tag_313:\n        /* \"#utility.yul\":1659:1665   */\n      0x00\n        /* \"#utility.yul\":1710:1712   */\n      0x1f\n        /* \"#utility.yul\":1706:1713   */\n      not\n        /* \"#utility.yul\":1701:1703   */\n      0x1f\n        /* \"#utility.yul\":1694:1699   */\n      dup4\n        /* \"#utility.yul\":1690:1704   */\n      add\n        /* \"#utility.yul\":1686:1714   */\n      and\n        /* \"#utility.yul\":1676:1714   */\n      swap1\n      pop\n        /* \"#utility.yul\":1618:1720   */\n      swap2\n      swap1\n      pop\n      jump\t// out\n        /* \"#utility.yul\":1726:2090   */\n    tag_314:\n        /* \"#utility.yul\":1814:1817   */\n      0x00\n        /* \"#utility.yul\":1842:1881   */\n      tag_405\n        /* \"#utility.yul\":1875:1880   */\n      dup3\n        /* \"#utility.yul\":1842:1881   */\n      tag_310\n      jump\t// in\n    tag_405:\n        /* \"#utility.yul\":1897:1968   */\n      tag_406\n        /* \"#utility.yul\":1961:1967   */\n      dup2\n        /* \"#utility.yul\":1956:1959   */\n      dup6\n        /* \"#utility.yul\":1897:1968   */\n      tag_311\n      jump\t// in\n    tag_406:\n        /* \"#utility.yul\":1890:1968   */\n      swap4\n      pop\n        /* \"#utility.yul\":1977:2029   */\n      tag_407\n        /* \"#utility.yul\":2022:2028   */\n      dup2\n        /* \"#utility.yul\":2017:2020   */\n      dup6\n        /* \"#utility.yul\":2010:2014   */\n      0x20\n        /* \"#utility.yul\":2003:2008   */\n      dup7\n        /* \"#utility.yul\":1999:2015   */\n      add\n        /* \"#utility.yul\":1977:2029   */\n      tag_312\n      jump\t// in\n    tag_407:\n        /* \"#utility.yul\":2054:2083   */\n      tag_408\n        /* \"#utility.yul\":2076:2082   */\n      dup2\n        /* \"#utility.yul\":2054:2083   */\n      tag_313\n      jump\t// in\n    tag_408:\n        /* \"#utility.yul\":2049:2052   */\n      dup5\n        /* \"#utility.yul\":2045:2084   */\n      add\n        /* \"#utility.yul\":2038:2084   */\n      swap2\n      pop\n        /* \"#utility.yul\":1818:2090   */\n      pop\n        /* \"#utility.yul\":1726:2090   */\n      swap3\n      swap2\n      pop\n      pop\n      jump\t// out\n        /* \"#utility.yul\":2096:2214   */\n    tag_315:\n        /* \"#utility.yul\":2183:2207   */\n      tag_410\n        /* \"#utility.yul\":2201:2206   */\n      dup2\n        /* \"#utility.yul\":2183:2207   */\n      tag_307\n      jump\t// in\n    tag_410:\n        /* \"#utility.yul\":2178:2181   */\n      dup3\n        /* \"#utility.yul\":2171:2208   */\n      mstore\n        /* \"#utility.yul\":2096:2214   */\n      pop\n      pop\n      jump\t// out\n        /* \"#utility.yul\":2220:2643   */\n    tag_30:\n        /* \"#utility.yul\":2361:2365   */\n      0x00\n        /* \"#utility.yul\":2399:2401   */\n      0x40\n        /* \"#utility.yul\":2388:2397   */\n      dup3\n        /* \"#utility.yul\":2384:2402   */\n      add\n        /* \"#utility.yul\":2376:2402   */\n      swap1\n      pop\n        /* \"#utility.yul\":2448:2457   */\n      dup2\n        /* \"#utility.yul\":2442:2446   */\n      dup2\n        /* \"#utility.yul\":2438:2458   */\n      sub\n        /* \"#utility.yul\":2434:2435   */\n      0x00\n        /* \"#utility.yul\":2423:2432   */\n      dup4\n        /* \"#utility.yul\":2419:2436   */\n      add\n        /* \"#utility.yul\":2412:2459   */\n      mstore\n        /* \"#utility.yul\":2476:2554   */\n      tag_412\n        /* \"#utility.yul\":2549:2553   */\n      dup2\n        /* \"#utility.yul\":2540:2546   */\n      dup6\n        /* \"#utility.yul\":2476:2554   */\n      tag_314\n      jump\t// in\n    tag_412:\n        /* \"#utility.yul\":2468:2554   */\n      swap1\n      pop\n        /* \"#utility.yul\":2564:2636   */\n      tag_413\n        /* \"#utility.yul\":2632:2634   */\n      0x20\n        /* \"#utility.yul\":2621:2630   */\n      dup4\n        /* \"#utility.yul\":2617:2635   */\n      add\n        /* \"#utility.yul\":2608:2614   */\n      dup5\n        /* \"#utility.yul\":2564:2636   */\n      tag_315\n      jump\t// in\n    tag_413:\n        /* \"#utility.yul\":2220:2643   */\n      swap4\n      swap3\n      pop\n      pop\n      pop\n      jump\t// out\n        /* \"#utility.yul\":2649:2766   */\n    tag_316:\n        /* \"#utility.yul\":2758:2759   */\n      0x00\n        /* \"#utility.yul\":2755:2756   */\n      dup1\n        /* \"#utility.yul\":2748:2760   */\n      revert\n        /* \"#utility.yul\":2772:2889   */\n    tag_317:\n        /* \"#utility.yul\":2881:2882   */\n      0x00\n        /* \"#utility.yul\":2878:2879   */\n      dup1\n        /* \"#utility.yul\":2871:2883   */\n      revert\n        /* \"#utility.yul\":2895:3075   */\n    tag_318:\n        /* \"#utility.yul\":2943:3020   */\n      0x4e487b7100000000000000000000000000000000000000000000000000000000\n        /* \"#utility.yul\":2940:2941   */\n      0x00\n        /* \"#utility.yul\":2933:3021   */\n      mstore\n        /* \"#utility.yul\":3040:3044   */\n      0x41\n        /* \"#utility.yul\":3037:3038   */\n      0x04\n        /* \"#utility.yul\":3030:3045   */\n      mstore\n        /* \"#utility.yul\":3064:3068   */\n      0x24\n        /* \"#utility.yul\":3061:3062   */\n      0x00\n        /* \"#utility.yul\":3054:3069   */\n      revert\n        /* \"#utility.yul\":3081:3362   */\n    tag_319:\n        /* \"#utility.yul\":3164:3191   */\n      tag_418\n        /* \"#utility.yul\":3186:3190   */\n      dup3\n        /* \"#utility.yul\":3164:3191   */\n      tag_313\n      jump\t// in\n    tag_418:\n        /* \"#utility.yul\":3156:3162   */\n      dup2\n        /* \"#utility.yul\":3152:3192   */\n      add\n        /* \"#utility.yul\":3294:3300   */\n      dup2\n        /* \"#utility.yul\":3282:3292   */\n      dup2\n        /* \"#utility.yul\":3279:3301   */\n      lt\n        /* \"#utility.yul\":3258:3276   */\n      0xffffffffffffffff\n        /* \"#utility.yul\":3246:3256   */\n      dup3\n        /* \"#utility.yul\":3243:3277   */\n      gt\n        /* \"#utility.yul\":3240:3302   */\n      or\n        /* \"#utility.yul\":3237:3325   */\n      iszero\n      tag_419\n      jumpi\n        /* \"#utility.yul\":3305:3323   */\n      tag_420\n      tag_318\n      jump\t// in\n    tag_420:\n        /* \"#utility.yul\":3237:3325   */\n    tag_419:\n        /* \"#utility.yul\":3345:3355   */\n      dup1\n        /* \"#utility.yul\":3341:3343   */\n      0x40\n        /* \"#utility.yul\":3334:3356   */\n      mstore\n        /* \"#utility.yul\":3124:3362   */\n      pop\n        /* \"#utility.yul\":3081:3362   */\n      pop\n      pop\n      jump\t// out\n        /* \"#utility.yul\":3368:3497   */\n    tag_320:\n        /* \"#utility.yul\":3402:3408   */\n      0x00\n        /* \"#utility.yul\":3429:3449   */\n      tag_422\n      tag_304\n      jump\t// in\n    tag_422:\n        /* \"#utility.yul\":3419:3449   */\n      swap1\n      pop\n        /* \"#utility.yul\":3458:3491   */\n      tag_423\n        /* \"#utility.yul\":3486:3490   */\n      dup3\n        /* \"#utility.yul\":3478:3484   */\n      dup3\n        /* \"#utility.yul\":3458:3491   */\n      tag_319\n      jump\t// in\n    tag_423:\n        /* \"#utility.yul\":3368:3497   */\n      swap2\n      swap1\n      pop\n      jump\t// out\n        /* \"#utility.yul\":3503:3811   */\n    tag_321:\n        /* \"#utility.yul\":3565:3569   */\n      0x00\n        /* \"#utility.yul\":3655:3673   */\n      0xffffffffffffffff\n        /* \"#utility.yul\":3647:3653   */\n      dup3\n        /* \"#utility.yul\":3644:3674   */\n      gt\n        /* \"#utility.yul\":3641:3697   */\n      iszero\n      tag_425\n      jumpi\n        /* \"#utility.yul\":3677:3695   */\n      tag_426\n      tag_318\n      jump\t// in\n    tag_426:\n        /* \"#utility.yul\":3641:3697   */\n    tag_425:\n        /* \"#utility.yul\":3715:3744   */\n      tag_427\n        /* \"#utility.yul\":3737:3743   */\n      dup3\n        /* \"#utility.yul\":3715:3744   */\n      tag_313\n      jump\t// in\n    tag_427:\n        /* \"#utility.yul\":3707:3744   */\n      swap1\n      pop\n        /* \"#utility.yul\":3799:3803   */\n      0x20\n        /* \"#utility.yul\":3793:3797   */\n      dup2\n        /* \"#utility.yul\":3789:3804   */\n      add\n        /* \"#utility.yul\":3781:3804   */\n      swap1\n      pop\n        /* \"#utility.yul\":3503:3811   */\n      swap2\n      swap1\n      pop\n      jump\t// out\n        /* \"#utility.yul\":3817:3971   */\n    tag_322:\n        /* \"#utility.yul\":3901:3907   */\n      dup3\n        /* \"#utility.yul\":3896:3899   */\n      dup2\n        /* \"#utility.yul\":3891:3894   */\n      dup4\n        /* \"#utility.yul\":3878:3908   */\n      calldatacopy\n        /* \"#utility.yul\":3963:3964   */\n      0x00\n        /* \"#utility.yul\":3954:3960   */\n      dup4\n        /* \"#utility.yul\":3949:3952   */\n      dup4\n        /* \"#utility.yul\":3945:3961   */\n      add\n        /* \"#utility.yul\":3938:3965   */\n      mstore\n        /* \"#utility.yul\":3817:3971   */\n      pop\n      pop\n      pop\n      jump\t// out\n        /* \"#utility.yul\":3977:4389   */\n    tag_323:\n        /* \"#utility.yul\":4055:4060   */\n      0x00\n        /* \"#utility.yul\":4080:4146   */\n      tag_430\n        /* \"#utility.yul\":4096:4145   */\n      tag_431\n        /* \"#utility.yul\":4138:4144   */\n      dup5\n        /* \"#utility.yul\":4096:4145   */\n      tag_321\n      jump\t// in\n    tag_431:\n        /* \"#utility.yul\":4080:4146   */\n      tag_320\n      jump\t// in\n    tag_430:\n        /* \"#utility.yul\":4071:4146   */\n      swap1\n      pop\n        /* \"#utility.yul\":4169:4175   */\n      dup3\n        /* \"#utility.yul\":4162:4167   */\n      dup2\n        /* \"#utility.yul\":4155:4176   */\n      mstore\n        /* \"#utility.yul\":4207:4211   */\n      0x20\n        /* \"#utility.yul\":4200:4205   */\n      dup2\n        /* \"#utility.yul\":4196:4212   */\n      add\n        /* \"#utility.yul\":4245:4248   */\n      dup5\n        /* \"#utility.yul\":4236:4242   */\n      dup5\n        /* \"#utility.yul\":4231:4234   */\n      dup5\n        /* \"#utility.yul\":4227:4243   */\n      add\n        /* \"#utility.yul\":4224:4249   */\n      gt\n        /* \"#utility.yul\":4221:4333   */\n      iszero\n      tag_432\n      jumpi\n        /* \"#utility.yul\":4252:4331   */\n      tag_433\n      tag_317\n      jump\t// in\n    tag_433:\n        /* \"#utility.yul\":4221:4333   */\n    tag_432:\n        /* \"#utility.yul\":4342:4383   */\n      tag_434\n        /* \"#utility.yul\":4376:4382   */\n      dup5\n        /* \"#utility.yul\":4371:4374   */\n      dup3\n        /* \"#utility.yul\":4366:4369   */\n      dup6\n        /* \"#utility.yul\":4342:4383   */\n      tag_322\n      jump\t// in\n    tag_434:\n        /* \"#utility.yul\":4061:4389   */\n      pop\n        /* \"#utility.yul\":3977:4389   */\n      swap4\n      swap3\n      pop\n      pop\n      pop\n      jump\t// out\n        /* \"#utility.yul\":4409:4749   */\n    tag_324:\n        /* \"#utility.yul\":4465:4470   */\n      0x00\n        /* \"#utility.yul\":4514:4517   */\n      dup3\n        /* \"#utility.yul\":4507:4511   */\n      0x1f\n        /* \"#utility.yul\":4499:4505   */\n      dup4\n        /* \"#utility.yul\":4495:4512   */\n      add\n        /* \"#utility.yul\":4491:4518   */\n      slt\n        /* \"#utility.yul\":4481:4603   */\n      tag_436\n      jumpi\n        /* \"#utility.yul\":4522:4601   */\n      tag_437\n      tag_316\n      jump\t// in\n    tag_437:\n        /* \"#utility.yul\":4481:4603   */\n    tag_436:\n        /* \"#utility.yul\":4639:4645   */\n      dup2\n        /* \"#utility.yul\":4626:4646   */\n      calldataload\n        /* \"#utility.yul\":4664:4743   */\n      tag_438\n        /* \"#utility.yul\":4739:4742   */\n      dup5\n        /* \"#utility.yul\":4731:4737   */\n      dup3\n        /* \"#utility.yul\":4724:4728   */\n      0x20\n        /* \"#utility.yul\":4716:4722   */\n      dup7\n        /* \"#utility.yul\":4712:4729   */\n      add\n        /* \"#utility.yul\":4664:4743   */\n      tag_323\n      jump\t// in\n    tag_438:\n        /* \"#utility.yul\":4655:4743   */\n      swap2\n      pop\n        /* \"#utility.yul\":4471:4749   */\n      pop\n        /* \"#utility.yul\":4409:4749   */\n      swap3\n      swap2\n      pop\n      pop\n      jump\t// out\n        /* \"#utility.yul\":4755:5264   */\n    tag_36:\n        /* \"#utility.yul\":4824:4830   */\n      0x00\n        /* \"#utility.yul\":4873:4875   */\n      0x20\n        /* \"#utility.yul\":4861:4870   */\n      dup3\n        /* \"#utility.yul\":4852:4859   */\n      dup5\n        /* \"#utility.yul\":4848:4871   */\n      sub\n        /* \"#utility.yul\":4844:4876   */\n      slt\n        /* \"#utility.yul\":4841:4960   */\n      iszero\n      tag_440\n      jumpi\n        /* \"#utility.yul\":4879:4958   */\n      tag_441\n      tag_305\n      jump\t// in\n    tag_441:\n        /* \"#utility.yul\":4841:4960   */\n    tag_440:\n        /* \"#utility.yul\":5027:5028   */\n      0x00\n        /* \"#utility.yul\":5016:5025   */\n      dup3\n        /* \"#utility.yul\":5012:5029   */\n      add\n        /* \"#utility.yul\":4999:5030   */\n      calldataload\n        /* \"#utility.yul\":5057:5075   */\n      0xffffffffffffffff\n        /* \"#utility.yul\":5049:5055   */\n      dup2\n        /* \"#utility.yul\":5046:5076   */\n      gt\n        /* \"#utility.yul\":5043:5160   */\n      iszero\n      tag_442\n      jumpi\n        /* \"#utility.yul\":5079:5158   */\n      tag_443\n      tag_306\n      jump\t// in\n    tag_443:\n        /* \"#utility.yul\":5043:5160   */\n    tag_442:\n        /* \"#utility.yul\":5184:5247   */\n      tag_444\n        /* \"#utility.yul\":5239:5246   */\n      dup5\n        /* \"#utility.yul\":5230:5236   */\n      dup3\n        /* \"#utility.yul\":5219:5228   */\n      dup6\n        /* \"#utility.yul\":5215:5237   */\n      add\n        /* \"#utility.yul\":5184:5247   */\n      tag_324\n      jump\t// in\n    tag_444:\n        /* \"#utility.yul\":5174:5247   */\n      swap2\n      pop\n        /* \"#utility.yul\":4970:5257   */\n      pop\n        /* \"#utility.yul\":4755:5264   */\n      swap3\n      swap2\n      pop\n      pop\n      jump\t// out\n        /* \"#utility.yul\":5270:5409   */\n    tag_325:\n        /* \"#utility.yul\":5362:5368   */\n      0x00\n        /* \"#utility.yul\":5396:5401   */\n      dup2\n        /* \"#utility.yul\":5390:5402   */\n      mload\n        /* \"#utility.yul\":5380:5402   */\n      swap1\n      pop\n        /* \"#utility.yul\":5270:5409   */\n      swap2\n      swap1\n      pop\n      jump\t// out\n        /* \"#utility.yul\":5415:5624   */\n    tag_326:\n        /* \"#utility.yul\":5539:5550   */\n      0x00\n        /* \"#utility.yul\":5573:5579   */\n      dup3\n        /* \"#utility.yul\":5568:5571   */\n      dup3\n        /* \"#utility.yul\":5561:5580   */\n      mstore\n        /* \"#utility.yul\":5613:5617   */\n      0x20\n        /* \"#utility.yul\":5608:5611   */\n      dup3\n        /* \"#utility.yul\":5604:5618   */\n      add\n        /* \"#utility.yul\":5589:5618   */\n      swap1\n      pop\n        /* \"#utility.yul\":5415:5624   */\n      swap3\n      swap2\n      pop\n      pop\n      jump\t// out\n        /* \"#utility.yul\":5630:5787   */\n    tag_327:\n        /* \"#utility.yul\":5722:5726   */\n      0x00\n        /* \"#utility.yul\":5745:5748   */\n      dup2\n        /* \"#utility.yul\":5737:5748   */\n      swap1\n      pop\n        /* \"#utility.yul\":5775:5779   */\n      0x20\n        /* \"#utility.yul\":5770:5773   */\n      dup3\n        /* \"#utility.yul\":5766:5780   */\n      add\n        /* \"#utility.yul\":5758:5780   */\n      swap1\n      pop\n        /* \"#utility.yul\":5630:5787   */\n      swap2\n      swap1\n      pop\n      jump\t// out\n        /* \"#utility.yul\":5793:5952   */\n    tag_328:\n        /* \"#utility.yul\":5867:5878   */\n      0x00\n        /* \"#utility.yul\":5901:5907   */\n      dup3\n        /* \"#utility.yul\":5896:5899   */\n      dup3\n        /* \"#utility.yul\":5889:5908   */\n      mstore\n        /* \"#utility.yul\":5941:5945   */\n      0x20\n        /* \"#utility.yul\":5936:5939   */\n      dup3\n        /* \"#utility.yul\":5932:5946   */\n      add\n        /* \"#utility.yul\":5917:5946   */\n      swap1\n      pop\n        /* \"#utility.yul\":5793:5952   */\n      swap3\n      swap2\n      pop\n      pop\n      jump\t// out\n        /* \"#utility.yul\":5958:6302   */\n    tag_329:\n        /* \"#utility.yul\":6036:6039   */\n      0x00\n        /* \"#utility.yul\":6064:6103   */\n      tag_450\n        /* \"#utility.yul\":6097:6102   */\n      dup3\n        /* \"#utility.yul\":6064:6103   */\n      tag_310\n      jump\t// in\n    tag_450:\n        /* \"#utility.yul\":6119:6180   */\n      tag_451\n        /* \"#utility.yul\":6173:6179   */\n      dup2\n        /* \"#utility.yul\":6168:6171   */\n      dup6\n        /* \"#utility.yul\":6119:6180   */\n      tag_328\n      jump\t// in\n    tag_451:\n        /* \"#utility.yul\":6112:6180   */\n      swap4\n      pop\n        /* \"#utility.yul\":6189:6241   */\n      tag_452\n        /* \"#utility.yul\":6234:6240   */\n      dup2\n        /* \"#utility.yul\":6229:6232   */\n      dup6\n        /* \"#utility.yul\":6222:6226   */\n      0x20\n        /* \"#utility.yul\":6215:6220   */\n      dup7\n        /* \"#utility.yul\":6211:6227   */\n      add\n        /* \"#utility.yul\":6189:6241   */\n      tag_312\n      jump\t// in\n    tag_452:\n        /* \"#utility.yul\":6266:6295   */\n      tag_453\n        /* \"#utility.yul\":6288:6294   */\n      dup2\n        /* \"#utility.yul\":6266:6295   */\n      tag_313\n      jump\t// in\n    tag_453:\n        /* \"#utility.yul\":6261:6264   */\n      dup5\n        /* \"#utility.yul\":6257:6296   */\n      add\n        /* \"#utility.yul\":6250:6296   */\n      swap2\n      pop\n        /* \"#utility.yul\":6040:6302   */\n      pop\n        /* \"#utility.yul\":5958:6302   */\n      swap3\n      swap2\n      pop\n      pop\n      jump\t// out\n        /* \"#utility.yul\":6308:6416   */\n    tag_330:\n        /* \"#utility.yul\":6385:6409   */\n      tag_455\n        /* \"#utility.yul\":6403:6408   */\n      dup2\n        /* \"#utility.yul\":6385:6409   */\n      tag_307\n      jump\t// in\n    tag_455:\n        /* \"#utility.yul\":6380:6383   */\n      dup3\n        /* \"#utility.yul\":6373:6410   */\n      mstore\n        /* \"#utility.yul\":6308:6416   */\n      pop\n      pop\n      jump\t// out\n        /* \"#utility.yul\":6478:7086   */\n    tag_331:\n        /* \"#utility.yul\":6587:6590   */\n      0x00\n        /* \"#utility.yul\":6623:6627   */\n      0x40\n        /* \"#utility.yul\":6618:6621   */\n      dup4\n        /* \"#utility.yul\":6614:6628   */\n      add\n        /* \"#utility.yul\":6717:6721   */\n      0x00\n        /* \"#utility.yul\":6710:6715   */\n      dup4\n        /* \"#utility.yul\":6706:6722   */\n      add\n        /* \"#utility.yul\":6700:6723   */\n      mload\n        /* \"#utility.yul\":6770:6773   */\n      dup5\n        /* \"#utility.yul\":6764:6768   */\n      dup3\n        /* \"#utility.yul\":6760:6774   */\n      sub\n        /* \"#utility.yul\":6753:6757   */\n      0x00\n        /* \"#utility.yul\":6748:6751   */\n      dup7\n        /* \"#utility.yul\":6744:6758   */\n      add\n        /* \"#utility.yul\":6737:6775   */\n      mstore\n        /* \"#utility.yul\":6796:6869   */\n      tag_457\n        /* \"#utility.yul\":6864:6868   */\n      dup3\n        /* \"#utility.yul\":6850:6862   */\n      dup3\n        /* \"#utility.yul\":6796:6869   */\n      tag_329\n      jump\t// in\n    tag_457:\n        /* \"#utility.yul\":6788:6869   */\n      swap2\n      pop\n        /* \"#utility.yul\":6638:6880   */\n      pop\n        /* \"#utility.yul\":6967:6971   */\n      0x20\n        /* \"#utility.yul\":6960:6965   */\n      dup4\n        /* \"#utility.yul\":6956:6972   */\n      add\n        /* \"#utility.yul\":6950:6973   */\n      mload\n        /* \"#utility.yul\":6986:7049   */\n      tag_458\n        /* \"#utility.yul\":7043:7047   */\n      0x20\n        /* \"#utility.yul\":7038:7041   */\n      dup7\n        /* \"#utility.yul\":7034:7048   */\n      add\n        /* \"#utility.yul\":7020:7032   */\n      dup3\n        /* \"#utility.yul\":6986:7049   */\n      tag_330\n      jump\t// in\n    tag_458:\n        /* \"#utility.yul\":6890:7059   */\n      pop\n        /* \"#utility.yul\":7076:7080   */\n      dup1\n        /* \"#utility.yul\":7069:7080   */\n      swap2\n      pop\n        /* \"#utility.yul\":6592:7086   */\n      pop\n        /* \"#utility.yul\":6478:7086   */\n      swap3\n      swap2\n      pop\n      pop\n      jump\t// out\n        /* \"#utility.yul\":7092:7348   */\n    tag_332:\n        /* \"#utility.yul\":7211:7221   */\n      0x00\n        /* \"#utility.yul\":7246:7342   */\n      tag_460\n        /* \"#utility.yul\":7338:7341   */\n      dup4\n        /* \"#utility.yul\":7330:7336   */\n      dup4\n        /* \"#utility.yul\":7246:7342   */\n      tag_331\n      jump\t// in\n    tag_460:\n        /* \"#utility.yul\":7232:7342   */\n      swap1\n      pop\n        /* \"#utility.yul\":7092:7348   */\n      swap3\n      swap2\n      pop\n      pop\n      jump\t// out\n        /* \"#utility.yul\":7354:7492   */\n    tag_333:\n        /* \"#utility.yul\":7449:7453   */\n      0x00\n        /* \"#utility.yul\":7481:7485   */\n      0x20\n        /* \"#utility.yul\":7476:7479   */\n      dup3\n        /* \"#utility.yul\":7472:7486   */\n      add\n        /* \"#utility.yul\":7464:7486   */\n      swap1\n      pop\n        /* \"#utility.yul\":7354:7492   */\n      swap2\n      swap1\n      pop\n      jump\t// out\n        /* \"#utility.yul\":7558:8669   */\n    tag_334:\n        /* \"#utility.yul\":7727:7730   */\n      0x00\n        /* \"#utility.yul\":7756:7835   */\n      tag_463\n        /* \"#utility.yul\":7829:7834   */\n      dup3\n        /* \"#utility.yul\":7756:7835   */\n      tag_325\n      jump\t// in\n    tag_463:\n        /* \"#utility.yul\":7851:7962   */\n      tag_464\n        /* \"#utility.yul\":7955:7961   */\n      dup2\n        /* \"#utility.yul\":7950:7953   */\n      dup6\n        /* \"#utility.yul\":7851:7962   */\n      tag_326\n      jump\t// in\n    tag_464:\n        /* \"#utility.yul\":7844:7962   */\n      swap4\n      pop\n        /* \"#utility.yul\":7988:7991   */\n      dup4\n        /* \"#utility.yul\":8033:8037   */\n      0x20\n        /* \"#utility.yul\":8025:8031   */\n      dup3\n        /* \"#utility.yul\":8021:8038   */\n      mul\n        /* \"#utility.yul\":8016:8019   */\n      dup6\n        /* \"#utility.yul\":8012:8039   */\n      add\n        /* \"#utility.yul\":8063:8144   */\n      tag_465\n        /* \"#utility.yul\":8138:8143   */\n      dup6\n        /* \"#utility.yul\":8063:8144   */\n      tag_327\n      jump\t// in\n    tag_465:\n        /* \"#utility.yul\":8167:8174   */\n      dup1\n        /* \"#utility.yul\":8198:8199   */\n      0x00\n        /* \"#utility.yul\":8183:8624   */\n    tag_466:\n        /* \"#utility.yul\":8208:8214   */\n      dup6\n        /* \"#utility.yul\":8205:8206   */\n      dup2\n        /* \"#utility.yul\":8202:8215   */\n      lt\n        /* \"#utility.yul\":8183:8624   */\n      iszero\n      tag_468\n      jumpi\n        /* \"#utility.yul\":8279:8288   */\n      dup5\n        /* \"#utility.yul\":8273:8277   */\n      dup5\n        /* \"#utility.yul\":8269:8289   */\n      sub\n        /* \"#utility.yul\":8264:8267   */\n      dup10\n        /* \"#utility.yul\":8257:8290   */\n      mstore\n        /* \"#utility.yul\":8330:8336   */\n      dup2\n        /* \"#utility.yul\":8324:8337   */\n      mload\n        /* \"#utility.yul\":8358:8472   */\n      tag_469\n        /* \"#utility.yul\":8467:8471   */\n      dup6\n        /* \"#utility.yul\":8452:8465   */\n      dup3\n        /* \"#utility.yul\":8358:8472   */\n      tag_332\n      jump\t// in\n    tag_469:\n        /* \"#utility.yul\":8350:8472   */\n      swap5\n      pop\n        /* \"#utility.yul\":8495:8580   */\n      tag_470\n        /* \"#utility.yul\":8573:8579   */\n      dup4\n        /* \"#utility.yul\":8495:8580   */\n      tag_333\n      jump\t// in\n    tag_470:\n        /* \"#utility.yul\":8485:8580   */\n      swap3\n      pop\n        /* \"#utility.yul\":8609:8613   */\n      0x20\n        /* \"#utility.yul\":8604:8607   */\n      dup11\n        /* \"#utility.yul\":8600:8614   */\n      add\n        /* \"#utility.yul\":8593:8614   */\n      swap10\n      pop\n        /* \"#utility.yul\":8243:8624   */\n      pop\n        /* \"#utility.yul\":8230:8231   */\n      0x01\n        /* \"#utility.yul\":8227:8228   */\n      dup2\n        /* \"#utility.yul\":8223:8232   */\n      add\n        /* \"#utility.yul\":8218:8232   */\n      swap1\n      pop\n        /* \"#utility.yul\":8183:8624   */\n      jump(tag_466)\n    tag_468:\n        /* \"#utility.yul\":8187:8201   */\n      pop\n        /* \"#utility.yul\":8640:8644   */\n      dup3\n        /* \"#utility.yul\":8633:8644   */\n      swap8\n      pop\n        /* \"#utility.yul\":8660:8663   */\n      dup8\n        /* \"#utility.yul\":8653:8663   */\n      swap6\n      pop\n        /* \"#utility.yul\":7732:8669   */\n      pop\n      pop\n      pop\n      pop\n      pop\n        /* \"#utility.yul\":7558:8669   */\n      swap3\n      swap2\n      pop\n      pop\n      jump\t// out\n        /* \"#utility.yul\":8675:9148   */\n    tag_45:\n        /* \"#utility.yul\":8868:8872   */\n      0x00\n        /* \"#utility.yul\":8906:8908   */\n      0x20\n        /* \"#utility.yul\":8895:8904   */\n      dup3\n        /* \"#utility.yul\":8891:8909   */\n      add\n        /* \"#utility.yul\":8883:8909   */\n      swap1\n      pop\n        /* \"#utility.yul\":8955:8964   */\n      dup2\n        /* \"#utility.yul\":8949:8953   */\n      dup2\n        /* \"#utility.yul\":8945:8965   */\n      sub\n        /* \"#utility.yul\":8941:8942   */\n      0x00\n        /* \"#utility.yul\":8930:8939   */\n      dup4\n        /* \"#utility.yul\":8926:8943   */\n      add\n        /* \"#utility.yul\":8919:8966   */\n      mstore\n        /* \"#utility.yul\":8983:9141   */\n      tag_472\n        /* \"#utility.yul\":9136:9140   */\n      dup2\n        /* \"#utility.yul\":9127:9133   */\n      dup5\n        /* \"#utility.yul\":8983:9141   */\n      tag_334\n      jump\t// in\n    tag_472:\n        /* \"#utility.yul\":8975:9141   */\n      swap1\n      pop\n        /* \"#utility.yul\":8675:9148   */\n      swap3\n      swap2\n      pop\n      pop\n      jump\t// out\n        /* \"#utility.yul\":9154:9280   */\n    tag_335:\n        /* \"#utility.yul\":9191:9198   */\n      0x00\n        /* \"#utility.yul\":9231:9273   */\n      0xffffffffffffffffffffffffffffffffffffffff\n        /* \"#utility.yul\":9224:9229   */\n      dup3\n        /* \"#utility.yul\":9220:9274   */\n      and\n        /* \"#utility.yul\":9209:9274   */\n      swap1\n      pop\n        /* \"#utility.yul\":9154:9280   */\n      swap2\n      swap1\n      pop\n      jump\t// out\n        /* \"#utility.yul\":9286:9382   */\n    tag_336:\n        /* \"#utility.yul\":9323:9330   */\n      0x00\n        /* \"#utility.yul\":9352:9376   */\n      tag_475\n        /* \"#utility.yul\":9370:9375   */\n      dup3\n        /* \"#utility.yul\":9352:9376   */\n      tag_335\n      jump\t// in\n    tag_475:\n        /* \"#utility.yul\":9341:9376   */\n      swap1\n      pop\n        /* \"#utility.yul\":9286:9382   */\n      swap2\n      swap1\n      pop\n      jump\t// out\n        /* \"#utility.yul\":9388:9510   */\n    tag_337:\n        /* \"#utility.yul\":9461:9485   */\n      tag_477\n        /* \"#utility.yul\":9479:9484   */\n      dup2\n        /* \"#utility.yul\":9461:9485   */\n      tag_336\n      jump\t// in\n    tag_477:\n        /* \"#utility.yul\":9454:9459   */\n      dup2\n        /* \"#utility.yul\":9451:9486   */\n      eq\n        /* \"#utility.yul\":9441:9504   */\n      tag_478\n      jumpi\n        /* \"#utility.yul\":9500:9501   */\n      0x00\n        /* \"#utility.yul\":9497:9498   */\n      dup1\n        /* \"#utility.yul\":9490:9502   */\n      revert\n        /* \"#utility.yul\":9441:9504   */\n    tag_478:\n        /* \"#utility.yul\":9388:9510   */\n      pop\n      jump\t// out\n        /* \"#utility.yul\":9516:9655   */\n    tag_338:\n        /* \"#utility.yul\":9562:9567   */\n      0x00\n        /* \"#utility.yul\":9600:9606   */\n      dup2\n        /* \"#utility.yul\":9587:9607   */\n      calldataload\n        /* \"#utility.yul\":9578:9607   */\n      swap1\n      pop\n        /* \"#utility.yul\":9616:9649   */\n      tag_480\n        /* \"#utility.yul\":9643:9648   */\n      dup2\n        /* \"#utility.yul\":9616:9649   */\n      tag_337\n      jump\t// in\n    tag_480:\n        /* \"#utility.yul\":9516:9655   */\n      swap3\n      swap2\n      pop\n      pop\n      jump\t// out\n        /* \"#utility.yul\":9661:9990   */\n    tag_48:\n        /* \"#utility.yul\":9720:9726   */\n      0x00\n        /* \"#utility.yul\":9769:9771   */\n      0x20\n        /* \"#utility.yul\":9757:9766   */\n      dup3\n        /* \"#utility.yul\":9748:9755   */\n      dup5\n        /* \"#utility.yul\":9744:9767   */\n      sub\n        /* \"#utility.yul\":9740:9772   */\n      slt\n        /* \"#utility.yul\":9737:9856   */\n      iszero\n      tag_482\n      jumpi\n        /* \"#utility.yul\":9775:9854   */\n      tag_483\n      tag_305\n      jump\t// in\n    tag_483:\n        /* \"#utility.yul\":9737:9856   */\n    tag_482:\n        /* \"#utility.yul\":9895:9896   */\n      0x00\n        /* \"#utility.yul\":9920:9973   */\n      tag_484\n        /* \"#utility.yul\":9965:9972   */\n      dup5\n        /* \"#utility.yul\":9956:9962   */\n      dup3\n        /* \"#utility.yul\":9945:9954   */\n      dup6\n        /* \"#utility.yul\":9941:9963   */\n      add\n        /* \"#utility.yul\":9920:9973   */\n      tag_338\n      jump\t// in\n    tag_484:\n        /* \"#utility.yul\":9910:9973   */\n      swap2\n      pop\n        /* \"#utility.yul\":9866:9983   */\n      pop\n        /* \"#utility.yul\":9661:9990   */\n      swap3\n      swap2\n      pop\n      pop\n      jump\t// out\n        /* \"#utility.yul\":9996:10086   */\n    tag_339:\n        /* \"#utility.yul\":10030:10037   */\n      0x00\n        /* \"#utility.yul\":10073:10078   */\n      dup2\n        /* \"#utility.yul\":10066:10079   */\n      iszero\n        /* \"#utility.yul\":10059:10080   */\n      iszero\n        /* \"#utility.yul\":10048:10080   */\n      swap1\n      pop\n        /* \"#utility.yul\":9996:10086   */\n      swap2\n      swap1\n      pop\n      jump\t// out\n        /* \"#utility.yul\":10092:10201   */\n    tag_340:\n        /* \"#utility.yul\":10173:10194   */\n      tag_487\n        /* \"#utility.yul\":10188:10193   */\n      dup2\n        /* \"#utility.yul\":10173:10194   */\n      tag_339\n      jump\t// in\n    tag_487:\n        /* \"#utility.yul\":10168:10171   */\n      dup3\n        /* \"#utility.yul\":10161:10195   */\n      mstore\n        /* \"#utility.yul\":10092:10201   */\n      pop\n      pop\n      jump\t// out\n        /* \"#utility.yul\":10207:10625   */\n    tag_51:\n        /* \"#utility.yul\":10344:10348   */\n      0x00\n        /* \"#utility.yul\":10382:10384   */\n      0x60\n        /* \"#utility.yul\":10371:10380   */\n      dup3\n        /* \"#utility.yul\":10367:10385   */\n      add\n        /* \"#utility.yul\":10359:10385   */\n      swap1\n      pop\n        /* \"#utility.yul\":10395:10460   */\n      tag_489\n        /* \"#utility.yul\":10457:10458   */\n      0x00\n        /* \"#utility.yul\":10446:10455   */\n      dup4\n        /* \"#utility.yul\":10442:10459   */\n      add\n        /* \"#utility.yul\":10433:10439   */\n      dup7\n        /* \"#utility.yul\":10395:10460   */\n      tag_340\n      jump\t// in\n    tag_489:\n        /* \"#utility.yul\":10470:10536   */\n      tag_490\n        /* \"#utility.yul\":10532:10534   */\n      0x20\n        /* \"#utility.yul\":10521:10530   */\n      dup4\n        /* \"#utility.yul\":10517:10535   */\n      add\n        /* \"#utility.yul\":10508:10514   */\n      dup6\n        /* \"#utility.yul\":10470:10536   */\n      tag_340\n      jump\t// in\n    tag_490:\n        /* \"#utility.yul\":10546:10618   */\n      tag_491\n        /* \"#utility.yul\":10614:10616   */\n      0x40\n        /* \"#utility.yul\":10603:10612   */\n      dup4\n        /* \"#utility.yul\":10599:10617   */\n      add\n        /* \"#utility.yul\":10590:10596   */\n      dup5\n        /* \"#utility.yul\":10546:10618   */\n      tag_315\n      jump\t// in\n    tag_491:\n        /* \"#utility.yul\":10207:10625   */\n      swap5\n      swap4\n      pop\n      pop\n      pop\n      pop\n      jump\t// out\n        /* \"#utility.yul\":10631:10749   */\n    tag_341:\n        /* \"#utility.yul\":10718:10742   */\n      tag_493\n        /* \"#utility.yul\":10736:10741   */\n      dup2\n        /* \"#utility.yul\":10718:10742   */\n      tag_336\n      jump\t// in\n    tag_493:\n        /* \"#utility.yul\":10713:10716   */\n      dup3\n        /* \"#utility.yul\":10706:10743   */\n      mstore\n        /* \"#utility.yul\":10631:10749   */\n      pop\n      pop\n      jump\t// out\n        /* \"#utility.yul\":10755:10977   */\n    tag_59:\n        /* \"#utility.yul\":10848:10852   */\n      0x00\n        /* \"#utility.yul\":10886:10888   */\n      0x20\n        /* \"#utility.yul\":10875:10884   */\n      dup3\n        /* \"#utility.yul\":10871:10889   */\n      add\n        /* \"#utility.yul\":10863:10889   */\n      swap1\n      pop\n        /* \"#utility.yul\":10899:10970   */\n      tag_495\n        /* \"#utility.yul\":10967:10968   */\n      0x00\n        /* \"#utility.yul\":10956:10965   */\n      dup4\n        /* \"#utility.yul\":10952:10969   */\n      add\n        /* \"#utility.yul\":10943:10949   */\n      dup5\n        /* \"#utility.yul\":10899:10970   */\n      tag_341\n      jump\t// in\n    tag_495:\n        /* \"#utility.yul\":10755:10977   */\n      swap3\n      swap2\n      pop\n      pop\n      jump\t// out\n        /* \"#utility.yul\":10983:11097   */\n    tag_342:\n        /* \"#utility.yul\":11050:11056   */\n      0x00\n        /* \"#utility.yul\":11084:11089   */\n      dup2\n        /* \"#utility.yul\":11078:11090   */\n      mload\n        /* \"#utility.yul\":11068:11090   */\n      swap1\n      pop\n        /* \"#utility.yul\":10983:11097   */\n      swap2\n      swap1\n      pop\n      jump\t// out\n        /* \"#utility.yul\":11103:11287   */\n    tag_343:\n        /* \"#utility.yul\":11202:11213   */\n      0x00\n        /* \"#utility.yul\":11236:11242   */\n      dup3\n        /* \"#utility.yul\":11231:11234   */\n      dup3\n        /* \"#utility.yul\":11224:11243   */\n      mstore\n        /* \"#utility.yul\":11276:11280   */\n      0x20\n        /* \"#utility.yul\":11271:11274   */\n      dup3\n        /* \"#utility.yul\":11267:11281   */\n      add\n        /* \"#utility.yul\":11252:11281   */\n      swap1\n      pop\n        /* \"#utility.yul\":11103:11287   */\n      swap3\n      swap2\n      pop\n      pop\n      jump\t// out\n        /* \"#utility.yul\":11293:11425   */\n    tag_344:\n        /* \"#utility.yul\":11360:11364   */\n      0x00\n        /* \"#utility.yul\":11383:11386   */\n      dup2\n        /* \"#utility.yul\":11375:11386   */\n      swap1\n      pop\n        /* \"#utility.yul\":11413:11417   */\n      0x20\n        /* \"#utility.yul\":11408:11411   */\n      dup3\n        /* \"#utility.yul\":11404:11418   */\n      add\n        /* \"#utility.yul\":11396:11418   */\n      swap1\n      pop\n        /* \"#utility.yul\":11293:11425   */\n      swap2\n      swap1\n      pop\n      jump\t// out\n        /* \"#utility.yul\":11431:11539   */\n    tag_345:\n        /* \"#utility.yul\":11508:11532   */\n      tag_500\n        /* \"#utility.yul\":11526:11531   */\n      dup2\n        /* \"#utility.yul\":11508:11532   */\n      tag_336\n      jump\t// in\n    tag_500:\n        /* \"#utility.yul\":11503:11506   */\n      dup3\n        /* \"#utility.yul\":11496:11533   */\n      mstore\n        /* \"#utility.yul\":11431:11539   */\n      pop\n      pop\n      jump\t// out\n        /* \"#utility.yul\":11545:11724   */\n    tag_346:\n        /* \"#utility.yul\":11614:11624   */\n      0x00\n        /* \"#utility.yul\":11635:11681   */\n      tag_502\n        /* \"#utility.yul\":11677:11680   */\n      dup4\n        /* \"#utility.yul\":11669:11675   */\n      dup4\n        /* \"#utility.yul\":11635:11681   */\n      tag_345\n      jump\t// in\n    tag_502:\n        /* \"#utility.yul\":11713:11717   */\n      0x20\n        /* \"#utility.yul\":11708:11711   */\n      dup4\n        /* \"#utility.yul\":11704:11718   */\n      add\n        /* \"#utility.yul\":11690:11718   */\n      swap1\n      pop\n        /* \"#utility.yul\":11545:11724   */\n      swap3\n      swap2\n      pop\n      pop\n      jump\t// out\n        /* \"#utility.yul\":11730:11843   */\n    tag_347:\n        /* \"#utility.yul\":11800:11804   */\n      0x00\n        /* \"#utility.yul\":11832:11836   */\n      0x20\n        /* \"#utility.yul\":11827:11830   */\n      dup3\n        /* \"#utility.yul\":11823:11837   */\n      add\n        /* \"#utility.yul\":11815:11837   */\n      swap1\n      pop\n        /* \"#utility.yul\":11730:11843   */\n      swap2\n      swap1\n      pop\n      jump\t// out\n        /* \"#utility.yul\":11879:12611   */\n    tag_348:\n        /* \"#utility.yul\":11998:12001   */\n      0x00\n        /* \"#utility.yul\":12027:12081   */\n      tag_505\n        /* \"#utility.yul\":12075:12080   */\n      dup3\n        /* \"#utility.yul\":12027:12081   */\n      tag_342\n      jump\t// in\n    tag_505:\n        /* \"#utility.yul\":12097:12183   */\n      tag_506\n        /* \"#utility.yul\":12176:12182   */\n      dup2\n        /* \"#utility.yul\":12171:12174   */\n      dup6\n        /* \"#utility.yul\":12097:12183   */\n      tag_343\n      jump\t// in\n    tag_506:\n        /* \"#utility.yul\":12090:12183   */\n      swap4\n      pop\n        /* \"#utility.yul\":12207:12263   */\n      tag_507\n        /* \"#utility.yul\":12257:12262   */\n      dup4\n        /* \"#utility.yul\":12207:12263   */\n      tag_344\n      jump\t// in\n    tag_507:\n        /* \"#utility.yul\":12286:12293   */\n      dup1\n        /* \"#utility.yul\":12317:12318   */\n      0x00\n        /* \"#utility.yul\":12302:12586   */\n    tag_508:\n        /* \"#utility.yul\":12327:12333   */\n      dup4\n        /* \"#utility.yul\":12324:12325   */\n      dup2\n        /* \"#utility.yul\":12321:12334   */\n      lt\n        /* \"#utility.yul\":12302:12586   */\n      iszero\n      tag_510\n      jumpi\n        /* \"#utility.yul\":12403:12409   */\n      dup2\n        /* \"#utility.yul\":12397:12410   */\n      mload\n        /* \"#utility.yul\":12430:12493   */\n      tag_511\n        /* \"#utility.yul\":12489:12492   */\n      dup9\n        /* \"#utility.yul\":12474:12487   */\n      dup3\n        /* \"#utility.yul\":12430:12493   */\n      tag_346\n      jump\t// in\n    tag_511:\n        /* \"#utility.yul\":12423:12493   */\n      swap8\n      pop\n        /* \"#utility.yul\":12516:12576   */\n      tag_512\n        /* \"#utility.yul\":12569:12575   */\n      dup4\n        /* \"#utility.yul\":12516:12576   */\n      tag_347\n      jump\t// in\n    tag_512:\n        /* \"#utility.yul\":12506:12576   */\n      swap3\n      pop\n        /* \"#utility.yul\":12362:12586   */\n      pop\n        /* \"#utility.yul\":12349:12350   */\n      0x01\n        /* \"#utility.yul\":12346:12347   */\n      dup2\n        /* \"#utility.yul\":12342:12351   */\n      add\n        /* \"#utility.yul\":12337:12351   */\n      swap1\n      pop\n        /* \"#utility.yul\":12302:12586   */\n      jump(tag_508)\n    tag_510:\n        /* \"#utility.yul\":12306:12320   */\n      pop\n        /* \"#utility.yul\":12602:12605   */\n      dup6\n        /* \"#utility.yul\":12595:12605   */\n      swap4\n      pop\n        /* \"#utility.yul\":12003:12611   */\n      pop\n      pop\n      pop\n        /* \"#utility.yul\":11879:12611   */\n      swap3\n      swap2\n      pop\n      pop\n      jump\t// out\n        /* \"#utility.yul\":12617:12990   */\n    tag_66:\n        /* \"#utility.yul\":12760:12764   */\n      0x00\n        /* \"#utility.yul\":12798:12800   */\n      0x20\n        /* \"#utility.yul\":12787:12796   */\n      dup3\n        /* \"#utility.yul\":12783:12801   */\n      add\n        /* \"#utility.yul\":12775:12801   */\n      swap1\n      pop\n        /* \"#utility.yul\":12847:12856   */\n      dup2\n        /* \"#utility.yul\":12841:12845   */\n      dup2\n        /* \"#utility.yul\":12837:12857   */\n      sub\n        /* \"#utility.yul\":12833:12834   */\n      0x00\n        /* \"#utility.yul\":12822:12831   */\n      dup4\n        /* \"#utility.yul\":12818:12835   */\n      add\n        /* \"#utility.yul\":12811:12858   */\n      mstore\n        /* \"#utility.yul\":12875:12983   */\n      tag_514\n        /* \"#utility.yul\":12978:12982   */\n      dup2\n        /* \"#utility.yul\":12969:12975   */\n      dup5\n        /* \"#utility.yul\":12875:12983   */\n      tag_348\n      jump\t// in\n    tag_514:\n        /* \"#utility.yul\":12867:12983   */\n      swap1\n      pop\n        /* \"#utility.yul\":12617:12990   */\n      swap3\n      swap2\n      pop\n      pop\n      jump\t// out\n        /* \"#utility.yul\":12996:13218   */\n    tag_70:\n        /* \"#utility.yul\":13089:13093   */\n      0x00\n        /* \"#utility.yul\":13127:13129   */\n      0x20\n        /* \"#utility.yul\":13116:13125   */\n      dup3\n        /* \"#utility.yul\":13112:13130   */\n      add\n        /* \"#utility.yul\":13104:13130   */\n      swap1\n      pop\n        /* \"#utility.yul\":13140:13211   */\n      tag_516\n        /* \"#utility.yul\":13208:13209   */\n      0x00\n        /* \"#utility.yul\":13197:13206   */\n      dup4\n        /* \"#utility.yul\":13193:13210   */\n      add\n        /* \"#utility.yul\":13184:13190   */\n      dup5\n        /* \"#utility.yul\":13140:13211   */\n      tag_315\n      jump\t// in\n    tag_516:\n        /* \"#utility.yul\":12996:13218   */\n      swap3\n      swap2\n      pop\n      pop\n      jump\t// out\n        /* \"#utility.yul\":13224:13537   */\n    tag_76:\n        /* \"#utility.yul\":13337:13341   */\n      0x00\n        /* \"#utility.yul\":13375:13377   */\n      0x20\n        /* \"#utility.yul\":13364:13373   */\n      dup3\n        /* \"#utility.yul\":13360:13378   */\n      add\n        /* \"#utility.yul\":13352:13378   */\n      swap1\n      pop\n        /* \"#utility.yul\":13424:13433   */\n      dup2\n        /* \"#utility.yul\":13418:13422   */\n      dup2\n        /* \"#utility.yul\":13414:13434   */\n      sub\n        /* \"#utility.yul\":13410:13411   */\n      0x00\n        /* \"#utility.yul\":13399:13408   */\n      dup4\n        /* \"#utility.yul\":13395:13412   */\n      add\n        /* \"#utility.yul\":13388:13435   */\n      mstore\n        /* \"#utility.yul\":13452:13530   */\n      tag_518\n        /* \"#utility.yul\":13525:13529   */\n      dup2\n        /* \"#utility.yul\":13516:13522   */\n      dup5\n        /* \"#utility.yul\":13452:13530   */\n      tag_314\n      jump\t// in\n    tag_518:\n        /* \"#utility.yul\":13444:13530   */\n      swap1\n      pop\n        /* \"#utility.yul\":13224:13537   */\n      swap3\n      swap2\n      pop\n      pop\n      jump\t// out\n        /* \"#utility.yul\":13543:13723   */\n    tag_101:\n        /* \"#utility.yul\":13591:13668   */\n      0x4e487b7100000000000000000000000000000000000000000000000000000000\n        /* \"#utility.yul\":13588:13589   */\n      0x00\n        /* \"#utility.yul\":13581:13669   */\n      mstore\n        /* \"#utility.yul\":13688:13692   */\n      0x21\n        /* \"#utility.yul\":13685:13686   */\n      0x04\n        /* \"#utility.yul\":13678:13693   */\n      mstore\n        /* \"#utility.yul\":13712:13716   */\n      0x24\n        /* \"#utility.yul\":13709:13710   */\n      0x00\n        /* \"#utility.yul\":13702:13717   */\n      revert\n        /* \"#utility.yul\":13729:13852   */\n    tag_349:\n        /* \"#utility.yul\":13820:13821   */\n      0x06\n        /* \"#utility.yul\":13813:13818   */\n      dup2\n        /* \"#utility.yul\":13810:13822   */\n      lt\n        /* \"#utility.yul\":13800:13846   */\n      tag_521\n      jumpi\n        /* \"#utility.yul\":13826:13844   */\n      tag_522\n      tag_101\n      jump\t// in\n    tag_522:\n        /* \"#utility.yul\":13800:13846   */\n    tag_521:\n        /* \"#utility.yul\":13729:13852   */\n      pop\n      jump\t// out\n        /* \"#utility.yul\":13858:14005   */\n    tag_350:\n        /* \"#utility.yul\":13913:13920   */\n      0x00\n        /* \"#utility.yul\":13942:13947   */\n      dup2\n        /* \"#utility.yul\":13931:13947   */\n      swap1\n      pop\n        /* \"#utility.yul\":13948:13999   */\n      tag_524\n        /* \"#utility.yul\":13993:13998   */\n      dup3\n        /* \"#utility.yul\":13948:13999   */\n      tag_349\n      jump\t// in\n    tag_524:\n        /* \"#utility.yul\":13858:14005   */\n      swap2\n      swap1\n      pop\n      jump\t// out\n        /* \"#utility.yul\":14011:14158   */\n    tag_351:\n        /* \"#utility.yul\":14077:14086   */\n      0x00\n        /* \"#utility.yul\":14110:14152   */\n      tag_526\n        /* \"#utility.yul\":14146:14151   */\n      dup3\n        /* \"#utility.yul\":14110:14152   */\n      tag_350\n      jump\t// in\n    tag_526:\n        /* \"#utility.yul\":14097:14152   */\n      swap1\n      pop\n        /* \"#utility.yul\":14011:14158   */\n      swap2\n      swap1\n      pop\n      jump\t// out\n        /* \"#utility.yul\":14164:14327   */\n    tag_352:\n        /* \"#utility.yul\":14267:14320   */\n      tag_528\n        /* \"#utility.yul\":14314:14319   */\n      dup2\n        /* \"#utility.yul\":14267:14320   */\n      tag_351\n      jump\t// in\n    tag_528:\n        /* \"#utility.yul\":14262:14265   */\n      dup3\n        /* \"#utility.yul\":14255:14321   */\n      mstore\n        /* \"#utility.yul\":14164:14327   */\n      pop\n      pop\n      jump\t// out\n        /* \"#utility.yul\":14333:14587   */\n    tag_87:\n        /* \"#utility.yul\":14442:14446   */\n      0x00\n        /* \"#utility.yul\":14480:14482   */\n      0x20\n        /* \"#utility.yul\":14469:14478   */\n      dup3\n        /* \"#utility.yul\":14465:14483   */\n      add\n        /* \"#utility.yul\":14457:14483   */\n      swap1\n      pop\n        /* \"#utility.yul\":14493:14580   */\n      tag_530\n        /* \"#utility.yul\":14577:14578   */\n      0x00\n        /* \"#utility.yul\":14566:14575   */\n      dup4\n        /* \"#utility.yul\":14562:14579   */\n      add\n        /* \"#utility.yul\":14553:14559   */\n      dup5\n        /* \"#utility.yul\":14493:14580   */\n      tag_352\n      jump\t// in\n    tag_530:\n        /* \"#utility.yul\":14333:14587   */\n      swap3\n      swap2\n      pop\n      pop\n      jump\t// out\n        /* \"#utility.yul\":14593:14773   */\n    tag_353:\n        /* \"#utility.yul\":14641:14718   */\n      0x4e487b7100000000000000000000000000000000000000000000000000000000\n        /* \"#utility.yul\":14638:14639   */\n      0x00\n        /* \"#utility.yul\":14631:14719   */\n      mstore\n        /* \"#utility.yul\":14738:14742   */\n      0x22\n        /* \"#utility.yul\":14735:14736   */\n      0x04\n        /* \"#utility.yul\":14728:14743   */\n      mstore\n        /* \"#utility.yul\":14762:14766   */\n      0x24\n        /* \"#utility.yul\":14759:14760   */\n      0x00\n        /* \"#utility.yul\":14752:14767   */\n      revert\n        /* \"#utility.yul\":14779:15099   */\n    tag_93:\n        /* \"#utility.yul\":14823:14829   */\n      0x00\n        /* \"#utility.yul\":14860:14861   */\n      0x02\n        /* \"#utility.yul\":14854:14858   */\n      dup3\n        /* \"#utility.yul\":14850:14862   */\n      div\n        /* \"#utility.yul\":14840:14862   */\n      swap1\n      pop\n        /* \"#utility.yul\":14907:14908   */\n      0x01\n        /* \"#utility.yul\":14901:14905   */\n      dup3\n        /* \"#utility.yul\":14897:14909   */\n      and\n        /* \"#utility.yul\":14928:14946   */\n      dup1\n        /* \"#utility.yul\":14918:14999   */\n      tag_533\n      jumpi\n        /* \"#utility.yul\":14984:14988   */\n      0x7f\n        /* \"#utility.yul\":14976:14982   */\n      dup3\n        /* \"#utility.yul\":14972:14989   */\n      and\n        /* \"#utility.yul\":14962:14989   */\n      swap2\n      pop\n        /* \"#utility.yul\":14918:14999   */\n    tag_533:\n        /* \"#utility.yul\":15046:15048   */\n      0x20\n        /* \"#utility.yul\":15038:15044   */\n      dup3\n        /* \"#utility.yul\":15035:15049   */\n      lt\n        /* \"#utility.yul\":15015:15033   */\n      dup2\n        /* \"#utility.yul\":15012:15050   */\n      sub\n        /* \"#utility.yul\":15009:15093   */\n      tag_534\n      jumpi\n        /* \"#utility.yul\":15065:15083   */\n      tag_535\n      tag_353\n      jump\t// in\n    tag_535:\n        /* \"#utility.yul\":15009:15093   */\n    tag_534:\n        /* \"#utility.yul\":14830:15099   */\n      pop\n        /* \"#utility.yul\":14779:15099   */\n      swap2\n      swap1\n      pop\n      jump\t// out\n        /* \"#utility.yul\":15105:15329   */\n    tag_354:\n        /* \"#utility.yul\":15245:15279   */\n      0x596f75277265206e6f7420726567697374657265642c20796f752063616e2774\n        /* \"#utility.yul\":15241:15242   */\n      0x00\n        /* \"#utility.yul\":15233:15239   */\n      dup3\n        /* \"#utility.yul\":15229:15243   */\n      add\n        /* \"#utility.yul\":15222:15280   */\n      mstore\n        /* \"#utility.yul\":15314:15321   */\n      0x20766f7465000000000000000000000000000000000000000000000000000000\n        /* \"#utility.yul\":15309:15311   */\n      0x20\n        /* \"#utility.yul\":15301:15307   */\n      dup3\n        /* \"#utility.yul\":15297:15312   */\n      add\n        /* \"#utility.yul\":15290:15322   */\n      mstore\n        /* \"#utility.yul\":15105:15329   */\n      pop\n      jump\t// out\n        /* \"#utility.yul\":15335:15701   */\n    tag_355:\n        /* \"#utility.yul\":15477:15480   */\n      0x00\n        /* \"#utility.yul\":15498:15565   */\n      tag_538\n        /* \"#utility.yul\":15562:15564   */\n      0x25\n        /* \"#utility.yul\":15557:15560   */\n      dup4\n        /* \"#utility.yul\":15498:15565   */\n      tag_311\n      jump\t// in\n    tag_538:\n        /* \"#utility.yul\":15491:15565   */\n      swap2\n      pop\n        /* \"#utility.yul\":15574:15667   */\n      tag_539\n        /* \"#utility.yul\":15663:15666   */\n      dup3\n        /* \"#utility.yul\":15574:15667   */\n      tag_354\n      jump\t// in\n    tag_539:\n        /* \"#utility.yul\":15692:15694   */\n      0x40\n        /* \"#utility.yul\":15687:15690   */\n      dup3\n        /* \"#utility.yul\":15683:15695   */\n      add\n        /* \"#utility.yul\":15676:15695   */\n      swap1\n      pop\n        /* \"#utility.yul\":15335:15701   */\n      swap2\n      swap1\n      pop\n      jump\t// out\n        /* \"#utility.yul\":15707:16126   */\n    tag_108:\n        /* \"#utility.yul\":15873:15877   */\n      0x00\n        /* \"#utility.yul\":15911:15913   */\n      0x20\n        /* \"#utility.yul\":15900:15909   */\n      dup3\n        /* \"#utility.yul\":15896:15914   */\n      add\n        /* \"#utility.yul\":15888:15914   */\n      swap1\n      pop\n        /* \"#utility.yul\":15960:15969   */\n      dup2\n        /* \"#utility.yul\":15954:15958   */\n      dup2\n        /* \"#utility.yul\":15950:15970   */\n      sub\n        /* \"#utility.yul\":15946:15947   */\n      0x00\n        /* \"#utility.yul\":15935:15944   */\n      dup4\n        /* \"#utility.yul\":15931:15948   */\n      add\n        /* \"#utility.yul\":15924:15971   */\n      mstore\n        /* \"#utility.yul\":15988:16119   */\n      tag_541\n        /* \"#utility.yul\":16114:16118   */\n      dup2\n        /* \"#utility.yul\":15988:16119   */\n      tag_355\n      jump\t// in\n    tag_541:\n        /* \"#utility.yul\":15980:16119   */\n      swap1\n      pop\n        /* \"#utility.yul\":15707:16126   */\n      swap2\n      swap1\n      pop\n      jump\t// out\n        /* \"#utility.yul\":16132:16353   */\n    tag_356:\n        /* \"#utility.yul\":16272:16306   */\n      0x596f7527766520616c726561647920766f746520666f7220612070726f706f73\n        /* \"#utility.yul\":16268:16269   */\n      0x00\n        /* \"#utility.yul\":16260:16266   */\n      dup3\n        /* \"#utility.yul\":16256:16270   */\n      add\n        /* \"#utility.yul\":16249:16307   */\n      mstore\n        /* \"#utility.yul\":16341:16345   */\n      0x616c000000000000000000000000000000000000000000000000000000000000\n        /* \"#utility.yul\":16336:16338   */\n      0x20\n        /* \"#utility.yul\":16328:16334   */\n      dup3\n        /* \"#utility.yul\":16324:16339   */\n      add\n        /* \"#utility.yul\":16317:16346   */\n      mstore\n        /* \"#utility.yul\":16132:16353   */\n      pop\n      jump\t// out\n        /* \"#utility.yul\":16359:16725   */\n    tag_357:\n        /* \"#utility.yul\":16501:16504   */\n      0x00\n        /* \"#utility.yul\":16522:16589   */\n      tag_544\n        /* \"#utility.yul\":16586:16588   */\n      0x22\n        /* \"#utility.yul\":16581:16584   */\n      dup4\n        /* \"#utility.yul\":16522:16589   */\n      tag_311\n      jump\t// in\n    tag_544:\n        /* \"#utility.yul\":16515:16589   */\n      swap2\n      pop\n        /* \"#utility.yul\":16598:16691   */\n      tag_545\n        /* \"#utility.yul\":16687:16690   */\n      dup3\n        /* \"#utility.yul\":16598:16691   */\n      tag_356\n      jump\t// in\n    tag_545:\n        /* \"#utility.yul\":16716:16718   */\n      0x40\n        /* \"#utility.yul\":16711:16714   */\n      dup3\n        /* \"#utility.yul\":16707:16719   */\n      add\n        /* \"#utility.yul\":16700:16719   */\n      swap1\n      pop\n        /* \"#utility.yul\":16359:16725   */\n      swap2\n      swap1\n      pop\n      jump\t// out\n        /* \"#utility.yul\":16731:17150   */\n    tag_111:\n        /* \"#utility.yul\":16897:16901   */\n      0x00\n        /* \"#utility.yul\":16935:16937   */\n      0x20\n        /* \"#utility.yul\":16924:16933   */\n      dup3\n        /* \"#utility.yul\":16920:16938   */\n      add\n        /* \"#utility.yul\":16912:16938   */\n      swap1\n      pop\n        /* \"#utility.yul\":16984:16993   */\n      dup2\n        /* \"#utility.yul\":16978:16982   */\n      dup2\n        /* \"#utility.yul\":16974:16994   */\n      sub\n        /* \"#utility.yul\":16970:16971   */\n      0x00\n        /* \"#utility.yul\":16959:16968   */\n      dup4\n        /* \"#utility.yul\":16955:16972   */\n      add\n        /* \"#utility.yul\":16948:16995   */\n      mstore\n        /* \"#utility.yul\":17012:17143   */\n      tag_547\n        /* \"#utility.yul\":17138:17142   */\n      dup2\n        /* \"#utility.yul\":17012:17143   */\n      tag_357\n      jump\t// in\n    tag_547:\n        /* \"#utility.yul\":17004:17143   */\n      swap1\n      pop\n        /* \"#utility.yul\":16731:17150   */\n      swap2\n      swap1\n      pop\n      jump\t// out\n        /* \"#utility.yul\":17156:17336   */\n    tag_115:\n        /* \"#utility.yul\":17204:17281   */\n      0x4e487b7100000000000000000000000000000000000000000000000000000000\n        /* \"#utility.yul\":17201:17202   */\n      0x00\n        /* \"#utility.yul\":17194:17282   */\n      mstore\n        /* \"#utility.yul\":17301:17305   */\n      0x32\n        /* \"#utility.yul\":17298:17299   */\n      0x04\n        /* \"#utility.yul\":17291:17306   */\n      mstore\n        /* \"#utility.yul\":17325:17329   */\n      0x24\n        /* \"#utility.yul\":17322:17323   */\n      0x00\n        /* \"#utility.yul\":17315:17330   */\n      revert\n        /* \"#utility.yul\":17342:17674   */\n    tag_122:\n        /* \"#utility.yul\":17463:17467   */\n      0x00\n        /* \"#utility.yul\":17501:17503   */\n      0x40\n        /* \"#utility.yul\":17490:17499   */\n      dup3\n        /* \"#utility.yul\":17486:17504   */\n      add\n        /* \"#utility.yul\":17478:17504   */\n      swap1\n      pop\n        /* \"#utility.yul\":17514:17585   */\n      tag_550\n        /* \"#utility.yul\":17582:17583   */\n      0x00\n        /* \"#utility.yul\":17571:17580   */\n      dup4\n        /* \"#utility.yul\":17567:17584   */\n      add\n        /* \"#utility.yul\":17558:17564   */\n      dup6\n        /* \"#utility.yul\":17514:17585   */\n      tag_341\n      jump\t// in\n    tag_550:\n        /* \"#utility.yul\":17595:17667   */\n      tag_551\n        /* \"#utility.yul\":17663:17665   */\n      0x20\n        /* \"#utility.yul\":17652:17661   */\n      dup4\n        /* \"#utility.yul\":17648:17666   */\n      add\n        /* \"#utility.yul\":17639:17645   */\n      dup5\n        /* \"#utility.yul\":17595:17667   */\n      tag_315\n      jump\t// in\n    tag_551:\n        /* \"#utility.yul\":17342:17674   */\n      swap4\n      swap3\n      pop\n      pop\n      pop\n      jump\t// out\n        /* \"#utility.yul\":17680:17917   */\n    tag_358:\n        /* \"#utility.yul\":17820:17854   */\n      0x596f75277265206e6f7420726567697374657265642c20796f752063616e2774\n        /* \"#utility.yul\":17816:17817   */\n      0x00\n        /* \"#utility.yul\":17808:17814   */\n      dup3\n        /* \"#utility.yul\":17804:17818   */\n      add\n        /* \"#utility.yul\":17797:17855   */\n      mstore\n        /* \"#utility.yul\":17889:17909   */\n      0x207375626d697420612070726f706f73616c0000000000000000000000000000\n        /* \"#utility.yul\":17884:17886   */\n      0x20\n        /* \"#utility.yul\":17876:17882   */\n      dup3\n        /* \"#utility.yul\":17872:17887   */\n      add\n        /* \"#utility.yul\":17865:17910   */\n      mstore\n        /* \"#utility.yul\":17680:17917   */\n      pop\n      jump\t// out\n        /* \"#utility.yul\":17923:18289   */\n    tag_359:\n        /* \"#utility.yul\":18065:18068   */\n      0x00\n        /* \"#utility.yul\":18086:18153   */\n      tag_554\n        /* \"#utility.yul\":18150:18152   */\n      0x32\n        /* \"#utility.yul\":18145:18148   */\n      dup4\n        /* \"#utility.yul\":18086:18153   */\n      tag_311\n      jump\t// in\n    tag_554:\n        /* \"#utility.yul\":18079:18153   */\n      swap2\n      pop\n        /* \"#utility.yul\":18162:18255   */\n      tag_555\n        /* \"#utility.yul\":18251:18254   */\n      dup3\n        /* \"#utility.yul\":18162:18255   */\n      tag_358\n      jump\t// in\n    tag_555:\n        /* \"#utility.yul\":18280:18282   */\n      0x40\n        /* \"#utility.yul\":18275:18278   */\n      dup3\n        /* \"#utility.yul\":18271:18283   */\n      add\n        /* \"#utility.yul\":18264:18283   */\n      swap1\n      pop\n        /* \"#utility.yul\":17923:18289   */\n      swap2\n      swap1\n      pop\n      jump\t// out\n        /* \"#utility.yul\":18295:18714   */\n    tag_132:\n        /* \"#utility.yul\":18461:18465   */\n      0x00\n        /* \"#utility.yul\":18499:18501   */\n      0x20\n        /* \"#utility.yul\":18488:18497   */\n      dup3\n        /* \"#utility.yul\":18484:18502   */\n      add\n        /* \"#utility.yul\":18476:18502   */\n      swap1\n      pop\n        /* \"#utility.yul\":18548:18557   */\n      dup2\n        /* \"#utility.yul\":18542:18546   */\n      dup2\n        /* \"#utility.yul\":18538:18558   */\n      sub\n        /* \"#utility.yul\":18534:18535   */\n      0x00\n        /* \"#utility.yul\":18523:18532   */\n      dup4\n        /* \"#utility.yul\":18519:18536   */\n      add\n        /* \"#utility.yul\":18512:18559   */\n      mstore\n        /* \"#utility.yul\":18576:18707   */\n      tag_557\n        /* \"#utility.yul\":18702:18706   */\n      dup2\n        /* \"#utility.yul\":18576:18707   */\n      tag_359\n      jump\t// in\n    tag_557:\n        /* \"#utility.yul\":18568:18707   */\n      swap1\n      pop\n        /* \"#utility.yul\":18295:18714   */\n      swap2\n      swap1\n      pop\n      jump\t// out\n        /* \"#utility.yul\":18720:18861   */\n    tag_360:\n        /* \"#utility.yul\":18769:18773   */\n      0x00\n        /* \"#utility.yul\":18792:18795   */\n      dup2\n        /* \"#utility.yul\":18784:18795   */\n      swap1\n      pop\n        /* \"#utility.yul\":18815:18818   */\n      dup2\n        /* \"#utility.yul\":18812:18813   */\n      0x00\n        /* \"#utility.yul\":18805:18819   */\n      mstore\n        /* \"#utility.yul\":18849:18853   */\n      0x20\n        /* \"#utility.yul\":18846:18847   */\n      0x00\n        /* \"#utility.yul\":18836:18854   */\n      keccak256\n        /* \"#utility.yul\":18828:18854   */\n      swap1\n      pop\n        /* \"#utility.yul\":18720:18861   */\n      swap2\n      swap1\n      pop\n      jump\t// out\n        /* \"#utility.yul\":18867:18960   */\n    tag_361:\n        /* \"#utility.yul\":18904:18910   */\n      0x00\n        /* \"#utility.yul\":18951:18953   */\n      0x20\n        /* \"#utility.yul\":18946:18948   */\n      0x1f\n        /* \"#utility.yul\":18939:18944   */\n      dup4\n        /* \"#utility.yul\":18935:18949   */\n      add\n        /* \"#utility.yul\":18931:18954   */\n      div\n        /* \"#utility.yul\":18921:18954   */\n      swap1\n      pop\n        /* \"#utility.yul\":18867:18960   */\n      swap2\n      swap1\n      pop\n      jump\t// out\n        /* \"#utility.yul\":18966:19073   */\n    tag_362:\n        /* \"#utility.yul\":19010:19018   */\n      0x00\n        /* \"#utility.yul\":19060:19065   */\n      dup3\n        /* \"#utility.yul\":19054:19058   */\n      dup3\n        /* \"#utility.yul\":19050:19066   */\n      shl\n        /* \"#utility.yul\":19029:19066   */\n      swap1\n      pop\n        /* \"#utility.yul\":18966:19073   */\n      swap3\n      swap2\n      pop\n      pop\n      jump\t// out\n        /* \"#utility.yul\":19079:19472   */\n    tag_363:\n        /* \"#utility.yul\":19148:19154   */\n      0x00\n        /* \"#utility.yul\":19198:19199   */\n      0x08\n        /* \"#utility.yul\":19186:19196   */\n      dup4\n        /* \"#utility.yul\":19182:19200   */\n      mul\n        /* \"#utility.yul\":19221:19318   */\n      tag_562\n        /* \"#utility.yul\":19251:19317   */\n      0xffffffffffffffffffffffffffffffffffffffffffffffffffffffffffffffff\n        /* \"#utility.yul\":19240:19249   */\n      dup3\n        /* \"#utility.yul\":19221:19318   */\n      tag_362\n      jump\t// in\n    tag_562:\n        /* \"#utility.yul\":19339:19378   */\n      tag_563\n        /* \"#utility.yul\":19369:19377   */\n      dup7\n        /* \"#utility.yul\":19358:19367   */\n      dup4\n        /* \"#utility.yul\":19339:19378   */\n      tag_362\n      jump\t// in\n    tag_563:\n        /* \"#utility.yul\":19327:19378   */\n      swap6\n      pop\n        /* \"#utility.yul\":19411:19415   */\n      dup1\n        /* \"#utility.yul\":19407:19416   */\n      not\n        /* \"#utility.yul\":19400:19405   */\n      dup5\n        /* \"#utility.yul\":19396:19417   */\n      and\n        /* \"#utility.yul\":19387:19417   */\n      swap4\n      pop\n        /* \"#utility.yul\":19460:19464   */\n      dup1\n        /* \"#utility.yul\":19450:19458   */\n      dup7\n        /* \"#utility.yul\":19446:19465   */\n      and\n        /* \"#utility.yul\":19439:19444   */\n      dup5\n        /* \"#utility.yul\":19436:19466   */\n      or\n        /* \"#utility.yul\":19426:19466   */\n      swap3\n      pop\n        /* \"#utility.yul\":19155:19472   */\n      pop\n      pop\n        /* \"#utility.yul\":19079:19472   */\n      swap4\n      swap3\n      pop\n      pop\n      pop\n      jump\t// out\n        /* \"#utility.yul\":19478:19538   */\n    tag_364:\n        /* \"#utility.yul\":19506:19509   */\n      0x00\n        /* \"#utility.yul\":19527:19532   */\n      dup2\n        /* \"#utility.yul\":19520:19532   */\n      swap1\n      pop\n        /* \"#utility.yul\":19478:19538   */\n      swap2\n      swap1\n      pop\n      jump\t// out\n        /* \"#utility.yul\":19544:19686   */\n    tag_365:\n        /* \"#utility.yul\":19594:19603   */\n      0x00\n        /* \"#utility.yul\":19627:19680   */\n      tag_566\n        /* \"#utility.yul\":19645:19679   */\n      tag_567\n        /* \"#utility.yul\":19654:19678   */\n      tag_568\n        /* \"#utility.yul\":19672:19677   */\n      dup5\n        /* \"#utility.yul\":19654:19678   */\n      tag_307\n      jump\t// in\n    tag_568:\n        /* \"#utility.yul\":19645:19679   */\n      tag_364\n      jump\t// in\n    tag_567:\n        /* \"#utility.yul\":19627:19680   */\n      tag_307\n      jump\t// in\n    tag_566:\n        /* \"#utility.yul\":19614:19680   */\n      swap1\n      pop\n        /* \"#utility.yul\":19544:19686   */\n      swap2\n      swap1\n      pop\n      jump\t// out\n        /* \"#utility.yul\":19692:19767   */\n    tag_366:\n        /* \"#utility.yul\":19735:19738   */\n      0x00\n        /* \"#utility.yul\":19756:19761   */\n      dup2\n        /* \"#utility.yul\":19749:19761   */\n      swap1\n      pop\n        /* \"#utility.yul\":19692:19767   */\n      swap2\n      swap1\n      pop\n      jump\t// out\n        /* \"#utility.yul\":19773:20042   */\n    tag_367:\n        /* \"#utility.yul\":19883:19922   */\n      tag_571\n        /* \"#utility.yul\":19914:19921   */\n      dup4\n        /* \"#utility.yul\":19883:19922   */\n      tag_365\n      jump\t// in\n    tag_571:\n        /* \"#utility.yul\":19944:20035   */\n      tag_572\n        /* \"#utility.yul\":19993:20034   */\n      tag_573\n        /* \"#utility.yul\":20017:20033   */\n      dup3\n        /* \"#utility.yul\":19993:20034   */\n      tag_366\n      jump\t// in\n    tag_573:\n        /* \"#utility.yul\":19985:19991   */\n      dup5\n        /* \"#utility.yul\":19978:19982   */\n      dup5\n        /* \"#utility.yul\":19972:19983   */\n      sload\n        /* \"#utility.yul\":19944:20035   */\n      tag_363\n      jump\t// in\n    tag_572:\n        /* \"#utility.yul\":19938:19942   */\n      dup3\n        /* \"#utility.yul\":19931:20036   */\n      sstore\n        /* \"#utility.yul\":19849:20042   */\n      pop\n        /* \"#utility.yul\":19773:20042   */\n      pop\n      pop\n      pop\n      jump\t// out\n        /* \"#utility.yul\":20048:20121   */\n    tag_368:\n        /* \"#utility.yul\":20093:20096   */\n      0x00\n        /* \"#utility.yul\":20048:20121   */\n      swap1\n      jump\t// out\n        /* \"#utility.yul\":20127:20316   */\n    tag_369:\n        /* \"#utility.yul\":20204:20236   */\n      tag_576\n      tag_368\n      jump\t// in\n    tag_576:\n        /* \"#utility.yul\":20245:20310   */\n      tag_577\n        /* \"#utility.yul\":20303:20309   */\n      dup2\n        /* \"#utility.yul\":20295:20301   */\n      dup5\n        /* \"#utility.yul\":20289:20293   */\n      dup5\n        /* \"#utility.yul\":20245:20310   */\n      tag_367\n      jump\t// in\n    tag_577:\n        /* \"#utility.yul\":20180:20316   */\n      pop\n        /* \"#utility.yul\":20127:20316   */\n      pop\n      pop\n      jump\t// out\n        /* \"#utility.yul\":20322:20508   */\n    tag_370:\n        /* \"#utility.yul\":20382:20502   */\n    tag_579:\n        /* \"#utility.yul\":20399:20402   */\n      dup2\n        /* \"#utility.yul\":20392:20397   */\n      dup2\n        /* \"#utility.yul\":20389:20403   */\n      lt\n        /* \"#utility.yul\":20382:20502   */\n      iszero\n      tag_581\n      jumpi\n        /* \"#utility.yul\":20453:20492   */\n      tag_582\n        /* \"#utility.yul\":20490:20491   */\n      0x00\n        /* \"#utility.yul\":20483:20488   */\n      dup3\n        /* \"#utility.yul\":20453:20492   */\n      tag_369\n      jump\t// in\n    tag_582:\n        /* \"#utility.yul\":20426:20427   */\n      0x01\n        /* \"#utility.yul\":20419:20424   */\n      dup2\n        /* \"#utility.yul\":20415:20428   */\n      add\n        /* \"#utility.yul\":20406:20428   */\n      swap1\n      pop\n        /* \"#utility.yul\":20382:20502   */\n      jump(tag_579)\n    tag_581:\n        /* \"#utility.yul\":20322:20508   */\n      pop\n      pop\n      jump\t// out\n        /* \"#utility.yul\":20514:21057   */\n    tag_371:\n        /* \"#utility.yul\":20615:20617   */\n      0x1f\n        /* \"#utility.yul\":20610:20613   */\n      dup3\n        /* \"#utility.yul\":20607:20618   */\n      gt\n        /* \"#utility.yul\":20604:21050   */\n      iszero\n      tag_584\n      jumpi\n        /* \"#utility.yul\":20649:20687   */\n      tag_585\n        /* \"#utility.yul\":20681:20686   */\n      dup2\n        /* \"#utility.yul\":20649:20687   */\n      tag_360\n      jump\t// in\n    tag_585:\n        /* \"#utility.yul\":20733:20762   */\n      tag_586\n        /* \"#utility.yul\":20751:20761   */\n      dup5\n        /* \"#utility.yul\":20733:20762   */\n      tag_361\n      jump\t// in\n    tag_586:\n        /* \"#utility.yul\":20723:20731   */\n      dup2\n        /* \"#utility.yul\":20719:20763   */\n      add\n        /* \"#utility.yul\":20916:20918   */\n      0x20\n        /* \"#utility.yul\":20904:20914   */\n      dup6\n        /* \"#utility.yul\":20901:20919   */\n      lt\n        /* \"#utility.yul\":20898:20947   */\n      iszero\n      tag_587\n      jumpi\n        /* \"#utility.yul\":20937:20945   */\n      dup2\n        /* \"#utility.yul\":20922:20945   */\n      swap1\n      pop\n        /* \"#utility.yul\":20898:20947   */\n    tag_587:\n        /* \"#utility.yul\":20960:21040   */\n      tag_588\n        /* \"#utility.yul\":21016:21038   */\n      tag_589\n        /* \"#utility.yul\":21034:21037   */\n      dup6\n        /* \"#utility.yul\":21016:21038   */\n      tag_361\n      jump\t// in\n    tag_589:\n        /* \"#utility.yul\":21006:21014   */\n      dup4\n        /* \"#utility.yul\":21002:21039   */\n      add\n        /* \"#utility.yul\":20989:21000   */\n      dup3\n        /* \"#utility.yul\":20960:21040   */\n      tag_370\n      jump\t// in\n    tag_588:\n        /* \"#utility.yul\":20619:21050   */\n      pop\n      pop\n        /* \"#utility.yul\":20604:21050   */\n    tag_584:\n        /* \"#utility.yul\":20514:21057   */\n      pop\n      pop\n      pop\n      jump\t// out\n        /* \"#utility.yul\":21063:21180   */\n    tag_372:\n        /* \"#utility.yul\":21117:21125   */\n      0x00\n        /* \"#utility.yul\":21167:21172   */\n      dup3\n        /* \"#utility.yul\":21161:21165   */\n      dup3\n        /* \"#utility.yul\":21157:21173   */\n      shr\n        /* \"#utility.yul\":21136:21173   */\n      swap1\n      pop\n        /* \"#utility.yul\":21063:21180   */\n      swap3\n      swap2\n      pop\n      pop\n      jump\t// out\n        /* \"#utility.yul\":21186:21355   */\n    tag_373:\n        /* \"#utility.yul\":21230:21236   */\n      0x00\n        /* \"#utility.yul\":21263:21314   */\n      tag_592\n        /* \"#utility.yul\":21311:21312   */\n      0x00\n        /* \"#utility.yul\":21307:21313   */\n      not\n        /* \"#utility.yul\":21299:21304   */\n      dup5\n        /* \"#utility.yul\":21296:21297   */\n      0x08\n        /* \"#utility.yul\":21292:21305   */\n      mul\n        /* \"#utility.yul\":21263:21314   */\n      tag_372\n      jump\t// in\n    tag_592:\n        /* \"#utility.yul\":21259:21315   */\n      not\n        /* \"#utility.yul\":21344:21348   */\n      dup1\n        /* \"#utility.yul\":21338:21342   */\n      dup4\n        /* \"#utility.yul\":21334:21349   */\n      and\n        /* \"#utility.yul\":21324:21349   */\n      swap2\n      pop\n        /* \"#utility.yul\":21237:21355   */\n      pop\n        /* \"#utility.yul\":21186:21355   */\n      swap3\n      swap2\n      pop\n      pop\n      jump\t// out\n        /* \"#utility.yul\":21360:21655   */\n    tag_374:\n        /* \"#utility.yul\":21436:21440   */\n      0x00\n        /* \"#utility.yul\":21582:21611   */\n      tag_594\n        /* \"#utility.yul\":21607:21610   */\n      dup4\n        /* \"#utility.yul\":21601:21605   */\n      dup4\n        /* \"#utility.yul\":21582:21611   */\n      tag_373\n      jump\t// in\n    tag_594:\n        /* \"#utility.yul\":21574:21611   */\n      swap2\n      pop\n        /* \"#utility.yul\":21644:21647   */\n      dup3\n        /* \"#utility.yul\":21641:21642   */\n      0x02\n        /* \"#utility.yul\":21637:21648   */\n      mul\n        /* \"#utility.yul\":21631:21635   */\n      dup3\n        /* \"#utility.yul\":21628:21649   */\n      or\n        /* \"#utility.yul\":21620:21649   */\n      swap1\n      pop\n        /* \"#utility.yul\":21360:21655   */\n      swap3\n      swap2\n      pop\n      pop\n      jump\t// out\n        /* \"#utility.yul\":21660:23055   */\n    tag_135:\n        /* \"#utility.yul\":21777:21814   */\n      tag_596\n        /* \"#utility.yul\":21810:21813   */\n      dup3\n        /* \"#utility.yul\":21777:21814   */\n      tag_310\n      jump\t// in\n    tag_596:\n        /* \"#utility.yul\":21879:21897   */\n      0xffffffffffffffff\n        /* \"#utility.yul\":21871:21877   */\n      dup2\n        /* \"#utility.yul\":21868:21898   */\n      gt\n        /* \"#utility.yul\":21865:21921   */\n      iszero\n      tag_597\n      jumpi\n        /* \"#utility.yul\":21901:21919   */\n      tag_598\n      tag_318\n      jump\t// in\n    tag_598:\n        /* \"#utility.yul\":21865:21921   */\n    tag_597:\n        /* \"#utility.yul\":21945:21983   */\n      tag_599\n        /* \"#utility.yul\":21977:21981   */\n      dup3\n        /* \"#utility.yul\":21971:21982   */\n      sload\n        /* \"#utility.yul\":21945:21983   */\n      tag_93\n      jump\t// in\n    tag_599:\n        /* \"#utility.yul\":22030:22097   */\n      tag_600\n        /* \"#utility.yul\":22090:22096   */\n      dup3\n        /* \"#utility.yul\":22082:22088   */\n      dup3\n        /* \"#utility.yul\":22076:22080   */\n      dup6\n        /* \"#utility.yul\":22030:22097   */\n      tag_371\n      jump\t// in\n    tag_600:\n        /* \"#utility.yul\":22124:22125   */\n      0x00\n        /* \"#utility.yul\":22148:22152   */\n      0x20\n        /* \"#utility.yul\":22135:22152   */\n      swap1\n      pop\n        /* \"#utility.yul\":22180:22182   */\n      0x1f\n        /* \"#utility.yul\":22172:22178   */\n      dup4\n        /* \"#utility.yul\":22169:22183   */\n      gt\n        /* \"#utility.yul\":22197:22198   */\n      0x01\n        /* \"#utility.yul\":22192:22810   */\n      dup2\n      eq\n      tag_602\n      jumpi\n        /* \"#utility.yul\":22854:22855   */\n      0x00\n        /* \"#utility.yul\":22871:22877   */\n      dup5\n        /* \"#utility.yul\":22868:22945   */\n      iszero\n      tag_603\n      jumpi\n        /* \"#utility.yul\":22920:22929   */\n      dup3\n        /* \"#utility.yul\":22915:22918   */\n      dup8\n        /* \"#utility.yul\":22911:22930   */\n      add\n        /* \"#utility.yul\":22905:22931   */\n      mload\n        /* \"#utility.yul\":22896:22931   */\n      swap1\n      pop\n        /* \"#utility.yul\":22868:22945   */\n    tag_603:\n        /* \"#utility.yul\":22971:23038   */\n      tag_604\n        /* \"#utility.yul\":23031:23037   */\n      dup6\n        /* \"#utility.yul\":23024:23029   */\n      dup3\n        /* \"#utility.yul\":22971:23038   */\n      tag_374\n      jump\t// in\n    tag_604:\n        /* \"#utility.yul\":22965:22969   */\n      dup7\n        /* \"#utility.yul\":22958:23039   */\n      sstore\n        /* \"#utility.yul\":22827:23049   */\n      pop\n        /* \"#utility.yul\":22162:23049   */\n      jump(tag_601)\n        /* \"#utility.yul\":22192:22810   */\n    tag_602:\n        /* \"#utility.yul\":22244:22248   */\n      0x1f\n        /* \"#utility.yul\":22240:22249   */\n      not\n        /* \"#utility.yul\":22232:22238   */\n      dup5\n        /* \"#utility.yul\":22228:22250   */\n      and\n        /* \"#utility.yul\":22278:22315   */\n      tag_605\n        /* \"#utility.yul\":22310:22314   */\n      dup7\n        /* \"#utility.yul\":22278:22315   */\n      tag_360\n      jump\t// in\n    tag_605:\n        /* \"#utility.yul\":22337:22338   */\n      0x00\n        /* \"#utility.yul\":22351:22559   */\n    tag_606:\n        /* \"#utility.yul\":22365:22372   */\n      dup3\n        /* \"#utility.yul\":22362:22363   */\n      dup2\n        /* \"#utility.yul\":22359:22373   */\n      lt\n        /* \"#utility.yul\":22351:22559   */\n      iszero\n      tag_608\n      jumpi\n        /* \"#utility.yul\":22444:22453   */\n      dup5\n        /* \"#utility.yul\":22439:22442   */\n      dup10\n        /* \"#utility.yul\":22435:22454   */\n      add\n        /* \"#utility.yul\":22429:22455   */\n      mload\n        /* \"#utility.yul\":22421:22427   */\n      dup3\n        /* \"#utility.yul\":22414:22456   */\n      sstore\n        /* \"#utility.yul\":22495:22496   */\n      0x01\n        /* \"#utility.yul\":22487:22493   */\n      dup3\n        /* \"#utility.yul\":22483:22497   */\n      add\n        /* \"#utility.yul\":22473:22497   */\n      swap2\n      pop\n        /* \"#utility.yul\":22542:22544   */\n      0x20\n        /* \"#utility.yul\":22531:22540   */\n      dup6\n        /* \"#utility.yul\":22527:22545   */\n      add\n        /* \"#utility.yul\":22514:22545   */\n      swap5\n      pop\n        /* \"#utility.yul\":22388:22392   */\n      0x20\n        /* \"#utility.yul\":22385:22386   */\n      dup2\n        /* \"#utility.yul\":22381:22393   */\n      add\n        /* \"#utility.yul\":22376:22393   */\n      swap1\n      pop\n        /* \"#utility.yul\":22351:22559   */\n      jump(tag_606)\n    tag_608:\n        /* \"#utility.yul\":22587:22593   */\n      dup7\n        /* \"#utility.yul\":22578:22585   */\n      dup4\n        /* \"#utility.yul\":22575:22594   */\n      lt\n        /* \"#utility.yul\":22572:22751   */\n      iszero\n      tag_609\n      jumpi\n        /* \"#utility.yul\":22645:22654   */\n      dup5\n        /* \"#utility.yul\":22640:22643   */\n      dup10\n        /* \"#utility.yul\":22636:22655   */\n      add\n        /* \"#utility.yul\":22630:22656   */\n      mload\n        /* \"#utility.yul\":22688:22736   */\n      tag_610\n        /* \"#utility.yul\":22730:22734   */\n      0x1f\n        /* \"#utility.yul\":22722:22728   */\n      dup10\n        /* \"#utility.yul\":22718:22735   */\n      and\n        /* \"#utility.yul\":22707:22716   */\n      dup3\n        /* \"#utility.yul\":22688:22736   */\n      tag_373\n      jump\t// in\n    tag_610:\n        /* \"#utility.yul\":22680:22686   */\n      dup4\n        /* \"#utility.yul\":22673:22737   */\n      sstore\n        /* \"#utility.yul\":22595:22751   */\n      pop\n        /* \"#utility.yul\":22572:22751   */\n    tag_609:\n        /* \"#utility.yul\":22797:22798   */\n      0x01\n        /* \"#utility.yul\":22793:22794   */\n      0x02\n        /* \"#utility.yul\":22785:22791   */\n      dup9\n        /* \"#utility.yul\":22781:22795   */\n      mul\n        /* \"#utility.yul\":22777:22799   */\n      add\n        /* \"#utility.yul\":22771:22775   */\n      dup9\n        /* \"#utility.yul\":22764:22800   */\n      sstore\n        /* \"#utility.yul\":22199:22810   */\n      pop\n      pop\n      pop\n        /* \"#utility.yul\":22162:23049   */\n    tag_601:\n      pop\n        /* \"#utility.yul\":21752:23055   */\n      pop\n      pop\n      pop\n        /* \"#utility.yul\":21660:23055   */\n      pop\n      pop\n      jump\t// out\n        /* \"#utility.yul\":23061:23243   */\n    tag_375:\n        /* \"#utility.yul\":23201:23235   */\n      0x4f776e61626c653a2063616c6c6572206973206e6f7420746865206f776e6572\n        /* \"#utility.yul\":23197:23198   */\n      0x00\n        /* \"#utility.yul\":23189:23195   */\n      dup3\n        /* \"#utility.yul\":23185:23199   */\n      add\n        /* \"#utility.yul\":23178:23236   */\n      mstore\n        /* \"#utility.yul\":23061:23243   */\n      pop\n      jump\t// out\n        /* \"#utility.yul\":23249:23615   */\n    tag_376:\n        /* \"#utility.yul\":23391:23394   */\n      0x00\n        /* \"#utility.yul\":23412:23479   */\n      tag_613\n        /* \"#utility.yul\":23476:23478   */\n      0x20\n        /* \"#utility.yul\":23471:23474   */\n      dup4\n        /* \"#utility.yul\":23412:23479   */\n      tag_311\n      jump\t// in\n    tag_613:\n        /* \"#utility.yul\":23405:23479   */\n      swap2\n      pop\n        /* \"#utility.yul\":23488:23581   */\n      tag_614\n        /* \"#utility.yul\":23577:23580   */\n      dup3\n        /* \"#utility.yul\":23488:23581   */\n      tag_375\n      jump\t// in\n    tag_614:\n        /* \"#utility.yul\":23606:23608   */\n      0x20\n        /* \"#utility.yul\":23601:23604   */\n      dup3\n        /* \"#utility.yul\":23597:23609   */\n      add\n        /* \"#utility.yul\":23590:23609   */\n      swap1\n      pop\n        /* \"#utility.yul\":23249:23615   */\n      swap2\n      swap1\n      pop\n      jump\t// out\n        /* \"#utility.yul\":23621:24040   */\n    tag_150:\n        /* \"#utility.yul\":23787:23791   */\n      0x00\n        /* \"#utility.yul\":23825:23827   */\n      0x20\n        /* \"#utility.yul\":23814:23823   */\n      dup3\n        /* \"#utility.yul\":23810:23828   */\n      add\n        /* \"#utility.yul\":23802:23828   */\n      swap1\n      pop\n        /* \"#utility.yul\":23874:23883   */\n      dup2\n        /* \"#utility.yul\":23868:23872   */\n      dup2\n        /* \"#utility.yul\":23864:23884   */\n      sub\n        /* \"#utility.yul\":23860:23861   */\n      0x00\n        /* \"#utility.yul\":23849:23858   */\n      dup4\n        /* \"#utility.yul\":23845:23862   */\n      add\n        /* \"#utility.yul\":23838:23885   */\n      mstore\n        /* \"#utility.yul\":23902:24033   */\n      tag_616\n        /* \"#utility.yul\":24028:24032   */\n      dup2\n        /* \"#utility.yul\":23902:24033   */\n      tag_376\n      jump\t// in\n    tag_616:\n        /* \"#utility.yul\":23894:24033   */\n      swap1\n      pop\n        /* \"#utility.yul\":23621:24040   */\n      swap2\n      swap1\n      pop\n      jump\t// out\n        /* \"#utility.yul\":24046:24226   */\n    tag_377:\n        /* \"#utility.yul\":24094:24171   */\n      0x4e487b7100000000000000000000000000000000000000000000000000000000\n        /* \"#utility.yul\":24091:24092   */\n      0x00\n        /* \"#utility.yul\":24084:24172   */\n      mstore\n        /* \"#utility.yul\":24191:24195   */\n      0x11\n        /* \"#utility.yul\":24188:24189   */\n      0x04\n        /* \"#utility.yul\":24181:24196   */\n      mstore\n        /* \"#utility.yul\":24215:24219   */\n      0x24\n        /* \"#utility.yul\":24212:24213   */\n      0x00\n        /* \"#utility.yul\":24205:24220   */\n      revert\n        /* \"#utility.yul\":24232:24465   */\n    tag_163:\n        /* \"#utility.yul\":24271:24274   */\n      0x00\n        /* \"#utility.yul\":24294:24318   */\n      tag_619\n        /* \"#utility.yul\":24312:24317   */\n      dup3\n        /* \"#utility.yul\":24294:24318   */\n      tag_307\n      jump\t// in\n    tag_619:\n        /* \"#utility.yul\":24285:24318   */\n      swap2\n      pop\n        /* \"#utility.yul\":24340:24406   */\n      0xffffffffffffffffffffffffffffffffffffffffffffffffffffffffffffffff\n        /* \"#utility.yul\":24333:24338   */\n      dup3\n        /* \"#utility.yul\":24330:24407   */\n      sub\n        /* \"#utility.yul\":24327:24430   */\n      tag_620\n      jumpi\n        /* \"#utility.yul\":24410:24428   */\n      tag_621\n      tag_377\n      jump\t// in\n    tag_621:\n        /* \"#utility.yul\":24327:24430   */\n    tag_620:\n        /* \"#utility.yul\":24457:24458   */\n      0x01\n        /* \"#utility.yul\":24450:24455   */\n      dup3\n        /* \"#utility.yul\":24446:24459   */\n      add\n        /* \"#utility.yul\":24439:24459   */\n      swap1\n      pop\n        /* \"#utility.yul\":24232:24465   */\n      swap2\n      swap1\n      pop\n      jump\t// out\n        /* \"#utility.yul\":24471:24867   */\n    tag_179:\n        /* \"#utility.yul\":24624:24628   */\n      0x00\n        /* \"#utility.yul\":24662:24664   */\n      0x40\n        /* \"#utility.yul\":24651:24660   */\n      dup3\n        /* \"#utility.yul\":24647:24665   */\n      add\n        /* \"#utility.yul\":24639:24665   */\n      swap1\n      pop\n        /* \"#utility.yul\":24675:24762   */\n      tag_623\n        /* \"#utility.yul\":24759:24760   */\n      0x00\n        /* \"#utility.yul\":24748:24757   */\n      dup4\n        /* \"#utility.yul\":24744:24761   */\n      add\n        /* \"#utility.yul\":24735:24741   */\n      dup6\n        /* \"#utility.yul\":24675:24762   */\n      tag_352\n      jump\t// in\n    tag_623:\n        /* \"#utility.yul\":24772:24860   */\n      tag_624\n        /* \"#utility.yul\":24856:24858   */\n      0x20\n        /* \"#utility.yul\":24845:24854   */\n      dup4\n        /* \"#utility.yul\":24841:24859   */\n      add\n        /* \"#utility.yul\":24832:24838   */\n      dup5\n        /* \"#utility.yul\":24772:24860   */\n      tag_352\n      jump\t// in\n    tag_624:\n        /* \"#utility.yul\":24471:24867   */\n      swap4\n      swap3\n      pop\n      pop\n      pop\n      jump\t// out\n        /* \"#utility.yul\":24873:25095   */\n    tag_378:\n        /* \"#utility.yul\":25013:25047   */\n      0x54686973206164647265737320697320616c7265616479207265676973747265\n        /* \"#utility.yul\":25009:25010   */\n      0x00\n        /* \"#utility.yul\":25001:25007   */\n      dup3\n        /* \"#utility.yul\":24997:25011   */\n      add\n        /* \"#utility.yul\":24990:25048   */\n      mstore\n        /* \"#utility.yul\":25082:25087   */\n      0x6420210000000000000000000000000000000000000000000000000000000000\n        /* \"#utility.yul\":25077:25079   */\n      0x20\n        /* \"#utility.yul\":25069:25075   */\n      dup3\n        /* \"#utility.yul\":25065:25080   */\n      add\n        /* \"#utility.yul\":25058:25088   */\n      mstore\n        /* \"#utility.yul\":24873:25095   */\n      pop\n      jump\t// out\n        /* \"#utility.yul\":25101:25467   */\n    tag_379:\n        /* \"#utility.yul\":25243:25246   */\n      0x00\n        /* \"#utility.yul\":25264:25331   */\n      tag_627\n        /* \"#utility.yul\":25328:25330   */\n      0x23\n        /* \"#utility.yul\":25323:25326   */\n      dup4\n        /* \"#utility.yul\":25264:25331   */\n      tag_311\n      jump\t// in\n    tag_627:\n        /* \"#utility.yul\":25257:25331   */\n      swap2\n      pop\n        /* \"#utility.yul\":25340:25433   */\n      tag_628\n        /* \"#utility.yul\":25429:25432   */\n      dup3\n        /* \"#utility.yul\":25340:25433   */\n      tag_378\n      jump\t// in\n    tag_628:\n        /* \"#utility.yul\":25458:25460   */\n      0x40\n        /* \"#utility.yul\":25453:25456   */\n      dup3\n        /* \"#utility.yul\":25449:25461   */\n      add\n        /* \"#utility.yul\":25442:25461   */\n      swap1\n      pop\n        /* \"#utility.yul\":25101:25467   */\n      swap2\n      swap1\n      pop\n      jump\t// out\n        /* \"#utility.yul\":25473:25892   */\n    tag_227:\n        /* \"#utility.yul\":25639:25643   */\n      0x00\n        /* \"#utility.yul\":25677:25679   */\n      0x20\n        /* \"#utility.yul\":25666:25675   */\n      dup3\n        /* \"#utility.yul\":25662:25680   */\n      add\n        /* \"#utility.yul\":25654:25680   */\n      swap1\n      pop\n        /* \"#utility.yul\":25726:25735   */\n      dup2\n        /* \"#utility.yul\":25720:25724   */\n      dup2\n        /* \"#utility.yul\":25716:25736   */\n      sub\n        /* \"#utility.yul\":25712:25713   */\n      0x00\n        /* \"#utility.yul\":25701:25710   */\n      dup4\n        /* \"#utility.yul\":25697:25714   */\n      add\n        /* \"#utility.yul\":25690:25737   */\n      mstore\n        /* \"#utility.yul\":25754:25885   */\n      tag_630\n        /* \"#utility.yul\":25880:25884   */\n      dup2\n        /* \"#utility.yul\":25754:25885   */\n      tag_379\n      jump\t// in\n    tag_630:\n        /* \"#utility.yul\":25746:25885   */\n      swap1\n      pop\n        /* \"#utility.yul\":25473:25892   */\n      swap2\n      swap1\n      pop\n      jump\t// out\n        /* \"#utility.yul\":25898:26123   */\n    tag_380:\n        /* \"#utility.yul\":26038:26072   */\n      0x4f776e61626c653a206e6577206f776e657220697320746865207a65726f2061\n        /* \"#utility.yul\":26034:26035   */\n      0x00\n        /* \"#utility.yul\":26026:26032   */\n      dup3\n        /* \"#utility.yul\":26022:26036   */\n      add\n        /* \"#utility.yul\":26015:26073   */\n      mstore\n        /* \"#utility.yul\":26107:26115   */\n      0x6464726573730000000000000000000000000000000000000000000000000000\n        /* \"#utility.yul\":26102:26104   */\n      0x20\n        /* \"#utility.yul\":26094:26100   */\n      dup3\n        /* \"#utility.yul\":26090:26105   */\n      add\n        /* \"#utility.yul\":26083:26116   */\n      mstore\n        /* \"#utility.yul\":25898:26123   */\n      pop\n      jump\t// out\n        /* \"#utility.yul\":26129:26495   */\n    tag_381:\n        /* \"#utility.yul\":26271:26274   */\n      0x00\n        /* \"#utility.yul\":26292:26359   */\n      tag_633\n        /* \"#utility.yul\":26356:26358   */\n      0x26\n        /* \"#utility.yul\":26351:26354   */\n      dup4\n        /* \"#utility.yul\":26292:26359   */\n      tag_311\n      jump\t// in\n    tag_633:\n        /* \"#utility.yul\":26285:26359   */\n      swap2\n      pop\n        /* \"#utility.yul\":26368:26461   */\n      tag_634\n        /* \"#utility.yul\":26457:26460   */\n      dup3\n        /* \"#utility.yul\":26368:26461   */\n      tag_380\n      jump\t// in\n    tag_634:\n        /* \"#utility.yul\":26486:26488   */\n      0x40\n        /* \"#utility.yul\":26481:26484   */\n      dup3\n        /* \"#utility.yul\":26477:26489   */\n      add\n        /* \"#utility.yul\":26470:26489   */\n      swap1\n      pop\n        /* \"#utility.yul\":26129:26495   */\n      swap2\n      swap1\n      pop\n      jump\t// out\n        /* \"#utility.yul\":26501:26920   */\n    tag_282:\n        /* \"#utility.yul\":26667:26671   */\n      0x00\n        /* \"#utility.yul\":26705:26707   */\n      0x20\n        /* \"#utility.yul\":26694:26703   */\n      dup3\n        /* \"#utility.yul\":26690:26708   */\n      add\n        /* \"#utility.yul\":26682:26708   */\n      swap1\n      pop\n        /* \"#utility.yul\":26754:26763   */\n      dup2\n        /* \"#utility.yul\":26748:26752   */\n      dup2\n        /* \"#utility.yul\":26744:26764   */\n      sub\n        /* \"#utility.yul\":26740:26741   */\n      0x00\n        /* \"#utility.yul\":26729:26738   */\n      dup4\n        /* \"#utility.yul\":26725:26742   */\n      add\n        /* \"#utility.yul\":26718:26765   */\n      mstore\n        /* \"#utility.yul\":26782:26913   */\n      tag_636\n        /* \"#utility.yul\":26908:26912   */\n      dup2\n        /* \"#utility.yul\":26782:26913   */\n      tag_381\n      jump\t// in\n    tag_636:\n        /* \"#utility.yul\":26774:26913   */\n      swap1\n      pop\n        /* \"#utility.yul\":26501:26920   */\n      swap2\n      swap1\n      pop\n      jump\t// out\n        /* \"#utility.yul\":26926:27231   */\n    tag_301:\n        /* \"#utility.yul\":26966:26969   */\n      0x00\n        /* \"#utility.yul\":26985:27005   */\n      tag_638\n        /* \"#utility.yul\":27003:27004   */\n      dup3\n        /* \"#utility.yul\":26985:27005   */\n      tag_307\n      jump\t// in\n    tag_638:\n        /* \"#utility.yul\":26980:27005   */\n      swap2\n      pop\n        /* \"#utility.yul\":27019:27039   */\n      tag_639\n        /* \"#utility.yul\":27037:27038   */\n      dup4\n        /* \"#utility.yul\":27019:27039   */\n      tag_307\n      jump\t// in\n    tag_639:\n        /* \"#utility.yul\":27014:27039   */\n      swap3\n      pop\n        /* \"#utility.yul\":27173:27174   */\n      dup3\n        /* \"#utility.yul\":27105:27171   */\n      0xffffffffffffffffffffffffffffffffffffffffffffffffffffffffffffffff\n        /* \"#utility.yul\":27101:27175   */\n      sub\n        /* \"#utility.yul\":27098:27099   */\n      dup3\n        /* \"#utility.yul\":27095:27176   */\n      gt\n        /* \"#utility.yul\":27092:27199   */\n      iszero\n      tag_640\n      jumpi\n        /* \"#utility.yul\":27179:27197   */\n      tag_641\n      tag_377\n      jump\t// in\n    tag_641:\n        /* \"#utility.yul\":27092:27199   */\n    tag_640:\n        /* \"#utility.yul\":27223:27224   */\n      dup3\n        /* \"#utility.yul\":27220:27221   */\n      dup3\n        /* \"#utility.yul\":27216:27225   */\n      add\n        /* \"#utility.yul\":27209:27225   */\n      swap1\n      pop\n        /* \"#utility.yul\":26926:27231   */\n      swap3\n      swap2\n      pop\n      pop\n      jump\t// out\n\n    auxdata: 0xa2646970667358221220435689be2dc8de9b3f705441e433f152afb991805c93de1343b1835d03f27e3864736f6c634300080f0033\n}\n",
				"bytecode": {
					"linkReferences": {},
					"object": "608060405260006002556000600660006101000a81548160ff0219169083600581111562000032576200003162000137565b5b02179055503480156200004457600080fd5b5062000065620000596200006b60201b60201c565b6200007360201b60201c565b62000166565b600033905090565b60008060009054906101000a900473ffffffffffffffffffffffffffffffffffffffff169050816000806101000a81548173ffffffffffffffffffffffffffffffffffffffff021916908373ffffffffffffffffffffffffffffffffffffffff1602179055508173ffffffffffffffffffffffffffffffffffffffff168173ffffffffffffffffffffffffffffffffffffffff167f8be0079c531659141344cd1fd0a4f28419497f9722a3daafe3b4186f6b6457e060405160405180910390a35050565b7f4e487b7100000000000000000000000000000000000000000000000000000000600052602160045260246000fd5b61269a80620001766000396000f3fe608060405234801561001057600080fd5b50600436106101215760003560e01c80638da5cb5b116100ad578063d1f165d511610071578063d1f165d514610287578063edf26d9b146102a5578063f2fde38b146102d5578063f7ad7645146102f1578063fbed253a1461030f57610121565b80638da5cb5b146102075780638f20cd0514610225578063a39fac1214610241578063ada7415f1461025f578063b92239461461027d57610121565b80634c0a6af0116100f45780634c0a6af01461019957806362564c48146101a357806367ffc3c3146101c1578063715018a6146101f357806377331897146101fd57610121565b8063013cf08b146101265780631930dc58146101575780632fdae3c514610173578063378a21781461018f575b600080fd5b610140600480360381019061013b919061183f565b610319565b60405161014e929190611914565b60405180910390f35b610171600480360381019061016c919061183f565b6103d5565b005b61018d60048036038101906101889190611a79565b610683565b005b610197610816565b005b6101a1610959565b005b6101ab610aab565b6040516101b89190611c1a565b60405180910390f35b6101db60048036038101906101d69190611c9a565b610ba6565b6040516101ea93929190611ce2565b60405180910390f35b6101fb610bea565b005b610205610c72565b005b61020f610dc4565b60405161021c9190611d28565b60405180910390f35b61023f600480360381019061023a9190611c9a565b610ded565b005b61024961108c565b6040516102569190611e01565b60405180910390f35b61026761111a565b6040516102749190611e23565b60405180910390f35b61028561126f565b005b61028f6113c1565b60405161029c9190611e3e565b60405180910390f35b6102bf60048036038101906102ba919061183f565b611478565b6040516102cc9190611d28565b60405180910390f35b6102ef60048036038101906102ea9190611c9a565b6114b7565b005b6102f96115ae565b6040516103069190611ed7565b60405180910390f35b6103176115c1565b005b6004818154811061032957600080fd5b906000526020600020906002020160009150905080600001805461034c90611f21565b80601f016020809104026020016040519081016040528092919081815260200182805461037890611f21565b80156103c55780601f1061039a576101008083540402835291602001916103c5565b820191906000526020600020905b8154815290600101906020018083116103a857829003601f168201915b5050505050908060010154905082565b6003600660009054906101000a900460ff1660058111156103f9576103f8611e60565b5b81600581111561040c5761040b611e60565b5b1461041657600080fd5b60011515600360003373ffffffffffffffffffffffffffffffffffffffff1673ffffffffffffffffffffffffffffffffffffffff16815260200190815260200160002060000160009054906101000a900460ff161515146104ac576040517f08c379a00000000000000000000000000000000000000000000000000000000081526004016104a390611fc4565b60405180910390fd5b60001515600360003373ffffffffffffffffffffffffffffffffffffffff1673ffffffffffffffffffffffffffffffffffffffff16815260200190815260200160002060000160019054906101000a900460ff16151514610542576040517f08c379a000000000000000000000000000000000000000000000000000000000815260040161053990612056565b60405180910390fd5b81600360003373ffffffffffffffffffffffffffffffffffffffff1673ffffffffffffffffffffffffffffffffffffffff168152602001908152602001600020600101819055506001600360003373ffffffffffffffffffffffffffffffffffffffff1673ffffffffffffffffffffffffffffffffffffffff16815260200190815260200160002060000160016101000a81548160ff02191690831515021790555061061d6001600484815481106105fd576105fc612076565b5b90600052602060002090600202016001015461171390919063ffffffff16565b6004838154811061063157610630612076565b5b9060005260206000209060020201600101819055507f4d99b957a2bc29a30ebd96a7be8e68fe50a3c701db28a91436490b7d53870ca433836040516106779291906120a5565b60405180910390a15050565b6001600660009054906101000a900460ff1660058111156106a7576106a6611e60565b5b8160058111156106ba576106b9611e60565b5b146106c457600080fd5b60011515600360003373ffffffffffffffffffffffffffffffffffffffff1673ffffffffffffffffffffffffffffffffffffffff16815260200190815260200160002060000160009054906101000a900460ff1615151461075a576040517f08c379a000000000000000000000000000000000000000000000000000000000815260040161075190612140565b60405180910390fd5b600460405180604001604052808481526020016000815250908060018154018082558091505060019003906000526020600020906002020160009091909190915060008201518160000190816107b0919061230c565b506020820151816001015550506107d3600160025461171390919063ffffffff16565b6002819055507f57fd9a443a206aa57d09a57a5778b78d50d0e2003641ec27cd3f767359c97eba60025460405161080a9190611e23565b60405180910390a15050565b6004600660009054906101000a900460ff16600581111561083a57610839611e60565b5b81600581111561084d5761084c611e60565b5b1461085757600080fd5b61085f611729565b73ffffffffffffffffffffffffffffffffffffffff1661087d610dc4565b73ffffffffffffffffffffffffffffffffffffffff16146108d3576040517f08c379a00000000000000000000000000000000000000000000000000000000081526004016108ca9061242a565b60405180910390fd5b6000805b6004805490508110156109545781600482815481106108f9576108f8612076565b5b9060005260206000209060020201600101541115610941576004818154811061092557610924612076565b5b9060005260206000209060020201600101549150806001819055505b808061094c90612479565b9150506108d7565b505050565b610961611729565b73ffffffffffffffffffffffffffffffffffffffff1661097f610dc4565b73ffffffffffffffffffffffffffffffffffffffff16146109d5576040517f08c379a00000000000000000000000000000000000000000000000000000000081526004016109cc9061242a565b60405180910390fd5b6002600660009054906101000a900460ff1660058111156109f9576109f8611e60565b5b816005811115610a0c57610a0b611e60565b5b14610a1657600080fd5b6003600660006101000a81548160ff02191690836005811115610a3c57610a3b611e60565b5b02179055507f1b8e19a458c1bcd88553332c518cc5c4e2d5793e712ee766d4f1c14f672ef1f560405160405180910390a17f0a97a4ee45751e2abf3e4fc8946939630b11b371ea8ae39ccdc3056e98f5cc3f60026003604051610aa09291906124c1565b60405180910390a150565b60606004805480602002602001604051908101604052809291908181526020016000905b82821015610b9d5783829060005260206000209060020201604051806040016040529081600082018054610b0290611f21565b80601f0160208091040260200160405190810160405280929190818152602001828054610b2e90611f21565b8015610b7b5780601f10610b5057610100808354040283529160200191610b7b565b820191906000526020600020905b815481529060010190602001808311610b5e57829003601f168201915b5050505050815260200160018201548152505081526020019060010190610acf565b50505050905090565b60036020528060005260406000206000915090508060000160009054906101000a900460ff16908060000160019054906101000a900460ff16908060010154905083565b610bf2611729565b73ffffffffffffffffffffffffffffffffffffffff16610c10610dc4565b73ffffffffffffffffffffffffffffffffffffffff1614610c66576040517f08c379a0000000000000000000000000000000000000000000000000000000008152600401610c5d9061242a565b60405180910390fd5b610c706000611731565b565b610c7a611729565b73ffffffffffffffffffffffffffffffffffffffff16610c98610dc4565b73ffffffffffffffffffffffffffffffffffffffff1614610cee576040517f08c379a0000000000000000000000000000000000000000000000000000000008152600401610ce59061242a565b60405180910390fd5b6001600660009054906101000a900460ff166005811115610d1257610d11611e60565b5b816005811115610d2557610d24611e60565b5b14610d2f57600080fd5b6002600660006101000a81548160ff02191690836005811115610d5557610d54611e60565b5b02179055507f240cb87b2e4df4c318e72bd714d45a9cad60249e883ff56b1fffd83a4595a8fa60405160405180910390a17f0a97a4ee45751e2abf3e4fc8946939630b11b371ea8ae39ccdc3056e98f5cc3f60016002604051610db99291906124c1565b60405180910390a150565b60008060009054906101000a900473ffffffffffffffffffffffffffffffffffffffff16905090565b610df5611729565b73ffffffffffffffffffffffffffffffffffffffff16610e13610dc4565b73ffffffffffffffffffffffffffffffffffffffff1614610e69576040517f08c379a0000000000000000000000000000000000000000000000000000000008152600401610e609061242a565b60405180910390fd5b6000600660009054906101000a900460ff166005811115610e8d57610e8c611e60565b5b816005811115610ea057610e9f611e60565b5b14610eaa57600080fd5b60011515600360008473ffffffffffffffffffffffffffffffffffffffff1673ffffffffffffffffffffffffffffffffffffffff16815260200190815260200160002060000160009054906101000a900460ff16151503610f40576040517f08c379a0000000000000000000000000000000000000000000000000000000008152600401610f379061255c565b60405180910390fd5b60405180606001604052806001151581526020016000151581526020016000815250600360008473ffffffffffffffffffffffffffffffffffffffff1673ffffffffffffffffffffffffffffffffffffffff16815260200190815260200160002060008201518160000160006101000a81548160ff02191690831515021790555060208201518160000160016101000a81548160ff021916908315150217905550604082015181600101559050506005829080600181540180825580915050600190039060005260206000200160009091909190916101000a81548173ffffffffffffffffffffffffffffffffffffffff021916908373ffffffffffffffffffffffffffffffffffffffff1602179055507f9358bb242636b892ffeabcf2266d52aae96f1fc29d6157ad1225e89e858baa69826040516110809190611d28565b60405180910390a15050565b6060600580548060200260200160405190810160405280929190818152602001828054801561111057602002820191906000526020600020905b8160009054906101000a900473ffffffffffffffffffffffffffffffffffffffff1673ffffffffffffffffffffffffffffffffffffffff16815260200190600101908083116110c6575b5050505050905090565b60006004600660009054906101000a900460ff1660058111156111405761113f611e60565b5b81600581111561115357611152611e60565b5b1461115d57600080fd5b611165611729565b73ffffffffffffffffffffffffffffffffffffffff16611183610dc4565b73ffffffffffffffffffffffffffffffffffffffff16146111d9576040517f08c379a00000000000000000000000000000000000000000000000000000000081526004016111d09061242a565b60405180910390fd5b6005600660006101000a81548160ff021916908360058111156111ff576111fe611e60565b5b02179055507f0e5e95ff8725ab3e7a4b6b59998a4c344c2aa8d1485f5e60cb7f337768e6134760405160405180910390a17f0a97a4ee45751e2abf3e4fc8946939630b11b371ea8ae39ccdc3056e98f5cc3f600460056040516112639291906124c1565b60405180910390a15090565b6003600660009054906101000a900460ff16600581111561129357611292611e60565b5b8160058111156112a6576112a5611e60565b5b146112b057600080fd5b6112b8611729565b73ffffffffffffffffffffffffffffffffffffffff166112d6610dc4565b73ffffffffffffffffffffffffffffffffffffffff161461132c576040517f08c379a00000000000000000000000000000000000000000000000000000000081526004016113239061242a565b60405180910390fd5b6004600660006101000a81548160ff0219169083600581111561135257611351611e60565b5b02179055507fc379d349a6301baf50fb2f98d829f4ae10b1cdb7c66f4e4d8117302df7b8cd4c60405160405180910390a17f0a97a4ee45751e2abf3e4fc8946939630b11b371ea8ae39ccdc3056e98f5cc3f600360046040516113b69291906124c1565b60405180910390a150565b60606004600154815481106113d9576113d8612076565b5b906000526020600020906002020160000180546113f590611f21565b80601f016020809104026020016040519081016040528092919081815260200182805461142190611f21565b801561146e5780601f106114435761010080835404028352916020019161146e565b820191906000526020600020905b81548152906001019060200180831161145157829003601f168201915b5050505050905090565b6005818154811061148857600080fd5b906000526020600020016000915054906101000a900473ffffffffffffffffffffffffffffffffffffffff1681565b6114bf611729565b73ffffffffffffffffffffffffffffffffffffffff166114dd610dc4565b73ffffffffffffffffffffffffffffffffffffffff1614611533576040517f08c379a000000000000000000000000000000000000000000000000000000000815260040161152a9061242a565b60405180910390fd5b600073ffffffffffffffffffffffffffffffffffffffff168173ffffffffffffffffffffffffffffffffffffffff16036115a2576040517f08c379a0000000000000000000000000000000000000000000000000000000008152600401611599906125ee565b60405180910390fd5b6115ab81611731565b50565b600660009054906101000a900460ff1681565b6115c9611729565b73ffffffffffffffffffffffffffffffffffffffff166115e7610dc4565b73ffffffffffffffffffffffffffffffffffffffff161461163d576040517f08c379a00000000000000000000000000000000000000000000000000000000081526004016116349061242a565b60405180910390fd5b6000600660009054906101000a900460ff16600581111561166157611660611e60565b5b81600581111561167457611673611e60565b5b1461167e57600080fd5b7f344c25562921d075a298d34b6dd1fd00d36ff293974539dfd4a8c625d9f0064c60405160405180910390a16001600660006101000a81548160ff021916908360058111156116d0576116cf611e60565b5b02179055507f0a97a4ee45751e2abf3e4fc8946939630b11b371ea8ae39ccdc3056e98f5cc3f600060016040516117089291906124c1565b60405180910390a150565b60008183611721919061260e565b905092915050565b600033905090565b60008060009054906101000a900473ffffffffffffffffffffffffffffffffffffffff169050816000806101000a81548173ffffffffffffffffffffffffffffffffffffffff021916908373ffffffffffffffffffffffffffffffffffffffff1602179055508173ffffffffffffffffffffffffffffffffffffffff168173ffffffffffffffffffffffffffffffffffffffff167f8be0079c531659141344cd1fd0a4f28419497f9722a3daafe3b4186f6b6457e060405160405180910390a35050565b6000604051905090565b600080fd5b600080fd5b6000819050919050565b61181c81611809565b811461182757600080fd5b50565b60008135905061183981611813565b92915050565b600060208284031215611855576118546117ff565b5b60006118638482850161182a565b91505092915050565b600081519050919050565b600082825260208201905092915050565b60005b838110156118a657808201518184015260208101905061188b565b838111156118b5576000848401525b50505050565b6000601f19601f8301169050919050565b60006118d78261186c565b6118e18185611877565b93506118f1818560208601611888565b6118fa816118bb565b840191505092915050565b61190e81611809565b82525050565b6000604082019050818103600083015261192e81856118cc565b905061193d6020830184611905565b9392505050565b600080fd5b600080fd5b7f4e487b7100000000000000000000000000000000000000000000000000000000600052604160045260246000fd5b611986826118bb565b810181811067ffffffffffffffff821117156119a5576119a461194e565b5b80604052505050565b60006119b86117f5565b90506119c4828261197d565b919050565b600067ffffffffffffffff8211156119e4576119e361194e565b5b6119ed826118bb565b9050602081019050919050565b82818337600083830152505050565b6000611a1c611a17846119c9565b6119ae565b905082815260208101848484011115611a3857611a37611949565b5b611a438482856119fa565b509392505050565b600082601f830112611a6057611a5f611944565b5b8135611a70848260208601611a09565b91505092915050565b600060208284031215611a8f57611a8e6117ff565b5b600082013567ffffffffffffffff811115611aad57611aac611804565b5b611ab984828501611a4b565b91505092915050565b600081519050919050565b600082825260208201905092915050565b6000819050602082019050919050565b600082825260208201905092915050565b6000611b0a8261186c565b611b148185611aee565b9350611b24818560208601611888565b611b2d816118bb565b840191505092915050565b611b4181611809565b82525050565b60006040830160008301518482036000860152611b648282611aff565b9150506020830151611b796020860182611b38565b508091505092915050565b6000611b908383611b47565b905092915050565b6000602082019050919050565b6000611bb082611ac2565b611bba8185611acd565b935083602082028501611bcc85611ade565b8060005b85811015611c085784840389528151611be98582611b84565b9450611bf483611b98565b925060208a01995050600181019050611bd0565b50829750879550505050505092915050565b60006020820190508181036000830152611c348184611ba5565b905092915050565b600073ffffffffffffffffffffffffffffffffffffffff82169050919050565b6000611c6782611c3c565b9050919050565b611c7781611c5c565b8114611c8257600080fd5b50565b600081359050611c9481611c6e565b92915050565b600060208284031215611cb057611caf6117ff565b5b6000611cbe84828501611c85565b91505092915050565b60008115159050919050565b611cdc81611cc7565b82525050565b6000606082019050611cf76000830186611cd3565b611d046020830185611cd3565b611d116040830184611905565b949350505050565b611d2281611c5c565b82525050565b6000602082019050611d3d6000830184611d19565b92915050565b600081519050919050565b600082825260208201905092915050565b6000819050602082019050919050565b611d7881611c5c565b82525050565b6000611d8a8383611d6f565b60208301905092915050565b6000602082019050919050565b6000611dae82611d43565b611db88185611d4e565b9350611dc383611d5f565b8060005b83811015611df4578151611ddb8882611d7e565b9750611de683611d96565b925050600181019050611dc7565b5085935050505092915050565b60006020820190508181036000830152611e1b8184611da3565b905092915050565b6000602082019050611e386000830184611905565b92915050565b60006020820190508181036000830152611e5881846118cc565b905092915050565b7f4e487b7100000000000000000000000000000000000000000000000000000000600052602160045260246000fd5b60068110611ea057611e9f611e60565b5b50565b6000819050611eb182611e8f565b919050565b6000611ec182611ea3565b9050919050565b611ed181611eb6565b82525050565b6000602082019050611eec6000830184611ec8565b92915050565b7f4e487b7100000000000000000000000000000000000000000000000000000000600052602260045260246000fd5b60006002820490506001821680611f3957607f821691505b602082108103611f4c57611f4b611ef2565b5b50919050565b7f596f75277265206e6f7420726567697374657265642c20796f752063616e277460008201527f20766f7465000000000000000000000000000000000000000000000000000000602082015250565b6000611fae602583611877565b9150611fb982611f52565b604082019050919050565b60006020820190508181036000830152611fdd81611fa1565b9050919050565b7f596f7527766520616c726561647920766f746520666f7220612070726f706f7360008201527f616c000000000000000000000000000000000000000000000000000000000000602082015250565b6000612040602283611877565b915061204b82611fe4565b604082019050919050565b6000602082019050818103600083015261206f81612033565b9050919050565b7f4e487b7100000000000000000000000000000000000000000000000000000000600052603260045260246000fd5b60006040820190506120ba6000830185611d19565b6120c76020830184611905565b9392505050565b7f596f75277265206e6f7420726567697374657265642c20796f752063616e277460008201527f207375626d697420612070726f706f73616c0000000000000000000000000000602082015250565b600061212a603283611877565b9150612135826120ce565b604082019050919050565b600060208201905081810360008301526121598161211d565b9050919050565b60008190508160005260206000209050919050565b60006020601f8301049050919050565b600082821b905092915050565b6000600883026121c27fffffffffffffffffffffffffffffffffffffffffffffffffffffffffffffffff82612185565b6121cc8683612185565b95508019841693508086168417925050509392505050565b6000819050919050565b60006122096122046121ff84611809565b6121e4565b611809565b9050919050565b6000819050919050565b612223836121ee565b61223761222f82612210565b848454612192565b825550505050565b600090565b61224c61223f565b61225781848461221a565b505050565b5b8181101561227b57612270600082612244565b60018101905061225d565b5050565b601f8211156122c05761229181612160565b61229a84612175565b810160208510156122a9578190505b6122bd6122b585612175565b83018261225c565b50505b505050565b600082821c905092915050565b60006122e3600019846008026122c5565b1980831691505092915050565b60006122fc83836122d2565b9150826002028217905092915050565b6123158261186c565b67ffffffffffffffff81111561232e5761232d61194e565b5b6123388254611f21565b61234382828561227f565b600060209050601f8311600181146123765760008415612364578287015190505b61236e85826122f0565b8655506123d6565b601f19841661238486612160565b60005b828110156123ac57848901518255600182019150602085019450602081019050612387565b868310156123c957848901516123c5601f8916826122d2565b8355505b6001600288020188555050505b505050505050565b7f4f776e61626c653a2063616c6c6572206973206e6f7420746865206f776e6572600082015250565b6000612414602083611877565b915061241f826123de565b602082019050919050565b6000602082019050818103600083015261244381612407565b9050919050565b7f4e487b7100000000000000000000000000000000000000000000000000000000600052601160045260246000fd5b600061248482611809565b91507fffffffffffffffffffffffffffffffffffffffffffffffffffffffffffffffff82036124b6576124b561244a565b5b600182019050919050565b60006040820190506124d66000830185611ec8565b6124e36020830184611ec8565b9392505050565b7f54686973206164647265737320697320616c726561647920726567697374726560008201527f6420210000000000000000000000000000000000000000000000000000000000602082015250565b6000612546602383611877565b9150612551826124ea565b604082019050919050565b6000602082019050818103600083015261257581612539565b9050919050565b7f4f776e61626c653a206e6577206f776e657220697320746865207a65726f206160008201527f6464726573730000000000000000000000000000000000000000000000000000602082015250565b60006125d8602683611877565b91506125e38261257c565b604082019050919050565b60006020820190508181036000830152612607816125cb565b9050919050565b600061261982611809565b915061262483611809565b9250827fffffffffffffffffffffffffffffffffffffffffffffffffffffffffffffffff038211156126595761265861244a565b5b82820190509291505056fea2646970667358221220435689be2dc8de9b3f705441e433f152afb991805c93de1343b1835d03f27e3864736f6c634300080f0033",
					"opcodes": "PUSH1 0x80 PUSH1 0x40 MSTORE PUSH1 0x0 PUSH1 0x2 SSTORE PUSH1 0x0 PUSH1 0x6 PUSH1 0x0 PUSH2 0x100 EXP DUP2 SLOAD DUP2 PUSH1 0xFF MUL NOT AND SWAP1 DUP4 PUSH1 0x5 DUP2 GT ISZERO PUSH3 0x32 JUMPI PUSH3 0x31 PUSH3 0x137 JUMP JUMPDEST JUMPDEST MUL OR SWAP1 SSTORE POP CALLVALUE DUP1 ISZERO PUSH3 0x44 JUMPI PUSH1 0x0 DUP1 REVERT JUMPDEST POP PUSH3 0x65 PUSH3 0x59 PUSH3 0x6B PUSH1 0x20 SHL PUSH1 0x20 SHR JUMP JUMPDEST PUSH3 0x73 PUSH1 0x20 SHL PUSH1 0x20 SHR JUMP JUMPDEST PUSH3 0x166 JUMP JUMPDEST PUSH1 0x0 CALLER SWAP1 POP SWAP1 JUMP JUMPDEST PUSH1 0x0 DUP1 PUSH1 0x0 SWAP1 SLOAD SWAP1 PUSH2 0x100 EXP SWAP1 DIV PUSH20 0xFFFFFFFFFFFFFFFFFFFFFFFFFFFFFFFFFFFFFFFF AND SWAP1 POP DUP2 PUSH1 0x0 DUP1 PUSH2 0x100 EXP DUP2 SLOAD DUP2 PUSH20 0xFFFFFFFFFFFFFFFFFFFFFFFFFFFFFFFFFFFFFFFF MUL NOT AND SWAP1 DUP4 PUSH20 0xFFFFFFFFFFFFFFFFFFFFFFFFFFFFFFFFFFFFFFFF AND MUL OR SWAP1 SSTORE POP DUP2 PUSH20 0xFFFFFFFFFFFFFFFFFFFFFFFFFFFFFFFFFFFFFFFF AND DUP2 PUSH20 0xFFFFFFFFFFFFFFFFFFFFFFFFFFFFFFFFFFFFFFFF AND PUSH32 0x8BE0079C531659141344CD1FD0A4F28419497F9722A3DAAFE3B4186F6B6457E0 PUSH1 0x40 MLOAD PUSH1 0x40 MLOAD DUP1 SWAP2 SUB SWAP1 LOG3 POP POP JUMP JUMPDEST PUSH32 0x4E487B7100000000000000000000000000000000000000000000000000000000 PUSH1 0x0 MSTORE PUSH1 0x21 PUSH1 0x4 MSTORE PUSH1 0x24 PUSH1 0x0 REVERT JUMPDEST PUSH2 0x269A DUP1 PUSH3 0x176 PUSH1 0x0 CODECOPY PUSH1 0x0 RETURN INVALID PUSH1 0x80 PUSH1 0x40 MSTORE CALLVALUE DUP1 ISZERO PUSH2 0x10 JUMPI PUSH1 0x0 DUP1 REVERT JUMPDEST POP PUSH1 0x4 CALLDATASIZE LT PUSH2 0x121 JUMPI PUSH1 0x0 CALLDATALOAD PUSH1 0xE0 SHR DUP1 PUSH4 0x8DA5CB5B GT PUSH2 0xAD JUMPI DUP1 PUSH4 0xD1F165D5 GT PUSH2 0x71 JUMPI DUP1 PUSH4 0xD1F165D5 EQ PUSH2 0x287 JUMPI DUP1 PUSH4 0xEDF26D9B EQ PUSH2 0x2A5 JUMPI DUP1 PUSH4 0xF2FDE38B EQ PUSH2 0x2D5 JUMPI DUP1 PUSH4 0xF7AD7645 EQ PUSH2 0x2F1 JUMPI DUP1 PUSH4 0xFBED253A EQ PUSH2 0x30F JUMPI PUSH2 0x121 JUMP JUMPDEST DUP1 PUSH4 0x8DA5CB5B EQ PUSH2 0x207 JUMPI DUP1 PUSH4 0x8F20CD05 EQ PUSH2 0x225 JUMPI DUP1 PUSH4 0xA39FAC12 EQ PUSH2 0x241 JUMPI DUP1 PUSH4 0xADA7415F EQ PUSH2 0x25F JUMPI DUP1 PUSH4 0xB9223946 EQ PUSH2 0x27D JUMPI PUSH2 0x121 JUMP JUMPDEST DUP1 PUSH4 0x4C0A6AF0 GT PUSH2 0xF4 JUMPI DUP1 PUSH4 0x4C0A6AF0 EQ PUSH2 0x199 JUMPI DUP1 PUSH4 0x62564C48 EQ PUSH2 0x1A3 JUMPI DUP1 PUSH4 0x67FFC3C3 EQ PUSH2 0x1C1 JUMPI DUP1 PUSH4 0x715018A6 EQ PUSH2 0x1F3 JUMPI DUP1 PUSH4 0x77331897 EQ PUSH2 0x1FD JUMPI PUSH2 0x121 JUMP JUMPDEST DUP1 PUSH4 0x13CF08B EQ PUSH2 0x126 JUMPI DUP1 PUSH4 0x1930DC58 EQ PUSH2 0x157 JUMPI DUP1 PUSH4 0x2FDAE3C5 EQ PUSH2 0x173 JUMPI DUP1 PUSH4 0x378A2178 EQ PUSH2 0x18F JUMPI JUMPDEST PUSH1 0x0 DUP1 REVERT JUMPDEST PUSH2 0x140 PUSH1 0x4 DUP1 CALLDATASIZE SUB DUP2 ADD SWAP1 PUSH2 0x13B SWAP2 SWAP1 PUSH2 0x183F JUMP JUMPDEST PUSH2 0x319 JUMP JUMPDEST PUSH1 0x40 MLOAD PUSH2 0x14E SWAP3 SWAP2 SWAP1 PUSH2 0x1914 JUMP JUMPDEST PUSH1 0x40 MLOAD DUP1 SWAP2 SUB SWAP1 RETURN JUMPDEST PUSH2 0x171 PUSH1 0x4 DUP1 CALLDATASIZE SUB DUP2 ADD SWAP1 PUSH2 0x16C SWAP2 SWAP1 PUSH2 0x183F JUMP JUMPDEST PUSH2 0x3D5 JUMP JUMPDEST STOP JUMPDEST PUSH2 0x18D PUSH1 0x4 DUP1 CALLDATASIZE SUB DUP2 ADD SWAP1 PUSH2 0x188 SWAP2 SWAP1 PUSH2 0x1A79 JUMP JUMPDEST PUSH2 0x683 JUMP JUMPDEST STOP JUMPDEST PUSH2 0x197 PUSH2 0x816 JUMP JUMPDEST STOP JUMPDEST PUSH2 0x1A1 PUSH2 0x959 JUMP JUMPDEST STOP JUMPDEST PUSH2 0x1AB PUSH2 0xAAB JUMP JUMPDEST PUSH1 0x40 MLOAD PUSH2 0x1B8 SWAP2 SWAP1 PUSH2 0x1C1A JUMP JUMPDEST PUSH1 0x40 MLOAD DUP1 SWAP2 SUB SWAP1 RETURN JUMPDEST PUSH2 0x1DB PUSH1 0x4 DUP1 CALLDATASIZE SUB DUP2 ADD SWAP1 PUSH2 0x1D6 SWAP2 SWAP1 PUSH2 0x1C9A JUMP JUMPDEST PUSH2 0xBA6 JUMP JUMPDEST PUSH1 0x40 MLOAD PUSH2 0x1EA SWAP4 SWAP3 SWAP2 SWAP1 PUSH2 0x1CE2 JUMP JUMPDEST PUSH1 0x40 MLOAD DUP1 SWAP2 SUB SWAP1 RETURN JUMPDEST PUSH2 0x1FB PUSH2 0xBEA JUMP JUMPDEST STOP JUMPDEST PUSH2 0x205 PUSH2 0xC72 JUMP JUMPDEST STOP JUMPDEST PUSH2 0x20F PUSH2 0xDC4 JUMP JUMPDEST PUSH1 0x40 MLOAD PUSH2 0x21C SWAP2 SWAP1 PUSH2 0x1D28 JUMP JUMPDEST PUSH1 0x40 MLOAD DUP1 SWAP2 SUB SWAP1 RETURN JUMPDEST PUSH2 0x23F PUSH1 0x4 DUP1 CALLDATASIZE SUB DUP2 ADD SWAP1 PUSH2 0x23A SWAP2 SWAP1 PUSH2 0x1C9A JUMP JUMPDEST PUSH2 0xDED JUMP JUMPDEST STOP JUMPDEST PUSH2 0x249 PUSH2 0x108C JUMP JUMPDEST PUSH1 0x40 MLOAD PUSH2 0x256 SWAP2 SWAP1 PUSH2 0x1E01 JUMP JUMPDEST PUSH1 0x40 MLOAD DUP1 SWAP2 SUB SWAP1 RETURN JUMPDEST PUSH2 0x267 PUSH2 0x111A JUMP JUMPDEST PUSH1 0x40 MLOAD PUSH2 0x274 SWAP2 SWAP1 PUSH2 0x1E23 JUMP JUMPDEST PUSH1 0x40 MLOAD DUP1 SWAP2 SUB SWAP1 RETURN JUMPDEST PUSH2 0x285 PUSH2 0x126F JUMP JUMPDEST STOP JUMPDEST PUSH2 0x28F PUSH2 0x13C1 JUMP JUMPDEST PUSH1 0x40 MLOAD PUSH2 0x29C SWAP2 SWAP1 PUSH2 0x1E3E JUMP JUMPDEST PUSH1 0x40 MLOAD DUP1 SWAP2 SUB SWAP1 RETURN JUMPDEST PUSH2 0x2BF PUSH1 0x4 DUP1 CALLDATASIZE SUB DUP2 ADD SWAP1 PUSH2 0x2BA SWAP2 SWAP1 PUSH2 0x183F JUMP JUMPDEST PUSH2 0x1478 JUMP JUMPDEST PUSH1 0x40 MLOAD PUSH2 0x2CC SWAP2 SWAP1 PUSH2 0x1D28 JUMP JUMPDEST PUSH1 0x40 MLOAD DUP1 SWAP2 SUB SWAP1 RETURN JUMPDEST PUSH2 0x2EF PUSH1 0x4 DUP1 CALLDATASIZE SUB DUP2 ADD SWAP1 PUSH2 0x2EA SWAP2 SWAP1 PUSH2 0x1C9A JUMP JUMPDEST PUSH2 0x14B7 JUMP JUMPDEST STOP JUMPDEST PUSH2 0x2F9 PUSH2 0x15AE JUMP JUMPDEST PUSH1 0x40 MLOAD PUSH2 0x306 SWAP2 SWAP1 PUSH2 0x1ED7 JUMP JUMPDEST PUSH1 0x40 MLOAD DUP1 SWAP2 SUB SWAP1 RETURN JUMPDEST PUSH2 0x317 PUSH2 0x15C1 JUMP JUMPDEST STOP JUMPDEST PUSH1 0x4 DUP2 DUP2 SLOAD DUP2 LT PUSH2 0x329 JUMPI PUSH1 0x0 DUP1 REVERT JUMPDEST SWAP1 PUSH1 0x0 MSTORE PUSH1 0x20 PUSH1 0x0 KECCAK256 SWAP1 PUSH1 0x2 MUL ADD PUSH1 0x0 SWAP2 POP SWAP1 POP DUP1 PUSH1 0x0 ADD DUP1 SLOAD PUSH2 0x34C SWAP1 PUSH2 0x1F21 JUMP JUMPDEST DUP1 PUSH1 0x1F ADD PUSH1 0x20 DUP1 SWAP2 DIV MUL PUSH1 0x20 ADD PUSH1 0x40 MLOAD SWAP1 DUP2 ADD PUSH1 0x40 MSTORE DUP1 SWAP3 SWAP2 SWAP1 DUP2 DUP2 MSTORE PUSH1 0x20 ADD DUP3 DUP1 SLOAD PUSH2 0x378 SWAP1 PUSH2 0x1F21 JUMP JUMPDEST DUP1 ISZERO PUSH2 0x3C5 JUMPI DUP1 PUSH1 0x1F LT PUSH2 0x39A JUMPI PUSH2 0x100 DUP1 DUP4 SLOAD DIV MUL DUP4 MSTORE SWAP2 PUSH1 0x20 ADD SWAP2 PUSH2 0x3C5 JUMP JUMPDEST DUP3 ADD SWAP2 SWAP1 PUSH1 0x0 MSTORE PUSH1 0x20 PUSH1 0x0 KECCAK256 SWAP1 JUMPDEST DUP2 SLOAD DUP2 MSTORE SWAP1 PUSH1 0x1 ADD SWAP1 PUSH1 0x20 ADD DUP1 DUP4 GT PUSH2 0x3A8 JUMPI DUP3 SWAP1 SUB PUSH1 0x1F AND DUP3 ADD SWAP2 JUMPDEST POP POP POP POP POP SWAP1 DUP1 PUSH1 0x1 ADD SLOAD SWAP1 POP DUP3 JUMP JUMPDEST PUSH1 0x3 PUSH1 0x6 PUSH1 0x0 SWAP1 SLOAD SWAP1 PUSH2 0x100 EXP SWAP1 DIV PUSH1 0xFF AND PUSH1 0x5 DUP2 GT ISZERO PUSH2 0x3F9 JUMPI PUSH2 0x3F8 PUSH2 0x1E60 JUMP JUMPDEST JUMPDEST DUP2 PUSH1 0x5 DUP2 GT ISZERO PUSH2 0x40C JUMPI PUSH2 0x40B PUSH2 0x1E60 JUMP JUMPDEST JUMPDEST EQ PUSH2 0x416 JUMPI PUSH1 0x0 DUP1 REVERT JUMPDEST PUSH1 0x1 ISZERO ISZERO PUSH1 0x3 PUSH1 0x0 CALLER PUSH20 0xFFFFFFFFFFFFFFFFFFFFFFFFFFFFFFFFFFFFFFFF AND PUSH20 0xFFFFFFFFFFFFFFFFFFFFFFFFFFFFFFFFFFFFFFFF AND DUP2 MSTORE PUSH1 0x20 ADD SWAP1 DUP2 MSTORE PUSH1 0x20 ADD PUSH1 0x0 KECCAK256 PUSH1 0x0 ADD PUSH1 0x0 SWAP1 SLOAD SWAP1 PUSH2 0x100 EXP SWAP1 DIV PUSH1 0xFF AND ISZERO ISZERO EQ PUSH2 0x4AC JUMPI PUSH1 0x40 MLOAD PUSH32 0x8C379A000000000000000000000000000000000000000000000000000000000 DUP2 MSTORE PUSH1 0x4 ADD PUSH2 0x4A3 SWAP1 PUSH2 0x1FC4 JUMP JUMPDEST PUSH1 0x40 MLOAD DUP1 SWAP2 SUB SWAP1 REVERT JUMPDEST PUSH1 0x0 ISZERO ISZERO PUSH1 0x3 PUSH1 0x0 CALLER PUSH20 0xFFFFFFFFFFFFFFFFFFFFFFFFFFFFFFFFFFFFFFFF AND PUSH20 0xFFFFFFFFFFFFFFFFFFFFFFFFFFFFFFFFFFFFFFFF AND DUP2 MSTORE PUSH1 0x20 ADD SWAP1 DUP2 MSTORE PUSH1 0x20 ADD PUSH1 0x0 KECCAK256 PUSH1 0x0 ADD PUSH1 0x1 SWAP1 SLOAD SWAP1 PUSH2 0x100 EXP SWAP1 DIV PUSH1 0xFF AND ISZERO ISZERO EQ PUSH2 0x542 JUMPI PUSH1 0x40 MLOAD PUSH32 0x8C379A000000000000000000000000000000000000000000000000000000000 DUP2 MSTORE PUSH1 0x4 ADD PUSH2 0x539 SWAP1 PUSH2 0x2056 JUMP JUMPDEST PUSH1 0x40 MLOAD DUP1 SWAP2 SUB SWAP1 REVERT JUMPDEST DUP2 PUSH1 0x3 PUSH1 0x0 CALLER PUSH20 0xFFFFFFFFFFFFFFFFFFFFFFFFFFFFFFFFFFFFFFFF AND PUSH20 0xFFFFFFFFFFFFFFFFFFFFFFFFFFFFFFFFFFFFFFFF AND DUP2 MSTORE PUSH1 0x20 ADD SWAP1 DUP2 MSTORE PUSH1 0x20 ADD PUSH1 0x0 KECCAK256 PUSH1 0x1 ADD DUP2 SWAP1 SSTORE POP PUSH1 0x1 PUSH1 0x3 PUSH1 0x0 CALLER PUSH20 0xFFFFFFFFFFFFFFFFFFFFFFFFFFFFFFFFFFFFFFFF AND PUSH20 0xFFFFFFFFFFFFFFFFFFFFFFFFFFFFFFFFFFFFFFFF AND DUP2 MSTORE PUSH1 0x20 ADD SWAP1 DUP2 MSTORE PUSH1 0x20 ADD PUSH1 0x0 KECCAK256 PUSH1 0x0 ADD PUSH1 0x1 PUSH2 0x100 EXP DUP2 SLOAD DUP2 PUSH1 0xFF MUL NOT AND SWAP1 DUP4 ISZERO ISZERO MUL OR SWAP1 SSTORE POP PUSH2 0x61D PUSH1 0x1 PUSH1 0x4 DUP5 DUP2 SLOAD DUP2 LT PUSH2 0x5FD JUMPI PUSH2 0x5FC PUSH2 0x2076 JUMP JUMPDEST JUMPDEST SWAP1 PUSH1 0x0 MSTORE PUSH1 0x20 PUSH1 0x0 KECCAK256 SWAP1 PUSH1 0x2 MUL ADD PUSH1 0x1 ADD SLOAD PUSH2 0x1713 SWAP1 SWAP2 SWAP1 PUSH4 0xFFFFFFFF AND JUMP JUMPDEST PUSH1 0x4 DUP4 DUP2 SLOAD DUP2 LT PUSH2 0x631 JUMPI PUSH2 0x630 PUSH2 0x2076 JUMP JUMPDEST JUMPDEST SWAP1 PUSH1 0x0 MSTORE PUSH1 0x20 PUSH1 0x0 KECCAK256 SWAP1 PUSH1 0x2 MUL ADD PUSH1 0x1 ADD DUP2 SWAP1 SSTORE POP PUSH32 0x4D99B957A2BC29A30EBD96A7BE8E68FE50A3C701DB28A91436490B7D53870CA4 CALLER DUP4 PUSH1 0x40 MLOAD PUSH2 0x677 SWAP3 SWAP2 SWAP1 PUSH2 0x20A5 JUMP JUMPDEST PUSH1 0x40 MLOAD DUP1 SWAP2 SUB SWAP1 LOG1 POP POP JUMP JUMPDEST PUSH1 0x1 PUSH1 0x6 PUSH1 0x0 SWAP1 SLOAD SWAP1 PUSH2 0x100 EXP SWAP1 DIV PUSH1 0xFF AND PUSH1 0x5 DUP2 GT ISZERO PUSH2 0x6A7 JUMPI PUSH2 0x6A6 PUSH2 0x1E60 JUMP JUMPDEST JUMPDEST DUP2 PUSH1 0x5 DUP2 GT ISZERO PUSH2 0x6BA JUMPI PUSH2 0x6B9 PUSH2 0x1E60 JUMP JUMPDEST JUMPDEST EQ PUSH2 0x6C4 JUMPI PUSH1 0x0 DUP1 REVERT JUMPDEST PUSH1 0x1 ISZERO ISZERO PUSH1 0x3 PUSH1 0x0 CALLER PUSH20 0xFFFFFFFFFFFFFFFFFFFFFFFFFFFFFFFFFFFFFFFF AND PUSH20 0xFFFFFFFFFFFFFFFFFFFFFFFFFFFFFFFFFFFFFFFF AND DUP2 MSTORE PUSH1 0x20 ADD SWAP1 DUP2 MSTORE PUSH1 0x20 ADD PUSH1 0x0 KECCAK256 PUSH1 0x0 ADD PUSH1 0x0 SWAP1 SLOAD SWAP1 PUSH2 0x100 EXP SWAP1 DIV PUSH1 0xFF AND ISZERO ISZERO EQ PUSH2 0x75A JUMPI PUSH1 0x40 MLOAD PUSH32 0x8C379A000000000000000000000000000000000000000000000000000000000 DUP2 MSTORE PUSH1 0x4 ADD PUSH2 0x751 SWAP1 PUSH2 0x2140 JUMP JUMPDEST PUSH1 0x40 MLOAD DUP1 SWAP2 SUB SWAP1 REVERT JUMPDEST PUSH1 0x4 PUSH1 0x40 MLOAD DUP1 PUSH1 0x40 ADD PUSH1 0x40 MSTORE DUP1 DUP5 DUP2 MSTORE PUSH1 0x20 ADD PUSH1 0x0 DUP2 MSTORE POP SWAP1 DUP1 PUSH1 0x1 DUP2 SLOAD ADD DUP1 DUP3 SSTORE DUP1 SWAP2 POP POP PUSH1 0x1 SWAP1 SUB SWAP1 PUSH1 0x0 MSTORE PUSH1 0x20 PUSH1 0x0 KECCAK256 SWAP1 PUSH1 0x2 MUL ADD PUSH1 0x0 SWAP1 SWAP2 SWAP1 SWAP2 SWAP1 SWAP2 POP PUSH1 0x0 DUP3 ADD MLOAD DUP2 PUSH1 0x0 ADD SWAP1 DUP2 PUSH2 0x7B0 SWAP2 SWAP1 PUSH2 0x230C JUMP JUMPDEST POP PUSH1 0x20 DUP3 ADD MLOAD DUP2 PUSH1 0x1 ADD SSTORE POP POP PUSH2 0x7D3 PUSH1 0x1 PUSH1 0x2 SLOAD PUSH2 0x1713 SWAP1 SWAP2 SWAP1 PUSH4 0xFFFFFFFF AND JUMP JUMPDEST PUSH1 0x2 DUP2 SWAP1 SSTORE POP PUSH32 0x57FD9A443A206AA57D09A57A5778B78D50D0E2003641EC27CD3F767359C97EBA PUSH1 0x2 SLOAD PUSH1 0x40 MLOAD PUSH2 0x80A SWAP2 SWAP1 PUSH2 0x1E23 JUMP JUMPDEST PUSH1 0x40 MLOAD DUP1 SWAP2 SUB SWAP1 LOG1 POP POP JUMP JUMPDEST PUSH1 0x4 PUSH1 0x6 PUSH1 0x0 SWAP1 SLOAD SWAP1 PUSH2 0x100 EXP SWAP1 DIV PUSH1 0xFF AND PUSH1 0x5 DUP2 GT ISZERO PUSH2 0x83A JUMPI PUSH2 0x839 PUSH2 0x1E60 JUMP JUMPDEST JUMPDEST DUP2 PUSH1 0x5 DUP2 GT ISZERO PUSH2 0x84D JUMPI PUSH2 0x84C PUSH2 0x1E60 JUMP JUMPDEST JUMPDEST EQ PUSH2 0x857 JUMPI PUSH1 0x0 DUP1 REVERT JUMPDEST PUSH2 0x85F PUSH2 0x1729 JUMP JUMPDEST PUSH20 0xFFFFFFFFFFFFFFFFFFFFFFFFFFFFFFFFFFFFFFFF AND PUSH2 0x87D PUSH2 0xDC4 JUMP JUMPDEST PUSH20 0xFFFFFFFFFFFFFFFFFFFFFFFFFFFFFFFFFFFFFFFF AND EQ PUSH2 0x8D3 JUMPI PUSH1 0x40 MLOAD PUSH32 0x8C379A000000000000000000000000000000000000000000000000000000000 DUP2 MSTORE PUSH1 0x4 ADD PUSH2 0x8CA SWAP1 PUSH2 0x242A JUMP JUMPDEST PUSH1 0x40 MLOAD DUP1 SWAP2 SUB SWAP1 REVERT JUMPDEST PUSH1 0x0 DUP1 JUMPDEST PUSH1 0x4 DUP1 SLOAD SWAP1 POP DUP2 LT ISZERO PUSH2 0x954 JUMPI DUP2 PUSH1 0x4 DUP3 DUP2 SLOAD DUP2 LT PUSH2 0x8F9 JUMPI PUSH2 0x8F8 PUSH2 0x2076 JUMP JUMPDEST JUMPDEST SWAP1 PUSH1 0x0 MSTORE PUSH1 0x20 PUSH1 0x0 KECCAK256 SWAP1 PUSH1 0x2 MUL ADD PUSH1 0x1 ADD SLOAD GT ISZERO PUSH2 0x941 JUMPI PUSH1 0x4 DUP2 DUP2 SLOAD DUP2 LT PUSH2 0x925 JUMPI PUSH2 0x924 PUSH2 0x2076 JUMP JUMPDEST JUMPDEST SWAP1 PUSH1 0x0 MSTORE PUSH1 0x20 PUSH1 0x0 KECCAK256 SWAP1 PUSH1 0x2 MUL ADD PUSH1 0x1 ADD SLOAD SWAP2 POP DUP1 PUSH1 0x1 DUP2 SWAP1 SSTORE POP JUMPDEST DUP1 DUP1 PUSH2 0x94C SWAP1 PUSH2 0x2479 JUMP JUMPDEST SWAP2 POP POP PUSH2 0x8D7 JUMP JUMPDEST POP POP POP JUMP JUMPDEST PUSH2 0x961 PUSH2 0x1729 JUMP JUMPDEST PUSH20 0xFFFFFFFFFFFFFFFFFFFFFFFFFFFFFFFFFFFFFFFF AND PUSH2 0x97F PUSH2 0xDC4 JUMP JUMPDEST PUSH20 0xFFFFFFFFFFFFFFFFFFFFFFFFFFFFFFFFFFFFFFFF AND EQ PUSH2 0x9D5 JUMPI PUSH1 0x40 MLOAD PUSH32 0x8C379A000000000000000000000000000000000000000000000000000000000 DUP2 MSTORE PUSH1 0x4 ADD PUSH2 0x9CC SWAP1 PUSH2 0x242A JUMP JUMPDEST PUSH1 0x40 MLOAD DUP1 SWAP2 SUB SWAP1 REVERT JUMPDEST PUSH1 0x2 PUSH1 0x6 PUSH1 0x0 SWAP1 SLOAD SWAP1 PUSH2 0x100 EXP SWAP1 DIV PUSH1 0xFF AND PUSH1 0x5 DUP2 GT ISZERO PUSH2 0x9F9 JUMPI PUSH2 0x9F8 PUSH2 0x1E60 JUMP JUMPDEST JUMPDEST DUP2 PUSH1 0x5 DUP2 GT ISZERO PUSH2 0xA0C JUMPI PUSH2 0xA0B PUSH2 0x1E60 JUMP JUMPDEST JUMPDEST EQ PUSH2 0xA16 JUMPI PUSH1 0x0 DUP1 REVERT JUMPDEST PUSH1 0x3 PUSH1 0x6 PUSH1 0x0 PUSH2 0x100 EXP DUP2 SLOAD DUP2 PUSH1 0xFF MUL NOT AND SWAP1 DUP4 PUSH1 0x5 DUP2 GT ISZERO PUSH2 0xA3C JUMPI PUSH2 0xA3B PUSH2 0x1E60 JUMP JUMPDEST JUMPDEST MUL OR SWAP1 SSTORE POP PUSH32 0x1B8E19A458C1BCD88553332C518CC5C4E2D5793E712EE766D4F1C14F672EF1F5 PUSH1 0x40 MLOAD PUSH1 0x40 MLOAD DUP1 SWAP2 SUB SWAP1 LOG1 PUSH32 0xA97A4EE45751E2ABF3E4FC8946939630B11B371EA8AE39CCDC3056E98F5CC3F PUSH1 0x2 PUSH1 0x3 PUSH1 0x40 MLOAD PUSH2 0xAA0 SWAP3 SWAP2 SWAP1 PUSH2 0x24C1 JUMP JUMPDEST PUSH1 0x40 MLOAD DUP1 SWAP2 SUB SWAP1 LOG1 POP JUMP JUMPDEST PUSH1 0x60 PUSH1 0x4 DUP1 SLOAD DUP1 PUSH1 0x20 MUL PUSH1 0x20 ADD PUSH1 0x40 MLOAD SWAP1 DUP2 ADD PUSH1 0x40 MSTORE DUP1 SWAP3 SWAP2 SWAP1 DUP2 DUP2 MSTORE PUSH1 0x20 ADD PUSH1 0x0 SWAP1 JUMPDEST DUP3 DUP3 LT ISZERO PUSH2 0xB9D JUMPI DUP4 DUP3 SWAP1 PUSH1 0x0 MSTORE PUSH1 0x20 PUSH1 0x0 KECCAK256 SWAP1 PUSH1 0x2 MUL ADD PUSH1 0x40 MLOAD DUP1 PUSH1 0x40 ADD PUSH1 0x40 MSTORE SWAP1 DUP2 PUSH1 0x0 DUP3 ADD DUP1 SLOAD PUSH2 0xB02 SWAP1 PUSH2 0x1F21 JUMP JUMPDEST DUP1 PUSH1 0x1F ADD PUSH1 0x20 DUP1 SWAP2 DIV MUL PUSH1 0x20 ADD PUSH1 0x40 MLOAD SWAP1 DUP2 ADD PUSH1 0x40 MSTORE DUP1 SWAP3 SWAP2 SWAP1 DUP2 DUP2 MSTORE PUSH1 0x20 ADD DUP3 DUP1 SLOAD PUSH2 0xB2E SWAP1 PUSH2 0x1F21 JUMP JUMPDEST DUP1 ISZERO PUSH2 0xB7B JUMPI DUP1 PUSH1 0x1F LT PUSH2 0xB50 JUMPI PUSH2 0x100 DUP1 DUP4 SLOAD DIV MUL DUP4 MSTORE SWAP2 PUSH1 0x20 ADD SWAP2 PUSH2 0xB7B JUMP JUMPDEST DUP3 ADD SWAP2 SWAP1 PUSH1 0x0 MSTORE PUSH1 0x20 PUSH1 0x0 KECCAK256 SWAP1 JUMPDEST DUP2 SLOAD DUP2 MSTORE SWAP1 PUSH1 0x1 ADD SWAP1 PUSH1 0x20 ADD DUP1 DUP4 GT PUSH2 0xB5E JUMPI DUP3 SWAP1 SUB PUSH1 0x1F AND DUP3 ADD SWAP2 JUMPDEST POP POP POP POP POP DUP2 MSTORE PUSH1 0x20 ADD PUSH1 0x1 DUP3 ADD SLOAD DUP2 MSTORE POP POP DUP2 MSTORE PUSH1 0x20 ADD SWAP1 PUSH1 0x1 ADD SWAP1 PUSH2 0xACF JUMP JUMPDEST POP POP POP POP SWAP1 POP SWAP1 JUMP JUMPDEST PUSH1 0x3 PUSH1 0x20 MSTORE DUP1 PUSH1 0x0 MSTORE PUSH1 0x40 PUSH1 0x0 KECCAK256 PUSH1 0x0 SWAP2 POP SWAP1 POP DUP1 PUSH1 0x0 ADD PUSH1 0x0 SWAP1 SLOAD SWAP1 PUSH2 0x100 EXP SWAP1 DIV PUSH1 0xFF AND SWAP1 DUP1 PUSH1 0x0 ADD PUSH1 0x1 SWAP1 SLOAD SWAP1 PUSH2 0x100 EXP SWAP1 DIV PUSH1 0xFF AND SWAP1 DUP1 PUSH1 0x1 ADD SLOAD SWAP1 POP DUP4 JUMP JUMPDEST PUSH2 0xBF2 PUSH2 0x1729 JUMP JUMPDEST PUSH20 0xFFFFFFFFFFFFFFFFFFFFFFFFFFFFFFFFFFFFFFFF AND PUSH2 0xC10 PUSH2 0xDC4 JUMP JUMPDEST PUSH20 0xFFFFFFFFFFFFFFFFFFFFFFFFFFFFFFFFFFFFFFFF AND EQ PUSH2 0xC66 JUMPI PUSH1 0x40 MLOAD PUSH32 0x8C379A000000000000000000000000000000000000000000000000000000000 DUP2 MSTORE PUSH1 0x4 ADD PUSH2 0xC5D SWAP1 PUSH2 0x242A JUMP JUMPDEST PUSH1 0x40 MLOAD DUP1 SWAP2 SUB SWAP1 REVERT JUMPDEST PUSH2 0xC70 PUSH1 0x0 PUSH2 0x1731 JUMP JUMPDEST JUMP JUMPDEST PUSH2 0xC7A PUSH2 0x1729 JUMP JUMPDEST PUSH20 0xFFFFFFFFFFFFFFFFFFFFFFFFFFFFFFFFFFFFFFFF AND PUSH2 0xC98 PUSH2 0xDC4 JUMP JUMPDEST PUSH20 0xFFFFFFFFFFFFFFFFFFFFFFFFFFFFFFFFFFFFFFFF AND EQ PUSH2 0xCEE JUMPI PUSH1 0x40 MLOAD PUSH32 0x8C379A000000000000000000000000000000000000000000000000000000000 DUP2 MSTORE PUSH1 0x4 ADD PUSH2 0xCE5 SWAP1 PUSH2 0x242A JUMP JUMPDEST PUSH1 0x40 MLOAD DUP1 SWAP2 SUB SWAP1 REVERT JUMPDEST PUSH1 0x1 PUSH1 0x6 PUSH1 0x0 SWAP1 SLOAD SWAP1 PUSH2 0x100 EXP SWAP1 DIV PUSH1 0xFF AND PUSH1 0x5 DUP2 GT ISZERO PUSH2 0xD12 JUMPI PUSH2 0xD11 PUSH2 0x1E60 JUMP JUMPDEST JUMPDEST DUP2 PUSH1 0x5 DUP2 GT ISZERO PUSH2 0xD25 JUMPI PUSH2 0xD24 PUSH2 0x1E60 JUMP JUMPDEST JUMPDEST EQ PUSH2 0xD2F JUMPI PUSH1 0x0 DUP1 REVERT JUMPDEST PUSH1 0x2 PUSH1 0x6 PUSH1 0x0 PUSH2 0x100 EXP DUP2 SLOAD DUP2 PUSH1 0xFF MUL NOT AND SWAP1 DUP4 PUSH1 0x5 DUP2 GT ISZERO PUSH2 0xD55 JUMPI PUSH2 0xD54 PUSH2 0x1E60 JUMP JUMPDEST JUMPDEST MUL OR SWAP1 SSTORE POP PUSH32 0x240CB87B2E4DF4C318E72BD714D45A9CAD60249E883FF56B1FFFD83A4595A8FA PUSH1 0x40 MLOAD PUSH1 0x40 MLOAD DUP1 SWAP2 SUB SWAP1 LOG1 PUSH32 0xA97A4EE45751E2ABF3E4FC8946939630B11B371EA8AE39CCDC3056E98F5CC3F PUSH1 0x1 PUSH1 0x2 PUSH1 0x40 MLOAD PUSH2 0xDB9 SWAP3 SWAP2 SWAP1 PUSH2 0x24C1 JUMP JUMPDEST PUSH1 0x40 MLOAD DUP1 SWAP2 SUB SWAP1 LOG1 POP JUMP JUMPDEST PUSH1 0x0 DUP1 PUSH1 0x0 SWAP1 SLOAD SWAP1 PUSH2 0x100 EXP SWAP1 DIV PUSH20 0xFFFFFFFFFFFFFFFFFFFFFFFFFFFFFFFFFFFFFFFF AND SWAP1 POP SWAP1 JUMP JUMPDEST PUSH2 0xDF5 PUSH2 0x1729 JUMP JUMPDEST PUSH20 0xFFFFFFFFFFFFFFFFFFFFFFFFFFFFFFFFFFFFFFFF AND PUSH2 0xE13 PUSH2 0xDC4 JUMP JUMPDEST PUSH20 0xFFFFFFFFFFFFFFFFFFFFFFFFFFFFFFFFFFFFFFFF AND EQ PUSH2 0xE69 JUMPI PUSH1 0x40 MLOAD PUSH32 0x8C379A000000000000000000000000000000000000000000000000000000000 DUP2 MSTORE PUSH1 0x4 ADD PUSH2 0xE60 SWAP1 PUSH2 0x242A JUMP JUMPDEST PUSH1 0x40 MLOAD DUP1 SWAP2 SUB SWAP1 REVERT JUMPDEST PUSH1 0x0 PUSH1 0x6 PUSH1 0x0 SWAP1 SLOAD SWAP1 PUSH2 0x100 EXP SWAP1 DIV PUSH1 0xFF AND PUSH1 0x5 DUP2 GT ISZERO PUSH2 0xE8D JUMPI PUSH2 0xE8C PUSH2 0x1E60 JUMP JUMPDEST JUMPDEST DUP2 PUSH1 0x5 DUP2 GT ISZERO PUSH2 0xEA0 JUMPI PUSH2 0xE9F PUSH2 0x1E60 JUMP JUMPDEST JUMPDEST EQ PUSH2 0xEAA JUMPI PUSH1 0x0 DUP1 REVERT JUMPDEST PUSH1 0x1 ISZERO ISZERO PUSH1 0x3 PUSH1 0x0 DUP5 PUSH20 0xFFFFFFFFFFFFFFFFFFFFFFFFFFFFFFFFFFFFFFFF AND PUSH20 0xFFFFFFFFFFFFFFFFFFFFFFFFFFFFFFFFFFFFFFFF AND DUP2 MSTORE PUSH1 0x20 ADD SWAP1 DUP2 MSTORE PUSH1 0x20 ADD PUSH1 0x0 KECCAK256 PUSH1 0x0 ADD PUSH1 0x0 SWAP1 SLOAD SWAP1 PUSH2 0x100 EXP SWAP1 DIV PUSH1 0xFF AND ISZERO ISZERO SUB PUSH2 0xF40 JUMPI PUSH1 0x40 MLOAD PUSH32 0x8C379A000000000000000000000000000000000000000000000000000000000 DUP2 MSTORE PUSH1 0x4 ADD PUSH2 0xF37 SWAP1 PUSH2 0x255C JUMP JUMPDEST PUSH1 0x40 MLOAD DUP1 SWAP2 SUB SWAP1 REVERT JUMPDEST PUSH1 0x40 MLOAD DUP1 PUSH1 0x60 ADD PUSH1 0x40 MSTORE DUP1 PUSH1 0x1 ISZERO ISZERO DUP2 MSTORE PUSH1 0x20 ADD PUSH1 0x0 ISZERO ISZERO DUP2 MSTORE PUSH1 0x20 ADD PUSH1 0x0 DUP2 MSTORE POP PUSH1 0x3 PUSH1 0x0 DUP5 PUSH20 0xFFFFFFFFFFFFFFFFFFFFFFFFFFFFFFFFFFFFFFFF AND PUSH20 0xFFFFFFFFFFFFFFFFFFFFFFFFFFFFFFFFFFFFFFFF AND DUP2 MSTORE PUSH1 0x20 ADD SWAP1 DUP2 MSTORE PUSH1 0x20 ADD PUSH1 0x0 KECCAK256 PUSH1 0x0 DUP3 ADD MLOAD DUP2 PUSH1 0x0 ADD PUSH1 0x0 PUSH2 0x100 EXP DUP2 SLOAD DUP2 PUSH1 0xFF MUL NOT AND SWAP1 DUP4 ISZERO ISZERO MUL OR SWAP1 SSTORE POP PUSH1 0x20 DUP3 ADD MLOAD DUP2 PUSH1 0x0 ADD PUSH1 0x1 PUSH2 0x100 EXP DUP2 SLOAD DUP2 PUSH1 0xFF MUL NOT AND SWAP1 DUP4 ISZERO ISZERO MUL OR SWAP1 SSTORE POP PUSH1 0x40 DUP3 ADD MLOAD DUP2 PUSH1 0x1 ADD SSTORE SWAP1 POP POP PUSH1 0x5 DUP3 SWAP1 DUP1 PUSH1 0x1 DUP2 SLOAD ADD DUP1 DUP3 SSTORE DUP1 SWAP2 POP POP PUSH1 0x1 SWAP1 SUB SWAP1 PUSH1 0x0 MSTORE PUSH1 0x20 PUSH1 0x0 KECCAK256 ADD PUSH1 0x0 SWAP1 SWAP2 SWAP1 SWAP2 SWAP1 SWAP2 PUSH2 0x100 EXP DUP2 SLOAD DUP2 PUSH20 0xFFFFFFFFFFFFFFFFFFFFFFFFFFFFFFFFFFFFFFFF MUL NOT AND SWAP1 DUP4 PUSH20 0xFFFFFFFFFFFFFFFFFFFFFFFFFFFFFFFFFFFFFFFF AND MUL OR SWAP1 SSTORE POP PUSH32 0x9358BB242636B892FFEABCF2266D52AAE96F1FC29D6157AD1225E89E858BAA69 DUP3 PUSH1 0x40 MLOAD PUSH2 0x1080 SWAP2 SWAP1 PUSH2 0x1D28 JUMP JUMPDEST PUSH1 0x40 MLOAD DUP1 SWAP2 SUB SWAP1 LOG1 POP POP JUMP JUMPDEST PUSH1 0x60 PUSH1 0x5 DUP1 SLOAD DUP1 PUSH1 0x20 MUL PUSH1 0x20 ADD PUSH1 0x40 MLOAD SWAP1 DUP2 ADD PUSH1 0x40 MSTORE DUP1 SWAP3 SWAP2 SWAP1 DUP2 DUP2 MSTORE PUSH1 0x20 ADD DUP3 DUP1 SLOAD DUP1 ISZERO PUSH2 0x1110 JUMPI PUSH1 0x20 MUL DUP3 ADD SWAP2 SWAP1 PUSH1 0x0 MSTORE PUSH1 0x20 PUSH1 0x0 KECCAK256 SWAP1 JUMPDEST DUP2 PUSH1 0x0 SWAP1 SLOAD SWAP1 PUSH2 0x100 EXP SWAP1 DIV PUSH20 0xFFFFFFFFFFFFFFFFFFFFFFFFFFFFFFFFFFFFFFFF AND PUSH20 0xFFFFFFFFFFFFFFFFFFFFFFFFFFFFFFFFFFFFFFFF AND DUP2 MSTORE PUSH1 0x20 ADD SWAP1 PUSH1 0x1 ADD SWAP1 DUP1 DUP4 GT PUSH2 0x10C6 JUMPI JUMPDEST POP POP POP POP POP SWAP1 POP SWAP1 JUMP JUMPDEST PUSH1 0x0 PUSH1 0x4 PUSH1 0x6 PUSH1 0x0 SWAP1 SLOAD SWAP1 PUSH2 0x100 EXP SWAP1 DIV PUSH1 0xFF AND PUSH1 0x5 DUP2 GT ISZERO PUSH2 0x1140 JUMPI PUSH2 0x113F PUSH2 0x1E60 JUMP JUMPDEST JUMPDEST DUP2 PUSH1 0x5 DUP2 GT ISZERO PUSH2 0x1153 JUMPI PUSH2 0x1152 PUSH2 0x1E60 JUMP JUMPDEST JUMPDEST EQ PUSH2 0x115D JUMPI PUSH1 0x0 DUP1 REVERT JUMPDEST PUSH2 0x1165 PUSH2 0x1729 JUMP JUMPDEST PUSH20 0xFFFFFFFFFFFFFFFFFFFFFFFFFFFFFFFFFFFFFFFF AND PUSH2 0x1183 PUSH2 0xDC4 JUMP JUMPDEST PUSH20 0xFFFFFFFFFFFFFFFFFFFFFFFFFFFFFFFFFFFFFFFF AND EQ PUSH2 0x11D9 JUMPI PUSH1 0x40 MLOAD PUSH32 0x8C379A000000000000000000000000000000000000000000000000000000000 DUP2 MSTORE PUSH1 0x4 ADD PUSH2 0x11D0 SWAP1 PUSH2 0x242A JUMP JUMPDEST PUSH1 0x40 MLOAD DUP1 SWAP2 SUB SWAP1 REVERT JUMPDEST PUSH1 0x5 PUSH1 0x6 PUSH1 0x0 PUSH2 0x100 EXP DUP2 SLOAD DUP2 PUSH1 0xFF MUL NOT AND SWAP1 DUP4 PUSH1 0x5 DUP2 GT ISZERO PUSH2 0x11FF JUMPI PUSH2 0x11FE PUSH2 0x1E60 JUMP JUMPDEST JUMPDEST MUL OR SWAP1 SSTORE POP PUSH32 0xE5E95FF8725AB3E7A4B6B59998A4C344C2AA8D1485F5E60CB7F337768E61347 PUSH1 0x40 MLOAD PUSH1 0x40 MLOAD DUP1 SWAP2 SUB SWAP1 LOG1 PUSH32 0xA97A4EE45751E2ABF3E4FC8946939630B11B371EA8AE39CCDC3056E98F5CC3F PUSH1 0x4 PUSH1 0x5 PUSH1 0x40 MLOAD PUSH2 0x1263 SWAP3 SWAP2 SWAP1 PUSH2 0x24C1 JUMP JUMPDEST PUSH1 0x40 MLOAD DUP1 SWAP2 SUB SWAP1 LOG1 POP SWAP1 JUMP JUMPDEST PUSH1 0x3 PUSH1 0x6 PUSH1 0x0 SWAP1 SLOAD SWAP1 PUSH2 0x100 EXP SWAP1 DIV PUSH1 0xFF AND PUSH1 0x5 DUP2 GT ISZERO PUSH2 0x1293 JUMPI PUSH2 0x1292 PUSH2 0x1E60 JUMP JUMPDEST JUMPDEST DUP2 PUSH1 0x5 DUP2 GT ISZERO PUSH2 0x12A6 JUMPI PUSH2 0x12A5 PUSH2 0x1E60 JUMP JUMPDEST JUMPDEST EQ PUSH2 0x12B0 JUMPI PUSH1 0x0 DUP1 REVERT JUMPDEST PUSH2 0x12B8 PUSH2 0x1729 JUMP JUMPDEST PUSH20 0xFFFFFFFFFFFFFFFFFFFFFFFFFFFFFFFFFFFFFFFF AND PUSH2 0x12D6 PUSH2 0xDC4 JUMP JUMPDEST PUSH20 0xFFFFFFFFFFFFFFFFFFFFFFFFFFFFFFFFFFFFFFFF AND EQ PUSH2 0x132C JUMPI PUSH1 0x40 MLOAD PUSH32 0x8C379A000000000000000000000000000000000000000000000000000000000 DUP2 MSTORE PUSH1 0x4 ADD PUSH2 0x1323 SWAP1 PUSH2 0x242A JUMP JUMPDEST PUSH1 0x40 MLOAD DUP1 SWAP2 SUB SWAP1 REVERT JUMPDEST PUSH1 0x4 PUSH1 0x6 PUSH1 0x0 PUSH2 0x100 EXP DUP2 SLOAD DUP2 PUSH1 0xFF MUL NOT AND SWAP1 DUP4 PUSH1 0x5 DUP2 GT ISZERO PUSH2 0x1352 JUMPI PUSH2 0x1351 PUSH2 0x1E60 JUMP JUMPDEST JUMPDEST MUL OR SWAP1 SSTORE POP PUSH32 0xC379D349A6301BAF50FB2F98D829F4AE10B1CDB7C66F4E4D8117302DF7B8CD4C PUSH1 0x40 MLOAD PUSH1 0x40 MLOAD DUP1 SWAP2 SUB SWAP1 LOG1 PUSH32 0xA97A4EE45751E2ABF3E4FC8946939630B11B371EA8AE39CCDC3056E98F5CC3F PUSH1 0x3 PUSH1 0x4 PUSH1 0x40 MLOAD PUSH2 0x13B6 SWAP3 SWAP2 SWAP1 PUSH2 0x24C1 JUMP JUMPDEST PUSH1 0x40 MLOAD DUP1 SWAP2 SUB SWAP1 LOG1 POP JUMP JUMPDEST PUSH1 0x60 PUSH1 0x4 PUSH1 0x1 SLOAD DUP2 SLOAD DUP2 LT PUSH2 0x13D9 JUMPI PUSH2 0x13D8 PUSH2 0x2076 JUMP JUMPDEST JUMPDEST SWAP1 PUSH1 0x0 MSTORE PUSH1 0x20 PUSH1 0x0 KECCAK256 SWAP1 PUSH1 0x2 MUL ADD PUSH1 0x0 ADD DUP1 SLOAD PUSH2 0x13F5 SWAP1 PUSH2 0x1F21 JUMP JUMPDEST DUP1 PUSH1 0x1F ADD PUSH1 0x20 DUP1 SWAP2 DIV MUL PUSH1 0x20 ADD PUSH1 0x40 MLOAD SWAP1 DUP2 ADD PUSH1 0x40 MSTORE DUP1 SWAP3 SWAP2 SWAP1 DUP2 DUP2 MSTORE PUSH1 0x20 ADD DUP3 DUP1 SLOAD PUSH2 0x1421 SWAP1 PUSH2 0x1F21 JUMP JUMPDEST DUP1 ISZERO PUSH2 0x146E JUMPI DUP1 PUSH1 0x1F LT PUSH2 0x1443 JUMPI PUSH2 0x100 DUP1 DUP4 SLOAD DIV MUL DUP4 MSTORE SWAP2 PUSH1 0x20 ADD SWAP2 PUSH2 0x146E JUMP JUMPDEST DUP3 ADD SWAP2 SWAP1 PUSH1 0x0 MSTORE PUSH1 0x20 PUSH1 0x0 KECCAK256 SWAP1 JUMPDEST DUP2 SLOAD DUP2 MSTORE SWAP1 PUSH1 0x1 ADD SWAP1 PUSH1 0x20 ADD DUP1 DUP4 GT PUSH2 0x1451 JUMPI DUP3 SWAP1 SUB PUSH1 0x1F AND DUP3 ADD SWAP2 JUMPDEST POP POP POP POP POP SWAP1 POP SWAP1 JUMP JUMPDEST PUSH1 0x5 DUP2 DUP2 SLOAD DUP2 LT PUSH2 0x1488 JUMPI PUSH1 0x0 DUP1 REVERT JUMPDEST SWAP1 PUSH1 0x0 MSTORE PUSH1 0x20 PUSH1 0x0 KECCAK256 ADD PUSH1 0x0 SWAP2 POP SLOAD SWAP1 PUSH2 0x100 EXP SWAP1 DIV PUSH20 0xFFFFFFFFFFFFFFFFFFFFFFFFFFFFFFFFFFFFFFFF AND DUP2 JUMP JUMPDEST PUSH2 0x14BF PUSH2 0x1729 JUMP JUMPDEST PUSH20 0xFFFFFFFFFFFFFFFFFFFFFFFFFFFFFFFFFFFFFFFF AND PUSH2 0x14DD PUSH2 0xDC4 JUMP JUMPDEST PUSH20 0xFFFFFFFFFFFFFFFFFFFFFFFFFFFFFFFFFFFFFFFF AND EQ PUSH2 0x1533 JUMPI PUSH1 0x40 MLOAD PUSH32 0x8C379A000000000000000000000000000000000000000000000000000000000 DUP2 MSTORE PUSH1 0x4 ADD PUSH2 0x152A SWAP1 PUSH2 0x242A JUMP JUMPDEST PUSH1 0x40 MLOAD DUP1 SWAP2 SUB SWAP1 REVERT JUMPDEST PUSH1 0x0 PUSH20 0xFFFFFFFFFFFFFFFFFFFFFFFFFFFFFFFFFFFFFFFF AND DUP2 PUSH20 0xFFFFFFFFFFFFFFFFFFFFFFFFFFFFFFFFFFFFFFFF AND SUB PUSH2 0x15A2 JUMPI PUSH1 0x40 MLOAD PUSH32 0x8C379A000000000000000000000000000000000000000000000000000000000 DUP2 MSTORE PUSH1 0x4 ADD PUSH2 0x1599 SWAP1 PUSH2 0x25EE JUMP JUMPDEST PUSH1 0x40 MLOAD DUP1 SWAP2 SUB SWAP1 REVERT JUMPDEST PUSH2 0x15AB DUP2 PUSH2 0x1731 JUMP JUMPDEST POP JUMP JUMPDEST PUSH1 0x6 PUSH1 0x0 SWAP1 SLOAD SWAP1 PUSH2 0x100 EXP SWAP1 DIV PUSH1 0xFF AND DUP2 JUMP JUMPDEST PUSH2 0x15C9 PUSH2 0x1729 JUMP JUMPDEST PUSH20 0xFFFFFFFFFFFFFFFFFFFFFFFFFFFFFFFFFFFFFFFF AND PUSH2 0x15E7 PUSH2 0xDC4 JUMP JUMPDEST PUSH20 0xFFFFFFFFFFFFFFFFFFFFFFFFFFFFFFFFFFFFFFFF AND EQ PUSH2 0x163D JUMPI PUSH1 0x40 MLOAD PUSH32 0x8C379A000000000000000000000000000000000000000000000000000000000 DUP2 MSTORE PUSH1 0x4 ADD PUSH2 0x1634 SWAP1 PUSH2 0x242A JUMP JUMPDEST PUSH1 0x40 MLOAD DUP1 SWAP2 SUB SWAP1 REVERT JUMPDEST PUSH1 0x0 PUSH1 0x6 PUSH1 0x0 SWAP1 SLOAD SWAP1 PUSH2 0x100 EXP SWAP1 DIV PUSH1 0xFF AND PUSH1 0x5 DUP2 GT ISZERO PUSH2 0x1661 JUMPI PUSH2 0x1660 PUSH2 0x1E60 JUMP JUMPDEST JUMPDEST DUP2 PUSH1 0x5 DUP2 GT ISZERO PUSH2 0x1674 JUMPI PUSH2 0x1673 PUSH2 0x1E60 JUMP JUMPDEST JUMPDEST EQ PUSH2 0x167E JUMPI PUSH1 0x0 DUP1 REVERT JUMPDEST PUSH32 0x344C25562921D075A298D34B6DD1FD00D36FF293974539DFD4A8C625D9F0064C PUSH1 0x40 MLOAD PUSH1 0x40 MLOAD DUP1 SWAP2 SUB SWAP1 LOG1 PUSH1 0x1 PUSH1 0x6 PUSH1 0x0 PUSH2 0x100 EXP DUP2 SLOAD DUP2 PUSH1 0xFF MUL NOT AND SWAP1 DUP4 PUSH1 0x5 DUP2 GT ISZERO PUSH2 0x16D0 JUMPI PUSH2 0x16CF PUSH2 0x1E60 JUMP JUMPDEST JUMPDEST MUL OR SWAP1 SSTORE POP PUSH32 0xA97A4EE45751E2ABF3E4FC8946939630B11B371EA8AE39CCDC3056E98F5CC3F PUSH1 0x0 PUSH1 0x1 PUSH1 0x40 MLOAD PUSH2 0x1708 SWAP3 SWAP2 SWAP1 PUSH2 0x24C1 JUMP JUMPDEST PUSH1 0x40 MLOAD DUP1 SWAP2 SUB SWAP1 LOG1 POP JUMP JUMPDEST PUSH1 0x0 DUP2 DUP4 PUSH2 0x1721 SWAP2 SWAP1 PUSH2 0x260E JUMP JUMPDEST SWAP1 POP SWAP3 SWAP2 POP POP JUMP JUMPDEST PUSH1 0x0 CALLER SWAP1 POP SWAP1 JUMP JUMPDEST PUSH1 0x0 DUP1 PUSH1 0x0 SWAP1 SLOAD SWAP1 PUSH2 0x100 EXP SWAP1 DIV PUSH20 0xFFFFFFFFFFFFFFFFFFFFFFFFFFFFFFFFFFFFFFFF AND SWAP1 POP DUP2 PUSH1 0x0 DUP1 PUSH2 0x100 EXP DUP2 SLOAD DUP2 PUSH20 0xFFFFFFFFFFFFFFFFFFFFFFFFFFFFFFFFFFFFFFFF MUL NOT AND SWAP1 DUP4 PUSH20 0xFFFFFFFFFFFFFFFFFFFFFFFFFFFFFFFFFFFFFFFF AND MUL OR SWAP1 SSTORE POP DUP2 PUSH20 0xFFFFFFFFFFFFFFFFFFFFFFFFFFFFFFFFFFFFFFFF AND DUP2 PUSH20 0xFFFFFFFFFFFFFFFFFFFFFFFFFFFFFFFFFFFFFFFF AND PUSH32 0x8BE0079C531659141344CD1FD0A4F28419497F9722A3DAAFE3B4186F6B6457E0 PUSH1 0x40 MLOAD PUSH1 0x40 MLOAD DUP1 SWAP2 SUB SWAP1 LOG3 POP POP JUMP JUMPDEST PUSH1 0x0 PUSH1 0x40 MLOAD SWAP1 POP SWAP1 JUMP JUMPDEST PUSH1 0x0 DUP1 REVERT JUMPDEST PUSH1 0x0 DUP1 REVERT JUMPDEST PUSH1 0x0 DUP2 SWAP1 POP SWAP2 SWAP1 POP JUMP JUMPDEST PUSH2 0x181C DUP2 PUSH2 0x1809 JUMP JUMPDEST DUP2 EQ PUSH2 0x1827 JUMPI PUSH1 0x0 DUP1 REVERT JUMPDEST POP JUMP JUMPDEST PUSH1 0x0 DUP2 CALLDATALOAD SWAP1 POP PUSH2 0x1839 DUP2 PUSH2 0x1813 JUMP JUMPDEST SWAP3 SWAP2 POP POP JUMP JUMPDEST PUSH1 0x0 PUSH1 0x20 DUP3 DUP5 SUB SLT ISZERO PUSH2 0x1855 JUMPI PUSH2 0x1854 PUSH2 0x17FF JUMP JUMPDEST JUMPDEST PUSH1 0x0 PUSH2 0x1863 DUP5 DUP3 DUP6 ADD PUSH2 0x182A JUMP JUMPDEST SWAP2 POP POP SWAP3 SWAP2 POP POP JUMP JUMPDEST PUSH1 0x0 DUP2 MLOAD SWAP1 POP SWAP2 SWAP1 POP JUMP JUMPDEST PUSH1 0x0 DUP3 DUP3 MSTORE PUSH1 0x20 DUP3 ADD SWAP1 POP SWAP3 SWAP2 POP POP JUMP JUMPDEST PUSH1 0x0 JUMPDEST DUP4 DUP2 LT ISZERO PUSH2 0x18A6 JUMPI DUP1 DUP3 ADD MLOAD DUP2 DUP5 ADD MSTORE PUSH1 0x20 DUP2 ADD SWAP1 POP PUSH2 0x188B JUMP JUMPDEST DUP4 DUP2 GT ISZERO PUSH2 0x18B5 JUMPI PUSH1 0x0 DUP5 DUP5 ADD MSTORE JUMPDEST POP POP POP POP JUMP JUMPDEST PUSH1 0x0 PUSH1 0x1F NOT PUSH1 0x1F DUP4 ADD AND SWAP1 POP SWAP2 SWAP1 POP JUMP JUMPDEST PUSH1 0x0 PUSH2 0x18D7 DUP3 PUSH2 0x186C JUMP JUMPDEST PUSH2 0x18E1 DUP2 DUP6 PUSH2 0x1877 JUMP JUMPDEST SWAP4 POP PUSH2 0x18F1 DUP2 DUP6 PUSH1 0x20 DUP7 ADD PUSH2 0x1888 JUMP JUMPDEST PUSH2 0x18FA DUP2 PUSH2 0x18BB JUMP JUMPDEST DUP5 ADD SWAP2 POP POP SWAP3 SWAP2 POP POP JUMP JUMPDEST PUSH2 0x190E DUP2 PUSH2 0x1809 JUMP JUMPDEST DUP3 MSTORE POP POP JUMP JUMPDEST PUSH1 0x0 PUSH1 0x40 DUP3 ADD SWAP1 POP DUP2 DUP2 SUB PUSH1 0x0 DUP4 ADD MSTORE PUSH2 0x192E DUP2 DUP6 PUSH2 0x18CC JUMP JUMPDEST SWAP1 POP PUSH2 0x193D PUSH1 0x20 DUP4 ADD DUP5 PUSH2 0x1905 JUMP JUMPDEST SWAP4 SWAP3 POP POP POP JUMP JUMPDEST PUSH1 0x0 DUP1 REVERT JUMPDEST PUSH1 0x0 DUP1 REVERT JUMPDEST PUSH32 0x4E487B7100000000000000000000000000000000000000000000000000000000 PUSH1 0x0 MSTORE PUSH1 0x41 PUSH1 0x4 MSTORE PUSH1 0x24 PUSH1 0x0 REVERT JUMPDEST PUSH2 0x1986 DUP3 PUSH2 0x18BB JUMP JUMPDEST DUP2 ADD DUP2 DUP2 LT PUSH8 0xFFFFFFFFFFFFFFFF DUP3 GT OR ISZERO PUSH2 0x19A5 JUMPI PUSH2 0x19A4 PUSH2 0x194E JUMP JUMPDEST JUMPDEST DUP1 PUSH1 0x40 MSTORE POP POP POP JUMP JUMPDEST PUSH1 0x0 PUSH2 0x19B8 PUSH2 0x17F5 JUMP JUMPDEST SWAP1 POP PUSH2 0x19C4 DUP3 DUP3 PUSH2 0x197D JUMP JUMPDEST SWAP2 SWAP1 POP JUMP JUMPDEST PUSH1 0x0 PUSH8 0xFFFFFFFFFFFFFFFF DUP3 GT ISZERO PUSH2 0x19E4 JUMPI PUSH2 0x19E3 PUSH2 0x194E JUMP JUMPDEST JUMPDEST PUSH2 0x19ED DUP3 PUSH2 0x18BB JUMP JUMPDEST SWAP1 POP PUSH1 0x20 DUP2 ADD SWAP1 POP SWAP2 SWAP1 POP JUMP JUMPDEST DUP3 DUP2 DUP4 CALLDATACOPY PUSH1 0x0 DUP4 DUP4 ADD MSTORE POP POP POP JUMP JUMPDEST PUSH1 0x0 PUSH2 0x1A1C PUSH2 0x1A17 DUP5 PUSH2 0x19C9 JUMP JUMPDEST PUSH2 0x19AE JUMP JUMPDEST SWAP1 POP DUP3 DUP2 MSTORE PUSH1 0x20 DUP2 ADD DUP5 DUP5 DUP5 ADD GT ISZERO PUSH2 0x1A38 JUMPI PUSH2 0x1A37 PUSH2 0x1949 JUMP JUMPDEST JUMPDEST PUSH2 0x1A43 DUP5 DUP3 DUP6 PUSH2 0x19FA JUMP JUMPDEST POP SWAP4 SWAP3 POP POP POP JUMP JUMPDEST PUSH1 0x0 DUP3 PUSH1 0x1F DUP4 ADD SLT PUSH2 0x1A60 JUMPI PUSH2 0x1A5F PUSH2 0x1944 JUMP JUMPDEST JUMPDEST DUP2 CALLDATALOAD PUSH2 0x1A70 DUP5 DUP3 PUSH1 0x20 DUP7 ADD PUSH2 0x1A09 JUMP JUMPDEST SWAP2 POP POP SWAP3 SWAP2 POP POP JUMP JUMPDEST PUSH1 0x0 PUSH1 0x20 DUP3 DUP5 SUB SLT ISZERO PUSH2 0x1A8F JUMPI PUSH2 0x1A8E PUSH2 0x17FF JUMP JUMPDEST JUMPDEST PUSH1 0x0 DUP3 ADD CALLDATALOAD PUSH8 0xFFFFFFFFFFFFFFFF DUP2 GT ISZERO PUSH2 0x1AAD JUMPI PUSH2 0x1AAC PUSH2 0x1804 JUMP JUMPDEST JUMPDEST PUSH2 0x1AB9 DUP5 DUP3 DUP6 ADD PUSH2 0x1A4B JUMP JUMPDEST SWAP2 POP POP SWAP3 SWAP2 POP POP JUMP JUMPDEST PUSH1 0x0 DUP2 MLOAD SWAP1 POP SWAP2 SWAP1 POP JUMP JUMPDEST PUSH1 0x0 DUP3 DUP3 MSTORE PUSH1 0x20 DUP3 ADD SWAP1 POP SWAP3 SWAP2 POP POP JUMP JUMPDEST PUSH1 0x0 DUP2 SWAP1 POP PUSH1 0x20 DUP3 ADD SWAP1 POP SWAP2 SWAP1 POP JUMP JUMPDEST PUSH1 0x0 DUP3 DUP3 MSTORE PUSH1 0x20 DUP3 ADD SWAP1 POP SWAP3 SWAP2 POP POP JUMP JUMPDEST PUSH1 0x0 PUSH2 0x1B0A DUP3 PUSH2 0x186C JUMP JUMPDEST PUSH2 0x1B14 DUP2 DUP6 PUSH2 0x1AEE JUMP JUMPDEST SWAP4 POP PUSH2 0x1B24 DUP2 DUP6 PUSH1 0x20 DUP7 ADD PUSH2 0x1888 JUMP JUMPDEST PUSH2 0x1B2D DUP2 PUSH2 0x18BB JUMP JUMPDEST DUP5 ADD SWAP2 POP POP SWAP3 SWAP2 POP POP JUMP JUMPDEST PUSH2 0x1B41 DUP2 PUSH2 0x1809 JUMP JUMPDEST DUP3 MSTORE POP POP JUMP JUMPDEST PUSH1 0x0 PUSH1 0x40 DUP4 ADD PUSH1 0x0 DUP4 ADD MLOAD DUP5 DUP3 SUB PUSH1 0x0 DUP7 ADD MSTORE PUSH2 0x1B64 DUP3 DUP3 PUSH2 0x1AFF JUMP JUMPDEST SWAP2 POP POP PUSH1 0x20 DUP4 ADD MLOAD PUSH2 0x1B79 PUSH1 0x20 DUP7 ADD DUP3 PUSH2 0x1B38 JUMP JUMPDEST POP DUP1 SWAP2 POP POP SWAP3 SWAP2 POP POP JUMP JUMPDEST PUSH1 0x0 PUSH2 0x1B90 DUP4 DUP4 PUSH2 0x1B47 JUMP JUMPDEST SWAP1 POP SWAP3 SWAP2 POP POP JUMP JUMPDEST PUSH1 0x0 PUSH1 0x20 DUP3 ADD SWAP1 POP SWAP2 SWAP1 POP JUMP JUMPDEST PUSH1 0x0 PUSH2 0x1BB0 DUP3 PUSH2 0x1AC2 JUMP JUMPDEST PUSH2 0x1BBA DUP2 DUP6 PUSH2 0x1ACD JUMP JUMPDEST SWAP4 POP DUP4 PUSH1 0x20 DUP3 MUL DUP6 ADD PUSH2 0x1BCC DUP6 PUSH2 0x1ADE JUMP JUMPDEST DUP1 PUSH1 0x0 JUMPDEST DUP6 DUP2 LT ISZERO PUSH2 0x1C08 JUMPI DUP5 DUP5 SUB DUP10 MSTORE DUP2 MLOAD PUSH2 0x1BE9 DUP6 DUP3 PUSH2 0x1B84 JUMP JUMPDEST SWAP5 POP PUSH2 0x1BF4 DUP4 PUSH2 0x1B98 JUMP JUMPDEST SWAP3 POP PUSH1 0x20 DUP11 ADD SWAP10 POP POP PUSH1 0x1 DUP2 ADD SWAP1 POP PUSH2 0x1BD0 JUMP JUMPDEST POP DUP3 SWAP8 POP DUP8 SWAP6 POP POP POP POP POP POP SWAP3 SWAP2 POP POP JUMP JUMPDEST PUSH1 0x0 PUSH1 0x20 DUP3 ADD SWAP1 POP DUP2 DUP2 SUB PUSH1 0x0 DUP4 ADD MSTORE PUSH2 0x1C34 DUP2 DUP5 PUSH2 0x1BA5 JUMP JUMPDEST SWAP1 POP SWAP3 SWAP2 POP POP JUMP JUMPDEST PUSH1 0x0 PUSH20 0xFFFFFFFFFFFFFFFFFFFFFFFFFFFFFFFFFFFFFFFF DUP3 AND SWAP1 POP SWAP2 SWAP1 POP JUMP JUMPDEST PUSH1 0x0 PUSH2 0x1C67 DUP3 PUSH2 0x1C3C JUMP JUMPDEST SWAP1 POP SWAP2 SWAP1 POP JUMP JUMPDEST PUSH2 0x1C77 DUP2 PUSH2 0x1C5C JUMP JUMPDEST DUP2 EQ PUSH2 0x1C82 JUMPI PUSH1 0x0 DUP1 REVERT JUMPDEST POP JUMP JUMPDEST PUSH1 0x0 DUP2 CALLDATALOAD SWAP1 POP PUSH2 0x1C94 DUP2 PUSH2 0x1C6E JUMP JUMPDEST SWAP3 SWAP2 POP POP JUMP JUMPDEST PUSH1 0x0 PUSH1 0x20 DUP3 DUP5 SUB SLT ISZERO PUSH2 0x1CB0 JUMPI PUSH2 0x1CAF PUSH2 0x17FF JUMP JUMPDEST JUMPDEST PUSH1 0x0 PUSH2 0x1CBE DUP5 DUP3 DUP6 ADD PUSH2 0x1C85 JUMP JUMPDEST SWAP2 POP POP SWAP3 SWAP2 POP POP JUMP JUMPDEST PUSH1 0x0 DUP2 ISZERO ISZERO SWAP1 POP SWAP2 SWAP1 POP JUMP JUMPDEST PUSH2 0x1CDC DUP2 PUSH2 0x1CC7 JUMP JUMPDEST DUP3 MSTORE POP POP JUMP JUMPDEST PUSH1 0x0 PUSH1 0x60 DUP3 ADD SWAP1 POP PUSH2 0x1CF7 PUSH1 0x0 DUP4 ADD DUP7 PUSH2 0x1CD3 JUMP JUMPDEST PUSH2 0x1D04 PUSH1 0x20 DUP4 ADD DUP6 PUSH2 0x1CD3 JUMP JUMPDEST PUSH2 0x1D11 PUSH1 0x40 DUP4 ADD DUP5 PUSH2 0x1905 JUMP JUMPDEST SWAP5 SWAP4 POP POP POP POP JUMP JUMPDEST PUSH2 0x1D22 DUP2 PUSH2 0x1C5C JUMP JUMPDEST DUP3 MSTORE POP POP JUMP JUMPDEST PUSH1 0x0 PUSH1 0x20 DUP3 ADD SWAP1 POP PUSH2 0x1D3D PUSH1 0x0 DUP4 ADD DUP5 PUSH2 0x1D19 JUMP JUMPDEST SWAP3 SWAP2 POP POP JUMP JUMPDEST PUSH1 0x0 DUP2 MLOAD SWAP1 POP SWAP2 SWAP1 POP JUMP JUMPDEST PUSH1 0x0 DUP3 DUP3 MSTORE PUSH1 0x20 DUP3 ADD SWAP1 POP SWAP3 SWAP2 POP POP JUMP JUMPDEST PUSH1 0x0 DUP2 SWAP1 POP PUSH1 0x20 DUP3 ADD SWAP1 POP SWAP2 SWAP1 POP JUMP JUMPDEST PUSH2 0x1D78 DUP2 PUSH2 0x1C5C JUMP JUMPDEST DUP3 MSTORE POP POP JUMP JUMPDEST PUSH1 0x0 PUSH2 0x1D8A DUP4 DUP4 PUSH2 0x1D6F JUMP JUMPDEST PUSH1 0x20 DUP4 ADD SWAP1 POP SWAP3 SWAP2 POP POP JUMP JUMPDEST PUSH1 0x0 PUSH1 0x20 DUP3 ADD SWAP1 POP SWAP2 SWAP1 POP JUMP JUMPDEST PUSH1 0x0 PUSH2 0x1DAE DUP3 PUSH2 0x1D43 JUMP JUMPDEST PUSH2 0x1DB8 DUP2 DUP6 PUSH2 0x1D4E JUMP JUMPDEST SWAP4 POP PUSH2 0x1DC3 DUP4 PUSH2 0x1D5F JUMP JUMPDEST DUP1 PUSH1 0x0 JUMPDEST DUP4 DUP2 LT ISZERO PUSH2 0x1DF4 JUMPI DUP2 MLOAD PUSH2 0x1DDB DUP9 DUP3 PUSH2 0x1D7E JUMP JUMPDEST SWAP8 POP PUSH2 0x1DE6 DUP4 PUSH2 0x1D96 JUMP JUMPDEST SWAP3 POP POP PUSH1 0x1 DUP2 ADD SWAP1 POP PUSH2 0x1DC7 JUMP JUMPDEST POP DUP6 SWAP4 POP POP POP POP SWAP3 SWAP2 POP POP JUMP JUMPDEST PUSH1 0x0 PUSH1 0x20 DUP3 ADD SWAP1 POP DUP2 DUP2 SUB PUSH1 0x0 DUP4 ADD MSTORE PUSH2 0x1E1B DUP2 DUP5 PUSH2 0x1DA3 JUMP JUMPDEST SWAP1 POP SWAP3 SWAP2 POP POP JUMP JUMPDEST PUSH1 0x0 PUSH1 0x20 DUP3 ADD SWAP1 POP PUSH2 0x1E38 PUSH1 0x0 DUP4 ADD DUP5 PUSH2 0x1905 JUMP JUMPDEST SWAP3 SWAP2 POP POP JUMP JUMPDEST PUSH1 0x0 PUSH1 0x20 DUP3 ADD SWAP1 POP DUP2 DUP2 SUB PUSH1 0x0 DUP4 ADD MSTORE PUSH2 0x1E58 DUP2 DUP5 PUSH2 0x18CC JUMP JUMPDEST SWAP1 POP SWAP3 SWAP2 POP POP JUMP JUMPDEST PUSH32 0x4E487B7100000000000000000000000000000000000000000000000000000000 PUSH1 0x0 MSTORE PUSH1 0x21 PUSH1 0x4 MSTORE PUSH1 0x24 PUSH1 0x0 REVERT JUMPDEST PUSH1 0x6 DUP2 LT PUSH2 0x1EA0 JUMPI PUSH2 0x1E9F PUSH2 0x1E60 JUMP JUMPDEST JUMPDEST POP JUMP JUMPDEST PUSH1 0x0 DUP2 SWAP1 POP PUSH2 0x1EB1 DUP3 PUSH2 0x1E8F JUMP JUMPDEST SWAP2 SWAP1 POP JUMP JUMPDEST PUSH1 0x0 PUSH2 0x1EC1 DUP3 PUSH2 0x1EA3 JUMP JUMPDEST SWAP1 POP SWAP2 SWAP1 POP JUMP JUMPDEST PUSH2 0x1ED1 DUP2 PUSH2 0x1EB6 JUMP JUMPDEST DUP3 MSTORE POP POP JUMP JUMPDEST PUSH1 0x0 PUSH1 0x20 DUP3 ADD SWAP1 POP PUSH2 0x1EEC PUSH1 0x0 DUP4 ADD DUP5 PUSH2 0x1EC8 JUMP JUMPDEST SWAP3 SWAP2 POP POP JUMP JUMPDEST PUSH32 0x4E487B7100000000000000000000000000000000000000000000000000000000 PUSH1 0x0 MSTORE PUSH1 0x22 PUSH1 0x4 MSTORE PUSH1 0x24 PUSH1 0x0 REVERT JUMPDEST PUSH1 0x0 PUSH1 0x2 DUP3 DIV SWAP1 POP PUSH1 0x1 DUP3 AND DUP1 PUSH2 0x1F39 JUMPI PUSH1 0x7F DUP3 AND SWAP2 POP JUMPDEST PUSH1 0x20 DUP3 LT DUP2 SUB PUSH2 0x1F4C JUMPI PUSH2 0x1F4B PUSH2 0x1EF2 JUMP JUMPDEST JUMPDEST POP SWAP2 SWAP1 POP JUMP JUMPDEST PUSH32 0x596F75277265206E6F7420726567697374657265642C20796F752063616E2774 PUSH1 0x0 DUP3 ADD MSTORE PUSH32 0x20766F7465000000000000000000000000000000000000000000000000000000 PUSH1 0x20 DUP3 ADD MSTORE POP JUMP JUMPDEST PUSH1 0x0 PUSH2 0x1FAE PUSH1 0x25 DUP4 PUSH2 0x1877 JUMP JUMPDEST SWAP2 POP PUSH2 0x1FB9 DUP3 PUSH2 0x1F52 JUMP JUMPDEST PUSH1 0x40 DUP3 ADD SWAP1 POP SWAP2 SWAP1 POP JUMP JUMPDEST PUSH1 0x0 PUSH1 0x20 DUP3 ADD SWAP1 POP DUP2 DUP2 SUB PUSH1 0x0 DUP4 ADD MSTORE PUSH2 0x1FDD DUP2 PUSH2 0x1FA1 JUMP JUMPDEST SWAP1 POP SWAP2 SWAP1 POP JUMP JUMPDEST PUSH32 0x596F7527766520616C726561647920766F746520666F7220612070726F706F73 PUSH1 0x0 DUP3 ADD MSTORE PUSH32 0x616C000000000000000000000000000000000000000000000000000000000000 PUSH1 0x20 DUP3 ADD MSTORE POP JUMP JUMPDEST PUSH1 0x0 PUSH2 0x2040 PUSH1 0x22 DUP4 PUSH2 0x1877 JUMP JUMPDEST SWAP2 POP PUSH2 0x204B DUP3 PUSH2 0x1FE4 JUMP JUMPDEST PUSH1 0x40 DUP3 ADD SWAP1 POP SWAP2 SWAP1 POP JUMP JUMPDEST PUSH1 0x0 PUSH1 0x20 DUP3 ADD SWAP1 POP DUP2 DUP2 SUB PUSH1 0x0 DUP4 ADD MSTORE PUSH2 0x206F DUP2 PUSH2 0x2033 JUMP JUMPDEST SWAP1 POP SWAP2 SWAP1 POP JUMP JUMPDEST PUSH32 0x4E487B7100000000000000000000000000000000000000000000000000000000 PUSH1 0x0 MSTORE PUSH1 0x32 PUSH1 0x4 MSTORE PUSH1 0x24 PUSH1 0x0 REVERT JUMPDEST PUSH1 0x0 PUSH1 0x40 DUP3 ADD SWAP1 POP PUSH2 0x20BA PUSH1 0x0 DUP4 ADD DUP6 PUSH2 0x1D19 JUMP JUMPDEST PUSH2 0x20C7 PUSH1 0x20 DUP4 ADD DUP5 PUSH2 0x1905 JUMP JUMPDEST SWAP4 SWAP3 POP POP POP JUMP JUMPDEST PUSH32 0x596F75277265206E6F7420726567697374657265642C20796F752063616E2774 PUSH1 0x0 DUP3 ADD MSTORE PUSH32 0x207375626D697420612070726F706F73616C0000000000000000000000000000 PUSH1 0x20 DUP3 ADD MSTORE POP JUMP JUMPDEST PUSH1 0x0 PUSH2 0x212A PUSH1 0x32 DUP4 PUSH2 0x1877 JUMP JUMPDEST SWAP2 POP PUSH2 0x2135 DUP3 PUSH2 0x20CE JUMP JUMPDEST PUSH1 0x40 DUP3 ADD SWAP1 POP SWAP2 SWAP1 POP JUMP JUMPDEST PUSH1 0x0 PUSH1 0x20 DUP3 ADD SWAP1 POP DUP2 DUP2 SUB PUSH1 0x0 DUP4 ADD MSTORE PUSH2 0x2159 DUP2 PUSH2 0x211D JUMP JUMPDEST SWAP1 POP SWAP2 SWAP1 POP JUMP JUMPDEST PUSH1 0x0 DUP2 SWAP1 POP DUP2 PUSH1 0x0 MSTORE PUSH1 0x20 PUSH1 0x0 KECCAK256 SWAP1 POP SWAP2 SWAP1 POP JUMP JUMPDEST PUSH1 0x0 PUSH1 0x20 PUSH1 0x1F DUP4 ADD DIV SWAP1 POP SWAP2 SWAP1 POP JUMP JUMPDEST PUSH1 0x0 DUP3 DUP3 SHL SWAP1 POP SWAP3 SWAP2 POP POP JUMP JUMPDEST PUSH1 0x0 PUSH1 0x8 DUP4 MUL PUSH2 0x21C2 PUSH32 0xFFFFFFFFFFFFFFFFFFFFFFFFFFFFFFFFFFFFFFFFFFFFFFFFFFFFFFFFFFFFFFFF DUP3 PUSH2 0x2185 JUMP JUMPDEST PUSH2 0x21CC DUP7 DUP4 PUSH2 0x2185 JUMP JUMPDEST SWAP6 POP DUP1 NOT DUP5 AND SWAP4 POP DUP1 DUP7 AND DUP5 OR SWAP3 POP POP POP SWAP4 SWAP3 POP POP POP JUMP JUMPDEST PUSH1 0x0 DUP2 SWAP1 POP SWAP2 SWAP1 POP JUMP JUMPDEST PUSH1 0x0 PUSH2 0x2209 PUSH2 0x2204 PUSH2 0x21FF DUP5 PUSH2 0x1809 JUMP JUMPDEST PUSH2 0x21E4 JUMP JUMPDEST PUSH2 0x1809 JUMP JUMPDEST SWAP1 POP SWAP2 SWAP1 POP JUMP JUMPDEST PUSH1 0x0 DUP2 SWAP1 POP SWAP2 SWAP1 POP JUMP JUMPDEST PUSH2 0x2223 DUP4 PUSH2 0x21EE JUMP JUMPDEST PUSH2 0x2237 PUSH2 0x222F DUP3 PUSH2 0x2210 JUMP JUMPDEST DUP5 DUP5 SLOAD PUSH2 0x2192 JUMP JUMPDEST DUP3 SSTORE POP POP POP POP JUMP JUMPDEST PUSH1 0x0 SWAP1 JUMP JUMPDEST PUSH2 0x224C PUSH2 0x223F JUMP JUMPDEST PUSH2 0x2257 DUP2 DUP5 DUP5 PUSH2 0x221A JUMP JUMPDEST POP POP POP JUMP JUMPDEST JUMPDEST DUP2 DUP2 LT ISZERO PUSH2 0x227B JUMPI PUSH2 0x2270 PUSH1 0x0 DUP3 PUSH2 0x2244 JUMP JUMPDEST PUSH1 0x1 DUP2 ADD SWAP1 POP PUSH2 0x225D JUMP JUMPDEST POP POP JUMP JUMPDEST PUSH1 0x1F DUP3 GT ISZERO PUSH2 0x22C0 JUMPI PUSH2 0x2291 DUP2 PUSH2 0x2160 JUMP JUMPDEST PUSH2 0x229A DUP5 PUSH2 0x2175 JUMP JUMPDEST DUP2 ADD PUSH1 0x20 DUP6 LT ISZERO PUSH2 0x22A9 JUMPI DUP2 SWAP1 POP JUMPDEST PUSH2 0x22BD PUSH2 0x22B5 DUP6 PUSH2 0x2175 JUMP JUMPDEST DUP4 ADD DUP3 PUSH2 0x225C JUMP JUMPDEST POP POP JUMPDEST POP POP POP JUMP JUMPDEST PUSH1 0x0 DUP3 DUP3 SHR SWAP1 POP SWAP3 SWAP2 POP POP JUMP JUMPDEST PUSH1 0x0 PUSH2 0x22E3 PUSH1 0x0 NOT DUP5 PUSH1 0x8 MUL PUSH2 0x22C5 JUMP JUMPDEST NOT DUP1 DUP4 AND SWAP2 POP POP SWAP3 SWAP2 POP POP JUMP JUMPDEST PUSH1 0x0 PUSH2 0x22FC DUP4 DUP4 PUSH2 0x22D2 JUMP JUMPDEST SWAP2 POP DUP3 PUSH1 0x2 MUL DUP3 OR SWAP1 POP SWAP3 SWAP2 POP POP JUMP JUMPDEST PUSH2 0x2315 DUP3 PUSH2 0x186C JUMP JUMPDEST PUSH8 0xFFFFFFFFFFFFFFFF DUP2 GT ISZERO PUSH2 0x232E JUMPI PUSH2 0x232D PUSH2 0x194E JUMP JUMPDEST JUMPDEST PUSH2 0x2338 DUP3 SLOAD PUSH2 0x1F21 JUMP JUMPDEST PUSH2 0x2343 DUP3 DUP3 DUP6 PUSH2 0x227F JUMP JUMPDEST PUSH1 0x0 PUSH1 0x20 SWAP1 POP PUSH1 0x1F DUP4 GT PUSH1 0x1 DUP2 EQ PUSH2 0x2376 JUMPI PUSH1 0x0 DUP5 ISZERO PUSH2 0x2364 JUMPI DUP3 DUP8 ADD MLOAD SWAP1 POP JUMPDEST PUSH2 0x236E DUP6 DUP3 PUSH2 0x22F0 JUMP JUMPDEST DUP7 SSTORE POP PUSH2 0x23D6 JUMP JUMPDEST PUSH1 0x1F NOT DUP5 AND PUSH2 0x2384 DUP7 PUSH2 0x2160 JUMP JUMPDEST PUSH1 0x0 JUMPDEST DUP3 DUP2 LT ISZERO PUSH2 0x23AC JUMPI DUP5 DUP10 ADD MLOAD DUP3 SSTORE PUSH1 0x1 DUP3 ADD SWAP2 POP PUSH1 0x20 DUP6 ADD SWAP5 POP PUSH1 0x20 DUP2 ADD SWAP1 POP PUSH2 0x2387 JUMP JUMPDEST DUP7 DUP4 LT ISZERO PUSH2 0x23C9 JUMPI DUP5 DUP10 ADD MLOAD PUSH2 0x23C5 PUSH1 0x1F DUP10 AND DUP3 PUSH2 0x22D2 JUMP JUMPDEST DUP4 SSTORE POP JUMPDEST PUSH1 0x1 PUSH1 0x2 DUP9 MUL ADD DUP9 SSTORE POP POP POP JUMPDEST POP POP POP POP POP POP JUMP JUMPDEST PUSH32 0x4F776E61626C653A2063616C6C6572206973206E6F7420746865206F776E6572 PUSH1 0x0 DUP3 ADD MSTORE POP JUMP JUMPDEST PUSH1 0x0 PUSH2 0x2414 PUSH1 0x20 DUP4 PUSH2 0x1877 JUMP JUMPDEST SWAP2 POP PUSH2 0x241F DUP3 PUSH2 0x23DE JUMP JUMPDEST PUSH1 0x20 DUP3 ADD SWAP1 POP SWAP2 SWAP1 POP JUMP JUMPDEST PUSH1 0x0 PUSH1 0x20 DUP3 ADD SWAP1 POP DUP2 DUP2 SUB PUSH1 0x0 DUP4 ADD MSTORE PUSH2 0x2443 DUP2 PUSH2 0x2407 JUMP JUMPDEST SWAP1 POP SWAP2 SWAP1 POP JUMP JUMPDEST PUSH32 0x4E487B7100000000000000000000000000000000000000000000000000000000 PUSH1 0x0 MSTORE PUSH1 0x11 PUSH1 0x4 MSTORE PUSH1 0x24 PUSH1 0x0 REVERT JUMPDEST PUSH1 0x0 PUSH2 0x2484 DUP3 PUSH2 0x1809 JUMP JUMPDEST SWAP2 POP PUSH32 0xFFFFFFFFFFFFFFFFFFFFFFFFFFFFFFFFFFFFFFFFFFFFFFFFFFFFFFFFFFFFFFFF DUP3 SUB PUSH2 0x24B6 JUMPI PUSH2 0x24B5 PUSH2 0x244A JUMP JUMPDEST JUMPDEST PUSH1 0x1 DUP3 ADD SWAP1 POP SWAP2 SWAP1 POP JUMP JUMPDEST PUSH1 0x0 PUSH1 0x40 DUP3 ADD SWAP1 POP PUSH2 0x24D6 PUSH1 0x0 DUP4 ADD DUP6 PUSH2 0x1EC8 JUMP JUMPDEST PUSH2 0x24E3 PUSH1 0x20 DUP4 ADD DUP5 PUSH2 0x1EC8 JUMP JUMPDEST SWAP4 SWAP3 POP POP POP JUMP JUMPDEST PUSH32 0x54686973206164647265737320697320616C7265616479207265676973747265 PUSH1 0x0 DUP3 ADD MSTORE PUSH32 0x6420210000000000000000000000000000000000000000000000000000000000 PUSH1 0x20 DUP3 ADD MSTORE POP JUMP JUMPDEST PUSH1 0x0 PUSH2 0x2546 PUSH1 0x23 DUP4 PUSH2 0x1877 JUMP JUMPDEST SWAP2 POP PUSH2 0x2551 DUP3 PUSH2 0x24EA JUMP JUMPDEST PUSH1 0x40 DUP3 ADD SWAP1 POP SWAP2 SWAP1 POP JUMP JUMPDEST PUSH1 0x0 PUSH1 0x20 DUP3 ADD SWAP1 POP DUP2 DUP2 SUB PUSH1 0x0 DUP4 ADD MSTORE PUSH2 0x2575 DUP2 PUSH2 0x2539 JUMP JUMPDEST SWAP1 POP SWAP2 SWAP1 POP JUMP JUMPDEST PUSH32 0x4F776E61626C653A206E6577206F776E657220697320746865207A65726F2061 PUSH1 0x0 DUP3 ADD MSTORE PUSH32 0x6464726573730000000000000000000000000000000000000000000000000000 PUSH1 0x20 DUP3 ADD MSTORE POP JUMP JUMPDEST PUSH1 0x0 PUSH2 0x25D8 PUSH1 0x26 DUP4 PUSH2 0x1877 JUMP JUMPDEST SWAP2 POP PUSH2 0x25E3 DUP3 PUSH2 0x257C JUMP JUMPDEST PUSH1 0x40 DUP3 ADD SWAP1 POP SWAP2 SWAP1 POP JUMP JUMPDEST PUSH1 0x0 PUSH1 0x20 DUP3 ADD SWAP1 POP DUP2 DUP2 SUB PUSH1 0x0 DUP4 ADD MSTORE PUSH2 0x2607 DUP2 PUSH2 0x25CB JUMP JUMPDEST SWAP1 POP SWAP2 SWAP1 POP JUMP JUMPDEST PUSH1 0x0 PUSH2 0x2619 DUP3 PUSH2 0x1809 JUMP JUMPDEST SWAP2 POP PUSH2 0x2624 DUP4 PUSH2 0x1809 JUMP JUMPDEST SWAP3 POP DUP3 PUSH32 0xFFFFFFFFFFFFFFFFFFFFFFFFFFFFFFFFFFFFFFFFFFFFFFFFFFFFFFFFFFFFFFFF SUB DUP3 GT ISZERO PUSH2 0x2659 JUMPI PUSH2 0x2658 PUSH2 0x244A JUMP JUMPDEST JUMPDEST DUP3 DUP3 ADD SWAP1 POP SWAP3 SWAP2 POP POP JUMP INVALID LOG2 PUSH5 0x6970667358 0x22 SLT KECCAK256 NUMBER JUMP DUP10 0xBE 0x2D 0xC8 0xDE SWAP12 EXTCODEHASH PUSH17 0x5441E433F152AFB991805C93DE1343B183 0x5D SUB CALLCODE PUSH31 0x3864736F6C634300080F003300000000000000000000000000000000000000 "
				},
				"gasEstimates": {
					"creation": {
						"codeDepositCost": "1976400",
						"executionCost": "infinite",
						"totalCost": "infinite"
					},
					"external": {
						"DoingTheVote(uint256)": "infinite",
						"LookAtTheWinningProposal()": "infinite",
						"RegisteredVoters(address)": "infinite",
						"addProposal(string)": "infinite",
						"addVoterToList(address)": "infinite",
						"addresses(uint256)": "5000",
						"currentWorkflowStatus()": "2648",
						"endOfRegisteringProposal()": "infinite",
						"endVote()": "infinite",
						"getAddresses()": "infinite",
						"getProposals()": "infinite",
						"owner()": "2545",
						"proposals(uint256)": "infinite",
						"renounceOwnership()": "30463",
						"startRegisteringProposal()": "infinite",
						"startVote()": "infinite",
						"tallyVotes()": "infinite",
						"transferOwnership(address)": "30786",
						"votesTallied()": "infinite"
					}
				},
				"methodIdentifiers": {
					"DoingTheVote(uint256)": "1930dc58",
					"LookAtTheWinningProposal()": "d1f165d5",
					"RegisteredVoters(address)": "67ffc3c3",
					"addProposal(string)": "2fdae3c5",
					"addVoterToList(address)": "8f20cd05",
					"addresses(uint256)": "edf26d9b",
					"currentWorkflowStatus()": "f7ad7645",
					"endOfRegisteringProposal()": "77331897",
					"endVote()": "b9223946",
					"getAddresses()": "a39fac12",
					"getProposals()": "62564c48",
					"owner()": "8da5cb5b",
					"proposals(uint256)": "013cf08b",
					"renounceOwnership()": "715018a6",
					"startRegisteringProposal()": "fbed253a",
					"startVote()": "4c0a6af0",
					"tallyVotes()": "378a2178",
					"transferOwnership(address)": "f2fde38b",
					"votesTallied()": "ada7415f"
				}
			},
			"storageLayout": {
				"storage": [
					{
						"astId": 7,
						"contract": "contracts/voting.sol:Voting",
						"label": "_owner",
						"offset": 0,
						"slot": "0",
						"type": "t_address"
					},
					{
						"astId": 461,
						"contract": "contracts/voting.sol:Voting",
						"label": "winningProposalId",
						"offset": 0,
						"slot": "1",
						"type": "t_uint256"
					},
					{
						"astId": 464,
						"contract": "contracts/voting.sol:Voting",
						"label": "countProposalId",
						"offset": 0,
						"slot": "2",
						"type": "t_uint256"
					},
					{
						"astId": 469,
						"contract": "contracts/voting.sol:Voting",
						"label": "RegisteredVoters",
						"offset": 0,
						"slot": "3",
						"type": "t_mapping(t_address,t_struct(Voter)454_storage)"
					},
					{
						"astId": 473,
						"contract": "contracts/voting.sol:Voting",
						"label": "proposals",
						"offset": 0,
						"slot": "4",
						"type": "t_array(t_struct(Proposal)459_storage)dyn_storage"
					},
					{
						"astId": 476,
						"contract": "contracts/voting.sol:Voting",
						"label": "addresses",
						"offset": 0,
						"slot": "5",
						"type": "t_array(t_address)dyn_storage"
					},
					{
						"astId": 488,
						"contract": "contracts/voting.sol:Voting",
						"label": "currentWorkflowStatus",
						"offset": 0,
						"slot": "6",
						"type": "t_enum(WorkflowStatus)483"
					}
				],
				"types": {
					"t_address": {
						"encoding": "inplace",
						"label": "address",
						"numberOfBytes": "20"
					},
					"t_array(t_address)dyn_storage": {
						"base": "t_address",
						"encoding": "dynamic_array",
						"label": "address[]",
						"numberOfBytes": "32"
					},
					"t_array(t_struct(Proposal)459_storage)dyn_storage": {
						"base": "t_struct(Proposal)459_storage",
						"encoding": "dynamic_array",
						"label": "struct Voting.Proposal[]",
						"numberOfBytes": "32"
					},
					"t_bool": {
						"encoding": "inplace",
						"label": "bool",
						"numberOfBytes": "1"
					},
					"t_enum(WorkflowStatus)483": {
						"encoding": "inplace",
						"label": "enum Voting.WorkflowStatus",
						"numberOfBytes": "1"
					},
					"t_mapping(t_address,t_struct(Voter)454_storage)": {
						"encoding": "mapping",
						"key": "t_address",
						"label": "mapping(address => struct Voting.Voter)",
						"numberOfBytes": "32",
						"value": "t_struct(Voter)454_storage"
					},
					"t_string_storage": {
						"encoding": "bytes",
						"label": "string",
						"numberOfBytes": "32"
					},
					"t_struct(Proposal)459_storage": {
						"encoding": "inplace",
						"label": "struct Voting.Proposal",
						"members": [
							{
								"astId": 456,
								"contract": "contracts/voting.sol:Voting",
								"label": "description",
								"offset": 0,
								"slot": "0",
								"type": "t_string_storage"
							},
							{
								"astId": 458,
								"contract": "contracts/voting.sol:Voting",
								"label": "voteCount",
								"offset": 0,
								"slot": "1",
								"type": "t_uint256"
							}
						],
						"numberOfBytes": "64"
					},
					"t_struct(Voter)454_storage": {
						"encoding": "inplace",
						"label": "struct Voting.Voter",
						"members": [
							{
								"astId": 449,
								"contract": "contracts/voting.sol:Voting",
								"label": "isRegistred",
								"offset": 0,
								"slot": "0",
								"type": "t_bool"
							},
							{
								"astId": 451,
								"contract": "contracts/voting.sol:Voting",
								"label": "hasVoted",
								"offset": 1,
								"slot": "0",
								"type": "t_bool"
							},
							{
								"astId": 453,
								"contract": "contracts/voting.sol:Voting",
								"label": "votedProposalId",
								"offset": 0,
								"slot": "1",
								"type": "t_uint256"
							}
						],
						"numberOfBytes": "64"
					},
					"t_uint256": {
						"encoding": "inplace",
						"label": "uint256",
						"numberOfBytes": "32"
					}
				}
			},
			"userdoc": {
				"kind": "user",
				"methods": {},
				"version": 1
			}
		}
	}
}