{
	"contracts/voting.sol": {
		"Voting": {
			"abi": [
				{
					"anonymous": false,
					"inputs": [
						{
							"indexed": true,
							"internalType": "address",
							"name": "previousOwner",
							"type": "address"
						},
						{
							"indexed": true,
							"internalType": "address",
							"name": "newOwner",
							"type": "address"
						}
					],
					"name": "OwnershipTransferred",
					"type": "event"
				},
				{
					"anonymous": false,
					"inputs": [
						{
							"indexed": false,
							"internalType": "uint256",
							"name": "proposalId",
							"type": "uint256"
						}
					],
					"name": "ProposalRegistered",
					"type": "event"
				},
				{
					"anonymous": false,
					"inputs": [
						{
							"indexed": false,
							"internalType": "address",
							"name": "voter",
							"type": "address"
						},
						{
							"indexed": false,
							"internalType": "uint256",
							"name": "proposalId",
							"type": "uint256"
						}
					],
					"name": "Voted",
					"type": "event"
				},
				{
					"anonymous": false,
					"inputs": [
						{
							"indexed": false,
							"internalType": "address",
							"name": "voterAddress",
							"type": "address"
						}
					],
					"name": "VoterRegistered",
					"type": "event"
				},
				{
					"anonymous": false,
					"inputs": [
						{
							"indexed": false,
							"internalType": "enum Voting.WorkflowStatus",
							"name": "previousStatus",
							"type": "uint8"
						},
						{
							"indexed": false,
							"internalType": "enum Voting.WorkflowStatus",
							"name": "newStatus",
							"type": "uint8"
						}
					],
					"name": "WorkflowStatusChange",
					"type": "event"
				},
				{
					"anonymous": false,
					"inputs": [
						{
							"indexed": false,
							"internalType": "address",
							"name": "voterAddress",
							"type": "address"
						}
					],
					"name": "unregistered",
					"type": "event"
				},
				{
					"inputs": [
						{
							"internalType": "string",
							"name": "_desc",
							"type": "string"
						}
					],
					"name": "addProposal",
					"outputs": [],
					"stateMutability": "nonpayable",
					"type": "function"
				},
				{
					"inputs": [
						{
							"internalType": "address",
							"name": "_voter",
							"type": "address"
						}
					],
					"name": "addWL",
					"outputs": [],
					"stateMutability": "nonpayable",
					"type": "function"
				},
				{
					"inputs": [
						{
							"internalType": "uint256",
							"name": "",
							"type": "uint256"
						}
					],
					"name": "addresses",
					"outputs": [
						{
							"internalType": "address",
							"name": "",
							"type": "address"
						}
					],
					"stateMutability": "view",
					"type": "function"
				},
				{
					"inputs": [
						{
							"internalType": "enum Voting.WorkflowStatus",
							"name": "_status",
							"type": "uint8"
						}
					],
					"name": "changeWorkflowStatus",
					"outputs": [],
					"stateMutability": "nonpayable",
					"type": "function"
				},
				{
					"inputs": [],
					"name": "counterVoteBlanc",
					"outputs": [
						{
							"internalType": "uint256",
							"name": "",
							"type": "uint256"
						}
					],
					"stateMutability": "view",
					"type": "function"
				},
				{
					"inputs": [
						{
							"internalType": "address",
							"name": "_addr",
							"type": "address"
						}
					],
					"name": "delWL",
					"outputs": [],
					"stateMutability": "nonpayable",
					"type": "function"
				},
				{
					"inputs": [],
					"name": "getAddresses",
					"outputs": [
						{
							"internalType": "address[]",
							"name": "",
							"type": "address[]"
						}
					],
					"stateMutability": "view",
					"type": "function"
				},
				{
					"inputs": [],
					"name": "getProposals",
					"outputs": [
						{
							"components": [
								{
									"internalType": "string",
									"name": "description",
									"type": "string"
								},
								{
									"internalType": "uint256",
									"name": "voteCount",
									"type": "uint256"
								}
							],
							"internalType": "struct Voting.Proposal[]",
							"name": "",
							"type": "tuple[]"
						}
					],
					"stateMutability": "view",
					"type": "function"
				},
				{
					"inputs": [],
					"name": "owner",
					"outputs": [
						{
							"internalType": "address",
							"name": "",
							"type": "address"
						}
					],
					"stateMutability": "view",
					"type": "function"
				},
				{
					"inputs": [
						{
							"internalType": "uint256",
							"name": "",
							"type": "uint256"
						}
					],
					"name": "proposals",
					"outputs": [
						{
							"internalType": "string",
							"name": "description",
							"type": "string"
						},
						{
							"internalType": "uint256",
							"name": "voteCount",
							"type": "uint256"
						}
					],
					"stateMutability": "view",
					"type": "function"
				},
				{
					"inputs": [
						{
							"internalType": "uint256",
							"name": "proposalId",
							"type": "uint256"
						}
					],
					"name": "registerVote",
					"outputs": [],
					"stateMutability": "nonpayable",
					"type": "function"
				},
				{
					"inputs": [],
					"name": "renounceOwnership",
					"outputs": [],
					"stateMutability": "nonpayable",
					"type": "function"
				},
				{
					"inputs": [],
					"name": "tallyVotes",
					"outputs": [],
					"stateMutability": "nonpayable",
					"type": "function"
				},
				{
					"inputs": [
						{
							"internalType": "address",
							"name": "newOwner",
							"type": "address"
						}
					],
					"name": "transferOwnership",
					"outputs": [],
					"stateMutability": "nonpayable",
					"type": "function"
				},
				{
					"inputs": [],
					"name": "voteStatus",
					"outputs": [
						{
							"internalType": "enum Voting.WorkflowStatus",
							"name": "",
							"type": "uint8"
						}
					],
					"stateMutability": "view",
					"type": "function"
				},
				{
					"inputs": [
						{
							"internalType": "address",
							"name": "",
							"type": "address"
						}
					],
					"name": "voters",
					"outputs": [
						{
							"internalType": "bool",
							"name": "isRegistered",
							"type": "bool"
						},
						{
							"internalType": "bool",
							"name": "hasVoted",
							"type": "bool"
						},
						{
							"internalType": "uint256",
							"name": "votedProposalId",
							"type": "uint256"
						}
					],
					"stateMutability": "view",
					"type": "function"
				},
				{
					"inputs": [],
					"name": "winningProposalID",
					"outputs": [
						{
							"internalType": "uint256",
							"name": "",
							"type": "uint256"
						}
					],
					"stateMutability": "view",
					"type": "function"
				}
			],
			"devdoc": {
				"kind": "dev",
				"methods": {
					"owner()": {
						"details": "Returns the address of the current owner."
					},
					"renounceOwnership()": {
						"details": "Leaves the contract without owner. It will not be possible to call `onlyOwner` functions anymore. Can only be called by the current owner. NOTE: Renouncing ownership will leave the contract without an owner, thereby removing any functionality that is only available to the owner."
					},
					"transferOwnership(address)": {
						"details": "Transfers ownership of the contract to a new account (`newOwner`). Can only be called by the current owner."
					}
				},
				"version": 1
			},
			"evm": {
				"assembly": "    /* \"contracts/voting.sol\":112:3803  contract Voting is Ownable {... */\n  mstore(0x40, 0x80)\n    /* \"contracts/voting.sol\":1113:1145  WorkflowStatus.RegisteringVoters */\n  0x00\n    /* \"contracts/voting.sol\":1078:1145  WorkflowStatus public voteStatus = WorkflowStatus.RegisteringVoters */\n  0x06\n  exp(0x0100, 0x00)\n  dup2\n  sload\n  dup2\n  0xff\n  mul\n  not\n  and\n  swap1\n  dup4\n  0x05\n  dup2\n  gt\n  iszero\n  tag_1\n  jumpi\n  tag_2\n  tag_3\n  jump\t// in\ntag_2:\ntag_1:\n  mul\n  or\n  swap1\n  sstore\n  pop\n    /* \"contracts/voting.sol\":112:3803  contract Voting is Ownable {... */\n  callvalue\n  dup1\n  iszero\n  tag_4\n  jumpi\n  0x00\n  dup1\n  revert\ntag_4:\n  pop\n    /* \"@openzeppelin/contracts/access/Ownable.sol\":921:953  _transferOwnership(_msgSender()) */\n  tag_7\n    /* \"@openzeppelin/contracts/access/Ownable.sol\":940:952  _msgSender() */\n  tag_8\n    /* \"@openzeppelin/contracts/access/Ownable.sol\":940:950  _msgSender */\n  shl(0x20, tag_9)\n    /* \"@openzeppelin/contracts/access/Ownable.sol\":940:952  _msgSender() */\n  0x20\n  shr\n  jump\t// in\ntag_8:\n    /* \"@openzeppelin/contracts/access/Ownable.sol\":921:939  _transferOwnership */\n  shl(0x20, tag_10)\n    /* \"@openzeppelin/contracts/access/Ownable.sol\":921:953  _transferOwnership(_msgSender()) */\n  0x20\n  shr\n  jump\t// in\ntag_7:\n    /* \"contracts/voting.sol\":112:3803  contract Voting is Ownable {... */\n  jump(tag_11)\n    /* \"@openzeppelin/contracts/utils/Context.sol\":640:736  function _msgSender() internal view virtual returns (address) {... */\ntag_9:\n    /* \"@openzeppelin/contracts/utils/Context.sol\":693:700  address */\n  0x00\n    /* \"@openzeppelin/contracts/utils/Context.sol\":719:729  msg.sender */\n  caller\n    /* \"@openzeppelin/contracts/utils/Context.sol\":712:729  return msg.sender */\n  swap1\n  pop\n    /* \"@openzeppelin/contracts/utils/Context.sol\":640:736  function _msgSender() internal view virtual returns (address) {... */\n  swap1\n  jump\t// out\n    /* \"@openzeppelin/contracts/access/Ownable.sol\":2270:2457  function _transferOwnership(address newOwner) internal virtual {... */\ntag_10:\n    /* \"@openzeppelin/contracts/access/Ownable.sol\":2343:2359  address oldOwner */\n  0x00\n    /* \"@openzeppelin/contracts/access/Ownable.sol\":2362:2368  _owner */\n  dup1\n  0x00\n  swap1\n  sload\n  swap1\n  0x0100\n  exp\n  swap1\n  div\n  0xffffffffffffffffffffffffffffffffffffffff\n  and\n    /* \"@openzeppelin/contracts/access/Ownable.sol\":2343:2368  address oldOwner = _owner */\n  swap1\n  pop\n    /* \"@openzeppelin/contracts/access/Ownable.sol\":2387:2395  newOwner */\n  dup2\n    /* \"@openzeppelin/contracts/access/Ownable.sol\":2378:2384  _owner */\n  0x00\n  dup1\n    /* \"@openzeppelin/contracts/access/Ownable.sol\":2378:2395  _owner = newOwner */\n  0x0100\n  exp\n  dup2\n  sload\n  dup2\n  0xffffffffffffffffffffffffffffffffffffffff\n  mul\n  not\n  and\n  swap1\n  dup4\n  0xffffffffffffffffffffffffffffffffffffffff\n  and\n  mul\n  or\n  swap1\n  sstore\n  pop\n    /* \"@openzeppelin/contracts/access/Ownable.sol\":2441:2449  newOwner */\n  dup2\n    /* \"@openzeppelin/contracts/access/Ownable.sol\":2410:2450  OwnershipTransferred(oldOwner, newOwner) */\n  0xffffffffffffffffffffffffffffffffffffffff\n  and\n    /* \"@openzeppelin/contracts/access/Ownable.sol\":2431:2439  oldOwner */\n  dup2\n    /* \"@openzeppelin/contracts/access/Ownable.sol\":2410:2450  OwnershipTransferred(oldOwner, newOwner) */\n  0xffffffffffffffffffffffffffffffffffffffff\n  and\n  0x8be0079c531659141344cd1fd0a4f28419497f9722a3daafe3b4186f6b6457e0\n  mload(0x40)\n  mload(0x40)\n  dup1\n  swap2\n  sub\n  swap1\n  log3\n    /* \"@openzeppelin/contracts/access/Ownable.sol\":2333:2457  {... */\n  pop\n    /* \"@openzeppelin/contracts/access/Ownable.sol\":2270:2457  function _transferOwnership(address newOwner) internal virtual {... */\n  pop\n  jump\t// out\n    /* \"#utility.yul\":7:187   */\ntag_3:\n    /* \"#utility.yul\":55:132   */\n  0x4e487b7100000000000000000000000000000000000000000000000000000000\n    /* \"#utility.yul\":52:53   */\n  0x00\n    /* \"#utility.yul\":45:133   */\n  mstore\n    /* \"#utility.yul\":152:156   */\n  0x21\n    /* \"#utility.yul\":149:150   */\n  0x04\n    /* \"#utility.yul\":142:157   */\n  mstore\n    /* \"#utility.yul\":176:180   */\n  0x24\n    /* \"#utility.yul\":173:174   */\n  0x00\n    /* \"#utility.yul\":166:181   */\n  revert\n    /* \"contracts/voting.sol\":112:3803  contract Voting is Ownable {... */\ntag_11:\n  dataSize(sub_0)\n  dup1\n  dataOffset(sub_0)\n  0x00\n  codecopy\n  0x00\n  return\nstop\n\nsub_0: assembly {\n        /* \"contracts/voting.sol\":112:3803  contract Voting is Ownable {... */\n      mstore(0x40, 0x80)\n      callvalue\n      dup1\n      iszero\n      tag_1\n      jumpi\n      0x00\n      dup1\n      revert\n    tag_1:\n      pop\n      jumpi(tag_2, lt(calldatasize, 0x04))\n      shr(0xe0, calldataload(0x00))\n      dup1\n      0x715018a6\n      gt\n      tag_20\n      jumpi\n      dup1\n      0xa3ec138d\n      gt\n      tag_21\n      jumpi\n      dup1\n      0xa3ec138d\n      eq\n      tag_15\n      jumpi\n      dup1\n      0xb95c9663\n      eq\n      tag_16\n      jumpi\n      dup1\n      0xbdc01431\n      eq\n      tag_17\n      jumpi\n      dup1\n      0xedf26d9b\n      eq\n      tag_18\n      jumpi\n      dup1\n      0xf2fde38b\n      eq\n      tag_19\n      jumpi\n      jump(tag_2)\n    tag_21:\n      dup1\n      0x715018a6\n      eq\n      tag_11\n      jumpi\n      dup1\n      0x7ae6ee32\n      eq\n      tag_12\n      jumpi\n      dup1\n      0x8da5cb5b\n      eq\n      tag_13\n      jumpi\n      dup1\n      0xa39fac12\n      eq\n      tag_14\n      jumpi\n      jump(tag_2)\n    tag_20:\n      dup1\n      0x378a2178\n      gt\n      tag_22\n      jumpi\n      dup1\n      0x378a2178\n      eq\n      tag_7\n      jumpi\n      dup1\n      0x464d4a92\n      eq\n      tag_8\n      jumpi\n      dup1\n      0x48f72c48\n      eq\n      tag_9\n      jumpi\n      dup1\n      0x62564c48\n      eq\n      tag_10\n      jumpi\n      jump(tag_2)\n    tag_22:\n      dup1\n      0x013cf08b\n      eq\n      tag_3\n      jumpi\n      dup1\n      0x0d2328d3\n      eq\n      tag_4\n      jumpi\n      dup1\n      0x125f48e4\n      eq\n      tag_5\n      jumpi\n      dup1\n      0x2fdae3c5\n      eq\n      tag_6\n      jumpi\n    tag_2:\n      0x00\n      dup1\n      revert\n        /* \"contracts/voting.sol\":651:678  Proposal[] public proposals */\n    tag_3:\n      tag_23\n      0x04\n      dup1\n      calldatasize\n      sub\n      dup2\n      add\n      swap1\n      tag_24\n      swap2\n      swap1\n      tag_25\n      jump\t// in\n    tag_24:\n      tag_26\n      jump\t// in\n    tag_23:\n      mload(0x40)\n      tag_27\n      swap3\n      swap2\n      swap1\n      tag_28\n      jump\t// in\n    tag_27:\n      mload(0x40)\n      dup1\n      swap2\n      sub\n      swap1\n      return\n        /* \"contracts/voting.sol\":617:645  uint public counterVoteBlanc */\n    tag_4:\n      tag_29\n      tag_30\n      jump\t// in\n    tag_29:\n      mload(0x40)\n      tag_31\n      swap2\n      swap1\n      tag_32\n      jump\t// in\n    tag_31:\n      mload(0x40)\n      dup1\n      swap2\n      sub\n      swap1\n      return\n        /* \"contracts/voting.sol\":1406:1707  function addWL(address _voter) external onlyOwner ActualState(WorkflowStatus.RegisteringVoters){... */\n    tag_5:\n      tag_33\n      0x04\n      dup1\n      calldatasize\n      sub\n      dup2\n      add\n      swap1\n      tag_34\n      swap2\n      swap1\n      tag_35\n      jump\t// in\n    tag_34:\n      tag_36\n      jump\t// in\n    tag_33:\n      stop\n        /* \"contracts/voting.sol\":2683:3172  function addProposal(string memory _desc) external {... */\n    tag_6:\n      tag_37\n      0x04\n      dup1\n      calldatasize\n      sub\n      dup2\n      add\n      swap1\n      tag_38\n      swap2\n      swap1\n      tag_39\n      jump\t// in\n    tag_38:\n      tag_40\n      jump\t// in\n    tag_37:\n      stop\n        /* \"contracts/voting.sol\":3204:3792  function tallyVotes() external onlyOwner {... */\n    tag_7:\n      tag_41\n      tag_42\n      jump\t// in\n    tag_41:\n      stop\n        /* \"contracts/voting.sol\":2242:2657  function registerVote(uint proposalId) external   {... */\n    tag_8:\n      tag_43\n      0x04\n      dup1\n      calldatasize\n      sub\n      dup2\n      add\n      swap1\n      tag_44\n      swap2\n      swap1\n      tag_25\n      jump\t// in\n    tag_44:\n      tag_45\n      jump\t// in\n    tag_43:\n      stop\n        /* \"contracts/voting.sol\":1713:1853  function delWL(address _addr) external  wlVoter(_addr) {... */\n    tag_9:\n      tag_46\n      0x04\n      dup1\n      calldatasize\n      sub\n      dup2\n      add\n      swap1\n      tag_47\n      swap2\n      swap1\n      tag_35\n      jump\t// in\n    tag_47:\n      tag_48\n      jump\t// in\n    tag_46:\n      stop\n        /* \"contracts/voting.sol\":1888:1987  function getProposals() external view  returns(Proposal[] memory) {... */\n    tag_10:\n      tag_49\n      tag_50\n      jump\t// in\n    tag_49:\n      mload(0x40)\n      tag_51\n      swap2\n      swap1\n      tag_52\n      jump\t// in\n    tag_51:\n      mload(0x40)\n      dup1\n      swap2\n      sub\n      swap1\n      return\n        /* \"@openzeppelin/contracts/access/Ownable.sol\":1668:1769  function renounceOwnership() public virtual onlyOwner {... */\n    tag_11:\n      tag_53\n      tag_54\n      jump\t// in\n    tag_53:\n      stop\n        /* \"contracts/voting.sol\":1078:1145  WorkflowStatus public voteStatus = WorkflowStatus.RegisteringVoters */\n    tag_12:\n      tag_55\n      tag_56\n      jump\t// in\n    tag_55:\n      mload(0x40)\n      tag_57\n      swap2\n      swap1\n      tag_58\n      jump\t// in\n    tag_57:\n      mload(0x40)\n      dup1\n      swap2\n      sub\n      swap1\n      return\n        /* \"@openzeppelin/contracts/access/Ownable.sol\":1036:1121  function owner() public view virtual returns (address) {... */\n    tag_13:\n      tag_59\n      tag_60\n      jump\t// in\n    tag_59:\n      mload(0x40)\n      tag_61\n      swap2\n      swap1\n      tag_62\n      jump\t// in\n    tag_61:\n      mload(0x40)\n      dup1\n      swap2\n      sub\n      swap1\n      return\n        /* \"contracts/voting.sol\":1991:2078  function getAddresses() public view returns(address[] memory){... */\n    tag_14:\n      tag_63\n      tag_64\n      jump\t// in\n    tag_63:\n      mload(0x40)\n      tag_65\n      swap2\n      swap1\n      tag_66\n      jump\t// in\n    tag_65:\n      mload(0x40)\n      dup1\n      swap2\n      sub\n      swap1\n      return\n        /* \"contracts/voting.sol\":547:586  mapping(address => Voter) public voters */\n    tag_15:\n      tag_67\n      0x04\n      dup1\n      calldatasize\n      sub\n      dup2\n      add\n      swap1\n      tag_68\n      swap2\n      swap1\n      tag_35\n      jump\t// in\n    tag_68:\n      tag_69\n      jump\t// in\n    tag_67:\n      mload(0x40)\n      tag_70\n      swap4\n      swap3\n      swap2\n      swap1\n      tag_71\n      jump\t// in\n    tag_70:\n      mload(0x40)\n      dup1\n      swap2\n      sub\n      swap1\n      return\n        /* \"contracts/voting.sol\":2099:2209  function changeWorkflowStatus(WorkflowStatus _status) external onlyOwner {... */\n    tag_16:\n      tag_72\n      0x04\n      dup1\n      calldatasize\n      sub\n      dup2\n      add\n      swap1\n      tag_73\n      swap2\n      swap1\n      tag_74\n      jump\t// in\n    tag_73:\n      tag_75\n      jump\t// in\n    tag_72:\n      stop\n        /* \"contracts/voting.sol\":713:742  uint public winningProposalID */\n    tag_17:\n      tag_76\n      tag_77\n      jump\t// in\n    tag_76:\n      mload(0x40)\n      tag_78\n      swap2\n      swap1\n      tag_32\n      jump\t// in\n    tag_78:\n      mload(0x40)\n      dup1\n      swap2\n      sub\n      swap1\n      return\n        /* \"contracts/voting.sol\":681:707  address[] public addresses */\n    tag_18:\n      tag_79\n      0x04\n      dup1\n      calldatasize\n      sub\n      dup2\n      add\n      swap1\n      tag_80\n      swap2\n      swap1\n      tag_25\n      jump\t// in\n    tag_80:\n      tag_81\n      jump\t// in\n    tag_79:\n      mload(0x40)\n      tag_82\n      swap2\n      swap1\n      tag_62\n      jump\t// in\n    tag_82:\n      mload(0x40)\n      dup1\n      swap2\n      sub\n      swap1\n      return\n        /* \"@openzeppelin/contracts/access/Ownable.sol\":1918:2116  function transferOwnership(address newOwner) public virtual onlyOwner {... */\n    tag_19:\n      tag_83\n      0x04\n      dup1\n      calldatasize\n      sub\n      dup2\n      add\n      swap1\n      tag_84\n      swap2\n      swap1\n      tag_35\n      jump\t// in\n    tag_84:\n      tag_85\n      jump\t// in\n    tag_83:\n      stop\n        /* \"contracts/voting.sol\":651:678  Proposal[] public proposals */\n    tag_26:\n      0x03\n      dup2\n      dup2\n      sload\n      dup2\n      lt\n      tag_86\n      jumpi\n      0x00\n      dup1\n      revert\n    tag_86:\n      swap1\n      0x00\n      mstore\n      keccak256(0x00, 0x20)\n      swap1\n      0x02\n      mul\n      add\n      0x00\n      swap2\n      pop\n      swap1\n      pop\n      dup1\n      0x00\n      add\n      dup1\n      sload\n      tag_88\n      swap1\n      tag_89\n      jump\t// in\n    tag_88:\n      dup1\n      0x1f\n      add\n      0x20\n      dup1\n      swap2\n      div\n      mul\n      0x20\n      add\n      mload(0x40)\n      swap1\n      dup2\n      add\n      0x40\n      mstore\n      dup1\n      swap3\n      swap2\n      swap1\n      dup2\n      dup2\n      mstore\n      0x20\n      add\n      dup3\n      dup1\n      sload\n      tag_90\n      swap1\n      tag_89\n      jump\t// in\n    tag_90:\n      dup1\n      iszero\n      tag_91\n      jumpi\n      dup1\n      0x1f\n      lt\n      tag_92\n      jumpi\n      0x0100\n      dup1\n      dup4\n      sload\n      div\n      mul\n      dup4\n      mstore\n      swap2\n      0x20\n      add\n      swap2\n      jump(tag_91)\n    tag_92:\n      dup3\n      add\n      swap2\n      swap1\n      0x00\n      mstore\n      keccak256(0x00, 0x20)\n      swap1\n    tag_93:\n      dup2\n      sload\n      dup2\n      mstore\n      swap1\n      0x01\n      add\n      swap1\n      0x20\n      add\n      dup1\n      dup4\n      gt\n      tag_93\n      jumpi\n      dup3\n      swap1\n      sub\n      0x1f\n      and\n      dup3\n      add\n      swap2\n    tag_91:\n      pop\n      pop\n      pop\n      pop\n      pop\n      swap1\n      dup1\n      0x01\n      add\n      sload\n      swap1\n      pop\n      dup3\n      jump\t// out\n        /* \"contracts/voting.sol\":617:645  uint public counterVoteBlanc */\n    tag_30:\n      sload(0x02)\n      dup2\n      jump\t// out\n        /* \"contracts/voting.sol\":1406:1707  function addWL(address _voter) external onlyOwner ActualState(WorkflowStatus.RegisteringVoters){... */\n    tag_36:\n        /* \"@openzeppelin/contracts/access/Ownable.sol\":1259:1271  _msgSender() */\n      tag_95\n        /* \"@openzeppelin/contracts/access/Ownable.sol\":1259:1269  _msgSender */\n      tag_96\n        /* \"@openzeppelin/contracts/access/Ownable.sol\":1259:1271  _msgSender() */\n      jump\t// in\n    tag_95:\n        /* \"@openzeppelin/contracts/access/Ownable.sol\":1248:1271  owner() == _msgSender() */\n      0xffffffffffffffffffffffffffffffffffffffff\n      and\n        /* \"@openzeppelin/contracts/access/Ownable.sol\":1248:1255  owner() */\n      tag_97\n        /* \"@openzeppelin/contracts/access/Ownable.sol\":1248:1253  owner */\n      tag_60\n        /* \"@openzeppelin/contracts/access/Ownable.sol\":1248:1255  owner() */\n      jump\t// in\n    tag_97:\n        /* \"@openzeppelin/contracts/access/Ownable.sol\":1248:1271  owner() == _msgSender() */\n      0xffffffffffffffffffffffffffffffffffffffff\n      and\n      eq\n        /* \"@openzeppelin/contracts/access/Ownable.sol\":1240:1308  require(owner() == _msgSender(), \"Ownable: caller is not the owner\") */\n      tag_98\n      jumpi\n      mload(0x40)\n      0x08c379a000000000000000000000000000000000000000000000000000000000\n      dup2\n      mstore\n      0x04\n      add\n      tag_99\n      swap1\n      tag_100\n      jump\t// in\n    tag_99:\n      mload(0x40)\n      dup1\n      swap2\n      sub\n      swap1\n      revert\n    tag_98:\n        /* \"contracts/voting.sol\":1468:1500  WorkflowStatus.RegisteringVoters */\n      0x00\n        /* \"contracts/voting.sol\":1218:1228  voteStatus */\n      0x06\n      0x00\n      swap1\n      sload\n      swap1\n      0x0100\n      exp\n      swap1\n      div\n      0xff\n      and\n        /* \"contracts/voting.sol\":1209:1228  state == voteStatus */\n      0x05\n      dup2\n      gt\n      iszero\n      tag_102\n      jumpi\n      tag_103\n      tag_104\n      jump\t// in\n    tag_103:\n    tag_102:\n        /* \"contracts/voting.sol\":1209:1214  state */\n      dup2\n        /* \"contracts/voting.sol\":1209:1228  state == voteStatus */\n      0x05\n      dup2\n      gt\n      iszero\n      tag_105\n      jumpi\n      tag_106\n      tag_104\n      jump\t// in\n    tag_106:\n    tag_105:\n      eq\n        /* \"contracts/voting.sol\":1200:1229  require (state == voteStatus) */\n      tag_107\n      jumpi\n      0x00\n      dup1\n      revert\n    tag_107:\n        /* \"contracts/voting.sol\":1556:1560  true */\n      0x01\n        /* \"contracts/voting.sol\":1525:1560  voters[_voter].isRegistered != true */\n      iszero\n      iszero\n        /* \"contracts/voting.sol\":1525:1531  voters */\n      0x01\n        /* \"contracts/voting.sol\":1525:1539  voters[_voter] */\n      0x00\n        /* \"contracts/voting.sol\":1532:1538  _voter */\n      dup5\n        /* \"contracts/voting.sol\":1525:1539  voters[_voter] */\n      0xffffffffffffffffffffffffffffffffffffffff\n      and\n      0xffffffffffffffffffffffffffffffffffffffff\n      and\n      dup2\n      mstore\n      0x20\n      add\n      swap1\n      dup2\n      mstore\n      0x20\n      add\n      0x00\n      keccak256\n        /* \"contracts/voting.sol\":1525:1552  voters[_voter].isRegistered */\n      0x00\n      add\n      0x00\n      swap1\n      sload\n      swap1\n      0x0100\n      exp\n      swap1\n      div\n      0xff\n      and\n        /* \"contracts/voting.sol\":1525:1560  voters[_voter].isRegistered != true */\n      iszero\n      iszero\n      sub\n        /* \"contracts/voting.sol\":1517:1591  require(voters[_voter].isRegistered != true, \"you are already registered\") */\n      tag_109\n      jumpi\n      mload(0x40)\n      0x08c379a000000000000000000000000000000000000000000000000000000000\n      dup2\n      mstore\n      0x04\n      add\n      tag_110\n      swap1\n      tag_111\n      jump\t// in\n    tag_110:\n      mload(0x40)\n      dup1\n      swap2\n      sub\n      swap1\n      revert\n    tag_109:\n        /* \"contracts/voting.sol\":1631:1635  true */\n      0x01\n        /* \"contracts/voting.sol\":1601:1607  voters */\n      dup1\n        /* \"contracts/voting.sol\":1601:1615  voters[_voter] */\n      0x00\n        /* \"contracts/voting.sol\":1608:1614  _voter */\n      dup5\n        /* \"contracts/voting.sol\":1601:1615  voters[_voter] */\n      0xffffffffffffffffffffffffffffffffffffffff\n      and\n      0xffffffffffffffffffffffffffffffffffffffff\n      and\n      dup2\n      mstore\n      0x20\n      add\n      swap1\n      dup2\n      mstore\n      0x20\n      add\n      0x00\n      keccak256\n        /* \"contracts/voting.sol\":1601:1628  voters[_voter].isRegistered */\n      0x00\n      add\n      0x00\n        /* \"contracts/voting.sol\":1601:1635  voters[_voter].isRegistered = true */\n      0x0100\n      exp\n      dup2\n      sload\n      dup2\n      0xff\n      mul\n      not\n      and\n      swap1\n      dup4\n      iszero\n      iszero\n      mul\n      or\n      swap1\n      sstore\n      pop\n        /* \"contracts/voting.sol\":1639:1648  addresses */\n      0x04\n        /* \"contracts/voting.sol\":1654:1660  _voter */\n      dup3\n        /* \"contracts/voting.sol\":1639:1661  addresses.push(_voter) */\n      swap1\n      dup1\n      0x01\n      dup2\n      sload\n      add\n      dup1\n      dup3\n      sstore\n      dup1\n      swap2\n      pop\n      pop\n      0x01\n      swap1\n      sub\n      swap1\n      0x00\n      mstore\n      keccak256(0x00, 0x20)\n      add\n      0x00\n      swap1\n      swap2\n      swap1\n      swap2\n      swap1\n      swap2\n      0x0100\n      exp\n      dup2\n      sload\n      dup2\n      0xffffffffffffffffffffffffffffffffffffffff\n      mul\n      not\n      and\n      swap1\n      dup4\n      0xffffffffffffffffffffffffffffffffffffffff\n      and\n      mul\n      or\n      swap1\n      sstore\n      pop\n        /* \"contracts/voting.sol\":1676:1699  VoterRegistered(_voter) */\n      0xb6be2187d059cc2a55fe29e0e503b566e1e0f8c8780096e185429350acffd3dd\n        /* \"contracts/voting.sol\":1692:1698  _voter */\n      dup3\n        /* \"contracts/voting.sol\":1676:1699  VoterRegistered(_voter) */\n      mload(0x40)\n      tag_113\n      swap2\n      swap1\n      tag_62\n      jump\t// in\n    tag_113:\n      mload(0x40)\n      dup1\n      swap2\n      sub\n      swap1\n      log1\n        /* \"@openzeppelin/contracts/access/Ownable.sol\":1318:1319  _ */\n      pop\n        /* \"contracts/voting.sol\":1406:1707  function addWL(address _voter) external onlyOwner ActualState(WorkflowStatus.RegisteringVoters){... */\n      pop\n      jump\t// out\n        /* \"contracts/voting.sol\":2683:3172  function addProposal(string memory _desc) external {... */\n    tag_40:\n        /* \"contracts/voting.sol\":2787:2791  true */\n      0x01\n        /* \"contracts/voting.sol\":2752:2791  voters[msg.sender].isRegistered == true */\n      iszero\n      iszero\n        /* \"contracts/voting.sol\":2752:2758  voters */\n      0x01\n        /* \"contracts/voting.sol\":2752:2770  voters[msg.sender] */\n      0x00\n        /* \"contracts/voting.sol\":2759:2769  msg.sender */\n      caller\n        /* \"contracts/voting.sol\":2752:2770  voters[msg.sender] */\n      0xffffffffffffffffffffffffffffffffffffffff\n      and\n      0xffffffffffffffffffffffffffffffffffffffff\n      and\n      dup2\n      mstore\n      0x20\n      add\n      swap1\n      dup2\n      mstore\n      0x20\n      add\n      0x00\n      keccak256\n        /* \"contracts/voting.sol\":2752:2783  voters[msg.sender].isRegistered */\n      0x00\n      add\n      0x00\n      swap1\n      sload\n      swap1\n      0x0100\n      exp\n      swap1\n      div\n      0xff\n      and\n        /* \"contracts/voting.sol\":2752:2791  voters[msg.sender].isRegistered == true */\n      iszero\n      iszero\n      eq\n        /* \"contracts/voting.sol\":2744:2819  require(voters[msg.sender].isRegistered == true, \"address not whitelisted\") */\n      tag_115\n      jumpi\n      mload(0x40)\n      0x08c379a000000000000000000000000000000000000000000000000000000000\n      dup2\n      mstore\n      0x04\n      add\n      tag_116\n      swap1\n      tag_117\n      jump\t// in\n    tag_116:\n      mload(0x40)\n      dup1\n      swap2\n      sub\n      swap1\n      revert\n    tag_115:\n        /* \"contracts/voting.sol\":2920:2963  WorkflowStatus.ProposalsRegistrationStarted */\n      0x01\n        /* \"contracts/voting.sol\":2906:2963  voteStatus == WorkflowStatus.ProposalsRegistrationStarted */\n      0x05\n      dup2\n      gt\n      iszero\n      tag_118\n      jumpi\n      tag_119\n      tag_104\n      jump\t// in\n    tag_119:\n    tag_118:\n        /* \"contracts/voting.sol\":2906:2916  voteStatus */\n      0x06\n      0x00\n      swap1\n      sload\n      swap1\n      0x0100\n      exp\n      swap1\n      div\n      0xff\n      and\n        /* \"contracts/voting.sol\":2906:2963  voteStatus == WorkflowStatus.ProposalsRegistrationStarted */\n      0x05\n      dup2\n      gt\n      iszero\n      tag_120\n      jumpi\n      tag_121\n      tag_104\n      jump\t// in\n    tag_121:\n    tag_120:\n      eq\n        /* \"contracts/voting.sol\":2898:2997  require(voteStatus == WorkflowStatus.ProposalsRegistrationStarted, 'Proposals are not allowed yet') */\n      tag_122\n      jumpi\n      mload(0x40)\n      0x08c379a000000000000000000000000000000000000000000000000000000000\n      dup2\n      mstore\n      0x04\n      add\n      tag_123\n      swap1\n      tag_124\n      jump\t// in\n    tag_123:\n      mload(0x40)\n      dup1\n      swap2\n      sub\n      swap1\n      revert\n    tag_122:\n        /* \"contracts/voting.sol\":3007:3031  Proposal memory proposal */\n      tag_125\n      tag_126\n      jump\t// in\n    tag_125:\n        /* \"contracts/voting.sol\":3064:3069  _desc */\n      dup2\n        /* \"contracts/voting.sol\":3041:3049  proposal */\n      dup2\n        /* \"contracts/voting.sol\":3041:3061  proposal.description */\n      0x00\n      add\n        /* \"contracts/voting.sol\":3041:3069  proposal.description = _desc */\n      dup2\n      swap1\n      mstore\n      pop\n        /* \"contracts/voting.sol\":3079:3088  proposals */\n      0x03\n        /* \"contracts/voting.sol\":3094:3102  proposal */\n      dup2\n        /* \"contracts/voting.sol\":3079:3103  proposals.push(proposal) */\n      swap1\n      dup1\n      0x01\n      dup2\n      sload\n      add\n      dup1\n      dup3\n      sstore\n      dup1\n      swap2\n      pop\n      pop\n      0x01\n      swap1\n      sub\n      swap1\n      0x00\n      mstore\n      keccak256(0x00, 0x20)\n      swap1\n      0x02\n      mul\n      add\n      0x00\n      swap1\n      swap2\n      swap1\n      swap2\n      swap1\n      swap2\n      pop\n      0x00\n      dup3\n      add\n      mload\n      dup2\n      0x00\n      add\n      swap1\n      dup2\n      tag_128\n      swap2\n      swap1\n      tag_129\n      jump\t// in\n    tag_128:\n      pop\n      0x20\n      dup3\n      add\n      mload\n      dup2\n      0x01\n      add\n      sstore\n      pop\n      pop\n        /* \"contracts/voting.sol\":3127:3165  ProposalRegistered(proposals.length-1) */\n      0x92e393e9b54e2f801d3ea4beb0c5e71a21cc34a5d34b77d0fb8a3aa1650dc18f\n        /* \"contracts/voting.sol\":3163:3164  1 */\n      0x01\n        /* \"contracts/voting.sol\":3146:3155  proposals */\n      0x03\n        /* \"contracts/voting.sol\":3146:3162  proposals.length */\n      dup1\n      sload\n      swap1\n      pop\n        /* \"contracts/voting.sol\":3146:3164  proposals.length-1 */\n      tag_130\n      swap2\n      swap1\n      tag_131\n      jump\t// in\n    tag_130:\n        /* \"contracts/voting.sol\":3127:3165  ProposalRegistered(proposals.length-1) */\n      mload(0x40)\n      tag_132\n      swap2\n      swap1\n      tag_32\n      jump\t// in\n    tag_132:\n      mload(0x40)\n      dup1\n      swap2\n      sub\n      swap1\n      log1\n        /* \"contracts/voting.sol\":2734:3172  {... */\n      pop\n        /* \"contracts/voting.sol\":2683:3172  function addProposal(string memory _desc) external {... */\n      pop\n      jump\t// out\n        /* \"contracts/voting.sol\":3204:3792  function tallyVotes() external onlyOwner {... */\n    tag_42:\n        /* \"@openzeppelin/contracts/access/Ownable.sol\":1259:1271  _msgSender() */\n      tag_134\n        /* \"@openzeppelin/contracts/access/Ownable.sol\":1259:1269  _msgSender */\n      tag_96\n        /* \"@openzeppelin/contracts/access/Ownable.sol\":1259:1271  _msgSender() */\n      jump\t// in\n    tag_134:\n        /* \"@openzeppelin/contracts/access/Ownable.sol\":1248:1271  owner() == _msgSender() */\n      0xffffffffffffffffffffffffffffffffffffffff\n      and\n        /* \"@openzeppelin/contracts/access/Ownable.sol\":1248:1255  owner() */\n      tag_135\n        /* \"@openzeppelin/contracts/access/Ownable.sol\":1248:1253  owner */\n      tag_60\n        /* \"@openzeppelin/contracts/access/Ownable.sol\":1248:1255  owner() */\n      jump\t// in\n    tag_135:\n        /* \"@openzeppelin/contracts/access/Ownable.sol\":1248:1271  owner() == _msgSender() */\n      0xffffffffffffffffffffffffffffffffffffffff\n      and\n      eq\n        /* \"@openzeppelin/contracts/access/Ownable.sol\":1240:1308  require(owner() == _msgSender(), \"Ownable: caller is not the owner\") */\n      tag_136\n      jumpi\n      mload(0x40)\n      0x08c379a000000000000000000000000000000000000000000000000000000000\n      dup2\n      mstore\n      0x04\n      add\n      tag_137\n      swap1\n      tag_100\n      jump\t// in\n    tag_137:\n      mload(0x40)\n      dup1\n      swap2\n      sub\n      swap1\n      revert\n    tag_136:\n        /* \"contracts/voting.sol\":3277:3310  WorkflowStatus.VotingSessionEnded */\n      0x04\n        /* \"contracts/voting.sol\":3263:3310  voteStatus == WorkflowStatus.VotingSessionEnded */\n      0x05\n      dup2\n      gt\n      iszero\n      tag_139\n      jumpi\n      tag_140\n      tag_104\n      jump\t// in\n    tag_140:\n    tag_139:\n        /* \"contracts/voting.sol\":3263:3273  voteStatus */\n      0x06\n      0x00\n      swap1\n      sload\n      swap1\n      0x0100\n      exp\n      swap1\n      div\n      0xff\n      and\n        /* \"contracts/voting.sol\":3263:3310  voteStatus == WorkflowStatus.VotingSessionEnded */\n      0x05\n      dup2\n      gt\n      iszero\n      tag_141\n      jumpi\n      tag_142\n      tag_104\n      jump\t// in\n    tag_142:\n    tag_141:\n      eq\n        /* \"contracts/voting.sol\":3255:3343  require(voteStatus == WorkflowStatus.VotingSessionEnded, \"please make the status ended\") */\n      tag_143\n      jumpi\n      mload(0x40)\n      0x08c379a000000000000000000000000000000000000000000000000000000000\n      dup2\n      mstore\n      0x04\n      add\n      tag_144\n      swap1\n      tag_145\n      jump\t// in\n    tag_144:\n      mload(0x40)\n      dup1\n      swap2\n      sub\n      swap1\n      revert\n    tag_143:\n        /* \"contracts/voting.sol\":3353:3376  uint _winningProposalId */\n      0x00\n        /* \"contracts/voting.sol\":3391:3397  uint i */\n      dup1\n        /* \"contracts/voting.sol\":3400:3401  0 */\n      0x00\n        /* \"contracts/voting.sol\":3391:3401  uint i = 0 */\n      swap1\n      pop\n        /* \"contracts/voting.sol\":3386:3579  for (uint i = 0; i < proposals.length; i++) {... */\n    tag_146:\n        /* \"contracts/voting.sol\":3407:3416  proposals */\n      0x03\n        /* \"contracts/voting.sol\":3407:3423  proposals.length */\n      dup1\n      sload\n      swap1\n      pop\n        /* \"contracts/voting.sol\":3403:3404  i */\n      dup2\n        /* \"contracts/voting.sol\":3403:3423  i < proposals.length */\n      lt\n        /* \"contracts/voting.sol\":3386:3579  for (uint i = 0; i < proposals.length; i++) {... */\n      iszero\n      tag_147\n      jumpi\n        /* \"contracts/voting.sol\":3473:3482  proposals */\n      0x03\n        /* \"contracts/voting.sol\":3483:3501  _winningProposalId */\n      dup3\n        /* \"contracts/voting.sol\":3473:3502  proposals[_winningProposalId] */\n      dup2\n      sload\n      dup2\n      lt\n      tag_149\n      jumpi\n      tag_150\n      tag_151\n      jump\t// in\n    tag_150:\n    tag_149:\n      swap1\n      0x00\n      mstore\n      keccak256(0x00, 0x20)\n      swap1\n      0x02\n      mul\n      add\n        /* \"contracts/voting.sol\":3473:3512  proposals[_winningProposalId].voteCount */\n      0x01\n      add\n      sload\n        /* \"contracts/voting.sol\":3448:3457  proposals */\n      0x03\n        /* \"contracts/voting.sol\":3458:3459  i */\n      dup3\n        /* \"contracts/voting.sol\":3448:3460  proposals[i] */\n      dup2\n      sload\n      dup2\n      lt\n      tag_153\n      jumpi\n      tag_154\n      tag_151\n      jump\t// in\n    tag_154:\n    tag_153:\n      swap1\n      0x00\n      mstore\n      keccak256(0x00, 0x20)\n      swap1\n      0x02\n      mul\n      add\n        /* \"contracts/voting.sol\":3448:3470  proposals[i].voteCount */\n      0x01\n      add\n      sload\n        /* \"contracts/voting.sol\":3448:3512  proposals[i].voteCount > proposals[_winningProposalId].voteCount */\n      gt\n        /* \"contracts/voting.sol\":3444:3569  if (proposals[i].voteCount > proposals[_winningProposalId].voteCount) {... */\n      iszero\n      tag_156\n      jumpi\n        /* \"contracts/voting.sol\":3553:3554  i */\n      dup1\n        /* \"contracts/voting.sol\":3532:3554  _winningProposalId = i */\n      swap2\n      pop\n        /* \"contracts/voting.sol\":3444:3569  if (proposals[i].voteCount > proposals[_winningProposalId].voteCount) {... */\n    tag_156:\n        /* \"contracts/voting.sol\":3425:3428  i++ */\n      dup1\n      dup1\n      tag_157\n      swap1\n      tag_158\n      jump\t// in\n    tag_157:\n      swap2\n      pop\n      pop\n        /* \"contracts/voting.sol\":3386:3579  for (uint i = 0; i < proposals.length; i++) {... */\n      jump(tag_146)\n    tag_147:\n      pop\n        /* \"contracts/voting.sol\":3609:3627  _winningProposalId */\n      dup1\n        /* \"contracts/voting.sol\":3589:3606  winningProposalID */\n      0x05\n        /* \"contracts/voting.sol\":3589:3627  winningProposalID = _winningProposalId */\n      dup2\n      swap1\n      sstore\n      pop\n        /* \"contracts/voting.sol\":3659:3686  WorkflowStatus.VotesTallied */\n      0x05\n        /* \"contracts/voting.sol\":3646:3656  voteStatus */\n      0x06\n      0x00\n        /* \"contracts/voting.sol\":3646:3686  voteStatus = WorkflowStatus.VotesTallied */\n      0x0100\n      exp\n      dup2\n      sload\n      dup2\n      0xff\n      mul\n      not\n      and\n      swap1\n      dup4\n      0x05\n      dup2\n      gt\n      iszero\n      tag_159\n      jumpi\n      tag_160\n      tag_104\n      jump\t// in\n    tag_160:\n    tag_159:\n      mul\n      or\n      swap1\n      sstore\n      pop\n        /* \"contracts/voting.sol\":3701:3785  WorkflowStatusChange(WorkflowStatus.VotingSessionEnded, WorkflowStatus.VotesTallied) */\n      0x0a97a4ee45751e2abf3e4fc8946939630b11b371ea8ae39ccdc3056e98f5cc3f\n        /* \"contracts/voting.sol\":3722:3755  WorkflowStatus.VotingSessionEnded */\n      0x04\n        /* \"contracts/voting.sol\":3757:3784  WorkflowStatus.VotesTallied */\n      0x05\n        /* \"contracts/voting.sol\":3701:3785  WorkflowStatusChange(WorkflowStatus.VotingSessionEnded, WorkflowStatus.VotesTallied) */\n      mload(0x40)\n      tag_161\n      swap3\n      swap2\n      swap1\n      tag_162\n      jump\t// in\n    tag_161:\n      mload(0x40)\n      dup1\n      swap2\n      sub\n      swap1\n      log1\n        /* \"contracts/voting.sol\":3245:3792  {... */\n      pop\n        /* \"contracts/voting.sol\":3204:3792  function tallyVotes() external onlyOwner {... */\n      jump\t// out\n        /* \"contracts/voting.sol\":2242:2657  function registerVote(uint proposalId) external   {... */\n    tag_45:\n        /* \"contracts/voting.sol\":2310:2316  voters */\n      0x01\n        /* \"contracts/voting.sol\":2310:2328  voters[msg.sender] */\n      0x00\n        /* \"contracts/voting.sol\":2317:2327  msg.sender */\n      caller\n        /* \"contracts/voting.sol\":2310:2328  voters[msg.sender] */\n      0xffffffffffffffffffffffffffffffffffffffff\n      and\n      0xffffffffffffffffffffffffffffffffffffffff\n      and\n      dup2\n      mstore\n      0x20\n      add\n      swap1\n      dup2\n      mstore\n      0x20\n      add\n      0x00\n      keccak256\n        /* \"contracts/voting.sol\":2310:2341  voters[msg.sender].isRegistered */\n      0x00\n      add\n      0x00\n      swap1\n      sload\n      swap1\n      0x0100\n      exp\n      swap1\n      div\n      0xff\n      and\n        /* \"contracts/voting.sol\":2302:2374  require(voters[msg.sender].isRegistered,\"Your address is not on the WL\") */\n      tag_164\n      jumpi\n      mload(0x40)\n      0x08c379a000000000000000000000000000000000000000000000000000000000\n      dup2\n      mstore\n      0x04\n      add\n      tag_165\n      swap1\n      tag_166\n      jump\t// in\n    tag_165:\n      mload(0x40)\n      dup1\n      swap2\n      sub\n      swap1\n      revert\n    tag_164:\n        /* \"contracts/voting.sol\":2423:2428  false */\n      0x00\n        /* \"contracts/voting.sol\":2392:2428  voters[msg.sender].hasVoted == false */\n      iszero\n      iszero\n        /* \"contracts/voting.sol\":2392:2398  voters */\n      0x01\n        /* \"contracts/voting.sol\":2392:2410  voters[msg.sender] */\n      0x00\n        /* \"contracts/voting.sol\":2399:2409  msg.sender */\n      caller\n        /* \"contracts/voting.sol\":2392:2410  voters[msg.sender] */\n      0xffffffffffffffffffffffffffffffffffffffff\n      and\n      0xffffffffffffffffffffffffffffffffffffffff\n      and\n      dup2\n      mstore\n      0x20\n      add\n      swap1\n      dup2\n      mstore\n      0x20\n      add\n      0x00\n      keccak256\n        /* \"contracts/voting.sol\":2392:2419  voters[msg.sender].hasVoted */\n      0x00\n      add\n      0x01\n      swap1\n      sload\n      swap1\n      0x0100\n      exp\n      swap1\n      div\n      0xff\n      and\n        /* \"contracts/voting.sol\":2392:2428  voters[msg.sender].hasVoted == false */\n      iszero\n      iszero\n      eq\n        /* \"contracts/voting.sol\":2384:2458  require(voters[msg.sender].hasVoted == false, \"Address has already voted\") */\n      tag_167\n      jumpi\n      mload(0x40)\n      0x08c379a000000000000000000000000000000000000000000000000000000000\n      dup2\n      mstore\n      0x04\n      add\n      tag_168\n      swap1\n      tag_169\n      jump\t// in\n    tag_168:\n      mload(0x40)\n      dup1\n      swap2\n      sub\n      swap1\n      revert\n    tag_167:\n        /* \"contracts/voting.sol\":2498:2502  true */\n      0x01\n        /* \"contracts/voting.sol\":2468:2474  voters */\n      dup1\n        /* \"contracts/voting.sol\":2468:2486  voters[msg.sender] */\n      0x00\n        /* \"contracts/voting.sol\":2475:2485  msg.sender */\n      caller\n        /* \"contracts/voting.sol\":2468:2486  voters[msg.sender] */\n      0xffffffffffffffffffffffffffffffffffffffff\n      and\n      0xffffffffffffffffffffffffffffffffffffffff\n      and\n      dup2\n      mstore\n      0x20\n      add\n      swap1\n      dup2\n      mstore\n      0x20\n      add\n      0x00\n      keccak256\n        /* \"contracts/voting.sol\":2468:2495  voters[msg.sender].hasVoted */\n      0x00\n      add\n      0x01\n        /* \"contracts/voting.sol\":2468:2502  voters[msg.sender].hasVoted = true */\n      0x0100\n      exp\n      dup2\n      sload\n      dup2\n      0xff\n      mul\n      not\n      and\n      swap1\n      dup4\n      iszero\n      iszero\n      mul\n      or\n      swap1\n      sstore\n      pop\n        /* \"contracts/voting.sol\":2549:2559  proposalId */\n      dup1\n        /* \"contracts/voting.sol\":2512:2518  voters */\n      0x01\n        /* \"contracts/voting.sol\":2512:2530  voters[msg.sender] */\n      0x00\n        /* \"contracts/voting.sol\":2519:2529  msg.sender */\n      caller\n        /* \"contracts/voting.sol\":2512:2530  voters[msg.sender] */\n      0xffffffffffffffffffffffffffffffffffffffff\n      and\n      0xffffffffffffffffffffffffffffffffffffffff\n      and\n      dup2\n      mstore\n      0x20\n      add\n      swap1\n      dup2\n      mstore\n      0x20\n      add\n      0x00\n      keccak256\n        /* \"contracts/voting.sol\":2512:2546  voters[msg.sender].votedProposalId */\n      0x01\n      add\n        /* \"contracts/voting.sol\":2512:2559  voters[msg.sender].votedProposalId = proposalId */\n      dup2\n      swap1\n      sstore\n      pop\n        /* \"contracts/voting.sol\":2569:2578  proposals */\n      0x03\n        /* \"contracts/voting.sol\":2579:2589  proposalId */\n      dup2\n        /* \"contracts/voting.sol\":2569:2590  proposals[proposalId] */\n      dup2\n      sload\n      dup2\n      lt\n      tag_170\n      jumpi\n      tag_171\n      tag_151\n      jump\t// in\n    tag_171:\n    tag_170:\n      swap1\n      0x00\n      mstore\n      keccak256(0x00, 0x20)\n      swap1\n      0x02\n      mul\n      add\n        /* \"contracts/voting.sol\":2569:2600  proposals[proposalId].voteCount */\n      0x01\n      add\n      0x00\n        /* \"contracts/voting.sol\":2569:2602  proposals[proposalId].voteCount++ */\n      dup2\n      sload\n      dup1\n      swap3\n      swap2\n      swap1\n      tag_173\n      swap1\n      tag_158\n      jump\t// in\n    tag_173:\n      swap2\n      swap1\n      pop\n      sstore\n      pop\n        /* \"contracts/voting.sol\":2617:2646  Voted(msg.sender, proposalId) */\n      0x4d99b957a2bc29a30ebd96a7be8e68fe50a3c701db28a91436490b7d53870ca4\n        /* \"contracts/voting.sol\":2623:2633  msg.sender */\n      caller\n        /* \"contracts/voting.sol\":2635:2645  proposalId */\n      dup3\n        /* \"contracts/voting.sol\":2617:2646  Voted(msg.sender, proposalId) */\n      mload(0x40)\n      tag_174\n      swap3\n      swap2\n      swap1\n      tag_175\n      jump\t// in\n    tag_174:\n      mload(0x40)\n      dup1\n      swap2\n      sub\n      swap1\n      log1\n        /* \"contracts/voting.sol\":2242:2657  function registerVote(uint proposalId) external   {... */\n      pop\n      jump\t// out\n        /* \"contracts/voting.sol\":1713:1853  function delWL(address _addr) external  wlVoter(_addr) {... */\n    tag_48:\n        /* \"contracts/voting.sol\":1761:1766  _addr */\n      dup1\n        /* \"contracts/voting.sol\":1335:1339  true */\n      0x01\n        /* \"contracts/voting.sol\":1300:1339  voters[msg.sender].isRegistered == true */\n      iszero\n      iszero\n        /* \"contracts/voting.sol\":1300:1306  voters */\n      0x01\n        /* \"contracts/voting.sol\":1300:1318  voters[msg.sender] */\n      0x00\n        /* \"contracts/voting.sol\":1307:1317  msg.sender */\n      caller\n        /* \"contracts/voting.sol\":1300:1318  voters[msg.sender] */\n      0xffffffffffffffffffffffffffffffffffffffff\n      and\n      0xffffffffffffffffffffffffffffffffffffffff\n      and\n      dup2\n      mstore\n      0x20\n      add\n      swap1\n      dup2\n      mstore\n      0x20\n      add\n      0x00\n      keccak256\n        /* \"contracts/voting.sol\":1300:1331  voters[msg.sender].isRegistered */\n      0x00\n      add\n      0x00\n      swap1\n      sload\n      swap1\n      0x0100\n      exp\n      swap1\n      div\n      0xff\n      and\n        /* \"contracts/voting.sol\":1300:1339  voters[msg.sender].isRegistered == true */\n      iszero\n      iszero\n      eq\n        /* \"contracts/voting.sol\":1292:1357  require(voters[msg.sender].isRegistered == true, \"not on the wl\") */\n      tag_177\n      jumpi\n      mload(0x40)\n      0x08c379a000000000000000000000000000000000000000000000000000000000\n      dup2\n      mstore\n      0x04\n      add\n      tag_178\n      swap1\n      tag_179\n      jump\t// in\n    tag_178:\n      mload(0x40)\n      dup1\n      swap2\n      sub\n      swap1\n      revert\n    tag_177:\n        /* \"contracts/voting.sol\":1807:1812  false */\n      0x00\n        /* \"contracts/voting.sol\":1778:1784  voters */\n      0x01\n        /* \"contracts/voting.sol\":1778:1791  voters[_addr] */\n      0x00\n        /* \"contracts/voting.sol\":1785:1790  _addr */\n      dup5\n        /* \"contracts/voting.sol\":1778:1791  voters[_addr] */\n      0xffffffffffffffffffffffffffffffffffffffff\n      and\n      0xffffffffffffffffffffffffffffffffffffffff\n      and\n      dup2\n      mstore\n      0x20\n      add\n      swap1\n      dup2\n      mstore\n      0x20\n      add\n      0x00\n      keccak256\n        /* \"contracts/voting.sol\":1778:1804  voters[_addr].isRegistered */\n      0x00\n      add\n      0x00\n        /* \"contracts/voting.sol\":1778:1812  voters[_addr].isRegistered = false */\n      0x0100\n      exp\n      dup2\n      sload\n      dup2\n      0xff\n      mul\n      not\n      and\n      swap1\n      dup4\n      iszero\n      iszero\n      mul\n      or\n      swap1\n      sstore\n      pop\n        /* \"contracts/voting.sol\":1827:1846  unregistered(_addr) */\n      0xba755c98e7ff88dd83065027aff06054db857349071edbef1f99757ec65d2f78\n        /* \"contracts/voting.sol\":1840:1845  _addr */\n      dup3\n        /* \"contracts/voting.sol\":1827:1846  unregistered(_addr) */\n      mload(0x40)\n      tag_181\n      swap2\n      swap1\n      tag_62\n      jump\t// in\n    tag_181:\n      mload(0x40)\n      dup1\n      swap2\n      sub\n      swap1\n      log1\n        /* \"contracts/voting.sol\":1713:1853  function delWL(address _addr) external  wlVoter(_addr) {... */\n      pop\n      pop\n      jump\t// out\n        /* \"contracts/voting.sol\":1888:1987  function getProposals() external view  returns(Proposal[] memory) {... */\n    tag_50:\n        /* \"contracts/voting.sol\":1935:1952  Proposal[] memory */\n      0x60\n        /* \"contracts/voting.sol\":1971:1980  proposals */\n      0x03\n        /* \"contracts/voting.sol\":1964:1980  return proposals */\n      dup1\n      sload\n      dup1\n      0x20\n      mul\n      0x20\n      add\n      mload(0x40)\n      swap1\n      dup2\n      add\n      0x40\n      mstore\n      dup1\n      swap3\n      swap2\n      swap1\n      dup2\n      dup2\n      mstore\n      0x20\n      add\n      0x00\n      swap1\n    tag_183:\n      dup3\n      dup3\n      lt\n      iszero\n      tag_184\n      jumpi\n      dup4\n      dup3\n      swap1\n      0x00\n      mstore\n      keccak256(0x00, 0x20)\n      swap1\n      0x02\n      mul\n      add\n      mload(0x40)\n      dup1\n      0x40\n      add\n      0x40\n      mstore\n      swap1\n      dup2\n      0x00\n      dup3\n      add\n      dup1\n      sload\n      tag_186\n      swap1\n      tag_89\n      jump\t// in\n    tag_186:\n      dup1\n      0x1f\n      add\n      0x20\n      dup1\n      swap2\n      div\n      mul\n      0x20\n      add\n      mload(0x40)\n      swap1\n      dup2\n      add\n      0x40\n      mstore\n      dup1\n      swap3\n      swap2\n      swap1\n      dup2\n      dup2\n      mstore\n      0x20\n      add\n      dup3\n      dup1\n      sload\n      tag_187\n      swap1\n      tag_89\n      jump\t// in\n    tag_187:\n      dup1\n      iszero\n      tag_188\n      jumpi\n      dup1\n      0x1f\n      lt\n      tag_189\n      jumpi\n      0x0100\n      dup1\n      dup4\n      sload\n      div\n      mul\n      dup4\n      mstore\n      swap2\n      0x20\n      add\n      swap2\n      jump(tag_188)\n    tag_189:\n      dup3\n      add\n      swap2\n      swap1\n      0x00\n      mstore\n      keccak256(0x00, 0x20)\n      swap1\n    tag_190:\n      dup2\n      sload\n      dup2\n      mstore\n      swap1\n      0x01\n      add\n      swap1\n      0x20\n      add\n      dup1\n      dup4\n      gt\n      tag_190\n      jumpi\n      dup3\n      swap1\n      sub\n      0x1f\n      and\n      dup3\n      add\n      swap2\n    tag_188:\n      pop\n      pop\n      pop\n      pop\n      pop\n      dup2\n      mstore\n      0x20\n      add\n      0x01\n      dup3\n      add\n      sload\n      dup2\n      mstore\n      pop\n      pop\n      dup2\n      mstore\n      0x20\n      add\n      swap1\n      0x01\n      add\n      swap1\n      jump(tag_183)\n    tag_184:\n      pop\n      pop\n      pop\n      pop\n      swap1\n      pop\n        /* \"contracts/voting.sol\":1888:1987  function getProposals() external view  returns(Proposal[] memory) {... */\n      swap1\n      jump\t// out\n        /* \"@openzeppelin/contracts/access/Ownable.sol\":1668:1769  function renounceOwnership() public virtual onlyOwner {... */\n    tag_54:\n        /* \"@openzeppelin/contracts/access/Ownable.sol\":1259:1271  _msgSender() */\n      tag_192\n        /* \"@openzeppelin/contracts/access/Ownable.sol\":1259:1269  _msgSender */\n      tag_96\n        /* \"@openzeppelin/contracts/access/Ownable.sol\":1259:1271  _msgSender() */\n      jump\t// in\n    tag_192:\n        /* \"@openzeppelin/contracts/access/Ownable.sol\":1248:1271  owner() == _msgSender() */\n      0xffffffffffffffffffffffffffffffffffffffff\n      and\n        /* \"@openzeppelin/contracts/access/Ownable.sol\":1248:1255  owner() */\n      tag_193\n        /* \"@openzeppelin/contracts/access/Ownable.sol\":1248:1253  owner */\n      tag_60\n        /* \"@openzeppelin/contracts/access/Ownable.sol\":1248:1255  owner() */\n      jump\t// in\n    tag_193:\n        /* \"@openzeppelin/contracts/access/Ownable.sol\":1248:1271  owner() == _msgSender() */\n      0xffffffffffffffffffffffffffffffffffffffff\n      and\n      eq\n        /* \"@openzeppelin/contracts/access/Ownable.sol\":1240:1308  require(owner() == _msgSender(), \"Ownable: caller is not the owner\") */\n      tag_194\n      jumpi\n      mload(0x40)\n      0x08c379a000000000000000000000000000000000000000000000000000000000\n      dup2\n      mstore\n      0x04\n      add\n      tag_195\n      swap1\n      tag_100\n      jump\t// in\n    tag_195:\n      mload(0x40)\n      dup1\n      swap2\n      sub\n      swap1\n      revert\n    tag_194:\n        /* \"@openzeppelin/contracts/access/Ownable.sol\":1732:1762  _transferOwnership(address(0)) */\n      tag_197\n        /* \"@openzeppelin/contracts/access/Ownable.sol\":1759:1760  0 */\n      0x00\n        /* \"@openzeppelin/contracts/access/Ownable.sol\":1732:1750  _transferOwnership */\n      tag_198\n        /* \"@openzeppelin/contracts/access/Ownable.sol\":1732:1762  _transferOwnership(address(0)) */\n      jump\t// in\n    tag_197:\n        /* \"@openzeppelin/contracts/access/Ownable.sol\":1668:1769  function renounceOwnership() public virtual onlyOwner {... */\n      jump\t// out\n        /* \"contracts/voting.sol\":1078:1145  WorkflowStatus public voteStatus = WorkflowStatus.RegisteringVoters */\n    tag_56:\n      0x06\n      0x00\n      swap1\n      sload\n      swap1\n      0x0100\n      exp\n      swap1\n      div\n      0xff\n      and\n      dup2\n      jump\t// out\n        /* \"@openzeppelin/contracts/access/Ownable.sol\":1036:1121  function owner() public view virtual returns (address) {... */\n    tag_60:\n        /* \"@openzeppelin/contracts/access/Ownable.sol\":1082:1089  address */\n      0x00\n        /* \"@openzeppelin/contracts/access/Ownable.sol\":1108:1114  _owner */\n      dup1\n      0x00\n      swap1\n      sload\n      swap1\n      0x0100\n      exp\n      swap1\n      div\n      0xffffffffffffffffffffffffffffffffffffffff\n      and\n        /* \"@openzeppelin/contracts/access/Ownable.sol\":1101:1114  return _owner */\n      swap1\n      pop\n        /* \"@openzeppelin/contracts/access/Ownable.sol\":1036:1121  function owner() public view virtual returns (address) {... */\n      swap1\n      jump\t// out\n        /* \"contracts/voting.sol\":1991:2078  function getAddresses() public view returns(address[] memory){... */\n    tag_64:\n        /* \"contracts/voting.sol\":2035:2051  address[] memory */\n      0x60\n        /* \"contracts/voting.sol\":2064:2073  addresses */\n      0x04\n        /* \"contracts/voting.sol\":2057:2073  return addresses */\n      dup1\n      sload\n      dup1\n      0x20\n      mul\n      0x20\n      add\n      mload(0x40)\n      swap1\n      dup2\n      add\n      0x40\n      mstore\n      dup1\n      swap3\n      swap2\n      swap1\n      dup2\n      dup2\n      mstore\n      0x20\n      add\n      dup3\n      dup1\n      sload\n      dup1\n      iszero\n      tag_201\n      jumpi\n      0x20\n      mul\n      dup3\n      add\n      swap2\n      swap1\n      0x00\n      mstore\n      keccak256(0x00, 0x20)\n      swap1\n    tag_202:\n      dup2\n      0x00\n      swap1\n      sload\n      swap1\n      0x0100\n      exp\n      swap1\n      div\n      0xffffffffffffffffffffffffffffffffffffffff\n      and\n      0xffffffffffffffffffffffffffffffffffffffff\n      and\n      dup2\n      mstore\n      0x20\n      add\n      swap1\n      0x01\n      add\n      swap1\n      dup1\n      dup4\n      gt\n      tag_202\n      jumpi\n    tag_201:\n      pop\n      pop\n      pop\n      pop\n      pop\n      swap1\n      pop\n        /* \"contracts/voting.sol\":1991:2078  function getAddresses() public view returns(address[] memory){... */\n      swap1\n      jump\t// out\n        /* \"contracts/voting.sol\":547:586  mapping(address => Voter) public voters */\n    tag_69:\n      mstore(0x20, 0x01)\n      dup1\n      0x00\n      mstore\n      keccak256(0x00, 0x40)\n      0x00\n      swap2\n      pop\n      swap1\n      pop\n      dup1\n      0x00\n      add\n      0x00\n      swap1\n      sload\n      swap1\n      0x0100\n      exp\n      swap1\n      div\n      0xff\n      and\n      swap1\n      dup1\n      0x00\n      add\n      0x01\n      swap1\n      sload\n      swap1\n      0x0100\n      exp\n      swap1\n      div\n      0xff\n      and\n      swap1\n      dup1\n      0x01\n      add\n      sload\n      swap1\n      pop\n      dup4\n      jump\t// out\n        /* \"contracts/voting.sol\":2099:2209  function changeWorkflowStatus(WorkflowStatus _status) external onlyOwner {... */\n    tag_75:\n        /* \"@openzeppelin/contracts/access/Ownable.sol\":1259:1271  _msgSender() */\n      tag_204\n        /* \"@openzeppelin/contracts/access/Ownable.sol\":1259:1269  _msgSender */\n      tag_96\n        /* \"@openzeppelin/contracts/access/Ownable.sol\":1259:1271  _msgSender() */\n      jump\t// in\n    tag_204:\n        /* \"@openzeppelin/contracts/access/Ownable.sol\":1248:1271  owner() == _msgSender() */\n      0xffffffffffffffffffffffffffffffffffffffff\n      and\n        /* \"@openzeppelin/contracts/access/Ownable.sol\":1248:1255  owner() */\n      tag_205\n        /* \"@openzeppelin/contracts/access/Ownable.sol\":1248:1253  owner */\n      tag_60\n        /* \"@openzeppelin/contracts/access/Ownable.sol\":1248:1255  owner() */\n      jump\t// in\n    tag_205:\n        /* \"@openzeppelin/contracts/access/Ownable.sol\":1248:1271  owner() == _msgSender() */\n      0xffffffffffffffffffffffffffffffffffffffff\n      and\n      eq\n        /* \"@openzeppelin/contracts/access/Ownable.sol\":1240:1308  require(owner() == _msgSender(), \"Ownable: caller is not the owner\") */\n      tag_206\n      jumpi\n      mload(0x40)\n      0x08c379a000000000000000000000000000000000000000000000000000000000\n      dup2\n      mstore\n      0x04\n      add\n      tag_207\n      swap1\n      tag_100\n      jump\t// in\n    tag_207:\n      mload(0x40)\n      dup1\n      swap2\n      sub\n      swap1\n      revert\n    tag_206:\n        /* \"contracts/voting.sol\":2195:2202  _status */\n      dup1\n        /* \"contracts/voting.sol\":2182:2192  voteStatus */\n      0x06\n      0x00\n        /* \"contracts/voting.sol\":2182:2202  voteStatus = _status */\n      0x0100\n      exp\n      dup2\n      sload\n      dup2\n      0xff\n      mul\n      not\n      and\n      swap1\n      dup4\n      0x05\n      dup2\n      gt\n      iszero\n      tag_209\n      jumpi\n      tag_210\n      tag_104\n      jump\t// in\n    tag_210:\n    tag_209:\n      mul\n      or\n      swap1\n      sstore\n      pop\n        /* \"contracts/voting.sol\":2099:2209  function changeWorkflowStatus(WorkflowStatus _status) external onlyOwner {... */\n      pop\n      jump\t// out\n        /* \"contracts/voting.sol\":713:742  uint public winningProposalID */\n    tag_77:\n      sload(0x05)\n      dup2\n      jump\t// out\n        /* \"contracts/voting.sol\":681:707  address[] public addresses */\n    tag_81:\n      0x04\n      dup2\n      dup2\n      sload\n      dup2\n      lt\n      tag_211\n      jumpi\n      0x00\n      dup1\n      revert\n    tag_211:\n      swap1\n      0x00\n      mstore\n      keccak256(0x00, 0x20)\n      add\n      0x00\n      swap2\n      pop\n      sload\n      swap1\n      0x0100\n      exp\n      swap1\n      div\n      0xffffffffffffffffffffffffffffffffffffffff\n      and\n      dup2\n      jump\t// out\n        /* \"@openzeppelin/contracts/access/Ownable.sol\":1918:2116  function transferOwnership(address newOwner) public virtual onlyOwner {... */\n    tag_85:\n        /* \"@openzeppelin/contracts/access/Ownable.sol\":1259:1271  _msgSender() */\n      tag_214\n        /* \"@openzeppelin/contracts/access/Ownable.sol\":1259:1269  _msgSender */\n      tag_96\n        /* \"@openzeppelin/contracts/access/Ownable.sol\":1259:1271  _msgSender() */\n      jump\t// in\n    tag_214:\n        /* \"@openzeppelin/contracts/access/Ownable.sol\":1248:1271  owner() == _msgSender() */\n      0xffffffffffffffffffffffffffffffffffffffff\n      and\n        /* \"@openzeppelin/contracts/access/Ownable.sol\":1248:1255  owner() */\n      tag_215\n        /* \"@openzeppelin/contracts/access/Ownable.sol\":1248:1253  owner */\n      tag_60\n        /* \"@openzeppelin/contracts/access/Ownable.sol\":1248:1255  owner() */\n      jump\t// in\n    tag_215:\n        /* \"@openzeppelin/contracts/access/Ownable.sol\":1248:1271  owner() == _msgSender() */\n      0xffffffffffffffffffffffffffffffffffffffff\n      and\n      eq\n        /* \"@openzeppelin/contracts/access/Ownable.sol\":1240:1308  require(owner() == _msgSender(), \"Ownable: caller is not the owner\") */\n      tag_216\n      jumpi\n      mload(0x40)\n      0x08c379a000000000000000000000000000000000000000000000000000000000\n      dup2\n      mstore\n      0x04\n      add\n      tag_217\n      swap1\n      tag_100\n      jump\t// in\n    tag_217:\n      mload(0x40)\n      dup1\n      swap2\n      sub\n      swap1\n      revert\n    tag_216:\n        /* \"@openzeppelin/contracts/access/Ownable.sol\":2026:2027  0 */\n      0x00\n        /* \"@openzeppelin/contracts/access/Ownable.sol\":2006:2028  newOwner != address(0) */\n      0xffffffffffffffffffffffffffffffffffffffff\n      and\n        /* \"@openzeppelin/contracts/access/Ownable.sol\":2006:2014  newOwner */\n      dup2\n        /* \"@openzeppelin/contracts/access/Ownable.sol\":2006:2028  newOwner != address(0) */\n      0xffffffffffffffffffffffffffffffffffffffff\n      and\n      sub\n        /* \"@openzeppelin/contracts/access/Ownable.sol\":1998:2071  require(newOwner != address(0), \"Ownable: new owner is the zero address\") */\n      tag_219\n      jumpi\n      mload(0x40)\n      0x08c379a000000000000000000000000000000000000000000000000000000000\n      dup2\n      mstore\n      0x04\n      add\n      tag_220\n      swap1\n      tag_221\n      jump\t// in\n    tag_220:\n      mload(0x40)\n      dup1\n      swap2\n      sub\n      swap1\n      revert\n    tag_219:\n        /* \"@openzeppelin/contracts/access/Ownable.sol\":2081:2109  _transferOwnership(newOwner) */\n      tag_222\n        /* \"@openzeppelin/contracts/access/Ownable.sol\":2100:2108  newOwner */\n      dup2\n        /* \"@openzeppelin/contracts/access/Ownable.sol\":2081:2099  _transferOwnership */\n      tag_198\n        /* \"@openzeppelin/contracts/access/Ownable.sol\":2081:2109  _transferOwnership(newOwner) */\n      jump\t// in\n    tag_222:\n        /* \"@openzeppelin/contracts/access/Ownable.sol\":1918:2116  function transferOwnership(address newOwner) public virtual onlyOwner {... */\n      pop\n      jump\t// out\n        /* \"@openzeppelin/contracts/utils/Context.sol\":640:736  function _msgSender() internal view virtual returns (address) {... */\n    tag_96:\n        /* \"@openzeppelin/contracts/utils/Context.sol\":693:700  address */\n      0x00\n        /* \"@openzeppelin/contracts/utils/Context.sol\":719:729  msg.sender */\n      caller\n        /* \"@openzeppelin/contracts/utils/Context.sol\":712:729  return msg.sender */\n      swap1\n      pop\n        /* \"@openzeppelin/contracts/utils/Context.sol\":640:736  function _msgSender() internal view virtual returns (address) {... */\n      swap1\n      jump\t// out\n        /* \"@openzeppelin/contracts/access/Ownable.sol\":2270:2457  function _transferOwnership(address newOwner) internal virtual {... */\n    tag_198:\n        /* \"@openzeppelin/contracts/access/Ownable.sol\":2343:2359  address oldOwner */\n      0x00\n        /* \"@openzeppelin/contracts/access/Ownable.sol\":2362:2368  _owner */\n      dup1\n      0x00\n      swap1\n      sload\n      swap1\n      0x0100\n      exp\n      swap1\n      div\n      0xffffffffffffffffffffffffffffffffffffffff\n      and\n        /* \"@openzeppelin/contracts/access/Ownable.sol\":2343:2368  address oldOwner = _owner */\n      swap1\n      pop\n        /* \"@openzeppelin/contracts/access/Ownable.sol\":2387:2395  newOwner */\n      dup2\n        /* \"@openzeppelin/contracts/access/Ownable.sol\":2378:2384  _owner */\n      0x00\n      dup1\n        /* \"@openzeppelin/contracts/access/Ownable.sol\":2378:2395  _owner = newOwner */\n      0x0100\n      exp\n      dup2\n      sload\n      dup2\n      0xffffffffffffffffffffffffffffffffffffffff\n      mul\n      not\n      and\n      swap1\n      dup4\n      0xffffffffffffffffffffffffffffffffffffffff\n      and\n      mul\n      or\n      swap1\n      sstore\n      pop\n        /* \"@openzeppelin/contracts/access/Ownable.sol\":2441:2449  newOwner */\n      dup2\n        /* \"@openzeppelin/contracts/access/Ownable.sol\":2410:2450  OwnershipTransferred(oldOwner, newOwner) */\n      0xffffffffffffffffffffffffffffffffffffffff\n      and\n        /* \"@openzeppelin/contracts/access/Ownable.sol\":2431:2439  oldOwner */\n      dup2\n        /* \"@openzeppelin/contracts/access/Ownable.sol\":2410:2450  OwnershipTransferred(oldOwner, newOwner) */\n      0xffffffffffffffffffffffffffffffffffffffff\n      and\n      0x8be0079c531659141344cd1fd0a4f28419497f9722a3daafe3b4186f6b6457e0\n      mload(0x40)\n      mload(0x40)\n      dup1\n      swap2\n      sub\n      swap1\n      log3\n        /* \"@openzeppelin/contracts/access/Ownable.sol\":2333:2457  {... */\n      pop\n        /* \"@openzeppelin/contracts/access/Ownable.sol\":2270:2457  function _transferOwnership(address newOwner) internal virtual {... */\n      pop\n      jump\t// out\n    tag_126:\n      mload(0x40)\n      dup1\n      0x40\n      add\n      0x40\n      mstore\n      dup1\n      0x60\n      dup2\n      mstore\n      0x20\n      add\n      0x00\n      dup2\n      mstore\n      pop\n      swap1\n      jump\t// out\n        /* \"#utility.yul\":7:82   */\n    tag_225:\n        /* \"#utility.yul\":40:46   */\n      0x00\n        /* \"#utility.yul\":73:75   */\n      0x40\n        /* \"#utility.yul\":67:76   */\n      mload\n        /* \"#utility.yul\":57:76   */\n      swap1\n      pop\n        /* \"#utility.yul\":7:82   */\n      swap1\n      jump\t// out\n        /* \"#utility.yul\":88:205   */\n    tag_226:\n        /* \"#utility.yul\":197:198   */\n      0x00\n        /* \"#utility.yul\":194:195   */\n      dup1\n        /* \"#utility.yul\":187:199   */\n      revert\n        /* \"#utility.yul\":211:328   */\n    tag_227:\n        /* \"#utility.yul\":320:321   */\n      0x00\n        /* \"#utility.yul\":317:318   */\n      dup1\n        /* \"#utility.yul\":310:322   */\n      revert\n        /* \"#utility.yul\":334:411   */\n    tag_228:\n        /* \"#utility.yul\":371:378   */\n      0x00\n        /* \"#utility.yul\":400:405   */\n      dup2\n        /* \"#utility.yul\":389:405   */\n      swap1\n      pop\n        /* \"#utility.yul\":334:411   */\n      swap2\n      swap1\n      pop\n      jump\t// out\n        /* \"#utility.yul\":417:539   */\n    tag_229:\n        /* \"#utility.yul\":490:514   */\n      tag_317\n        /* \"#utility.yul\":508:513   */\n      dup2\n        /* \"#utility.yul\":490:514   */\n      tag_228\n      jump\t// in\n    tag_317:\n        /* \"#utility.yul\":483:488   */\n      dup2\n        /* \"#utility.yul\":480:515   */\n      eq\n        /* \"#utility.yul\":470:533   */\n      tag_318\n      jumpi\n        /* \"#utility.yul\":529:530   */\n      0x00\n        /* \"#utility.yul\":526:527   */\n      dup1\n        /* \"#utility.yul\":519:531   */\n      revert\n        /* \"#utility.yul\":470:533   */\n    tag_318:\n        /* \"#utility.yul\":417:539   */\n      pop\n      jump\t// out\n        /* \"#utility.yul\":545:684   */\n    tag_230:\n        /* \"#utility.yul\":591:596   */\n      0x00\n        /* \"#utility.yul\":629:635   */\n      dup2\n        /* \"#utility.yul\":616:636   */\n      calldataload\n        /* \"#utility.yul\":607:636   */\n      swap1\n      pop\n        /* \"#utility.yul\":645:678   */\n      tag_320\n        /* \"#utility.yul\":672:677   */\n      dup2\n        /* \"#utility.yul\":645:678   */\n      tag_229\n      jump\t// in\n    tag_320:\n        /* \"#utility.yul\":545:684   */\n      swap3\n      swap2\n      pop\n      pop\n      jump\t// out\n        /* \"#utility.yul\":690:1019   */\n    tag_25:\n        /* \"#utility.yul\":749:755   */\n      0x00\n        /* \"#utility.yul\":798:800   */\n      0x20\n        /* \"#utility.yul\":786:795   */\n      dup3\n        /* \"#utility.yul\":777:784   */\n      dup5\n        /* \"#utility.yul\":773:796   */\n      sub\n        /* \"#utility.yul\":769:801   */\n      slt\n        /* \"#utility.yul\":766:885   */\n      iszero\n      tag_322\n      jumpi\n        /* \"#utility.yul\":804:883   */\n      tag_323\n      tag_226\n      jump\t// in\n    tag_323:\n        /* \"#utility.yul\":766:885   */\n    tag_322:\n        /* \"#utility.yul\":924:925   */\n      0x00\n        /* \"#utility.yul\":949:1002   */\n      tag_324\n        /* \"#utility.yul\":994:1001   */\n      dup5\n        /* \"#utility.yul\":985:991   */\n      dup3\n        /* \"#utility.yul\":974:983   */\n      dup6\n        /* \"#utility.yul\":970:992   */\n      add\n        /* \"#utility.yul\":949:1002   */\n      tag_230\n      jump\t// in\n    tag_324:\n        /* \"#utility.yul\":939:1002   */\n      swap2\n      pop\n        /* \"#utility.yul\":895:1012   */\n      pop\n        /* \"#utility.yul\":690:1019   */\n      swap3\n      swap2\n      pop\n      pop\n      jump\t// out\n        /* \"#utility.yul\":1025:1124   */\n    tag_231:\n        /* \"#utility.yul\":1077:1083   */\n      0x00\n        /* \"#utility.yul\":1111:1116   */\n      dup2\n        /* \"#utility.yul\":1105:1117   */\n      mload\n        /* \"#utility.yul\":1095:1117   */\n      swap1\n      pop\n        /* \"#utility.yul\":1025:1124   */\n      swap2\n      swap1\n      pop\n      jump\t// out\n        /* \"#utility.yul\":1130:1299   */\n    tag_232:\n        /* \"#utility.yul\":1214:1225   */\n      0x00\n        /* \"#utility.yul\":1248:1254   */\n      dup3\n        /* \"#utility.yul\":1243:1246   */\n      dup3\n        /* \"#utility.yul\":1236:1255   */\n      mstore\n        /* \"#utility.yul\":1288:1292   */\n      0x20\n        /* \"#utility.yul\":1283:1286   */\n      dup3\n        /* \"#utility.yul\":1279:1293   */\n      add\n        /* \"#utility.yul\":1264:1293   */\n      swap1\n      pop\n        /* \"#utility.yul\":1130:1299   */\n      swap3\n      swap2\n      pop\n      pop\n      jump\t// out\n        /* \"#utility.yul\":1305:1612   */\n    tag_233:\n        /* \"#utility.yul\":1373:1374   */\n      0x00\n        /* \"#utility.yul\":1383:1496   */\n    tag_328:\n        /* \"#utility.yul\":1397:1403   */\n      dup4\n        /* \"#utility.yul\":1394:1395   */\n      dup2\n        /* \"#utility.yul\":1391:1404   */\n      lt\n        /* \"#utility.yul\":1383:1496   */\n      iszero\n      tag_330\n      jumpi\n        /* \"#utility.yul\":1482:1483   */\n      dup1\n        /* \"#utility.yul\":1477:1480   */\n      dup3\n        /* \"#utility.yul\":1473:1484   */\n      add\n        /* \"#utility.yul\":1467:1485   */\n      mload\n        /* \"#utility.yul\":1463:1464   */\n      dup2\n        /* \"#utility.yul\":1458:1461   */\n      dup5\n        /* \"#utility.yul\":1454:1465   */\n      add\n        /* \"#utility.yul\":1447:1486   */\n      mstore\n        /* \"#utility.yul\":1419:1421   */\n      0x20\n        /* \"#utility.yul\":1416:1417   */\n      dup2\n        /* \"#utility.yul\":1412:1422   */\n      add\n        /* \"#utility.yul\":1407:1422   */\n      swap1\n      pop\n        /* \"#utility.yul\":1383:1496   */\n      jump(tag_328)\n    tag_330:\n        /* \"#utility.yul\":1514:1520   */\n      dup4\n        /* \"#utility.yul\":1511:1512   */\n      dup2\n        /* \"#utility.yul\":1508:1521   */\n      gt\n        /* \"#utility.yul\":1505:1606   */\n      iszero\n      tag_331\n      jumpi\n        /* \"#utility.yul\":1594:1595   */\n      0x00\n        /* \"#utility.yul\":1585:1591   */\n      dup5\n        /* \"#utility.yul\":1580:1583   */\n      dup5\n        /* \"#utility.yul\":1576:1592   */\n      add\n        /* \"#utility.yul\":1569:1596   */\n      mstore\n        /* \"#utility.yul\":1505:1606   */\n    tag_331:\n        /* \"#utility.yul\":1354:1612   */\n      pop\n        /* \"#utility.yul\":1305:1612   */\n      pop\n      pop\n      pop\n      jump\t// out\n        /* \"#utility.yul\":1618:1720   */\n    tag_234:\n        /* \"#utility.yul\":1659:1665   */\n      0x00\n        /* \"#utility.yul\":1710:1712   */\n      0x1f\n        /* \"#utility.yul\":1706:1713   */\n      not\n        /* \"#utility.yul\":1701:1703   */\n      0x1f\n        /* \"#utility.yul\":1694:1699   */\n      dup4\n        /* \"#utility.yul\":1690:1704   */\n      add\n        /* \"#utility.yul\":1686:1714   */\n      and\n        /* \"#utility.yul\":1676:1714   */\n      swap1\n      pop\n        /* \"#utility.yul\":1618:1720   */\n      swap2\n      swap1\n      pop\n      jump\t// out\n        /* \"#utility.yul\":1726:2090   */\n    tag_235:\n        /* \"#utility.yul\":1814:1817   */\n      0x00\n        /* \"#utility.yul\":1842:1881   */\n      tag_334\n        /* \"#utility.yul\":1875:1880   */\n      dup3\n        /* \"#utility.yul\":1842:1881   */\n      tag_231\n      jump\t// in\n    tag_334:\n        /* \"#utility.yul\":1897:1968   */\n      tag_335\n        /* \"#utility.yul\":1961:1967   */\n      dup2\n        /* \"#utility.yul\":1956:1959   */\n      dup6\n        /* \"#utility.yul\":1897:1968   */\n      tag_232\n      jump\t// in\n    tag_335:\n        /* \"#utility.yul\":1890:1968   */\n      swap4\n      pop\n        /* \"#utility.yul\":1977:2029   */\n      tag_336\n        /* \"#utility.yul\":2022:2028   */\n      dup2\n        /* \"#utility.yul\":2017:2020   */\n      dup6\n        /* \"#utility.yul\":2010:2014   */\n      0x20\n        /* \"#utility.yul\":2003:2008   */\n      dup7\n        /* \"#utility.yul\":1999:2015   */\n      add\n        /* \"#utility.yul\":1977:2029   */\n      tag_233\n      jump\t// in\n    tag_336:\n        /* \"#utility.yul\":2054:2083   */\n      tag_337\n        /* \"#utility.yul\":2076:2082   */\n      dup2\n        /* \"#utility.yul\":2054:2083   */\n      tag_234\n      jump\t// in\n    tag_337:\n        /* \"#utility.yul\":2049:2052   */\n      dup5\n        /* \"#utility.yul\":2045:2084   */\n      add\n        /* \"#utility.yul\":2038:2084   */\n      swap2\n      pop\n        /* \"#utility.yul\":1818:2090   */\n      pop\n        /* \"#utility.yul\":1726:2090   */\n      swap3\n      swap2\n      pop\n      pop\n      jump\t// out\n        /* \"#utility.yul\":2096:2214   */\n    tag_236:\n        /* \"#utility.yul\":2183:2207   */\n      tag_339\n        /* \"#utility.yul\":2201:2206   */\n      dup2\n        /* \"#utility.yul\":2183:2207   */\n      tag_228\n      jump\t// in\n    tag_339:\n        /* \"#utility.yul\":2178:2181   */\n      dup3\n        /* \"#utility.yul\":2171:2208   */\n      mstore\n        /* \"#utility.yul\":2096:2214   */\n      pop\n      pop\n      jump\t// out\n        /* \"#utility.yul\":2220:2643   */\n    tag_28:\n        /* \"#utility.yul\":2361:2365   */\n      0x00\n        /* \"#utility.yul\":2399:2401   */\n      0x40\n        /* \"#utility.yul\":2388:2397   */\n      dup3\n        /* \"#utility.yul\":2384:2402   */\n      add\n        /* \"#utility.yul\":2376:2402   */\n      swap1\n      pop\n        /* \"#utility.yul\":2448:2457   */\n      dup2\n        /* \"#utility.yul\":2442:2446   */\n      dup2\n        /* \"#utility.yul\":2438:2458   */\n      sub\n        /* \"#utility.yul\":2434:2435   */\n      0x00\n        /* \"#utility.yul\":2423:2432   */\n      dup4\n        /* \"#utility.yul\":2419:2436   */\n      add\n        /* \"#utility.yul\":2412:2459   */\n      mstore\n        /* \"#utility.yul\":2476:2554   */\n      tag_341\n        /* \"#utility.yul\":2549:2553   */\n      dup2\n        /* \"#utility.yul\":2540:2546   */\n      dup6\n        /* \"#utility.yul\":2476:2554   */\n      tag_235\n      jump\t// in\n    tag_341:\n        /* \"#utility.yul\":2468:2554   */\n      swap1\n      pop\n        /* \"#utility.yul\":2564:2636   */\n      tag_342\n        /* \"#utility.yul\":2632:2634   */\n      0x20\n        /* \"#utility.yul\":2621:2630   */\n      dup4\n        /* \"#utility.yul\":2617:2635   */\n      add\n        /* \"#utility.yul\":2608:2614   */\n      dup5\n        /* \"#utility.yul\":2564:2636   */\n      tag_236\n      jump\t// in\n    tag_342:\n        /* \"#utility.yul\":2220:2643   */\n      swap4\n      swap3\n      pop\n      pop\n      pop\n      jump\t// out\n        /* \"#utility.yul\":2649:2871   */\n    tag_32:\n        /* \"#utility.yul\":2742:2746   */\n      0x00\n        /* \"#utility.yul\":2780:2782   */\n      0x20\n        /* \"#utility.yul\":2769:2778   */\n      dup3\n        /* \"#utility.yul\":2765:2783   */\n      add\n        /* \"#utility.yul\":2757:2783   */\n      swap1\n      pop\n        /* \"#utility.yul\":2793:2864   */\n      tag_344\n        /* \"#utility.yul\":2861:2862   */\n      0x00\n        /* \"#utility.yul\":2850:2859   */\n      dup4\n        /* \"#utility.yul\":2846:2863   */\n      add\n        /* \"#utility.yul\":2837:2843   */\n      dup5\n        /* \"#utility.yul\":2793:2864   */\n      tag_236\n      jump\t// in\n    tag_344:\n        /* \"#utility.yul\":2649:2871   */\n      swap3\n      swap2\n      pop\n      pop\n      jump\t// out\n        /* \"#utility.yul\":2877:3003   */\n    tag_237:\n        /* \"#utility.yul\":2914:2921   */\n      0x00\n        /* \"#utility.yul\":2954:2996   */\n      0xffffffffffffffffffffffffffffffffffffffff\n        /* \"#utility.yul\":2947:2952   */\n      dup3\n        /* \"#utility.yul\":2943:2997   */\n      and\n        /* \"#utility.yul\":2932:2997   */\n      swap1\n      pop\n        /* \"#utility.yul\":2877:3003   */\n      swap2\n      swap1\n      pop\n      jump\t// out\n        /* \"#utility.yul\":3009:3105   */\n    tag_238:\n        /* \"#utility.yul\":3046:3053   */\n      0x00\n        /* \"#utility.yul\":3075:3099   */\n      tag_347\n        /* \"#utility.yul\":3093:3098   */\n      dup3\n        /* \"#utility.yul\":3075:3099   */\n      tag_237\n      jump\t// in\n    tag_347:\n        /* \"#utility.yul\":3064:3099   */\n      swap1\n      pop\n        /* \"#utility.yul\":3009:3105   */\n      swap2\n      swap1\n      pop\n      jump\t// out\n        /* \"#utility.yul\":3111:3233   */\n    tag_239:\n        /* \"#utility.yul\":3184:3208   */\n      tag_349\n        /* \"#utility.yul\":3202:3207   */\n      dup2\n        /* \"#utility.yul\":3184:3208   */\n      tag_238\n      jump\t// in\n    tag_349:\n        /* \"#utility.yul\":3177:3182   */\n      dup2\n        /* \"#utility.yul\":3174:3209   */\n      eq\n        /* \"#utility.yul\":3164:3227   */\n      tag_350\n      jumpi\n        /* \"#utility.yul\":3223:3224   */\n      0x00\n        /* \"#utility.yul\":3220:3221   */\n      dup1\n        /* \"#utility.yul\":3213:3225   */\n      revert\n        /* \"#utility.yul\":3164:3227   */\n    tag_350:\n        /* \"#utility.yul\":3111:3233   */\n      pop\n      jump\t// out\n        /* \"#utility.yul\":3239:3378   */\n    tag_240:\n        /* \"#utility.yul\":3285:3290   */\n      0x00\n        /* \"#utility.yul\":3323:3329   */\n      dup2\n        /* \"#utility.yul\":3310:3330   */\n      calldataload\n        /* \"#utility.yul\":3301:3330   */\n      swap1\n      pop\n        /* \"#utility.yul\":3339:3372   */\n      tag_352\n        /* \"#utility.yul\":3366:3371   */\n      dup2\n        /* \"#utility.yul\":3339:3372   */\n      tag_239\n      jump\t// in\n    tag_352:\n        /* \"#utility.yul\":3239:3378   */\n      swap3\n      swap2\n      pop\n      pop\n      jump\t// out\n        /* \"#utility.yul\":3384:3713   */\n    tag_35:\n        /* \"#utility.yul\":3443:3449   */\n      0x00\n        /* \"#utility.yul\":3492:3494   */\n      0x20\n        /* \"#utility.yul\":3480:3489   */\n      dup3\n        /* \"#utility.yul\":3471:3478   */\n      dup5\n        /* \"#utility.yul\":3467:3490   */\n      sub\n        /* \"#utility.yul\":3463:3495   */\n      slt\n        /* \"#utility.yul\":3460:3579   */\n      iszero\n      tag_354\n      jumpi\n        /* \"#utility.yul\":3498:3577   */\n      tag_355\n      tag_226\n      jump\t// in\n    tag_355:\n        /* \"#utility.yul\":3460:3579   */\n    tag_354:\n        /* \"#utility.yul\":3618:3619   */\n      0x00\n        /* \"#utility.yul\":3643:3696   */\n      tag_356\n        /* \"#utility.yul\":3688:3695   */\n      dup5\n        /* \"#utility.yul\":3679:3685   */\n      dup3\n        /* \"#utility.yul\":3668:3677   */\n      dup6\n        /* \"#utility.yul\":3664:3686   */\n      add\n        /* \"#utility.yul\":3643:3696   */\n      tag_240\n      jump\t// in\n    tag_356:\n        /* \"#utility.yul\":3633:3696   */\n      swap2\n      pop\n        /* \"#utility.yul\":3589:3706   */\n      pop\n        /* \"#utility.yul\":3384:3713   */\n      swap3\n      swap2\n      pop\n      pop\n      jump\t// out\n        /* \"#utility.yul\":3719:3836   */\n    tag_241:\n        /* \"#utility.yul\":3828:3829   */\n      0x00\n        /* \"#utility.yul\":3825:3826   */\n      dup1\n        /* \"#utility.yul\":3818:3830   */\n      revert\n        /* \"#utility.yul\":3842:3959   */\n    tag_242:\n        /* \"#utility.yul\":3951:3952   */\n      0x00\n        /* \"#utility.yul\":3948:3949   */\n      dup1\n        /* \"#utility.yul\":3941:3953   */\n      revert\n        /* \"#utility.yul\":3965:4145   */\n    tag_243:\n        /* \"#utility.yul\":4013:4090   */\n      0x4e487b7100000000000000000000000000000000000000000000000000000000\n        /* \"#utility.yul\":4010:4011   */\n      0x00\n        /* \"#utility.yul\":4003:4091   */\n      mstore\n        /* \"#utility.yul\":4110:4114   */\n      0x41\n        /* \"#utility.yul\":4107:4108   */\n      0x04\n        /* \"#utility.yul\":4100:4115   */\n      mstore\n        /* \"#utility.yul\":4134:4138   */\n      0x24\n        /* \"#utility.yul\":4131:4132   */\n      0x00\n        /* \"#utility.yul\":4124:4139   */\n      revert\n        /* \"#utility.yul\":4151:4432   */\n    tag_244:\n        /* \"#utility.yul\":4234:4261   */\n      tag_361\n        /* \"#utility.yul\":4256:4260   */\n      dup3\n        /* \"#utility.yul\":4234:4261   */\n      tag_234\n      jump\t// in\n    tag_361:\n        /* \"#utility.yul\":4226:4232   */\n      dup2\n        /* \"#utility.yul\":4222:4262   */\n      add\n        /* \"#utility.yul\":4364:4370   */\n      dup2\n        /* \"#utility.yul\":4352:4362   */\n      dup2\n        /* \"#utility.yul\":4349:4371   */\n      lt\n        /* \"#utility.yul\":4328:4346   */\n      0xffffffffffffffff\n        /* \"#utility.yul\":4316:4326   */\n      dup3\n        /* \"#utility.yul\":4313:4347   */\n      gt\n        /* \"#utility.yul\":4310:4372   */\n      or\n        /* \"#utility.yul\":4307:4395   */\n      iszero\n      tag_362\n      jumpi\n        /* \"#utility.yul\":4375:4393   */\n      tag_363\n      tag_243\n      jump\t// in\n    tag_363:\n        /* \"#utility.yul\":4307:4395   */\n    tag_362:\n        /* \"#utility.yul\":4415:4425   */\n      dup1\n        /* \"#utility.yul\":4411:4413   */\n      0x40\n        /* \"#utility.yul\":4404:4426   */\n      mstore\n        /* \"#utility.yul\":4194:4432   */\n      pop\n        /* \"#utility.yul\":4151:4432   */\n      pop\n      pop\n      jump\t// out\n        /* \"#utility.yul\":4438:4567   */\n    tag_245:\n        /* \"#utility.yul\":4472:4478   */\n      0x00\n        /* \"#utility.yul\":4499:4519   */\n      tag_365\n      tag_225\n      jump\t// in\n    tag_365:\n        /* \"#utility.yul\":4489:4519   */\n      swap1\n      pop\n        /* \"#utility.yul\":4528:4561   */\n      tag_366\n        /* \"#utility.yul\":4556:4560   */\n      dup3\n        /* \"#utility.yul\":4548:4554   */\n      dup3\n        /* \"#utility.yul\":4528:4561   */\n      tag_244\n      jump\t// in\n    tag_366:\n        /* \"#utility.yul\":4438:4567   */\n      swap2\n      swap1\n      pop\n      jump\t// out\n        /* \"#utility.yul\":4573:4881   */\n    tag_246:\n        /* \"#utility.yul\":4635:4639   */\n      0x00\n        /* \"#utility.yul\":4725:4743   */\n      0xffffffffffffffff\n        /* \"#utility.yul\":4717:4723   */\n      dup3\n        /* \"#utility.yul\":4714:4744   */\n      gt\n        /* \"#utility.yul\":4711:4767   */\n      iszero\n      tag_368\n      jumpi\n        /* \"#utility.yul\":4747:4765   */\n      tag_369\n      tag_243\n      jump\t// in\n    tag_369:\n        /* \"#utility.yul\":4711:4767   */\n    tag_368:\n        /* \"#utility.yul\":4785:4814   */\n      tag_370\n        /* \"#utility.yul\":4807:4813   */\n      dup3\n        /* \"#utility.yul\":4785:4814   */\n      tag_234\n      jump\t// in\n    tag_370:\n        /* \"#utility.yul\":4777:4814   */\n      swap1\n      pop\n        /* \"#utility.yul\":4869:4873   */\n      0x20\n        /* \"#utility.yul\":4863:4867   */\n      dup2\n        /* \"#utility.yul\":4859:4874   */\n      add\n        /* \"#utility.yul\":4851:4874   */\n      swap1\n      pop\n        /* \"#utility.yul\":4573:4881   */\n      swap2\n      swap1\n      pop\n      jump\t// out\n        /* \"#utility.yul\":4887:5041   */\n    tag_247:\n        /* \"#utility.yul\":4971:4977   */\n      dup3\n        /* \"#utility.yul\":4966:4969   */\n      dup2\n        /* \"#utility.yul\":4961:4964   */\n      dup4\n        /* \"#utility.yul\":4948:4978   */\n      calldatacopy\n        /* \"#utility.yul\":5033:5034   */\n      0x00\n        /* \"#utility.yul\":5024:5030   */\n      dup4\n        /* \"#utility.yul\":5019:5022   */\n      dup4\n        /* \"#utility.yul\":5015:5031   */\n      add\n        /* \"#utility.yul\":5008:5035   */\n      mstore\n        /* \"#utility.yul\":4887:5041   */\n      pop\n      pop\n      pop\n      jump\t// out\n        /* \"#utility.yul\":5047:5459   */\n    tag_248:\n        /* \"#utility.yul\":5125:5130   */\n      0x00\n        /* \"#utility.yul\":5150:5216   */\n      tag_373\n        /* \"#utility.yul\":5166:5215   */\n      tag_374\n        /* \"#utility.yul\":5208:5214   */\n      dup5\n        /* \"#utility.yul\":5166:5215   */\n      tag_246\n      jump\t// in\n    tag_374:\n        /* \"#utility.yul\":5150:5216   */\n      tag_245\n      jump\t// in\n    tag_373:\n        /* \"#utility.yul\":5141:5216   */\n      swap1\n      pop\n        /* \"#utility.yul\":5239:5245   */\n      dup3\n        /* \"#utility.yul\":5232:5237   */\n      dup2\n        /* \"#utility.yul\":5225:5246   */\n      mstore\n        /* \"#utility.yul\":5277:5281   */\n      0x20\n        /* \"#utility.yul\":5270:5275   */\n      dup2\n        /* \"#utility.yul\":5266:5282   */\n      add\n        /* \"#utility.yul\":5315:5318   */\n      dup5\n        /* \"#utility.yul\":5306:5312   */\n      dup5\n        /* \"#utility.yul\":5301:5304   */\n      dup5\n        /* \"#utility.yul\":5297:5313   */\n      add\n        /* \"#utility.yul\":5294:5319   */\n      gt\n        /* \"#utility.yul\":5291:5403   */\n      iszero\n      tag_375\n      jumpi\n        /* \"#utility.yul\":5322:5401   */\n      tag_376\n      tag_242\n      jump\t// in\n    tag_376:\n        /* \"#utility.yul\":5291:5403   */\n    tag_375:\n        /* \"#utility.yul\":5412:5453   */\n      tag_377\n        /* \"#utility.yul\":5446:5452   */\n      dup5\n        /* \"#utility.yul\":5441:5444   */\n      dup3\n        /* \"#utility.yul\":5436:5439   */\n      dup6\n        /* \"#utility.yul\":5412:5453   */\n      tag_247\n      jump\t// in\n    tag_377:\n        /* \"#utility.yul\":5131:5459   */\n      pop\n        /* \"#utility.yul\":5047:5459   */\n      swap4\n      swap3\n      pop\n      pop\n      pop\n      jump\t// out\n        /* \"#utility.yul\":5479:5819   */\n    tag_249:\n        /* \"#utility.yul\":5535:5540   */\n      0x00\n        /* \"#utility.yul\":5584:5587   */\n      dup3\n        /* \"#utility.yul\":5577:5581   */\n      0x1f\n        /* \"#utility.yul\":5569:5575   */\n      dup4\n        /* \"#utility.yul\":5565:5582   */\n      add\n        /* \"#utility.yul\":5561:5588   */\n      slt\n        /* \"#utility.yul\":5551:5673   */\n      tag_379\n      jumpi\n        /* \"#utility.yul\":5592:5671   */\n      tag_380\n      tag_241\n      jump\t// in\n    tag_380:\n        /* \"#utility.yul\":5551:5673   */\n    tag_379:\n        /* \"#utility.yul\":5709:5715   */\n      dup2\n        /* \"#utility.yul\":5696:5716   */\n      calldataload\n        /* \"#utility.yul\":5734:5813   */\n      tag_381\n        /* \"#utility.yul\":5809:5812   */\n      dup5\n        /* \"#utility.yul\":5801:5807   */\n      dup3\n        /* \"#utility.yul\":5794:5798   */\n      0x20\n        /* \"#utility.yul\":5786:5792   */\n      dup7\n        /* \"#utility.yul\":5782:5799   */\n      add\n        /* \"#utility.yul\":5734:5813   */\n      tag_248\n      jump\t// in\n    tag_381:\n        /* \"#utility.yul\":5725:5813   */\n      swap2\n      pop\n        /* \"#utility.yul\":5541:5819   */\n      pop\n        /* \"#utility.yul\":5479:5819   */\n      swap3\n      swap2\n      pop\n      pop\n      jump\t// out\n        /* \"#utility.yul\":5825:6334   */\n    tag_39:\n        /* \"#utility.yul\":5894:5900   */\n      0x00\n        /* \"#utility.yul\":5943:5945   */\n      0x20\n        /* \"#utility.yul\":5931:5940   */\n      dup3\n        /* \"#utility.yul\":5922:5929   */\n      dup5\n        /* \"#utility.yul\":5918:5941   */\n      sub\n        /* \"#utility.yul\":5914:5946   */\n      slt\n        /* \"#utility.yul\":5911:6030   */\n      iszero\n      tag_383\n      jumpi\n        /* \"#utility.yul\":5949:6028   */\n      tag_384\n      tag_226\n      jump\t// in\n    tag_384:\n        /* \"#utility.yul\":5911:6030   */\n    tag_383:\n        /* \"#utility.yul\":6097:6098   */\n      0x00\n        /* \"#utility.yul\":6086:6095   */\n      dup3\n        /* \"#utility.yul\":6082:6099   */\n      add\n        /* \"#utility.yul\":6069:6100   */\n      calldataload\n        /* \"#utility.yul\":6127:6145   */\n      0xffffffffffffffff\n        /* \"#utility.yul\":6119:6125   */\n      dup2\n        /* \"#utility.yul\":6116:6146   */\n      gt\n        /* \"#utility.yul\":6113:6230   */\n      iszero\n      tag_385\n      jumpi\n        /* \"#utility.yul\":6149:6228   */\n      tag_386\n      tag_227\n      jump\t// in\n    tag_386:\n        /* \"#utility.yul\":6113:6230   */\n    tag_385:\n        /* \"#utility.yul\":6254:6317   */\n      tag_387\n        /* \"#utility.yul\":6309:6316   */\n      dup5\n        /* \"#utility.yul\":6300:6306   */\n      dup3\n        /* \"#utility.yul\":6289:6298   */\n      dup6\n        /* \"#utility.yul\":6285:6307   */\n      add\n        /* \"#utility.yul\":6254:6317   */\n      tag_249\n      jump\t// in\n    tag_387:\n        /* \"#utility.yul\":6244:6317   */\n      swap2\n      pop\n        /* \"#utility.yul\":6040:6327   */\n      pop\n        /* \"#utility.yul\":5825:6334   */\n      swap3\n      swap2\n      pop\n      pop\n      jump\t// out\n        /* \"#utility.yul\":6340:6479   */\n    tag_250:\n        /* \"#utility.yul\":6432:6438   */\n      0x00\n        /* \"#utility.yul\":6466:6471   */\n      dup2\n        /* \"#utility.yul\":6460:6472   */\n      mload\n        /* \"#utility.yul\":6450:6472   */\n      swap1\n      pop\n        /* \"#utility.yul\":6340:6479   */\n      swap2\n      swap1\n      pop\n      jump\t// out\n        /* \"#utility.yul\":6485:6694   */\n    tag_251:\n        /* \"#utility.yul\":6609:6620   */\n      0x00\n        /* \"#utility.yul\":6643:6649   */\n      dup3\n        /* \"#utility.yul\":6638:6641   */\n      dup3\n        /* \"#utility.yul\":6631:6650   */\n      mstore\n        /* \"#utility.yul\":6683:6687   */\n      0x20\n        /* \"#utility.yul\":6678:6681   */\n      dup3\n        /* \"#utility.yul\":6674:6688   */\n      add\n        /* \"#utility.yul\":6659:6688   */\n      swap1\n      pop\n        /* \"#utility.yul\":6485:6694   */\n      swap3\n      swap2\n      pop\n      pop\n      jump\t// out\n        /* \"#utility.yul\":6700:6857   */\n    tag_252:\n        /* \"#utility.yul\":6792:6796   */\n      0x00\n        /* \"#utility.yul\":6815:6818   */\n      dup2\n        /* \"#utility.yul\":6807:6818   */\n      swap1\n      pop\n        /* \"#utility.yul\":6845:6849   */\n      0x20\n        /* \"#utility.yul\":6840:6843   */\n      dup3\n        /* \"#utility.yul\":6836:6850   */\n      add\n        /* \"#utility.yul\":6828:6850   */\n      swap1\n      pop\n        /* \"#utility.yul\":6700:6857   */\n      swap2\n      swap1\n      pop\n      jump\t// out\n        /* \"#utility.yul\":6863:7022   */\n    tag_253:\n        /* \"#utility.yul\":6937:6948   */\n      0x00\n        /* \"#utility.yul\":6971:6977   */\n      dup3\n        /* \"#utility.yul\":6966:6969   */\n      dup3\n        /* \"#utility.yul\":6959:6978   */\n      mstore\n        /* \"#utility.yul\":7011:7015   */\n      0x20\n        /* \"#utility.yul\":7006:7009   */\n      dup3\n        /* \"#utility.yul\":7002:7016   */\n      add\n        /* \"#utility.yul\":6987:7016   */\n      swap1\n      pop\n        /* \"#utility.yul\":6863:7022   */\n      swap3\n      swap2\n      pop\n      pop\n      jump\t// out\n        /* \"#utility.yul\":7028:7372   */\n    tag_254:\n        /* \"#utility.yul\":7106:7109   */\n      0x00\n        /* \"#utility.yul\":7134:7173   */\n      tag_393\n        /* \"#utility.yul\":7167:7172   */\n      dup3\n        /* \"#utility.yul\":7134:7173   */\n      tag_231\n      jump\t// in\n    tag_393:\n        /* \"#utility.yul\":7189:7250   */\n      tag_394\n        /* \"#utility.yul\":7243:7249   */\n      dup2\n        /* \"#utility.yul\":7238:7241   */\n      dup6\n        /* \"#utility.yul\":7189:7250   */\n      tag_253\n      jump\t// in\n    tag_394:\n        /* \"#utility.yul\":7182:7250   */\n      swap4\n      pop\n        /* \"#utility.yul\":7259:7311   */\n      tag_395\n        /* \"#utility.yul\":7304:7310   */\n      dup2\n        /* \"#utility.yul\":7299:7302   */\n      dup6\n        /* \"#utility.yul\":7292:7296   */\n      0x20\n        /* \"#utility.yul\":7285:7290   */\n      dup7\n        /* \"#utility.yul\":7281:7297   */\n      add\n        /* \"#utility.yul\":7259:7311   */\n      tag_233\n      jump\t// in\n    tag_395:\n        /* \"#utility.yul\":7336:7365   */\n      tag_396\n        /* \"#utility.yul\":7358:7364   */\n      dup2\n        /* \"#utility.yul\":7336:7365   */\n      tag_234\n      jump\t// in\n    tag_396:\n        /* \"#utility.yul\":7331:7334   */\n      dup5\n        /* \"#utility.yul\":7327:7366   */\n      add\n        /* \"#utility.yul\":7320:7366   */\n      swap2\n      pop\n        /* \"#utility.yul\":7110:7372   */\n      pop\n        /* \"#utility.yul\":7028:7372   */\n      swap3\n      swap2\n      pop\n      pop\n      jump\t// out\n        /* \"#utility.yul\":7378:7486   */\n    tag_255:\n        /* \"#utility.yul\":7455:7479   */\n      tag_398\n        /* \"#utility.yul\":7473:7478   */\n      dup2\n        /* \"#utility.yul\":7455:7479   */\n      tag_228\n      jump\t// in\n    tag_398:\n        /* \"#utility.yul\":7450:7453   */\n      dup3\n        /* \"#utility.yul\":7443:7480   */\n      mstore\n        /* \"#utility.yul\":7378:7486   */\n      pop\n      pop\n      jump\t// out\n        /* \"#utility.yul\":7548:8156   */\n    tag_256:\n        /* \"#utility.yul\":7657:7660   */\n      0x00\n        /* \"#utility.yul\":7693:7697   */\n      0x40\n        /* \"#utility.yul\":7688:7691   */\n      dup4\n        /* \"#utility.yul\":7684:7698   */\n      add\n        /* \"#utility.yul\":7787:7791   */\n      0x00\n        /* \"#utility.yul\":7780:7785   */\n      dup4\n        /* \"#utility.yul\":7776:7792   */\n      add\n        /* \"#utility.yul\":7770:7793   */\n      mload\n        /* \"#utility.yul\":7840:7843   */\n      dup5\n        /* \"#utility.yul\":7834:7838   */\n      dup3\n        /* \"#utility.yul\":7830:7844   */\n      sub\n        /* \"#utility.yul\":7823:7827   */\n      0x00\n        /* \"#utility.yul\":7818:7821   */\n      dup7\n        /* \"#utility.yul\":7814:7828   */\n      add\n        /* \"#utility.yul\":7807:7845   */\n      mstore\n        /* \"#utility.yul\":7866:7939   */\n      tag_400\n        /* \"#utility.yul\":7934:7938   */\n      dup3\n        /* \"#utility.yul\":7920:7932   */\n      dup3\n        /* \"#utility.yul\":7866:7939   */\n      tag_254\n      jump\t// in\n    tag_400:\n        /* \"#utility.yul\":7858:7939   */\n      swap2\n      pop\n        /* \"#utility.yul\":7708:7950   */\n      pop\n        /* \"#utility.yul\":8037:8041   */\n      0x20\n        /* \"#utility.yul\":8030:8035   */\n      dup4\n        /* \"#utility.yul\":8026:8042   */\n      add\n        /* \"#utility.yul\":8020:8043   */\n      mload\n        /* \"#utility.yul\":8056:8119   */\n      tag_401\n        /* \"#utility.yul\":8113:8117   */\n      0x20\n        /* \"#utility.yul\":8108:8111   */\n      dup7\n        /* \"#utility.yul\":8104:8118   */\n      add\n        /* \"#utility.yul\":8090:8102   */\n      dup3\n        /* \"#utility.yul\":8056:8119   */\n      tag_255\n      jump\t// in\n    tag_401:\n        /* \"#utility.yul\":7960:8129   */\n      pop\n        /* \"#utility.yul\":8146:8150   */\n      dup1\n        /* \"#utility.yul\":8139:8150   */\n      swap2\n      pop\n        /* \"#utility.yul\":7662:8156   */\n      pop\n        /* \"#utility.yul\":7548:8156   */\n      swap3\n      swap2\n      pop\n      pop\n      jump\t// out\n        /* \"#utility.yul\":8162:8418   */\n    tag_257:\n        /* \"#utility.yul\":8281:8291   */\n      0x00\n        /* \"#utility.yul\":8316:8412   */\n      tag_403\n        /* \"#utility.yul\":8408:8411   */\n      dup4\n        /* \"#utility.yul\":8400:8406   */\n      dup4\n        /* \"#utility.yul\":8316:8412   */\n      tag_256\n      jump\t// in\n    tag_403:\n        /* \"#utility.yul\":8302:8412   */\n      swap1\n      pop\n        /* \"#utility.yul\":8162:8418   */\n      swap3\n      swap2\n      pop\n      pop\n      jump\t// out\n        /* \"#utility.yul\":8424:8562   */\n    tag_258:\n        /* \"#utility.yul\":8519:8523   */\n      0x00\n        /* \"#utility.yul\":8551:8555   */\n      0x20\n        /* \"#utility.yul\":8546:8549   */\n      dup3\n        /* \"#utility.yul\":8542:8556   */\n      add\n        /* \"#utility.yul\":8534:8556   */\n      swap1\n      pop\n        /* \"#utility.yul\":8424:8562   */\n      swap2\n      swap1\n      pop\n      jump\t// out\n        /* \"#utility.yul\":8628:9739   */\n    tag_259:\n        /* \"#utility.yul\":8797:8800   */\n      0x00\n        /* \"#utility.yul\":8826:8905   */\n      tag_406\n        /* \"#utility.yul\":8899:8904   */\n      dup3\n        /* \"#utility.yul\":8826:8905   */\n      tag_250\n      jump\t// in\n    tag_406:\n        /* \"#utility.yul\":8921:9032   */\n      tag_407\n        /* \"#utility.yul\":9025:9031   */\n      dup2\n        /* \"#utility.yul\":9020:9023   */\n      dup6\n        /* \"#utility.yul\":8921:9032   */\n      tag_251\n      jump\t// in\n    tag_407:\n        /* \"#utility.yul\":8914:9032   */\n      swap4\n      pop\n        /* \"#utility.yul\":9058:9061   */\n      dup4\n        /* \"#utility.yul\":9103:9107   */\n      0x20\n        /* \"#utility.yul\":9095:9101   */\n      dup3\n        /* \"#utility.yul\":9091:9108   */\n      mul\n        /* \"#utility.yul\":9086:9089   */\n      dup6\n        /* \"#utility.yul\":9082:9109   */\n      add\n        /* \"#utility.yul\":9133:9214   */\n      tag_408\n        /* \"#utility.yul\":9208:9213   */\n      dup6\n        /* \"#utility.yul\":9133:9214   */\n      tag_252\n      jump\t// in\n    tag_408:\n        /* \"#utility.yul\":9237:9244   */\n      dup1\n        /* \"#utility.yul\":9268:9269   */\n      0x00\n        /* \"#utility.yul\":9253:9694   */\n    tag_409:\n        /* \"#utility.yul\":9278:9284   */\n      dup6\n        /* \"#utility.yul\":9275:9276   */\n      dup2\n        /* \"#utility.yul\":9272:9285   */\n      lt\n        /* \"#utility.yul\":9253:9694   */\n      iszero\n      tag_411\n      jumpi\n        /* \"#utility.yul\":9349:9358   */\n      dup5\n        /* \"#utility.yul\":9343:9347   */\n      dup5\n        /* \"#utility.yul\":9339:9359   */\n      sub\n        /* \"#utility.yul\":9334:9337   */\n      dup10\n        /* \"#utility.yul\":9327:9360   */\n      mstore\n        /* \"#utility.yul\":9400:9406   */\n      dup2\n        /* \"#utility.yul\":9394:9407   */\n      mload\n        /* \"#utility.yul\":9428:9542   */\n      tag_412\n        /* \"#utility.yul\":9537:9541   */\n      dup6\n        /* \"#utility.yul\":9522:9535   */\n      dup3\n        /* \"#utility.yul\":9428:9542   */\n      tag_257\n      jump\t// in\n    tag_412:\n        /* \"#utility.yul\":9420:9542   */\n      swap5\n      pop\n        /* \"#utility.yul\":9565:9650   */\n      tag_413\n        /* \"#utility.yul\":9643:9649   */\n      dup4\n        /* \"#utility.yul\":9565:9650   */\n      tag_258\n      jump\t// in\n    tag_413:\n        /* \"#utility.yul\":9555:9650   */\n      swap3\n      pop\n        /* \"#utility.yul\":9679:9683   */\n      0x20\n        /* \"#utility.yul\":9674:9677   */\n      dup11\n        /* \"#utility.yul\":9670:9684   */\n      add\n        /* \"#utility.yul\":9663:9684   */\n      swap10\n      pop\n        /* \"#utility.yul\":9313:9694   */\n      pop\n        /* \"#utility.yul\":9300:9301   */\n      0x01\n        /* \"#utility.yul\":9297:9298   */\n      dup2\n        /* \"#utility.yul\":9293:9302   */\n      add\n        /* \"#utility.yul\":9288:9302   */\n      swap1\n      pop\n        /* \"#utility.yul\":9253:9694   */\n      jump(tag_409)\n    tag_411:\n        /* \"#utility.yul\":9257:9271   */\n      pop\n        /* \"#utility.yul\":9710:9714   */\n      dup3\n        /* \"#utility.yul\":9703:9714   */\n      swap8\n      pop\n        /* \"#utility.yul\":9730:9733   */\n      dup8\n        /* \"#utility.yul\":9723:9733   */\n      swap6\n      pop\n        /* \"#utility.yul\":8802:9739   */\n      pop\n      pop\n      pop\n      pop\n      pop\n        /* \"#utility.yul\":8628:9739   */\n      swap3\n      swap2\n      pop\n      pop\n      jump\t// out\n        /* \"#utility.yul\":9745:10218   */\n    tag_52:\n        /* \"#utility.yul\":9938:9942   */\n      0x00\n        /* \"#utility.yul\":9976:9978   */\n      0x20\n        /* \"#utility.yul\":9965:9974   */\n      dup3\n        /* \"#utility.yul\":9961:9979   */\n      add\n        /* \"#utility.yul\":9953:9979   */\n      swap1\n      pop\n        /* \"#utility.yul\":10025:10034   */\n      dup2\n        /* \"#utility.yul\":10019:10023   */\n      dup2\n        /* \"#utility.yul\":10015:10035   */\n      sub\n        /* \"#utility.yul\":10011:10012   */\n      0x00\n        /* \"#utility.yul\":10000:10009   */\n      dup4\n        /* \"#utility.yul\":9996:10013   */\n      add\n        /* \"#utility.yul\":9989:10036   */\n      mstore\n        /* \"#utility.yul\":10053:10211   */\n      tag_415\n        /* \"#utility.yul\":10206:10210   */\n      dup2\n        /* \"#utility.yul\":10197:10203   */\n      dup5\n        /* \"#utility.yul\":10053:10211   */\n      tag_259\n      jump\t// in\n    tag_415:\n        /* \"#utility.yul\":10045:10211   */\n      swap1\n      pop\n        /* \"#utility.yul\":9745:10218   */\n      swap3\n      swap2\n      pop\n      pop\n      jump\t// out\n        /* \"#utility.yul\":10224:10404   */\n    tag_104:\n        /* \"#utility.yul\":10272:10349   */\n      0x4e487b7100000000000000000000000000000000000000000000000000000000\n        /* \"#utility.yul\":10269:10270   */\n      0x00\n        /* \"#utility.yul\":10262:10350   */\n      mstore\n        /* \"#utility.yul\":10369:10373   */\n      0x21\n        /* \"#utility.yul\":10366:10367   */\n      0x04\n        /* \"#utility.yul\":10359:10374   */\n      mstore\n        /* \"#utility.yul\":10393:10397   */\n      0x24\n        /* \"#utility.yul\":10390:10391   */\n      0x00\n        /* \"#utility.yul\":10383:10398   */\n      revert\n        /* \"#utility.yul\":10410:10533   */\n    tag_260:\n        /* \"#utility.yul\":10501:10502   */\n      0x06\n        /* \"#utility.yul\":10494:10499   */\n      dup2\n        /* \"#utility.yul\":10491:10503   */\n      lt\n        /* \"#utility.yul\":10481:10527   */\n      tag_418\n      jumpi\n        /* \"#utility.yul\":10507:10525   */\n      tag_419\n      tag_104\n      jump\t// in\n    tag_419:\n        /* \"#utility.yul\":10481:10527   */\n    tag_418:\n        /* \"#utility.yul\":10410:10533   */\n      pop\n      jump\t// out\n        /* \"#utility.yul\":10539:10686   */\n    tag_261:\n        /* \"#utility.yul\":10594:10601   */\n      0x00\n        /* \"#utility.yul\":10623:10628   */\n      dup2\n        /* \"#utility.yul\":10612:10628   */\n      swap1\n      pop\n        /* \"#utility.yul\":10629:10680   */\n      tag_421\n        /* \"#utility.yul\":10674:10679   */\n      dup3\n        /* \"#utility.yul\":10629:10680   */\n      tag_260\n      jump\t// in\n    tag_421:\n        /* \"#utility.yul\":10539:10686   */\n      swap2\n      swap1\n      pop\n      jump\t// out\n        /* \"#utility.yul\":10692:10839   */\n    tag_262:\n        /* \"#utility.yul\":10758:10767   */\n      0x00\n        /* \"#utility.yul\":10791:10833   */\n      tag_423\n        /* \"#utility.yul\":10827:10832   */\n      dup3\n        /* \"#utility.yul\":10791:10833   */\n      tag_261\n      jump\t// in\n    tag_423:\n        /* \"#utility.yul\":10778:10833   */\n      swap1\n      pop\n        /* \"#utility.yul\":10692:10839   */\n      swap2\n      swap1\n      pop\n      jump\t// out\n        /* \"#utility.yul\":10845:11008   */\n    tag_263:\n        /* \"#utility.yul\":10948:11001   */\n      tag_425\n        /* \"#utility.yul\":10995:11000   */\n      dup2\n        /* \"#utility.yul\":10948:11001   */\n      tag_262\n      jump\t// in\n    tag_425:\n        /* \"#utility.yul\":10943:10946   */\n      dup3\n        /* \"#utility.yul\":10936:11002   */\n      mstore\n        /* \"#utility.yul\":10845:11008   */\n      pop\n      pop\n      jump\t// out\n        /* \"#utility.yul\":11014:11268   */\n    tag_58:\n        /* \"#utility.yul\":11123:11127   */\n      0x00\n        /* \"#utility.yul\":11161:11163   */\n      0x20\n        /* \"#utility.yul\":11150:11159   */\n      dup3\n        /* \"#utility.yul\":11146:11164   */\n      add\n        /* \"#utility.yul\":11138:11164   */\n      swap1\n      pop\n        /* \"#utility.yul\":11174:11261   */\n      tag_427\n        /* \"#utility.yul\":11258:11259   */\n      0x00\n        /* \"#utility.yul\":11247:11256   */\n      dup4\n        /* \"#utility.yul\":11243:11260   */\n      add\n        /* \"#utility.yul\":11234:11240   */\n      dup5\n        /* \"#utility.yul\":11174:11261   */\n      tag_263\n      jump\t// in\n    tag_427:\n        /* \"#utility.yul\":11014:11268   */\n      swap3\n      swap2\n      pop\n      pop\n      jump\t// out\n        /* \"#utility.yul\":11274:11392   */\n    tag_264:\n        /* \"#utility.yul\":11361:11385   */\n      tag_429\n        /* \"#utility.yul\":11379:11384   */\n      dup2\n        /* \"#utility.yul\":11361:11385   */\n      tag_238\n      jump\t// in\n    tag_429:\n        /* \"#utility.yul\":11356:11359   */\n      dup3\n        /* \"#utility.yul\":11349:11386   */\n      mstore\n        /* \"#utility.yul\":11274:11392   */\n      pop\n      pop\n      jump\t// out\n        /* \"#utility.yul\":11398:11620   */\n    tag_62:\n        /* \"#utility.yul\":11491:11495   */\n      0x00\n        /* \"#utility.yul\":11529:11531   */\n      0x20\n        /* \"#utility.yul\":11518:11527   */\n      dup3\n        /* \"#utility.yul\":11514:11532   */\n      add\n        /* \"#utility.yul\":11506:11532   */\n      swap1\n      pop\n        /* \"#utility.yul\":11542:11613   */\n      tag_431\n        /* \"#utility.yul\":11610:11611   */\n      0x00\n        /* \"#utility.yul\":11599:11608   */\n      dup4\n        /* \"#utility.yul\":11595:11612   */\n      add\n        /* \"#utility.yul\":11586:11592   */\n      dup5\n        /* \"#utility.yul\":11542:11613   */\n      tag_264\n      jump\t// in\n    tag_431:\n        /* \"#utility.yul\":11398:11620   */\n      swap3\n      swap2\n      pop\n      pop\n      jump\t// out\n        /* \"#utility.yul\":11626:11740   */\n    tag_265:\n        /* \"#utility.yul\":11693:11699   */\n      0x00\n        /* \"#utility.yul\":11727:11732   */\n      dup2\n        /* \"#utility.yul\":11721:11733   */\n      mload\n        /* \"#utility.yul\":11711:11733   */\n      swap1\n      pop\n        /* \"#utility.yul\":11626:11740   */\n      swap2\n      swap1\n      pop\n      jump\t// out\n        /* \"#utility.yul\":11746:11930   */\n    tag_266:\n        /* \"#utility.yul\":11845:11856   */\n      0x00\n        /* \"#utility.yul\":11879:11885   */\n      dup3\n        /* \"#utility.yul\":11874:11877   */\n      dup3\n        /* \"#utility.yul\":11867:11886   */\n      mstore\n        /* \"#utility.yul\":11919:11923   */\n      0x20\n        /* \"#utility.yul\":11914:11917   */\n      dup3\n        /* \"#utility.yul\":11910:11924   */\n      add\n        /* \"#utility.yul\":11895:11924   */\n      swap1\n      pop\n        /* \"#utility.yul\":11746:11930   */\n      swap3\n      swap2\n      pop\n      pop\n      jump\t// out\n        /* \"#utility.yul\":11936:12068   */\n    tag_267:\n        /* \"#utility.yul\":12003:12007   */\n      0x00\n        /* \"#utility.yul\":12026:12029   */\n      dup2\n        /* \"#utility.yul\":12018:12029   */\n      swap1\n      pop\n        /* \"#utility.yul\":12056:12060   */\n      0x20\n        /* \"#utility.yul\":12051:12054   */\n      dup3\n        /* \"#utility.yul\":12047:12061   */\n      add\n        /* \"#utility.yul\":12039:12061   */\n      swap1\n      pop\n        /* \"#utility.yul\":11936:12068   */\n      swap2\n      swap1\n      pop\n      jump\t// out\n        /* \"#utility.yul\":12074:12182   */\n    tag_268:\n        /* \"#utility.yul\":12151:12175   */\n      tag_436\n        /* \"#utility.yul\":12169:12174   */\n      dup2\n        /* \"#utility.yul\":12151:12175   */\n      tag_238\n      jump\t// in\n    tag_436:\n        /* \"#utility.yul\":12146:12149   */\n      dup3\n        /* \"#utility.yul\":12139:12176   */\n      mstore\n        /* \"#utility.yul\":12074:12182   */\n      pop\n      pop\n      jump\t// out\n        /* \"#utility.yul\":12188:12367   */\n    tag_269:\n        /* \"#utility.yul\":12257:12267   */\n      0x00\n        /* \"#utility.yul\":12278:12324   */\n      tag_438\n        /* \"#utility.yul\":12320:12323   */\n      dup4\n        /* \"#utility.yul\":12312:12318   */\n      dup4\n        /* \"#utility.yul\":12278:12324   */\n      tag_268\n      jump\t// in\n    tag_438:\n        /* \"#utility.yul\":12356:12360   */\n      0x20\n        /* \"#utility.yul\":12351:12354   */\n      dup4\n        /* \"#utility.yul\":12347:12361   */\n      add\n        /* \"#utility.yul\":12333:12361   */\n      swap1\n      pop\n        /* \"#utility.yul\":12188:12367   */\n      swap3\n      swap2\n      pop\n      pop\n      jump\t// out\n        /* \"#utility.yul\":12373:12486   */\n    tag_270:\n        /* \"#utility.yul\":12443:12447   */\n      0x00\n        /* \"#utility.yul\":12475:12479   */\n      0x20\n        /* \"#utility.yul\":12470:12473   */\n      dup3\n        /* \"#utility.yul\":12466:12480   */\n      add\n        /* \"#utility.yul\":12458:12480   */\n      swap1\n      pop\n        /* \"#utility.yul\":12373:12486   */\n      swap2\n      swap1\n      pop\n      jump\t// out\n        /* \"#utility.yul\":12522:13254   */\n    tag_271:\n        /* \"#utility.yul\":12641:12644   */\n      0x00\n        /* \"#utility.yul\":12670:12724   */\n      tag_441\n        /* \"#utility.yul\":12718:12723   */\n      dup3\n        /* \"#utility.yul\":12670:12724   */\n      tag_265\n      jump\t// in\n    tag_441:\n        /* \"#utility.yul\":12740:12826   */\n      tag_442\n        /* \"#utility.yul\":12819:12825   */\n      dup2\n        /* \"#utility.yul\":12814:12817   */\n      dup6\n        /* \"#utility.yul\":12740:12826   */\n      tag_266\n      jump\t// in\n    tag_442:\n        /* \"#utility.yul\":12733:12826   */\n      swap4\n      pop\n        /* \"#utility.yul\":12850:12906   */\n      tag_443\n        /* \"#utility.yul\":12900:12905   */\n      dup4\n        /* \"#utility.yul\":12850:12906   */\n      tag_267\n      jump\t// in\n    tag_443:\n        /* \"#utility.yul\":12929:12936   */\n      dup1\n        /* \"#utility.yul\":12960:12961   */\n      0x00\n        /* \"#utility.yul\":12945:13229   */\n    tag_444:\n        /* \"#utility.yul\":12970:12976   */\n      dup4\n        /* \"#utility.yul\":12967:12968   */\n      dup2\n        /* \"#utility.yul\":12964:12977   */\n      lt\n        /* \"#utility.yul\":12945:13229   */\n      iszero\n      tag_446\n      jumpi\n        /* \"#utility.yul\":13046:13052   */\n      dup2\n        /* \"#utility.yul\":13040:13053   */\n      mload\n        /* \"#utility.yul\":13073:13136   */\n      tag_447\n        /* \"#utility.yul\":13132:13135   */\n      dup9\n        /* \"#utility.yul\":13117:13130   */\n      dup3\n        /* \"#utility.yul\":13073:13136   */\n      tag_269\n      jump\t// in\n    tag_447:\n        /* \"#utility.yul\":13066:13136   */\n      swap8\n      pop\n        /* \"#utility.yul\":13159:13219   */\n      tag_448\n        /* \"#utility.yul\":13212:13218   */\n      dup4\n        /* \"#utility.yul\":13159:13219   */\n      tag_270\n      jump\t// in\n    tag_448:\n        /* \"#utility.yul\":13149:13219   */\n      swap3\n      pop\n        /* \"#utility.yul\":13005:13229   */\n      pop\n        /* \"#utility.yul\":12992:12993   */\n      0x01\n        /* \"#utility.yul\":12989:12990   */\n      dup2\n        /* \"#utility.yul\":12985:12994   */\n      add\n        /* \"#utility.yul\":12980:12994   */\n      swap1\n      pop\n        /* \"#utility.yul\":12945:13229   */\n      jump(tag_444)\n    tag_446:\n        /* \"#utility.yul\":12949:12963   */\n      pop\n        /* \"#utility.yul\":13245:13248   */\n      dup6\n        /* \"#utility.yul\":13238:13248   */\n      swap4\n      pop\n        /* \"#utility.yul\":12646:13254   */\n      pop\n      pop\n      pop\n        /* \"#utility.yul\":12522:13254   */\n      swap3\n      swap2\n      pop\n      pop\n      jump\t// out\n        /* \"#utility.yul\":13260:13633   */\n    tag_66:\n        /* \"#utility.yul\":13403:13407   */\n      0x00\n        /* \"#utility.yul\":13441:13443   */\n      0x20\n        /* \"#utility.yul\":13430:13439   */\n      dup3\n        /* \"#utility.yul\":13426:13444   */\n      add\n        /* \"#utility.yul\":13418:13444   */\n      swap1\n      pop\n        /* \"#utility.yul\":13490:13499   */\n      dup2\n        /* \"#utility.yul\":13484:13488   */\n      dup2\n        /* \"#utility.yul\":13480:13500   */\n      sub\n        /* \"#utility.yul\":13476:13477   */\n      0x00\n        /* \"#utility.yul\":13465:13474   */\n      dup4\n        /* \"#utility.yul\":13461:13478   */\n      add\n        /* \"#utility.yul\":13454:13501   */\n      mstore\n        /* \"#utility.yul\":13518:13626   */\n      tag_450\n        /* \"#utility.yul\":13621:13625   */\n      dup2\n        /* \"#utility.yul\":13612:13618   */\n      dup5\n        /* \"#utility.yul\":13518:13626   */\n      tag_271\n      jump\t// in\n    tag_450:\n        /* \"#utility.yul\":13510:13626   */\n      swap1\n      pop\n        /* \"#utility.yul\":13260:13633   */\n      swap3\n      swap2\n      pop\n      pop\n      jump\t// out\n        /* \"#utility.yul\":13639:13729   */\n    tag_272:\n        /* \"#utility.yul\":13673:13680   */\n      0x00\n        /* \"#utility.yul\":13716:13721   */\n      dup2\n        /* \"#utility.yul\":13709:13722   */\n      iszero\n        /* \"#utility.yul\":13702:13723   */\n      iszero\n        /* \"#utility.yul\":13691:13723   */\n      swap1\n      pop\n        /* \"#utility.yul\":13639:13729   */\n      swap2\n      swap1\n      pop\n      jump\t// out\n        /* \"#utility.yul\":13735:13844   */\n    tag_273:\n        /* \"#utility.yul\":13816:13837   */\n      tag_453\n        /* \"#utility.yul\":13831:13836   */\n      dup2\n        /* \"#utility.yul\":13816:13837   */\n      tag_272\n      jump\t// in\n    tag_453:\n        /* \"#utility.yul\":13811:13814   */\n      dup3\n        /* \"#utility.yul\":13804:13838   */\n      mstore\n        /* \"#utility.yul\":13735:13844   */\n      pop\n      pop\n      jump\t// out\n        /* \"#utility.yul\":13850:14268   */\n    tag_71:\n        /* \"#utility.yul\":13987:13991   */\n      0x00\n        /* \"#utility.yul\":14025:14027   */\n      0x60\n        /* \"#utility.yul\":14014:14023   */\n      dup3\n        /* \"#utility.yul\":14010:14028   */\n      add\n        /* \"#utility.yul\":14002:14028   */\n      swap1\n      pop\n        /* \"#utility.yul\":14038:14103   */\n      tag_455\n        /* \"#utility.yul\":14100:14101   */\n      0x00\n        /* \"#utility.yul\":14089:14098   */\n      dup4\n        /* \"#utility.yul\":14085:14102   */\n      add\n        /* \"#utility.yul\":14076:14082   */\n      dup7\n        /* \"#utility.yul\":14038:14103   */\n      tag_273\n      jump\t// in\n    tag_455:\n        /* \"#utility.yul\":14113:14179   */\n      tag_456\n        /* \"#utility.yul\":14175:14177   */\n      0x20\n        /* \"#utility.yul\":14164:14173   */\n      dup4\n        /* \"#utility.yul\":14160:14178   */\n      add\n        /* \"#utility.yul\":14151:14157   */\n      dup6\n        /* \"#utility.yul\":14113:14179   */\n      tag_273\n      jump\t// in\n    tag_456:\n        /* \"#utility.yul\":14189:14261   */\n      tag_457\n        /* \"#utility.yul\":14257:14259   */\n      0x40\n        /* \"#utility.yul\":14246:14255   */\n      dup4\n        /* \"#utility.yul\":14242:14260   */\n      add\n        /* \"#utility.yul\":14233:14239   */\n      dup5\n        /* \"#utility.yul\":14189:14261   */\n      tag_236\n      jump\t// in\n    tag_457:\n        /* \"#utility.yul\":13850:14268   */\n      swap5\n      swap4\n      pop\n      pop\n      pop\n      pop\n      jump\t// out\n        /* \"#utility.yul\":14274:14391   */\n    tag_274:\n        /* \"#utility.yul\":14365:14366   */\n      0x06\n        /* \"#utility.yul\":14358:14363   */\n      dup2\n        /* \"#utility.yul\":14355:14367   */\n      lt\n        /* \"#utility.yul\":14345:14385   */\n      tag_459\n      jumpi\n        /* \"#utility.yul\":14381:14382   */\n      0x00\n        /* \"#utility.yul\":14378:14379   */\n      dup1\n        /* \"#utility.yul\":14371:14383   */\n      revert\n        /* \"#utility.yul\":14345:14385   */\n    tag_459:\n        /* \"#utility.yul\":14274:14391   */\n      pop\n      jump\t// out\n        /* \"#utility.yul\":14397:14572   */\n    tag_275:\n        /* \"#utility.yul\":14461:14466   */\n      0x00\n        /* \"#utility.yul\":14499:14505   */\n      dup2\n        /* \"#utility.yul\":14486:14506   */\n      calldataload\n        /* \"#utility.yul\":14477:14506   */\n      swap1\n      pop\n        /* \"#utility.yul\":14515:14566   */\n      tag_461\n        /* \"#utility.yul\":14560:14565   */\n      dup2\n        /* \"#utility.yul\":14515:14566   */\n      tag_274\n      jump\t// in\n    tag_461:\n        /* \"#utility.yul\":14397:14572   */\n      swap3\n      swap2\n      pop\n      pop\n      jump\t// out\n        /* \"#utility.yul\":14578:14943   */\n    tag_74:\n        /* \"#utility.yul\":14655:14661   */\n      0x00\n        /* \"#utility.yul\":14704:14706   */\n      0x20\n        /* \"#utility.yul\":14692:14701   */\n      dup3\n        /* \"#utility.yul\":14683:14690   */\n      dup5\n        /* \"#utility.yul\":14679:14702   */\n      sub\n        /* \"#utility.yul\":14675:14707   */\n      slt\n        /* \"#utility.yul\":14672:14791   */\n      iszero\n      tag_463\n      jumpi\n        /* \"#utility.yul\":14710:14789   */\n      tag_464\n      tag_226\n      jump\t// in\n    tag_464:\n        /* \"#utility.yul\":14672:14791   */\n    tag_463:\n        /* \"#utility.yul\":14830:14831   */\n      0x00\n        /* \"#utility.yul\":14855:14926   */\n      tag_465\n        /* \"#utility.yul\":14918:14925   */\n      dup5\n        /* \"#utility.yul\":14909:14915   */\n      dup3\n        /* \"#utility.yul\":14898:14907   */\n      dup6\n        /* \"#utility.yul\":14894:14916   */\n      add\n        /* \"#utility.yul\":14855:14926   */\n      tag_275\n      jump\t// in\n    tag_465:\n        /* \"#utility.yul\":14845:14926   */\n      swap2\n      pop\n        /* \"#utility.yul\":14801:14936   */\n      pop\n        /* \"#utility.yul\":14578:14943   */\n      swap3\n      swap2\n      pop\n      pop\n      jump\t// out\n        /* \"#utility.yul\":14949:15129   */\n    tag_276:\n        /* \"#utility.yul\":14997:15074   */\n      0x4e487b7100000000000000000000000000000000000000000000000000000000\n        /* \"#utility.yul\":14994:14995   */\n      0x00\n        /* \"#utility.yul\":14987:15075   */\n      mstore\n        /* \"#utility.yul\":15094:15098   */\n      0x22\n        /* \"#utility.yul\":15091:15092   */\n      0x04\n        /* \"#utility.yul\":15084:15099   */\n      mstore\n        /* \"#utility.yul\":15118:15122   */\n      0x24\n        /* \"#utility.yul\":15115:15116   */\n      0x00\n        /* \"#utility.yul\":15108:15123   */\n      revert\n        /* \"#utility.yul\":15135:15455   */\n    tag_89:\n        /* \"#utility.yul\":15179:15185   */\n      0x00\n        /* \"#utility.yul\":15216:15217   */\n      0x02\n        /* \"#utility.yul\":15210:15214   */\n      dup3\n        /* \"#utility.yul\":15206:15218   */\n      div\n        /* \"#utility.yul\":15196:15218   */\n      swap1\n      pop\n        /* \"#utility.yul\":15263:15264   */\n      0x01\n        /* \"#utility.yul\":15257:15261   */\n      dup3\n        /* \"#utility.yul\":15253:15265   */\n      and\n        /* \"#utility.yul\":15284:15302   */\n      dup1\n        /* \"#utility.yul\":15274:15355   */\n      tag_468\n      jumpi\n        /* \"#utility.yul\":15340:15344   */\n      0x7f\n        /* \"#utility.yul\":15332:15338   */\n      dup3\n        /* \"#utility.yul\":15328:15345   */\n      and\n        /* \"#utility.yul\":15318:15345   */\n      swap2\n      pop\n        /* \"#utility.yul\":15274:15355   */\n    tag_468:\n        /* \"#utility.yul\":15402:15404   */\n      0x20\n        /* \"#utility.yul\":15394:15400   */\n      dup3\n        /* \"#utility.yul\":15391:15405   */\n      lt\n        /* \"#utility.yul\":15371:15389   */\n      dup2\n        /* \"#utility.yul\":15368:15406   */\n      sub\n        /* \"#utility.yul\":15365:15449   */\n      tag_469\n      jumpi\n        /* \"#utility.yul\":15421:15439   */\n      tag_470\n      tag_276\n      jump\t// in\n    tag_470:\n        /* \"#utility.yul\":15365:15449   */\n    tag_469:\n        /* \"#utility.yul\":15186:15455   */\n      pop\n        /* \"#utility.yul\":15135:15455   */\n      swap2\n      swap1\n      pop\n      jump\t// out\n        /* \"#utility.yul\":15461:15643   */\n    tag_277:\n        /* \"#utility.yul\":15601:15635   */\n      0x4f776e61626c653a2063616c6c6572206973206e6f7420746865206f776e6572\n        /* \"#utility.yul\":15597:15598   */\n      0x00\n        /* \"#utility.yul\":15589:15595   */\n      dup3\n        /* \"#utility.yul\":15585:15599   */\n      add\n        /* \"#utility.yul\":15578:15636   */\n      mstore\n        /* \"#utility.yul\":15461:15643   */\n      pop\n      jump\t// out\n        /* \"#utility.yul\":15649:16015   */\n    tag_278:\n        /* \"#utility.yul\":15791:15794   */\n      0x00\n        /* \"#utility.yul\":15812:15879   */\n      tag_473\n        /* \"#utility.yul\":15876:15878   */\n      0x20\n        /* \"#utility.yul\":15871:15874   */\n      dup4\n        /* \"#utility.yul\":15812:15879   */\n      tag_232\n      jump\t// in\n    tag_473:\n        /* \"#utility.yul\":15805:15879   */\n      swap2\n      pop\n        /* \"#utility.yul\":15888:15981   */\n      tag_474\n        /* \"#utility.yul\":15977:15980   */\n      dup3\n        /* \"#utility.yul\":15888:15981   */\n      tag_277\n      jump\t// in\n    tag_474:\n        /* \"#utility.yul\":16006:16008   */\n      0x20\n        /* \"#utility.yul\":16001:16004   */\n      dup3\n        /* \"#utility.yul\":15997:16009   */\n      add\n        /* \"#utility.yul\":15990:16009   */\n      swap1\n      pop\n        /* \"#utility.yul\":15649:16015   */\n      swap2\n      swap1\n      pop\n      jump\t// out\n        /* \"#utility.yul\":16021:16440   */\n    tag_100:\n        /* \"#utility.yul\":16187:16191   */\n      0x00\n        /* \"#utility.yul\":16225:16227   */\n      0x20\n        /* \"#utility.yul\":16214:16223   */\n      dup3\n        /* \"#utility.yul\":16210:16228   */\n      add\n        /* \"#utility.yul\":16202:16228   */\n      swap1\n      pop\n        /* \"#utility.yul\":16274:16283   */\n      dup2\n        /* \"#utility.yul\":16268:16272   */\n      dup2\n        /* \"#utility.yul\":16264:16284   */\n      sub\n        /* \"#utility.yul\":16260:16261   */\n      0x00\n        /* \"#utility.yul\":16249:16258   */\n      dup4\n        /* \"#utility.yul\":16245:16262   */\n      add\n        /* \"#utility.yul\":16238:16285   */\n      mstore\n        /* \"#utility.yul\":16302:16433   */\n      tag_476\n        /* \"#utility.yul\":16428:16432   */\n      dup2\n        /* \"#utility.yul\":16302:16433   */\n      tag_278\n      jump\t// in\n    tag_476:\n        /* \"#utility.yul\":16294:16433   */\n      swap1\n      pop\n        /* \"#utility.yul\":16021:16440   */\n      swap2\n      swap1\n      pop\n      jump\t// out\n        /* \"#utility.yul\":16446:16622   */\n    tag_279:\n        /* \"#utility.yul\":16586:16614   */\n      0x796f752061726520616c72656164792072656769737465726564000000000000\n        /* \"#utility.yul\":16582:16583   */\n      0x00\n        /* \"#utility.yul\":16574:16580   */\n      dup3\n        /* \"#utility.yul\":16570:16584   */\n      add\n        /* \"#utility.yul\":16563:16615   */\n      mstore\n        /* \"#utility.yul\":16446:16622   */\n      pop\n      jump\t// out\n        /* \"#utility.yul\":16628:16994   */\n    tag_280:\n        /* \"#utility.yul\":16770:16773   */\n      0x00\n        /* \"#utility.yul\":16791:16858   */\n      tag_479\n        /* \"#utility.yul\":16855:16857   */\n      0x1a\n        /* \"#utility.yul\":16850:16853   */\n      dup4\n        /* \"#utility.yul\":16791:16858   */\n      tag_232\n      jump\t// in\n    tag_479:\n        /* \"#utility.yul\":16784:16858   */\n      swap2\n      pop\n        /* \"#utility.yul\":16867:16960   */\n      tag_480\n        /* \"#utility.yul\":16956:16959   */\n      dup3\n        /* \"#utility.yul\":16867:16960   */\n      tag_279\n      jump\t// in\n    tag_480:\n        /* \"#utility.yul\":16985:16987   */\n      0x20\n        /* \"#utility.yul\":16980:16983   */\n      dup3\n        /* \"#utility.yul\":16976:16988   */\n      add\n        /* \"#utility.yul\":16969:16988   */\n      swap1\n      pop\n        /* \"#utility.yul\":16628:16994   */\n      swap2\n      swap1\n      pop\n      jump\t// out\n        /* \"#utility.yul\":17000:17419   */\n    tag_111:\n        /* \"#utility.yul\":17166:17170   */\n      0x00\n        /* \"#utility.yul\":17204:17206   */\n      0x20\n        /* \"#utility.yul\":17193:17202   */\n      dup3\n        /* \"#utility.yul\":17189:17207   */\n      add\n        /* \"#utility.yul\":17181:17207   */\n      swap1\n      pop\n        /* \"#utility.yul\":17253:17262   */\n      dup2\n        /* \"#utility.yul\":17247:17251   */\n      dup2\n        /* \"#utility.yul\":17243:17263   */\n      sub\n        /* \"#utility.yul\":17239:17240   */\n      0x00\n        /* \"#utility.yul\":17228:17237   */\n      dup4\n        /* \"#utility.yul\":17224:17241   */\n      add\n        /* \"#utility.yul\":17217:17264   */\n      mstore\n        /* \"#utility.yul\":17281:17412   */\n      tag_482\n        /* \"#utility.yul\":17407:17411   */\n      dup2\n        /* \"#utility.yul\":17281:17412   */\n      tag_280\n      jump\t// in\n    tag_482:\n        /* \"#utility.yul\":17273:17412   */\n      swap1\n      pop\n        /* \"#utility.yul\":17000:17419   */\n      swap2\n      swap1\n      pop\n      jump\t// out\n        /* \"#utility.yul\":17425:17598   */\n    tag_281:\n        /* \"#utility.yul\":17565:17590   */\n      0x61646472657373206e6f742077686974656c6973746564000000000000000000\n        /* \"#utility.yul\":17561:17562   */\n      0x00\n        /* \"#utility.yul\":17553:17559   */\n      dup3\n        /* \"#utility.yul\":17549:17563   */\n      add\n        /* \"#utility.yul\":17542:17591   */\n      mstore\n        /* \"#utility.yul\":17425:17598   */\n      pop\n      jump\t// out\n        /* \"#utility.yul\":17604:17970   */\n    tag_282:\n        /* \"#utility.yul\":17746:17749   */\n      0x00\n        /* \"#utility.yul\":17767:17834   */\n      tag_485\n        /* \"#utility.yul\":17831:17833   */\n      0x17\n        /* \"#utility.yul\":17826:17829   */\n      dup4\n        /* \"#utility.yul\":17767:17834   */\n      tag_232\n      jump\t// in\n    tag_485:\n        /* \"#utility.yul\":17760:17834   */\n      swap2\n      pop\n        /* \"#utility.yul\":17843:17936   */\n      tag_486\n        /* \"#utility.yul\":17932:17935   */\n      dup3\n        /* \"#utility.yul\":17843:17936   */\n      tag_281\n      jump\t// in\n    tag_486:\n        /* \"#utility.yul\":17961:17963   */\n      0x20\n        /* \"#utility.yul\":17956:17959   */\n      dup3\n        /* \"#utility.yul\":17952:17964   */\n      add\n        /* \"#utility.yul\":17945:17964   */\n      swap1\n      pop\n        /* \"#utility.yul\":17604:17970   */\n      swap2\n      swap1\n      pop\n      jump\t// out\n        /* \"#utility.yul\":17976:18395   */\n    tag_117:\n        /* \"#utility.yul\":18142:18146   */\n      0x00\n        /* \"#utility.yul\":18180:18182   */\n      0x20\n        /* \"#utility.yul\":18169:18178   */\n      dup3\n        /* \"#utility.yul\":18165:18183   */\n      add\n        /* \"#utility.yul\":18157:18183   */\n      swap1\n      pop\n        /* \"#utility.yul\":18229:18238   */\n      dup2\n        /* \"#utility.yul\":18223:18227   */\n      dup2\n        /* \"#utility.yul\":18219:18239   */\n      sub\n        /* \"#utility.yul\":18215:18216   */\n      0x00\n        /* \"#utility.yul\":18204:18213   */\n      dup4\n        /* \"#utility.yul\":18200:18217   */\n      add\n        /* \"#utility.yul\":18193:18240   */\n      mstore\n        /* \"#utility.yul\":18257:18388   */\n      tag_488\n        /* \"#utility.yul\":18383:18387   */\n      dup2\n        /* \"#utility.yul\":18257:18388   */\n      tag_282\n      jump\t// in\n    tag_488:\n        /* \"#utility.yul\":18249:18388   */\n      swap1\n      pop\n        /* \"#utility.yul\":17976:18395   */\n      swap2\n      swap1\n      pop\n      jump\t// out\n        /* \"#utility.yul\":18401:18580   */\n    tag_283:\n        /* \"#utility.yul\":18541:18572   */\n      0x50726f706f73616c7320617265206e6f7420616c6c6f77656420796574000000\n        /* \"#utility.yul\":18537:18538   */\n      0x00\n        /* \"#utility.yul\":18529:18535   */\n      dup3\n        /* \"#utility.yul\":18525:18539   */\n      add\n        /* \"#utility.yul\":18518:18573   */\n      mstore\n        /* \"#utility.yul\":18401:18580   */\n      pop\n      jump\t// out\n        /* \"#utility.yul\":18586:18952   */\n    tag_284:\n        /* \"#utility.yul\":18728:18731   */\n      0x00\n        /* \"#utility.yul\":18749:18816   */\n      tag_491\n        /* \"#utility.yul\":18813:18815   */\n      0x1d\n        /* \"#utility.yul\":18808:18811   */\n      dup4\n        /* \"#utility.yul\":18749:18816   */\n      tag_232\n      jump\t// in\n    tag_491:\n        /* \"#utility.yul\":18742:18816   */\n      swap2\n      pop\n        /* \"#utility.yul\":18825:18918   */\n      tag_492\n        /* \"#utility.yul\":18914:18917   */\n      dup3\n        /* \"#utility.yul\":18825:18918   */\n      tag_283\n      jump\t// in\n    tag_492:\n        /* \"#utility.yul\":18943:18945   */\n      0x20\n        /* \"#utility.yul\":18938:18941   */\n      dup3\n        /* \"#utility.yul\":18934:18946   */\n      add\n        /* \"#utility.yul\":18927:18946   */\n      swap1\n      pop\n        /* \"#utility.yul\":18586:18952   */\n      swap2\n      swap1\n      pop\n      jump\t// out\n        /* \"#utility.yul\":18958:19377   */\n    tag_124:\n        /* \"#utility.yul\":19124:19128   */\n      0x00\n        /* \"#utility.yul\":19162:19164   */\n      0x20\n        /* \"#utility.yul\":19151:19160   */\n      dup3\n        /* \"#utility.yul\":19147:19165   */\n      add\n        /* \"#utility.yul\":19139:19165   */\n      swap1\n      pop\n        /* \"#utility.yul\":19211:19220   */\n      dup2\n        /* \"#utility.yul\":19205:19209   */\n      dup2\n        /* \"#utility.yul\":19201:19221   */\n      sub\n        /* \"#utility.yul\":19197:19198   */\n      0x00\n        /* \"#utility.yul\":19186:19195   */\n      dup4\n        /* \"#utility.yul\":19182:19199   */\n      add\n        /* \"#utility.yul\":19175:19222   */\n      mstore\n        /* \"#utility.yul\":19239:19370   */\n      tag_494\n        /* \"#utility.yul\":19365:19369   */\n      dup2\n        /* \"#utility.yul\":19239:19370   */\n      tag_284\n      jump\t// in\n    tag_494:\n        /* \"#utility.yul\":19231:19370   */\n      swap1\n      pop\n        /* \"#utility.yul\":18958:19377   */\n      swap2\n      swap1\n      pop\n      jump\t// out\n        /* \"#utility.yul\":19383:19524   */\n    tag_285:\n        /* \"#utility.yul\":19432:19436   */\n      0x00\n        /* \"#utility.yul\":19455:19458   */\n      dup2\n        /* \"#utility.yul\":19447:19458   */\n      swap1\n      pop\n        /* \"#utility.yul\":19478:19481   */\n      dup2\n        /* \"#utility.yul\":19475:19476   */\n      0x00\n        /* \"#utility.yul\":19468:19482   */\n      mstore\n        /* \"#utility.yul\":19512:19516   */\n      0x20\n        /* \"#utility.yul\":19509:19510   */\n      0x00\n        /* \"#utility.yul\":19499:19517   */\n      keccak256\n        /* \"#utility.yul\":19491:19517   */\n      swap1\n      pop\n        /* \"#utility.yul\":19383:19524   */\n      swap2\n      swap1\n      pop\n      jump\t// out\n        /* \"#utility.yul\":19530:19623   */\n    tag_286:\n        /* \"#utility.yul\":19567:19573   */\n      0x00\n        /* \"#utility.yul\":19614:19616   */\n      0x20\n        /* \"#utility.yul\":19609:19611   */\n      0x1f\n        /* \"#utility.yul\":19602:19607   */\n      dup4\n        /* \"#utility.yul\":19598:19612   */\n      add\n        /* \"#utility.yul\":19594:19617   */\n      div\n        /* \"#utility.yul\":19584:19617   */\n      swap1\n      pop\n        /* \"#utility.yul\":19530:19623   */\n      swap2\n      swap1\n      pop\n      jump\t// out\n        /* \"#utility.yul\":19629:19736   */\n    tag_287:\n        /* \"#utility.yul\":19673:19681   */\n      0x00\n        /* \"#utility.yul\":19723:19728   */\n      dup3\n        /* \"#utility.yul\":19717:19721   */\n      dup3\n        /* \"#utility.yul\":19713:19729   */\n      shl\n        /* \"#utility.yul\":19692:19729   */\n      swap1\n      pop\n        /* \"#utility.yul\":19629:19736   */\n      swap3\n      swap2\n      pop\n      pop\n      jump\t// out\n        /* \"#utility.yul\":19742:20135   */\n    tag_288:\n        /* \"#utility.yul\":19811:19817   */\n      0x00\n        /* \"#utility.yul\":19861:19862   */\n      0x08\n        /* \"#utility.yul\":19849:19859   */\n      dup4\n        /* \"#utility.yul\":19845:19863   */\n      mul\n        /* \"#utility.yul\":19884:19981   */\n      tag_499\n        /* \"#utility.yul\":19914:19980   */\n      0xffffffffffffffffffffffffffffffffffffffffffffffffffffffffffffffff\n        /* \"#utility.yul\":19903:19912   */\n      dup3\n        /* \"#utility.yul\":19884:19981   */\n      tag_287\n      jump\t// in\n    tag_499:\n        /* \"#utility.yul\":20002:20041   */\n      tag_500\n        /* \"#utility.yul\":20032:20040   */\n      dup7\n        /* \"#utility.yul\":20021:20030   */\n      dup4\n        /* \"#utility.yul\":20002:20041   */\n      tag_287\n      jump\t// in\n    tag_500:\n        /* \"#utility.yul\":19990:20041   */\n      swap6\n      pop\n        /* \"#utility.yul\":20074:20078   */\n      dup1\n        /* \"#utility.yul\":20070:20079   */\n      not\n        /* \"#utility.yul\":20063:20068   */\n      dup5\n        /* \"#utility.yul\":20059:20080   */\n      and\n        /* \"#utility.yul\":20050:20080   */\n      swap4\n      pop\n        /* \"#utility.yul\":20123:20127   */\n      dup1\n        /* \"#utility.yul\":20113:20121   */\n      dup7\n        /* \"#utility.yul\":20109:20128   */\n      and\n        /* \"#utility.yul\":20102:20107   */\n      dup5\n        /* \"#utility.yul\":20099:20129   */\n      or\n        /* \"#utility.yul\":20089:20129   */\n      swap3\n      pop\n        /* \"#utility.yul\":19818:20135   */\n      pop\n      pop\n        /* \"#utility.yul\":19742:20135   */\n      swap4\n      swap3\n      pop\n      pop\n      pop\n      jump\t// out\n        /* \"#utility.yul\":20141:20201   */\n    tag_289:\n        /* \"#utility.yul\":20169:20172   */\n      0x00\n        /* \"#utility.yul\":20190:20195   */\n      dup2\n        /* \"#utility.yul\":20183:20195   */\n      swap1\n      pop\n        /* \"#utility.yul\":20141:20201   */\n      swap2\n      swap1\n      pop\n      jump\t// out\n        /* \"#utility.yul\":20207:20349   */\n    tag_290:\n        /* \"#utility.yul\":20257:20266   */\n      0x00\n        /* \"#utility.yul\":20290:20343   */\n      tag_503\n        /* \"#utility.yul\":20308:20342   */\n      tag_504\n        /* \"#utility.yul\":20317:20341   */\n      tag_505\n        /* \"#utility.yul\":20335:20340   */\n      dup5\n        /* \"#utility.yul\":20317:20341   */\n      tag_228\n      jump\t// in\n    tag_505:\n        /* \"#utility.yul\":20308:20342   */\n      tag_289\n      jump\t// in\n    tag_504:\n        /* \"#utility.yul\":20290:20343   */\n      tag_228\n      jump\t// in\n    tag_503:\n        /* \"#utility.yul\":20277:20343   */\n      swap1\n      pop\n        /* \"#utility.yul\":20207:20349   */\n      swap2\n      swap1\n      pop\n      jump\t// out\n        /* \"#utility.yul\":20355:20430   */\n    tag_291:\n        /* \"#utility.yul\":20398:20401   */\n      0x00\n        /* \"#utility.yul\":20419:20424   */\n      dup2\n        /* \"#utility.yul\":20412:20424   */\n      swap1\n      pop\n        /* \"#utility.yul\":20355:20430   */\n      swap2\n      swap1\n      pop\n      jump\t// out\n        /* \"#utility.yul\":20436:20705   */\n    tag_292:\n        /* \"#utility.yul\":20546:20585   */\n      tag_508\n        /* \"#utility.yul\":20577:20584   */\n      dup4\n        /* \"#utility.yul\":20546:20585   */\n      tag_290\n      jump\t// in\n    tag_508:\n        /* \"#utility.yul\":20607:20698   */\n      tag_509\n        /* \"#utility.yul\":20656:20697   */\n      tag_510\n        /* \"#utility.yul\":20680:20696   */\n      dup3\n        /* \"#utility.yul\":20656:20697   */\n      tag_291\n      jump\t// in\n    tag_510:\n        /* \"#utility.yul\":20648:20654   */\n      dup5\n        /* \"#utility.yul\":20641:20645   */\n      dup5\n        /* \"#utility.yul\":20635:20646   */\n      sload\n        /* \"#utility.yul\":20607:20698   */\n      tag_288\n      jump\t// in\n    tag_509:\n        /* \"#utility.yul\":20601:20605   */\n      dup3\n        /* \"#utility.yul\":20594:20699   */\n      sstore\n        /* \"#utility.yul\":20512:20705   */\n      pop\n        /* \"#utility.yul\":20436:20705   */\n      pop\n      pop\n      pop\n      jump\t// out\n        /* \"#utility.yul\":20711:20784   */\n    tag_293:\n        /* \"#utility.yul\":20756:20759   */\n      0x00\n        /* \"#utility.yul\":20711:20784   */\n      swap1\n      jump\t// out\n        /* \"#utility.yul\":20790:20979   */\n    tag_294:\n        /* \"#utility.yul\":20867:20899   */\n      tag_513\n      tag_293\n      jump\t// in\n    tag_513:\n        /* \"#utility.yul\":20908:20973   */\n      tag_514\n        /* \"#utility.yul\":20966:20972   */\n      dup2\n        /* \"#utility.yul\":20958:20964   */\n      dup5\n        /* \"#utility.yul\":20952:20956   */\n      dup5\n        /* \"#utility.yul\":20908:20973   */\n      tag_292\n      jump\t// in\n    tag_514:\n        /* \"#utility.yul\":20843:20979   */\n      pop\n        /* \"#utility.yul\":20790:20979   */\n      pop\n      pop\n      jump\t// out\n        /* \"#utility.yul\":20985:21171   */\n    tag_295:\n        /* \"#utility.yul\":21045:21165   */\n    tag_516:\n        /* \"#utility.yul\":21062:21065   */\n      dup2\n        /* \"#utility.yul\":21055:21060   */\n      dup2\n        /* \"#utility.yul\":21052:21066   */\n      lt\n        /* \"#utility.yul\":21045:21165   */\n      iszero\n      tag_518\n      jumpi\n        /* \"#utility.yul\":21116:21155   */\n      tag_519\n        /* \"#utility.yul\":21153:21154   */\n      0x00\n        /* \"#utility.yul\":21146:21151   */\n      dup3\n        /* \"#utility.yul\":21116:21155   */\n      tag_294\n      jump\t// in\n    tag_519:\n        /* \"#utility.yul\":21089:21090   */\n      0x01\n        /* \"#utility.yul\":21082:21087   */\n      dup2\n        /* \"#utility.yul\":21078:21091   */\n      add\n        /* \"#utility.yul\":21069:21091   */\n      swap1\n      pop\n        /* \"#utility.yul\":21045:21165   */\n      jump(tag_516)\n    tag_518:\n        /* \"#utility.yul\":20985:21171   */\n      pop\n      pop\n      jump\t// out\n        /* \"#utility.yul\":21177:21720   */\n    tag_296:\n        /* \"#utility.yul\":21278:21280   */\n      0x1f\n        /* \"#utility.yul\":21273:21276   */\n      dup3\n        /* \"#utility.yul\":21270:21281   */\n      gt\n        /* \"#utility.yul\":21267:21713   */\n      iszero\n      tag_521\n      jumpi\n        /* \"#utility.yul\":21312:21350   */\n      tag_522\n        /* \"#utility.yul\":21344:21349   */\n      dup2\n        /* \"#utility.yul\":21312:21350   */\n      tag_285\n      jump\t// in\n    tag_522:\n        /* \"#utility.yul\":21396:21425   */\n      tag_523\n        /* \"#utility.yul\":21414:21424   */\n      dup5\n        /* \"#utility.yul\":21396:21425   */\n      tag_286\n      jump\t// in\n    tag_523:\n        /* \"#utility.yul\":21386:21394   */\n      dup2\n        /* \"#utility.yul\":21382:21426   */\n      add\n        /* \"#utility.yul\":21579:21581   */\n      0x20\n        /* \"#utility.yul\":21567:21577   */\n      dup6\n        /* \"#utility.yul\":21564:21582   */\n      lt\n        /* \"#utility.yul\":21561:21610   */\n      iszero\n      tag_524\n      jumpi\n        /* \"#utility.yul\":21600:21608   */\n      dup2\n        /* \"#utility.yul\":21585:21608   */\n      swap1\n      pop\n        /* \"#utility.yul\":21561:21610   */\n    tag_524:\n        /* \"#utility.yul\":21623:21703   */\n      tag_525\n        /* \"#utility.yul\":21679:21701   */\n      tag_526\n        /* \"#utility.yul\":21697:21700   */\n      dup6\n        /* \"#utility.yul\":21679:21701   */\n      tag_286\n      jump\t// in\n    tag_526:\n        /* \"#utility.yul\":21669:21677   */\n      dup4\n        /* \"#utility.yul\":21665:21702   */\n      add\n        /* \"#utility.yul\":21652:21663   */\n      dup3\n        /* \"#utility.yul\":21623:21703   */\n      tag_295\n      jump\t// in\n    tag_525:\n        /* \"#utility.yul\":21282:21713   */\n      pop\n      pop\n        /* \"#utility.yul\":21267:21713   */\n    tag_521:\n        /* \"#utility.yul\":21177:21720   */\n      pop\n      pop\n      pop\n      jump\t// out\n        /* \"#utility.yul\":21726:21843   */\n    tag_297:\n        /* \"#utility.yul\":21780:21788   */\n      0x00\n        /* \"#utility.yul\":21830:21835   */\n      dup3\n        /* \"#utility.yul\":21824:21828   */\n      dup3\n        /* \"#utility.yul\":21820:21836   */\n      shr\n        /* \"#utility.yul\":21799:21836   */\n      swap1\n      pop\n        /* \"#utility.yul\":21726:21843   */\n      swap3\n      swap2\n      pop\n      pop\n      jump\t// out\n        /* \"#utility.yul\":21849:22018   */\n    tag_298:\n        /* \"#utility.yul\":21893:21899   */\n      0x00\n        /* \"#utility.yul\":21926:21977   */\n      tag_529\n        /* \"#utility.yul\":21974:21975   */\n      0x00\n        /* \"#utility.yul\":21970:21976   */\n      not\n        /* \"#utility.yul\":21962:21967   */\n      dup5\n        /* \"#utility.yul\":21959:21960   */\n      0x08\n        /* \"#utility.yul\":21955:21968   */\n      mul\n        /* \"#utility.yul\":21926:21977   */\n      tag_297\n      jump\t// in\n    tag_529:\n        /* \"#utility.yul\":21922:21978   */\n      not\n        /* \"#utility.yul\":22007:22011   */\n      dup1\n        /* \"#utility.yul\":22001:22005   */\n      dup4\n        /* \"#utility.yul\":21997:22012   */\n      and\n        /* \"#utility.yul\":21987:22012   */\n      swap2\n      pop\n        /* \"#utility.yul\":21900:22018   */\n      pop\n        /* \"#utility.yul\":21849:22018   */\n      swap3\n      swap2\n      pop\n      pop\n      jump\t// out\n        /* \"#utility.yul\":22023:22318   */\n    tag_299:\n        /* \"#utility.yul\":22099:22103   */\n      0x00\n        /* \"#utility.yul\":22245:22274   */\n      tag_531\n        /* \"#utility.yul\":22270:22273   */\n      dup4\n        /* \"#utility.yul\":22264:22268   */\n      dup4\n        /* \"#utility.yul\":22245:22274   */\n      tag_298\n      jump\t// in\n    tag_531:\n        /* \"#utility.yul\":22237:22274   */\n      swap2\n      pop\n        /* \"#utility.yul\":22307:22310   */\n      dup3\n        /* \"#utility.yul\":22304:22305   */\n      0x02\n        /* \"#utility.yul\":22300:22311   */\n      mul\n        /* \"#utility.yul\":22294:22298   */\n      dup3\n        /* \"#utility.yul\":22291:22312   */\n      or\n        /* \"#utility.yul\":22283:22312   */\n      swap1\n      pop\n        /* \"#utility.yul\":22023:22318   */\n      swap3\n      swap2\n      pop\n      pop\n      jump\t// out\n        /* \"#utility.yul\":22323:23718   */\n    tag_129:\n        /* \"#utility.yul\":22440:22477   */\n      tag_533\n        /* \"#utility.yul\":22473:22476   */\n      dup3\n        /* \"#utility.yul\":22440:22477   */\n      tag_231\n      jump\t// in\n    tag_533:\n        /* \"#utility.yul\":22542:22560   */\n      0xffffffffffffffff\n        /* \"#utility.yul\":22534:22540   */\n      dup2\n        /* \"#utility.yul\":22531:22561   */\n      gt\n        /* \"#utility.yul\":22528:22584   */\n      iszero\n      tag_534\n      jumpi\n        /* \"#utility.yul\":22564:22582   */\n      tag_535\n      tag_243\n      jump\t// in\n    tag_535:\n        /* \"#utility.yul\":22528:22584   */\n    tag_534:\n        /* \"#utility.yul\":22608:22646   */\n      tag_536\n        /* \"#utility.yul\":22640:22644   */\n      dup3\n        /* \"#utility.yul\":22634:22645   */\n      sload\n        /* \"#utility.yul\":22608:22646   */\n      tag_89\n      jump\t// in\n    tag_536:\n        /* \"#utility.yul\":22693:22760   */\n      tag_537\n        /* \"#utility.yul\":22753:22759   */\n      dup3\n        /* \"#utility.yul\":22745:22751   */\n      dup3\n        /* \"#utility.yul\":22739:22743   */\n      dup6\n        /* \"#utility.yul\":22693:22760   */\n      tag_296\n      jump\t// in\n    tag_537:\n        /* \"#utility.yul\":22787:22788   */\n      0x00\n        /* \"#utility.yul\":22811:22815   */\n      0x20\n        /* \"#utility.yul\":22798:22815   */\n      swap1\n      pop\n        /* \"#utility.yul\":22843:22845   */\n      0x1f\n        /* \"#utility.yul\":22835:22841   */\n      dup4\n        /* \"#utility.yul\":22832:22846   */\n      gt\n        /* \"#utility.yul\":22860:22861   */\n      0x01\n        /* \"#utility.yul\":22855:23473   */\n      dup2\n      eq\n      tag_539\n      jumpi\n        /* \"#utility.yul\":23517:23518   */\n      0x00\n        /* \"#utility.yul\":23534:23540   */\n      dup5\n        /* \"#utility.yul\":23531:23608   */\n      iszero\n      tag_540\n      jumpi\n        /* \"#utility.yul\":23583:23592   */\n      dup3\n        /* \"#utility.yul\":23578:23581   */\n      dup8\n        /* \"#utility.yul\":23574:23593   */\n      add\n        /* \"#utility.yul\":23568:23594   */\n      mload\n        /* \"#utility.yul\":23559:23594   */\n      swap1\n      pop\n        /* \"#utility.yul\":23531:23608   */\n    tag_540:\n        /* \"#utility.yul\":23634:23701   */\n      tag_541\n        /* \"#utility.yul\":23694:23700   */\n      dup6\n        /* \"#utility.yul\":23687:23692   */\n      dup3\n        /* \"#utility.yul\":23634:23701   */\n      tag_299\n      jump\t// in\n    tag_541:\n        /* \"#utility.yul\":23628:23632   */\n      dup7\n        /* \"#utility.yul\":23621:23702   */\n      sstore\n        /* \"#utility.yul\":23490:23712   */\n      pop\n        /* \"#utility.yul\":22825:23712   */\n      jump(tag_538)\n        /* \"#utility.yul\":22855:23473   */\n    tag_539:\n        /* \"#utility.yul\":22907:22911   */\n      0x1f\n        /* \"#utility.yul\":22903:22912   */\n      not\n        /* \"#utility.yul\":22895:22901   */\n      dup5\n        /* \"#utility.yul\":22891:22913   */\n      and\n        /* \"#utility.yul\":22941:22978   */\n      tag_542\n        /* \"#utility.yul\":22973:22977   */\n      dup7\n        /* \"#utility.yul\":22941:22978   */\n      tag_285\n      jump\t// in\n    tag_542:\n        /* \"#utility.yul\":23000:23001   */\n      0x00\n        /* \"#utility.yul\":23014:23222   */\n    tag_543:\n        /* \"#utility.yul\":23028:23035   */\n      dup3\n        /* \"#utility.yul\":23025:23026   */\n      dup2\n        /* \"#utility.yul\":23022:23036   */\n      lt\n        /* \"#utility.yul\":23014:23222   */\n      iszero\n      tag_545\n      jumpi\n        /* \"#utility.yul\":23107:23116   */\n      dup5\n        /* \"#utility.yul\":23102:23105   */\n      dup10\n        /* \"#utility.yul\":23098:23117   */\n      add\n        /* \"#utility.yul\":23092:23118   */\n      mload\n        /* \"#utility.yul\":23084:23090   */\n      dup3\n        /* \"#utility.yul\":23077:23119   */\n      sstore\n        /* \"#utility.yul\":23158:23159   */\n      0x01\n        /* \"#utility.yul\":23150:23156   */\n      dup3\n        /* \"#utility.yul\":23146:23160   */\n      add\n        /* \"#utility.yul\":23136:23160   */\n      swap2\n      pop\n        /* \"#utility.yul\":23205:23207   */\n      0x20\n        /* \"#utility.yul\":23194:23203   */\n      dup6\n        /* \"#utility.yul\":23190:23208   */\n      add\n        /* \"#utility.yul\":23177:23208   */\n      swap5\n      pop\n        /* \"#utility.yul\":23051:23055   */\n      0x20\n        /* \"#utility.yul\":23048:23049   */\n      dup2\n        /* \"#utility.yul\":23044:23056   */\n      add\n        /* \"#utility.yul\":23039:23056   */\n      swap1\n      pop\n        /* \"#utility.yul\":23014:23222   */\n      jump(tag_543)\n    tag_545:\n        /* \"#utility.yul\":23250:23256   */\n      dup7\n        /* \"#utility.yul\":23241:23248   */\n      dup4\n        /* \"#utility.yul\":23238:23257   */\n      lt\n        /* \"#utility.yul\":23235:23414   */\n      iszero\n      tag_546\n      jumpi\n        /* \"#utility.yul\":23308:23317   */\n      dup5\n        /* \"#utility.yul\":23303:23306   */\n      dup10\n        /* \"#utility.yul\":23299:23318   */\n      add\n        /* \"#utility.yul\":23293:23319   */\n      mload\n        /* \"#utility.yul\":23351:23399   */\n      tag_547\n        /* \"#utility.yul\":23393:23397   */\n      0x1f\n        /* \"#utility.yul\":23385:23391   */\n      dup10\n        /* \"#utility.yul\":23381:23398   */\n      and\n        /* \"#utility.yul\":23370:23379   */\n      dup3\n        /* \"#utility.yul\":23351:23399   */\n      tag_298\n      jump\t// in\n    tag_547:\n        /* \"#utility.yul\":23343:23349   */\n      dup4\n        /* \"#utility.yul\":23336:23400   */\n      sstore\n        /* \"#utility.yul\":23258:23414   */\n      pop\n        /* \"#utility.yul\":23235:23414   */\n    tag_546:\n        /* \"#utility.yul\":23460:23461   */\n      0x01\n        /* \"#utility.yul\":23456:23457   */\n      0x02\n        /* \"#utility.yul\":23448:23454   */\n      dup9\n        /* \"#utility.yul\":23444:23458   */\n      mul\n        /* \"#utility.yul\":23440:23462   */\n      add\n        /* \"#utility.yul\":23434:23438   */\n      dup9\n        /* \"#utility.yul\":23427:23463   */\n      sstore\n        /* \"#utility.yul\":22862:23473   */\n      pop\n      pop\n      pop\n        /* \"#utility.yul\":22825:23712   */\n    tag_538:\n      pop\n        /* \"#utility.yul\":22415:23718   */\n      pop\n      pop\n      pop\n        /* \"#utility.yul\":22323:23718   */\n      pop\n      pop\n      jump\t// out\n        /* \"#utility.yul\":23724:23904   */\n    tag_300:\n        /* \"#utility.yul\":23772:23849   */\n      0x4e487b7100000000000000000000000000000000000000000000000000000000\n        /* \"#utility.yul\":23769:23770   */\n      0x00\n        /* \"#utility.yul\":23762:23850   */\n      mstore\n        /* \"#utility.yul\":23869:23873   */\n      0x11\n        /* \"#utility.yul\":23866:23867   */\n      0x04\n        /* \"#utility.yul\":23859:23874   */\n      mstore\n        /* \"#utility.yul\":23893:23897   */\n      0x24\n        /* \"#utility.yul\":23890:23891   */\n      0x00\n        /* \"#utility.yul\":23883:23898   */\n      revert\n        /* \"#utility.yul\":23910:24101   */\n    tag_131:\n        /* \"#utility.yul\":23950:23954   */\n      0x00\n        /* \"#utility.yul\":23970:23990   */\n      tag_550\n        /* \"#utility.yul\":23988:23989   */\n      dup3\n        /* \"#utility.yul\":23970:23990   */\n      tag_228\n      jump\t// in\n    tag_550:\n        /* \"#utility.yul\":23965:23990   */\n      swap2\n      pop\n        /* \"#utility.yul\":24004:24024   */\n      tag_551\n        /* \"#utility.yul\":24022:24023   */\n      dup4\n        /* \"#utility.yul\":24004:24024   */\n      tag_228\n      jump\t// in\n    tag_551:\n        /* \"#utility.yul\":23999:24024   */\n      swap3\n      pop\n        /* \"#utility.yul\":24043:24044   */\n      dup3\n        /* \"#utility.yul\":24040:24041   */\n      dup3\n        /* \"#utility.yul\":24037:24045   */\n      lt\n        /* \"#utility.yul\":24034:24068   */\n      iszero\n      tag_552\n      jumpi\n        /* \"#utility.yul\":24048:24066   */\n      tag_553\n      tag_300\n      jump\t// in\n    tag_553:\n        /* \"#utility.yul\":24034:24068   */\n    tag_552:\n        /* \"#utility.yul\":24093:24094   */\n      dup3\n        /* \"#utility.yul\":24090:24091   */\n      dup3\n        /* \"#utility.yul\":24086:24095   */\n      sub\n        /* \"#utility.yul\":24078:24095   */\n      swap1\n      pop\n        /* \"#utility.yul\":23910:24101   */\n      swap3\n      swap2\n      pop\n      pop\n      jump\t// out\n        /* \"#utility.yul\":24107:24285   */\n    tag_301:\n        /* \"#utility.yul\":24247:24277   */\n      0x706c65617365206d616b65207468652073746174757320656e64656400000000\n        /* \"#utility.yul\":24243:24244   */\n      0x00\n        /* \"#utility.yul\":24235:24241   */\n      dup3\n        /* \"#utility.yul\":24231:24245   */\n      add\n        /* \"#utility.yul\":24224:24278   */\n      mstore\n        /* \"#utility.yul\":24107:24285   */\n      pop\n      jump\t// out\n        /* \"#utility.yul\":24291:24657   */\n    tag_302:\n        /* \"#utility.yul\":24433:24436   */\n      0x00\n        /* \"#utility.yul\":24454:24521   */\n      tag_556\n        /* \"#utility.yul\":24518:24520   */\n      0x1c\n        /* \"#utility.yul\":24513:24516   */\n      dup4\n        /* \"#utility.yul\":24454:24521   */\n      tag_232\n      jump\t// in\n    tag_556:\n        /* \"#utility.yul\":24447:24521   */\n      swap2\n      pop\n        /* \"#utility.yul\":24530:24623   */\n      tag_557\n        /* \"#utility.yul\":24619:24622   */\n      dup3\n        /* \"#utility.yul\":24530:24623   */\n      tag_301\n      jump\t// in\n    tag_557:\n        /* \"#utility.yul\":24648:24650   */\n      0x20\n        /* \"#utility.yul\":24643:24646   */\n      dup3\n        /* \"#utility.yul\":24639:24651   */\n      add\n        /* \"#utility.yul\":24632:24651   */\n      swap1\n      pop\n        /* \"#utility.yul\":24291:24657   */\n      swap2\n      swap1\n      pop\n      jump\t// out\n        /* \"#utility.yul\":24663:25082   */\n    tag_145:\n        /* \"#utility.yul\":24829:24833   */\n      0x00\n        /* \"#utility.yul\":24867:24869   */\n      0x20\n        /* \"#utility.yul\":24856:24865   */\n      dup3\n        /* \"#utility.yul\":24852:24870   */\n      add\n        /* \"#utility.yul\":24844:24870   */\n      swap1\n      pop\n        /* \"#utility.yul\":24916:24925   */\n      dup2\n        /* \"#utility.yul\":24910:24914   */\n      dup2\n        /* \"#utility.yul\":24906:24926   */\n      sub\n        /* \"#utility.yul\":24902:24903   */\n      0x00\n        /* \"#utility.yul\":24891:24900   */\n      dup4\n        /* \"#utility.yul\":24887:24904   */\n      add\n        /* \"#utility.yul\":24880:24927   */\n      mstore\n        /* \"#utility.yul\":24944:25075   */\n      tag_559\n        /* \"#utility.yul\":25070:25074   */\n      dup2\n        /* \"#utility.yul\":24944:25075   */\n      tag_302\n      jump\t// in\n    tag_559:\n        /* \"#utility.yul\":24936:25075   */\n      swap1\n      pop\n        /* \"#utility.yul\":24663:25082   */\n      swap2\n      swap1\n      pop\n      jump\t// out\n        /* \"#utility.yul\":25088:25268   */\n    tag_151:\n        /* \"#utility.yul\":25136:25213   */\n      0x4e487b7100000000000000000000000000000000000000000000000000000000\n        /* \"#utility.yul\":25133:25134   */\n      0x00\n        /* \"#utility.yul\":25126:25214   */\n      mstore\n        /* \"#utility.yul\":25233:25237   */\n      0x32\n        /* \"#utility.yul\":25230:25231   */\n      0x04\n        /* \"#utility.yul\":25223:25238   */\n      mstore\n        /* \"#utility.yul\":25257:25261   */\n      0x24\n        /* \"#utility.yul\":25254:25255   */\n      0x00\n        /* \"#utility.yul\":25247:25262   */\n      revert\n        /* \"#utility.yul\":25274:25507   */\n    tag_158:\n        /* \"#utility.yul\":25313:25316   */\n      0x00\n        /* \"#utility.yul\":25336:25360   */\n      tag_562\n        /* \"#utility.yul\":25354:25359   */\n      dup3\n        /* \"#utility.yul\":25336:25360   */\n      tag_228\n      jump\t// in\n    tag_562:\n        /* \"#utility.yul\":25327:25360   */\n      swap2\n      pop\n        /* \"#utility.yul\":25382:25448   */\n      0xffffffffffffffffffffffffffffffffffffffffffffffffffffffffffffffff\n        /* \"#utility.yul\":25375:25380   */\n      dup3\n        /* \"#utility.yul\":25372:25449   */\n      sub\n        /* \"#utility.yul\":25369:25472   */\n      tag_563\n      jumpi\n        /* \"#utility.yul\":25452:25470   */\n      tag_564\n      tag_300\n      jump\t// in\n    tag_564:\n        /* \"#utility.yul\":25369:25472   */\n    tag_563:\n        /* \"#utility.yul\":25499:25500   */\n      0x01\n        /* \"#utility.yul\":25492:25497   */\n      dup3\n        /* \"#utility.yul\":25488:25501   */\n      add\n        /* \"#utility.yul\":25481:25501   */\n      swap1\n      pop\n        /* \"#utility.yul\":25274:25507   */\n      swap2\n      swap1\n      pop\n      jump\t// out\n        /* \"#utility.yul\":25513:25909   */\n    tag_162:\n        /* \"#utility.yul\":25666:25670   */\n      0x00\n        /* \"#utility.yul\":25704:25706   */\n      0x40\n        /* \"#utility.yul\":25693:25702   */\n      dup3\n        /* \"#utility.yul\":25689:25707   */\n      add\n        /* \"#utility.yul\":25681:25707   */\n      swap1\n      pop\n        /* \"#utility.yul\":25717:25804   */\n      tag_566\n        /* \"#utility.yul\":25801:25802   */\n      0x00\n        /* \"#utility.yul\":25790:25799   */\n      dup4\n        /* \"#utility.yul\":25786:25803   */\n      add\n        /* \"#utility.yul\":25777:25783   */\n      dup6\n        /* \"#utility.yul\":25717:25804   */\n      tag_263\n      jump\t// in\n    tag_566:\n        /* \"#utility.yul\":25814:25902   */\n      tag_567\n        /* \"#utility.yul\":25898:25900   */\n      0x20\n        /* \"#utility.yul\":25887:25896   */\n      dup4\n        /* \"#utility.yul\":25883:25901   */\n      add\n        /* \"#utility.yul\":25874:25880   */\n      dup5\n        /* \"#utility.yul\":25814:25902   */\n      tag_263\n      jump\t// in\n    tag_567:\n        /* \"#utility.yul\":25513:25909   */\n      swap4\n      swap3\n      pop\n      pop\n      pop\n      jump\t// out\n        /* \"#utility.yul\":25915:26094   */\n    tag_303:\n        /* \"#utility.yul\":26055:26086   */\n      0x596f75722061646472657373206973206e6f74206f6e2074686520574c000000\n        /* \"#utility.yul\":26051:26052   */\n      0x00\n        /* \"#utility.yul\":26043:26049   */\n      dup3\n        /* \"#utility.yul\":26039:26053   */\n      add\n        /* \"#utility.yul\":26032:26087   */\n      mstore\n        /* \"#utility.yul\":25915:26094   */\n      pop\n      jump\t// out\n        /* \"#utility.yul\":26100:26466   */\n    tag_304:\n        /* \"#utility.yul\":26242:26245   */\n      0x00\n        /* \"#utility.yul\":26263:26330   */\n      tag_570\n        /* \"#utility.yul\":26327:26329   */\n      0x1d\n        /* \"#utility.yul\":26322:26325   */\n      dup4\n        /* \"#utility.yul\":26263:26330   */\n      tag_232\n      jump\t// in\n    tag_570:\n        /* \"#utility.yul\":26256:26330   */\n      swap2\n      pop\n        /* \"#utility.yul\":26339:26432   */\n      tag_571\n        /* \"#utility.yul\":26428:26431   */\n      dup3\n        /* \"#utility.yul\":26339:26432   */\n      tag_303\n      jump\t// in\n    tag_571:\n        /* \"#utility.yul\":26457:26459   */\n      0x20\n        /* \"#utility.yul\":26452:26455   */\n      dup3\n        /* \"#utility.yul\":26448:26460   */\n      add\n        /* \"#utility.yul\":26441:26460   */\n      swap1\n      pop\n        /* \"#utility.yul\":26100:26466   */\n      swap2\n      swap1\n      pop\n      jump\t// out\n        /* \"#utility.yul\":26472:26891   */\n    tag_166:\n        /* \"#utility.yul\":26638:26642   */\n      0x00\n        /* \"#utility.yul\":26676:26678   */\n      0x20\n        /* \"#utility.yul\":26665:26674   */\n      dup3\n        /* \"#utility.yul\":26661:26679   */\n      add\n        /* \"#utility.yul\":26653:26679   */\n      swap1\n      pop\n        /* \"#utility.yul\":26725:26734   */\n      dup2\n        /* \"#utility.yul\":26719:26723   */\n      dup2\n        /* \"#utility.yul\":26715:26735   */\n      sub\n        /* \"#utility.yul\":26711:26712   */\n      0x00\n        /* \"#utility.yul\":26700:26709   */\n      dup4\n        /* \"#utility.yul\":26696:26713   */\n      add\n        /* \"#utility.yul\":26689:26736   */\n      mstore\n        /* \"#utility.yul\":26753:26884   */\n      tag_573\n        /* \"#utility.yul\":26879:26883   */\n      dup2\n        /* \"#utility.yul\":26753:26884   */\n      tag_304\n      jump\t// in\n    tag_573:\n        /* \"#utility.yul\":26745:26884   */\n      swap1\n      pop\n        /* \"#utility.yul\":26472:26891   */\n      swap2\n      swap1\n      pop\n      jump\t// out\n        /* \"#utility.yul\":26897:27072   */\n    tag_305:\n        /* \"#utility.yul\":27037:27064   */\n      0x416464726573732068617320616c726561647920766f74656400000000000000\n        /* \"#utility.yul\":27033:27034   */\n      0x00\n        /* \"#utility.yul\":27025:27031   */\n      dup3\n        /* \"#utility.yul\":27021:27035   */\n      add\n        /* \"#utility.yul\":27014:27065   */\n      mstore\n        /* \"#utility.yul\":26897:27072   */\n      pop\n      jump\t// out\n        /* \"#utility.yul\":27078:27444   */\n    tag_306:\n        /* \"#utility.yul\":27220:27223   */\n      0x00\n        /* \"#utility.yul\":27241:27308   */\n      tag_576\n        /* \"#utility.yul\":27305:27307   */\n      0x19\n        /* \"#utility.yul\":27300:27303   */\n      dup4\n        /* \"#utility.yul\":27241:27308   */\n      tag_232\n      jump\t// in\n    tag_576:\n        /* \"#utility.yul\":27234:27308   */\n      swap2\n      pop\n        /* \"#utility.yul\":27317:27410   */\n      tag_577\n        /* \"#utility.yul\":27406:27409   */\n      dup3\n        /* \"#utility.yul\":27317:27410   */\n      tag_305\n      jump\t// in\n    tag_577:\n        /* \"#utility.yul\":27435:27437   */\n      0x20\n        /* \"#utility.yul\":27430:27433   */\n      dup3\n        /* \"#utility.yul\":27426:27438   */\n      add\n        /* \"#utility.yul\":27419:27438   */\n      swap1\n      pop\n        /* \"#utility.yul\":27078:27444   */\n      swap2\n      swap1\n      pop\n      jump\t// out\n        /* \"#utility.yul\":27450:27869   */\n    tag_169:\n        /* \"#utility.yul\":27616:27620   */\n      0x00\n        /* \"#utility.yul\":27654:27656   */\n      0x20\n        /* \"#utility.yul\":27643:27652   */\n      dup3\n        /* \"#utility.yul\":27639:27657   */\n      add\n        /* \"#utility.yul\":27631:27657   */\n      swap1\n      pop\n        /* \"#utility.yul\":27703:27712   */\n      dup2\n        /* \"#utility.yul\":27697:27701   */\n      dup2\n        /* \"#utility.yul\":27693:27713   */\n      sub\n        /* \"#utility.yul\":27689:27690   */\n      0x00\n        /* \"#utility.yul\":27678:27687   */\n      dup4\n        /* \"#utility.yul\":27674:27691   */\n      add\n        /* \"#utility.yul\":27667:27714   */\n      mstore\n        /* \"#utility.yul\":27731:27862   */\n      tag_579\n        /* \"#utility.yul\":27857:27861   */\n      dup2\n        /* \"#utility.yul\":27731:27862   */\n      tag_306\n      jump\t// in\n    tag_579:\n        /* \"#utility.yul\":27723:27862   */\n      swap1\n      pop\n        /* \"#utility.yul\":27450:27869   */\n      swap2\n      swap1\n      pop\n      jump\t// out\n        /* \"#utility.yul\":27875:28207   */\n    tag_175:\n        /* \"#utility.yul\":27996:28000   */\n      0x00\n        /* \"#utility.yul\":28034:28036   */\n      0x40\n        /* \"#utility.yul\":28023:28032   */\n      dup3\n        /* \"#utility.yul\":28019:28037   */\n      add\n        /* \"#utility.yul\":28011:28037   */\n      swap1\n      pop\n        /* \"#utility.yul\":28047:28118   */\n      tag_581\n        /* \"#utility.yul\":28115:28116   */\n      0x00\n        /* \"#utility.yul\":28104:28113   */\n      dup4\n        /* \"#utility.yul\":28100:28117   */\n      add\n        /* \"#utility.yul\":28091:28097   */\n      dup6\n        /* \"#utility.yul\":28047:28118   */\n      tag_264\n      jump\t// in\n    tag_581:\n        /* \"#utility.yul\":28128:28200   */\n      tag_582\n        /* \"#utility.yul\":28196:28198   */\n      0x20\n        /* \"#utility.yul\":28185:28194   */\n      dup4\n        /* \"#utility.yul\":28181:28199   */\n      add\n        /* \"#utility.yul\":28172:28178   */\n      dup5\n        /* \"#utility.yul\":28128:28200   */\n      tag_236\n      jump\t// in\n    tag_582:\n        /* \"#utility.yul\":27875:28207   */\n      swap4\n      swap3\n      pop\n      pop\n      pop\n      jump\t// out\n        /* \"#utility.yul\":28213:28376   */\n    tag_307:\n        /* \"#utility.yul\":28353:28368   */\n      0x6e6f74206f6e2074686520776c00000000000000000000000000000000000000\n        /* \"#utility.yul\":28349:28350   */\n      0x00\n        /* \"#utility.yul\":28341:28347   */\n      dup3\n        /* \"#utility.yul\":28337:28351   */\n      add\n        /* \"#utility.yul\":28330:28369   */\n      mstore\n        /* \"#utility.yul\":28213:28376   */\n      pop\n      jump\t// out\n        /* \"#utility.yul\":28382:28748   */\n    tag_308:\n        /* \"#utility.yul\":28524:28527   */\n      0x00\n        /* \"#utility.yul\":28545:28612   */\n      tag_585\n        /* \"#utility.yul\":28609:28611   */\n      0x0d\n        /* \"#utility.yul\":28604:28607   */\n      dup4\n        /* \"#utility.yul\":28545:28612   */\n      tag_232\n      jump\t// in\n    tag_585:\n        /* \"#utility.yul\":28538:28612   */\n      swap2\n      pop\n        /* \"#utility.yul\":28621:28714   */\n      tag_586\n        /* \"#utility.yul\":28710:28713   */\n      dup3\n        /* \"#utility.yul\":28621:28714   */\n      tag_307\n      jump\t// in\n    tag_586:\n        /* \"#utility.yul\":28739:28741   */\n      0x20\n        /* \"#utility.yul\":28734:28737   */\n      dup3\n        /* \"#utility.yul\":28730:28742   */\n      add\n        /* \"#utility.yul\":28723:28742   */\n      swap1\n      pop\n        /* \"#utility.yul\":28382:28748   */\n      swap2\n      swap1\n      pop\n      jump\t// out\n        /* \"#utility.yul\":28754:29173   */\n    tag_179:\n        /* \"#utility.yul\":28920:28924   */\n      0x00\n        /* \"#utility.yul\":28958:28960   */\n      0x20\n        /* \"#utility.yul\":28947:28956   */\n      dup3\n        /* \"#utility.yul\":28943:28961   */\n      add\n        /* \"#utility.yul\":28935:28961   */\n      swap1\n      pop\n        /* \"#utility.yul\":29007:29016   */\n      dup2\n        /* \"#utility.yul\":29001:29005   */\n      dup2\n        /* \"#utility.yul\":28997:29017   */\n      sub\n        /* \"#utility.yul\":28993:28994   */\n      0x00\n        /* \"#utility.yul\":28982:28991   */\n      dup4\n        /* \"#utility.yul\":28978:28995   */\n      add\n        /* \"#utility.yul\":28971:29018   */\n      mstore\n        /* \"#utility.yul\":29035:29166   */\n      tag_588\n        /* \"#utility.yul\":29161:29165   */\n      dup2\n        /* \"#utility.yul\":29035:29166   */\n      tag_308\n      jump\t// in\n    tag_588:\n        /* \"#utility.yul\":29027:29166   */\n      swap1\n      pop\n        /* \"#utility.yul\":28754:29173   */\n      swap2\n      swap1\n      pop\n      jump\t// out\n        /* \"#utility.yul\":29179:29404   */\n    tag_309:\n        /* \"#utility.yul\":29319:29353   */\n      0x4f776e61626c653a206e6577206f776e657220697320746865207a65726f2061\n        /* \"#utility.yul\":29315:29316   */\n      0x00\n        /* \"#utility.yul\":29307:29313   */\n      dup3\n        /* \"#utility.yul\":29303:29317   */\n      add\n        /* \"#utility.yul\":29296:29354   */\n      mstore\n        /* \"#utility.yul\":29388:29396   */\n      0x6464726573730000000000000000000000000000000000000000000000000000\n        /* \"#utility.yul\":29383:29385   */\n      0x20\n        /* \"#utility.yul\":29375:29381   */\n      dup3\n        /* \"#utility.yul\":29371:29386   */\n      add\n        /* \"#utility.yul\":29364:29397   */\n      mstore\n        /* \"#utility.yul\":29179:29404   */\n      pop\n      jump\t// out\n        /* \"#utility.yul\":29410:29776   */\n    tag_310:\n        /* \"#utility.yul\":29552:29555   */\n      0x00\n        /* \"#utility.yul\":29573:29640   */\n      tag_591\n        /* \"#utility.yul\":29637:29639   */\n      0x26\n        /* \"#utility.yul\":29632:29635   */\n      dup4\n        /* \"#utility.yul\":29573:29640   */\n      tag_232\n      jump\t// in\n    tag_591:\n        /* \"#utility.yul\":29566:29640   */\n      swap2\n      pop\n        /* \"#utility.yul\":29649:29742   */\n      tag_592\n        /* \"#utility.yul\":29738:29741   */\n      dup3\n        /* \"#utility.yul\":29649:29742   */\n      tag_309\n      jump\t// in\n    tag_592:\n        /* \"#utility.yul\":29767:29769   */\n      0x40\n        /* \"#utility.yul\":29762:29765   */\n      dup3\n        /* \"#utility.yul\":29758:29770   */\n      add\n        /* \"#utility.yul\":29751:29770   */\n      swap1\n      pop\n        /* \"#utility.yul\":29410:29776   */\n      swap2\n      swap1\n      pop\n      jump\t// out\n        /* \"#utility.yul\":29782:30201   */\n    tag_221:\n        /* \"#utility.yul\":29948:29952   */\n      0x00\n        /* \"#utility.yul\":29986:29988   */\n      0x20\n        /* \"#utility.yul\":29975:29984   */\n      dup3\n        /* \"#utility.yul\":29971:29989   */\n      add\n        /* \"#utility.yul\":29963:29989   */\n      swap1\n      pop\n        /* \"#utility.yul\":30035:30044   */\n      dup2\n        /* \"#utility.yul\":30029:30033   */\n      dup2\n        /* \"#utility.yul\":30025:30045   */\n      sub\n        /* \"#utility.yul\":30021:30022   */\n      0x00\n        /* \"#utility.yul\":30010:30019   */\n      dup4\n        /* \"#utility.yul\":30006:30023   */\n      add\n        /* \"#utility.yul\":29999:30046   */\n      mstore\n        /* \"#utility.yul\":30063:30194   */\n      tag_594\n        /* \"#utility.yul\":30189:30193   */\n      dup2\n        /* \"#utility.yul\":30063:30194   */\n      tag_310\n      jump\t// in\n    tag_594:\n        /* \"#utility.yul\":30055:30194   */\n      swap1\n      pop\n        /* \"#utility.yul\":29782:30201   */\n      swap2\n      swap1\n      pop\n      jump\t// out\n\n    auxdata: 0xa2646970667358221220138616bb8244b4a46b1a888f1c607ebba90dc89b342efc60b153dbd5c76ae59064736f6c634300080f0033\n}\n",
				"bytecode": {
					"linkReferences": {},
					"object": "60806040526000600660006101000a81548160ff021916908360058111156200002d576200002c62000132565b5b02179055503480156200003f57600080fd5b5062000060620000546200006660201b60201c565b6200006e60201b60201c565b62000161565b600033905090565b60008060009054906101000a900473ffffffffffffffffffffffffffffffffffffffff169050816000806101000a81548173ffffffffffffffffffffffffffffffffffffffff021916908373ffffffffffffffffffffffffffffffffffffffff1602179055508173ffffffffffffffffffffffffffffffffffffffff168173ffffffffffffffffffffffffffffffffffffffff167f8be0079c531659141344cd1fd0a4f28419497f9722a3daafe3b4186f6b6457e060405160405180910390a35050565b7f4e487b7100000000000000000000000000000000000000000000000000000000600052602160045260246000fd5b6121dd80620001716000396000f3fe608060405234801561001057600080fd5b506004361061010b5760003560e01c8063715018a6116100a2578063a3ec138d11610071578063a3ec138d1461025b578063b95c96631461028d578063bdc01431146102a9578063edf26d9b146102c7578063f2fde38b146102f75761010b565b8063715018a6146101f75780637ae6ee32146102015780638da5cb5b1461021f578063a39fac121461023d5761010b565b8063378a2178116100de578063378a217814610197578063464d4a92146101a157806348f72c48146101bd57806362564c48146101d95761010b565b8063013cf08b146101105780630d2328d314610141578063125f48e41461015f5780632fdae3c51461017b575b600080fd5b61012a600480360381019061012591906112c8565b610313565b60405161013892919061139d565b60405180910390f35b6101496103cf565b60405161015691906113cd565b60405180910390f35b61017960048036038101906101749190611446565b6103d5565b005b610195600480360381019061019091906115a8565b610620565b005b61019f6107d7565b005b6101bb60048036038101906101b691906112c8565b6109b8565b005b6101d760048036038101906101d29190611446565b610bf5565b005b6101e1610d22565b6040516101ee9190611749565b60405180910390f35b6101ff610e1d565b005b610209610ea5565b60405161021691906117e2565b60405180910390f35b610227610eb8565b604051610234919061180c565b60405180910390f35b610245610ee1565b60405161025291906118e5565b60405180910390f35b61027560048036038101906102709190611446565b610f6f565b60405161028493929190611922565b60405180910390f35b6102a760048036038101906102a2919061197e565b610fb3565b005b6102b161105c565b6040516102be91906113cd565b60405180910390f35b6102e160048036038101906102dc91906112c8565b611062565b6040516102ee919061180c565b60405180910390f35b610311600480360381019061030c9190611446565b6110a1565b005b6003818154811061032357600080fd5b9060005260206000209060020201600091509050806000018054610346906119da565b80601f0160208091040260200160405190810160405280929190818152602001828054610372906119da565b80156103bf5780601f10610394576101008083540402835291602001916103bf565b820191906000526020600020905b8154815290600101906020018083116103a257829003601f168201915b5050505050908060010154905082565b60025481565b6103dd611198565b73ffffffffffffffffffffffffffffffffffffffff166103fb610eb8565b73ffffffffffffffffffffffffffffffffffffffff1614610451576040517f08c379a000000000000000000000000000000000000000000000000000000000815260040161044890611a57565b60405180910390fd5b6000600660009054906101000a900460ff1660058111156104755761047461176b565b5b8160058111156104885761048761176b565b5b1461049257600080fd5b60011515600160008473ffffffffffffffffffffffffffffffffffffffff1673ffffffffffffffffffffffffffffffffffffffff16815260200190815260200160002060000160009054906101000a900460ff16151503610528576040517f08c379a000000000000000000000000000000000000000000000000000000000815260040161051f90611ac3565b60405180910390fd5b60018060008473ffffffffffffffffffffffffffffffffffffffff1673ffffffffffffffffffffffffffffffffffffffff16815260200190815260200160002060000160006101000a81548160ff0219169083151502179055506004829080600181540180825580915050600190039060005260206000200160009091909190916101000a81548173ffffffffffffffffffffffffffffffffffffffff021916908373ffffffffffffffffffffffffffffffffffffffff1602179055507fb6be2187d059cc2a55fe29e0e503b566e1e0f8c8780096e185429350acffd3dd82604051610614919061180c565b60405180910390a15050565b60011515600160003373ffffffffffffffffffffffffffffffffffffffff1673ffffffffffffffffffffffffffffffffffffffff16815260200190815260200160002060000160009054906101000a900460ff161515146106b6576040517f08c379a00000000000000000000000000000000000000000000000000000000081526004016106ad90611b2f565b60405180910390fd5b600160058111156106ca576106c961176b565b5b600660009054906101000a900460ff1660058111156106ec576106eb61176b565b5b1461072c576040517f08c379a000000000000000000000000000000000000000000000000000000000815260040161072390611b9b565b60405180910390fd5b610734611264565b8181600001819052506003819080600181540180825580915050600190039060005260206000209060020201600090919091909150600082015181600001908161077e9190611d67565b506020820151816001015550507f92e393e9b54e2f801d3ea4beb0c5e71a21cc34a5d34b77d0fb8a3aa1650dc18f60016003805490506107be9190611e68565b6040516107cb91906113cd565b60405180910390a15050565b6107df611198565b73ffffffffffffffffffffffffffffffffffffffff166107fd610eb8565b73ffffffffffffffffffffffffffffffffffffffff1614610853576040517f08c379a000000000000000000000000000000000000000000000000000000000815260040161084a90611a57565b60405180910390fd5b600460058111156108675761086661176b565b5b600660009054906101000a900460ff1660058111156108895761088861176b565b5b146108c9576040517f08c379a00000000000000000000000000000000000000000000000000000000081526004016108c090611ee8565b60405180910390fd5b600080600090505b60038054905081101561094757600382815481106108f2576108f1611f08565b5b9060005260206000209060020201600101546003828154811061091857610917611f08565b5b9060005260206000209060020201600101541115610934578091505b808061093f90611f37565b9150506108d1565b50806005819055506005600660006101000a81548160ff021916908360058111156109755761097461176b565b5b02179055507f0a97a4ee45751e2abf3e4fc8946939630b11b371ea8ae39ccdc3056e98f5cc3f600460056040516109ad929190611f7f565b60405180910390a150565b600160003373ffffffffffffffffffffffffffffffffffffffff1673ffffffffffffffffffffffffffffffffffffffff16815260200190815260200160002060000160009054906101000a900460ff16610a47576040517f08c379a0000000000000000000000000000000000000000000000000000000008152600401610a3e90611ff4565b60405180910390fd5b60001515600160003373ffffffffffffffffffffffffffffffffffffffff1673ffffffffffffffffffffffffffffffffffffffff16815260200190815260200160002060000160019054906101000a900460ff16151514610add576040517f08c379a0000000000000000000000000000000000000000000000000000000008152600401610ad490612060565b60405180910390fd5b60018060003373ffffffffffffffffffffffffffffffffffffffff1673ffffffffffffffffffffffffffffffffffffffff16815260200190815260200160002060000160016101000a81548160ff02191690831515021790555080600160003373ffffffffffffffffffffffffffffffffffffffff1673ffffffffffffffffffffffffffffffffffffffff1681526020019081526020016000206001018190555060038181548110610b9257610b91611f08565b5b90600052602060002090600202016001016000815480929190610bb490611f37565b91905055507f4d99b957a2bc29a30ebd96a7be8e68fe50a3c701db28a91436490b7d53870ca43382604051610bea929190612080565b60405180910390a150565b8060011515600160003373ffffffffffffffffffffffffffffffffffffffff1673ffffffffffffffffffffffffffffffffffffffff16815260200190815260200160002060000160009054906101000a900460ff16151514610c8c576040517f08c379a0000000000000000000000000000000000000000000000000000000008152600401610c83906120f5565b60405180910390fd5b6000600160008473ffffffffffffffffffffffffffffffffffffffff1673ffffffffffffffffffffffffffffffffffffffff16815260200190815260200160002060000160006101000a81548160ff0219169083151502179055507fba755c98e7ff88dd83065027aff06054db857349071edbef1f99757ec65d2f7882604051610d16919061180c565b60405180910390a15050565b60606003805480602002602001604051908101604052809291908181526020016000905b82821015610e145783829060005260206000209060020201604051806040016040529081600082018054610d79906119da565b80601f0160208091040260200160405190810160405280929190818152602001828054610da5906119da565b8015610df25780601f10610dc757610100808354040283529160200191610df2565b820191906000526020600020905b815481529060010190602001808311610dd557829003601f168201915b5050505050815260200160018201548152505081526020019060010190610d46565b50505050905090565b610e25611198565b73ffffffffffffffffffffffffffffffffffffffff16610e43610eb8565b73ffffffffffffffffffffffffffffffffffffffff1614610e99576040517f08c379a0000000000000000000000000000000000000000000000000000000008152600401610e9090611a57565b60405180910390fd5b610ea360006111a0565b565b600660009054906101000a900460ff1681565b60008060009054906101000a900473ffffffffffffffffffffffffffffffffffffffff16905090565b60606004805480602002602001604051908101604052809291908181526020018280548015610f6557602002820191906000526020600020905b8160009054906101000a900473ffffffffffffffffffffffffffffffffffffffff1673ffffffffffffffffffffffffffffffffffffffff1681526020019060010190808311610f1b575b5050505050905090565b60016020528060005260406000206000915090508060000160009054906101000a900460ff16908060000160019054906101000a900460ff16908060010154905083565b610fbb611198565b73ffffffffffffffffffffffffffffffffffffffff16610fd9610eb8565b73ffffffffffffffffffffffffffffffffffffffff161461102f576040517f08c379a000000000000000000000000000000000000000000000000000000000815260040161102690611a57565b60405180910390fd5b80600660006101000a81548160ff021916908360058111156110545761105361176b565b5b021790555050565b60055481565b6004818154811061107257600080fd5b906000526020600020016000915054906101000a900473ffffffffffffffffffffffffffffffffffffffff1681565b6110a9611198565b73ffffffffffffffffffffffffffffffffffffffff166110c7610eb8565b73ffffffffffffffffffffffffffffffffffffffff161461111d576040517f08c379a000000000000000000000000000000000000000000000000000000000815260040161111490611a57565b60405180910390fd5b600073ffffffffffffffffffffffffffffffffffffffff168173ffffffffffffffffffffffffffffffffffffffff160361118c576040517f08c379a000000000000000000000000000000000000000000000000000000000815260040161118390612187565b60405180910390fd5b611195816111a0565b50565b600033905090565b60008060009054906101000a900473ffffffffffffffffffffffffffffffffffffffff169050816000806101000a81548173ffffffffffffffffffffffffffffffffffffffff021916908373ffffffffffffffffffffffffffffffffffffffff1602179055508173ffffffffffffffffffffffffffffffffffffffff168173ffffffffffffffffffffffffffffffffffffffff167f8be0079c531659141344cd1fd0a4f28419497f9722a3daafe3b4186f6b6457e060405160405180910390a35050565b604051806040016040528060608152602001600081525090565b6000604051905090565b600080fd5b600080fd5b6000819050919050565b6112a581611292565b81146112b057600080fd5b50565b6000813590506112c28161129c565b92915050565b6000602082840312156112de576112dd611288565b5b60006112ec848285016112b3565b91505092915050565b600081519050919050565b600082825260208201905092915050565b60005b8381101561132f578082015181840152602081019050611314565b8381111561133e576000848401525b50505050565b6000601f19601f8301169050919050565b6000611360826112f5565b61136a8185611300565b935061137a818560208601611311565b61138381611344565b840191505092915050565b61139781611292565b82525050565b600060408201905081810360008301526113b78185611355565b90506113c6602083018461138e565b9392505050565b60006020820190506113e2600083018461138e565b92915050565b600073ffffffffffffffffffffffffffffffffffffffff82169050919050565b6000611413826113e8565b9050919050565b61142381611408565b811461142e57600080fd5b50565b6000813590506114408161141a565b92915050565b60006020828403121561145c5761145b611288565b5b600061146a84828501611431565b91505092915050565b600080fd5b600080fd5b7f4e487b7100000000000000000000000000000000000000000000000000000000600052604160045260246000fd5b6114b582611344565b810181811067ffffffffffffffff821117156114d4576114d361147d565b5b80604052505050565b60006114e761127e565b90506114f382826114ac565b919050565b600067ffffffffffffffff8211156115135761151261147d565b5b61151c82611344565b9050602081019050919050565b82818337600083830152505050565b600061154b611546846114f8565b6114dd565b90508281526020810184848401111561156757611566611478565b5b611572848285611529565b509392505050565b600082601f83011261158f5761158e611473565b5b813561159f848260208601611538565b91505092915050565b6000602082840312156115be576115bd611288565b5b600082013567ffffffffffffffff8111156115dc576115db61128d565b5b6115e88482850161157a565b91505092915050565b600081519050919050565b600082825260208201905092915050565b6000819050602082019050919050565b600082825260208201905092915050565b6000611639826112f5565b611643818561161d565b9350611653818560208601611311565b61165c81611344565b840191505092915050565b61167081611292565b82525050565b60006040830160008301518482036000860152611693828261162e565b91505060208301516116a86020860182611667565b508091505092915050565b60006116bf8383611676565b905092915050565b6000602082019050919050565b60006116df826115f1565b6116e981856115fc565b9350836020820285016116fb8561160d565b8060005b85811015611737578484038952815161171885826116b3565b9450611723836116c7565b925060208a019950506001810190506116ff565b50829750879550505050505092915050565b6000602082019050818103600083015261176381846116d4565b905092915050565b7f4e487b7100000000000000000000000000000000000000000000000000000000600052602160045260246000fd5b600681106117ab576117aa61176b565b5b50565b60008190506117bc8261179a565b919050565b60006117cc826117ae565b9050919050565b6117dc816117c1565b82525050565b60006020820190506117f760008301846117d3565b92915050565b61180681611408565b82525050565b600060208201905061182160008301846117fd565b92915050565b600081519050919050565b600082825260208201905092915050565b6000819050602082019050919050565b61185c81611408565b82525050565b600061186e8383611853565b60208301905092915050565b6000602082019050919050565b600061189282611827565b61189c8185611832565b93506118a783611843565b8060005b838110156118d85781516118bf8882611862565b97506118ca8361187a565b9250506001810190506118ab565b5085935050505092915050565b600060208201905081810360008301526118ff8184611887565b905092915050565b60008115159050919050565b61191c81611907565b82525050565b60006060820190506119376000830186611913565b6119446020830185611913565b611951604083018461138e565b949350505050565b6006811061196657600080fd5b50565b60008135905061197881611959565b92915050565b60006020828403121561199457611993611288565b5b60006119a284828501611969565b91505092915050565b7f4e487b7100000000000000000000000000000000000000000000000000000000600052602260045260246000fd5b600060028204905060018216806119f257607f821691505b602082108103611a0557611a046119ab565b5b50919050565b7f4f776e61626c653a2063616c6c6572206973206e6f7420746865206f776e6572600082015250565b6000611a41602083611300565b9150611a4c82611a0b565b602082019050919050565b60006020820190508181036000830152611a7081611a34565b9050919050565b7f796f752061726520616c72656164792072656769737465726564000000000000600082015250565b6000611aad601a83611300565b9150611ab882611a77565b602082019050919050565b60006020820190508181036000830152611adc81611aa0565b9050919050565b7f61646472657373206e6f742077686974656c6973746564000000000000000000600082015250565b6000611b19601783611300565b9150611b2482611ae3565b602082019050919050565b60006020820190508181036000830152611b4881611b0c565b9050919050565b7f50726f706f73616c7320617265206e6f7420616c6c6f77656420796574000000600082015250565b6000611b85601d83611300565b9150611b9082611b4f565b602082019050919050565b60006020820190508181036000830152611bb481611b78565b9050919050565b60008190508160005260206000209050919050565b60006020601f8301049050919050565b600082821b905092915050565b600060088302611c1d7fffffffffffffffffffffffffffffffffffffffffffffffffffffffffffffffff82611be0565b611c278683611be0565b95508019841693508086168417925050509392505050565b6000819050919050565b6000611c64611c5f611c5a84611292565b611c3f565b611292565b9050919050565b6000819050919050565b611c7e83611c49565b611c92611c8a82611c6b565b848454611bed565b825550505050565b600090565b611ca7611c9a565b611cb2818484611c75565b505050565b5b81811015611cd657611ccb600082611c9f565b600181019050611cb8565b5050565b601f821115611d1b57611cec81611bbb565b611cf584611bd0565b81016020851015611d04578190505b611d18611d1085611bd0565b830182611cb7565b50505b505050565b600082821c905092915050565b6000611d3e60001984600802611d20565b1980831691505092915050565b6000611d578383611d2d565b9150826002028217905092915050565b611d70826112f5565b67ffffffffffffffff811115611d8957611d8861147d565b5b611d9382546119da565b611d9e828285611cda565b600060209050601f831160018114611dd15760008415611dbf578287015190505b611dc98582611d4b565b865550611e31565b601f198416611ddf86611bbb565b60005b82811015611e0757848901518255600182019150602085019450602081019050611de2565b86831015611e245784890151611e20601f891682611d2d565b8355505b6001600288020188555050505b505050505050565b7f4e487b7100000000000000000000000000000000000000000000000000000000600052601160045260246000fd5b6000611e7382611292565b9150611e7e83611292565b925082821015611e9157611e90611e39565b5b828203905092915050565b7f706c65617365206d616b65207468652073746174757320656e64656400000000600082015250565b6000611ed2601c83611300565b9150611edd82611e9c565b602082019050919050565b60006020820190508181036000830152611f0181611ec5565b9050919050565b7f4e487b7100000000000000000000000000000000000000000000000000000000600052603260045260246000fd5b6000611f4282611292565b91507fffffffffffffffffffffffffffffffffffffffffffffffffffffffffffffffff8203611f7457611f73611e39565b5b600182019050919050565b6000604082019050611f9460008301856117d3565b611fa160208301846117d3565b9392505050565b7f596f75722061646472657373206973206e6f74206f6e2074686520574c000000600082015250565b6000611fde601d83611300565b9150611fe982611fa8565b602082019050919050565b6000602082019050818103600083015261200d81611fd1565b9050919050565b7f416464726573732068617320616c726561647920766f74656400000000000000600082015250565b600061204a601983611300565b915061205582612014565b602082019050919050565b600060208201905081810360008301526120798161203d565b9050919050565b600060408201905061209560008301856117fd565b6120a2602083018461138e565b9392505050565b7f6e6f74206f6e2074686520776c00000000000000000000000000000000000000600082015250565b60006120df600d83611300565b91506120ea826120a9565b602082019050919050565b6000602082019050818103600083015261210e816120d2565b9050919050565b7f4f776e61626c653a206e6577206f776e657220697320746865207a65726f206160008201527f6464726573730000000000000000000000000000000000000000000000000000602082015250565b6000612171602683611300565b915061217c82612115565b604082019050919050565b600060208201905081810360008301526121a081612164565b905091905056fea2646970667358221220138616bb8244b4a46b1a888f1c607ebba90dc89b342efc60b153dbd5c76ae59064736f6c634300080f0033",
					"opcodes": "PUSH1 0x80 PUSH1 0x40 MSTORE PUSH1 0x0 PUSH1 0x6 PUSH1 0x0 PUSH2 0x100 EXP DUP2 SLOAD DUP2 PUSH1 0xFF MUL NOT AND SWAP1 DUP4 PUSH1 0x5 DUP2 GT ISZERO PUSH3 0x2D JUMPI PUSH3 0x2C PUSH3 0x132 JUMP JUMPDEST JUMPDEST MUL OR SWAP1 SSTORE POP CALLVALUE DUP1 ISZERO PUSH3 0x3F JUMPI PUSH1 0x0 DUP1 REVERT JUMPDEST POP PUSH3 0x60 PUSH3 0x54 PUSH3 0x66 PUSH1 0x20 SHL PUSH1 0x20 SHR JUMP JUMPDEST PUSH3 0x6E PUSH1 0x20 SHL PUSH1 0x20 SHR JUMP JUMPDEST PUSH3 0x161 JUMP JUMPDEST PUSH1 0x0 CALLER SWAP1 POP SWAP1 JUMP JUMPDEST PUSH1 0x0 DUP1 PUSH1 0x0 SWAP1 SLOAD SWAP1 PUSH2 0x100 EXP SWAP1 DIV PUSH20 0xFFFFFFFFFFFFFFFFFFFFFFFFFFFFFFFFFFFFFFFF AND SWAP1 POP DUP2 PUSH1 0x0 DUP1 PUSH2 0x100 EXP DUP2 SLOAD DUP2 PUSH20 0xFFFFFFFFFFFFFFFFFFFFFFFFFFFFFFFFFFFFFFFF MUL NOT AND SWAP1 DUP4 PUSH20 0xFFFFFFFFFFFFFFFFFFFFFFFFFFFFFFFFFFFFFFFF AND MUL OR SWAP1 SSTORE POP DUP2 PUSH20 0xFFFFFFFFFFFFFFFFFFFFFFFFFFFFFFFFFFFFFFFF AND DUP2 PUSH20 0xFFFFFFFFFFFFFFFFFFFFFFFFFFFFFFFFFFFFFFFF AND PUSH32 0x8BE0079C531659141344CD1FD0A4F28419497F9722A3DAAFE3B4186F6B6457E0 PUSH1 0x40 MLOAD PUSH1 0x40 MLOAD DUP1 SWAP2 SUB SWAP1 LOG3 POP POP JUMP JUMPDEST PUSH32 0x4E487B7100000000000000000000000000000000000000000000000000000000 PUSH1 0x0 MSTORE PUSH1 0x21 PUSH1 0x4 MSTORE PUSH1 0x24 PUSH1 0x0 REVERT JUMPDEST PUSH2 0x21DD DUP1 PUSH3 0x171 PUSH1 0x0 CODECOPY PUSH1 0x0 RETURN INVALID PUSH1 0x80 PUSH1 0x40 MSTORE CALLVALUE DUP1 ISZERO PUSH2 0x10 JUMPI PUSH1 0x0 DUP1 REVERT JUMPDEST POP PUSH1 0x4 CALLDATASIZE LT PUSH2 0x10B JUMPI PUSH1 0x0 CALLDATALOAD PUSH1 0xE0 SHR DUP1 PUSH4 0x715018A6 GT PUSH2 0xA2 JUMPI DUP1 PUSH4 0xA3EC138D GT PUSH2 0x71 JUMPI DUP1 PUSH4 0xA3EC138D EQ PUSH2 0x25B JUMPI DUP1 PUSH4 0xB95C9663 EQ PUSH2 0x28D JUMPI DUP1 PUSH4 0xBDC01431 EQ PUSH2 0x2A9 JUMPI DUP1 PUSH4 0xEDF26D9B EQ PUSH2 0x2C7 JUMPI DUP1 PUSH4 0xF2FDE38B EQ PUSH2 0x2F7 JUMPI PUSH2 0x10B JUMP JUMPDEST DUP1 PUSH4 0x715018A6 EQ PUSH2 0x1F7 JUMPI DUP1 PUSH4 0x7AE6EE32 EQ PUSH2 0x201 JUMPI DUP1 PUSH4 0x8DA5CB5B EQ PUSH2 0x21F JUMPI DUP1 PUSH4 0xA39FAC12 EQ PUSH2 0x23D JUMPI PUSH2 0x10B JUMP JUMPDEST DUP1 PUSH4 0x378A2178 GT PUSH2 0xDE JUMPI DUP1 PUSH4 0x378A2178 EQ PUSH2 0x197 JUMPI DUP1 PUSH4 0x464D4A92 EQ PUSH2 0x1A1 JUMPI DUP1 PUSH4 0x48F72C48 EQ PUSH2 0x1BD JUMPI DUP1 PUSH4 0x62564C48 EQ PUSH2 0x1D9 JUMPI PUSH2 0x10B JUMP JUMPDEST DUP1 PUSH4 0x13CF08B EQ PUSH2 0x110 JUMPI DUP1 PUSH4 0xD2328D3 EQ PUSH2 0x141 JUMPI DUP1 PUSH4 0x125F48E4 EQ PUSH2 0x15F JUMPI DUP1 PUSH4 0x2FDAE3C5 EQ PUSH2 0x17B JUMPI JUMPDEST PUSH1 0x0 DUP1 REVERT JUMPDEST PUSH2 0x12A PUSH1 0x4 DUP1 CALLDATASIZE SUB DUP2 ADD SWAP1 PUSH2 0x125 SWAP2 SWAP1 PUSH2 0x12C8 JUMP JUMPDEST PUSH2 0x313 JUMP JUMPDEST PUSH1 0x40 MLOAD PUSH2 0x138 SWAP3 SWAP2 SWAP1 PUSH2 0x139D JUMP JUMPDEST PUSH1 0x40 MLOAD DUP1 SWAP2 SUB SWAP1 RETURN JUMPDEST PUSH2 0x149 PUSH2 0x3CF JUMP JUMPDEST PUSH1 0x40 MLOAD PUSH2 0x156 SWAP2 SWAP1 PUSH2 0x13CD JUMP JUMPDEST PUSH1 0x40 MLOAD DUP1 SWAP2 SUB SWAP1 RETURN JUMPDEST PUSH2 0x179 PUSH1 0x4 DUP1 CALLDATASIZE SUB DUP2 ADD SWAP1 PUSH2 0x174 SWAP2 SWAP1 PUSH2 0x1446 JUMP JUMPDEST PUSH2 0x3D5 JUMP JUMPDEST STOP JUMPDEST PUSH2 0x195 PUSH1 0x4 DUP1 CALLDATASIZE SUB DUP2 ADD SWAP1 PUSH2 0x190 SWAP2 SWAP1 PUSH2 0x15A8 JUMP JUMPDEST PUSH2 0x620 JUMP JUMPDEST STOP JUMPDEST PUSH2 0x19F PUSH2 0x7D7 JUMP JUMPDEST STOP JUMPDEST PUSH2 0x1BB PUSH1 0x4 DUP1 CALLDATASIZE SUB DUP2 ADD SWAP1 PUSH2 0x1B6 SWAP2 SWAP1 PUSH2 0x12C8 JUMP JUMPDEST PUSH2 0x9B8 JUMP JUMPDEST STOP JUMPDEST PUSH2 0x1D7 PUSH1 0x4 DUP1 CALLDATASIZE SUB DUP2 ADD SWAP1 PUSH2 0x1D2 SWAP2 SWAP1 PUSH2 0x1446 JUMP JUMPDEST PUSH2 0xBF5 JUMP JUMPDEST STOP JUMPDEST PUSH2 0x1E1 PUSH2 0xD22 JUMP JUMPDEST PUSH1 0x40 MLOAD PUSH2 0x1EE SWAP2 SWAP1 PUSH2 0x1749 JUMP JUMPDEST PUSH1 0x40 MLOAD DUP1 SWAP2 SUB SWAP1 RETURN JUMPDEST PUSH2 0x1FF PUSH2 0xE1D JUMP JUMPDEST STOP JUMPDEST PUSH2 0x209 PUSH2 0xEA5 JUMP JUMPDEST PUSH1 0x40 MLOAD PUSH2 0x216 SWAP2 SWAP1 PUSH2 0x17E2 JUMP JUMPDEST PUSH1 0x40 MLOAD DUP1 SWAP2 SUB SWAP1 RETURN JUMPDEST PUSH2 0x227 PUSH2 0xEB8 JUMP JUMPDEST PUSH1 0x40 MLOAD PUSH2 0x234 SWAP2 SWAP1 PUSH2 0x180C JUMP JUMPDEST PUSH1 0x40 MLOAD DUP1 SWAP2 SUB SWAP1 RETURN JUMPDEST PUSH2 0x245 PUSH2 0xEE1 JUMP JUMPDEST PUSH1 0x40 MLOAD PUSH2 0x252 SWAP2 SWAP1 PUSH2 0x18E5 JUMP JUMPDEST PUSH1 0x40 MLOAD DUP1 SWAP2 SUB SWAP1 RETURN JUMPDEST PUSH2 0x275 PUSH1 0x4 DUP1 CALLDATASIZE SUB DUP2 ADD SWAP1 PUSH2 0x270 SWAP2 SWAP1 PUSH2 0x1446 JUMP JUMPDEST PUSH2 0xF6F JUMP JUMPDEST PUSH1 0x40 MLOAD PUSH2 0x284 SWAP4 SWAP3 SWAP2 SWAP1 PUSH2 0x1922 JUMP JUMPDEST PUSH1 0x40 MLOAD DUP1 SWAP2 SUB SWAP1 RETURN JUMPDEST PUSH2 0x2A7 PUSH1 0x4 DUP1 CALLDATASIZE SUB DUP2 ADD SWAP1 PUSH2 0x2A2 SWAP2 SWAP1 PUSH2 0x197E JUMP JUMPDEST PUSH2 0xFB3 JUMP JUMPDEST STOP JUMPDEST PUSH2 0x2B1 PUSH2 0x105C JUMP JUMPDEST PUSH1 0x40 MLOAD PUSH2 0x2BE SWAP2 SWAP1 PUSH2 0x13CD JUMP JUMPDEST PUSH1 0x40 MLOAD DUP1 SWAP2 SUB SWAP1 RETURN JUMPDEST PUSH2 0x2E1 PUSH1 0x4 DUP1 CALLDATASIZE SUB DUP2 ADD SWAP1 PUSH2 0x2DC SWAP2 SWAP1 PUSH2 0x12C8 JUMP JUMPDEST PUSH2 0x1062 JUMP JUMPDEST PUSH1 0x40 MLOAD PUSH2 0x2EE SWAP2 SWAP1 PUSH2 0x180C JUMP JUMPDEST PUSH1 0x40 MLOAD DUP1 SWAP2 SUB SWAP1 RETURN JUMPDEST PUSH2 0x311 PUSH1 0x4 DUP1 CALLDATASIZE SUB DUP2 ADD SWAP1 PUSH2 0x30C SWAP2 SWAP1 PUSH2 0x1446 JUMP JUMPDEST PUSH2 0x10A1 JUMP JUMPDEST STOP JUMPDEST PUSH1 0x3 DUP2 DUP2 SLOAD DUP2 LT PUSH2 0x323 JUMPI PUSH1 0x0 DUP1 REVERT JUMPDEST SWAP1 PUSH1 0x0 MSTORE PUSH1 0x20 PUSH1 0x0 KECCAK256 SWAP1 PUSH1 0x2 MUL ADD PUSH1 0x0 SWAP2 POP SWAP1 POP DUP1 PUSH1 0x0 ADD DUP1 SLOAD PUSH2 0x346 SWAP1 PUSH2 0x19DA JUMP JUMPDEST DUP1 PUSH1 0x1F ADD PUSH1 0x20 DUP1 SWAP2 DIV MUL PUSH1 0x20 ADD PUSH1 0x40 MLOAD SWAP1 DUP2 ADD PUSH1 0x40 MSTORE DUP1 SWAP3 SWAP2 SWAP1 DUP2 DUP2 MSTORE PUSH1 0x20 ADD DUP3 DUP1 SLOAD PUSH2 0x372 SWAP1 PUSH2 0x19DA JUMP JUMPDEST DUP1 ISZERO PUSH2 0x3BF JUMPI DUP1 PUSH1 0x1F LT PUSH2 0x394 JUMPI PUSH2 0x100 DUP1 DUP4 SLOAD DIV MUL DUP4 MSTORE SWAP2 PUSH1 0x20 ADD SWAP2 PUSH2 0x3BF JUMP JUMPDEST DUP3 ADD SWAP2 SWAP1 PUSH1 0x0 MSTORE PUSH1 0x20 PUSH1 0x0 KECCAK256 SWAP1 JUMPDEST DUP2 SLOAD DUP2 MSTORE SWAP1 PUSH1 0x1 ADD SWAP1 PUSH1 0x20 ADD DUP1 DUP4 GT PUSH2 0x3A2 JUMPI DUP3 SWAP1 SUB PUSH1 0x1F AND DUP3 ADD SWAP2 JUMPDEST POP POP POP POP POP SWAP1 DUP1 PUSH1 0x1 ADD SLOAD SWAP1 POP DUP3 JUMP JUMPDEST PUSH1 0x2 SLOAD DUP2 JUMP JUMPDEST PUSH2 0x3DD PUSH2 0x1198 JUMP JUMPDEST PUSH20 0xFFFFFFFFFFFFFFFFFFFFFFFFFFFFFFFFFFFFFFFF AND PUSH2 0x3FB PUSH2 0xEB8 JUMP JUMPDEST PUSH20 0xFFFFFFFFFFFFFFFFFFFFFFFFFFFFFFFFFFFFFFFF AND EQ PUSH2 0x451 JUMPI PUSH1 0x40 MLOAD PUSH32 0x8C379A000000000000000000000000000000000000000000000000000000000 DUP2 MSTORE PUSH1 0x4 ADD PUSH2 0x448 SWAP1 PUSH2 0x1A57 JUMP JUMPDEST PUSH1 0x40 MLOAD DUP1 SWAP2 SUB SWAP1 REVERT JUMPDEST PUSH1 0x0 PUSH1 0x6 PUSH1 0x0 SWAP1 SLOAD SWAP1 PUSH2 0x100 EXP SWAP1 DIV PUSH1 0xFF AND PUSH1 0x5 DUP2 GT ISZERO PUSH2 0x475 JUMPI PUSH2 0x474 PUSH2 0x176B JUMP JUMPDEST JUMPDEST DUP2 PUSH1 0x5 DUP2 GT ISZERO PUSH2 0x488 JUMPI PUSH2 0x487 PUSH2 0x176B JUMP JUMPDEST JUMPDEST EQ PUSH2 0x492 JUMPI PUSH1 0x0 DUP1 REVERT JUMPDEST PUSH1 0x1 ISZERO ISZERO PUSH1 0x1 PUSH1 0x0 DUP5 PUSH20 0xFFFFFFFFFFFFFFFFFFFFFFFFFFFFFFFFFFFFFFFF AND PUSH20 0xFFFFFFFFFFFFFFFFFFFFFFFFFFFFFFFFFFFFFFFF AND DUP2 MSTORE PUSH1 0x20 ADD SWAP1 DUP2 MSTORE PUSH1 0x20 ADD PUSH1 0x0 KECCAK256 PUSH1 0x0 ADD PUSH1 0x0 SWAP1 SLOAD SWAP1 PUSH2 0x100 EXP SWAP1 DIV PUSH1 0xFF AND ISZERO ISZERO SUB PUSH2 0x528 JUMPI PUSH1 0x40 MLOAD PUSH32 0x8C379A000000000000000000000000000000000000000000000000000000000 DUP2 MSTORE PUSH1 0x4 ADD PUSH2 0x51F SWAP1 PUSH2 0x1AC3 JUMP JUMPDEST PUSH1 0x40 MLOAD DUP1 SWAP2 SUB SWAP1 REVERT JUMPDEST PUSH1 0x1 DUP1 PUSH1 0x0 DUP5 PUSH20 0xFFFFFFFFFFFFFFFFFFFFFFFFFFFFFFFFFFFFFFFF AND PUSH20 0xFFFFFFFFFFFFFFFFFFFFFFFFFFFFFFFFFFFFFFFF AND DUP2 MSTORE PUSH1 0x20 ADD SWAP1 DUP2 MSTORE PUSH1 0x20 ADD PUSH1 0x0 KECCAK256 PUSH1 0x0 ADD PUSH1 0x0 PUSH2 0x100 EXP DUP2 SLOAD DUP2 PUSH1 0xFF MUL NOT AND SWAP1 DUP4 ISZERO ISZERO MUL OR SWAP1 SSTORE POP PUSH1 0x4 DUP3 SWAP1 DUP1 PUSH1 0x1 DUP2 SLOAD ADD DUP1 DUP3 SSTORE DUP1 SWAP2 POP POP PUSH1 0x1 SWAP1 SUB SWAP1 PUSH1 0x0 MSTORE PUSH1 0x20 PUSH1 0x0 KECCAK256 ADD PUSH1 0x0 SWAP1 SWAP2 SWAP1 SWAP2 SWAP1 SWAP2 PUSH2 0x100 EXP DUP2 SLOAD DUP2 PUSH20 0xFFFFFFFFFFFFFFFFFFFFFFFFFFFFFFFFFFFFFFFF MUL NOT AND SWAP1 DUP4 PUSH20 0xFFFFFFFFFFFFFFFFFFFFFFFFFFFFFFFFFFFFFFFF AND MUL OR SWAP1 SSTORE POP PUSH32 0xB6BE2187D059CC2A55FE29E0E503B566E1E0F8C8780096E185429350ACFFD3DD DUP3 PUSH1 0x40 MLOAD PUSH2 0x614 SWAP2 SWAP1 PUSH2 0x180C JUMP JUMPDEST PUSH1 0x40 MLOAD DUP1 SWAP2 SUB SWAP1 LOG1 POP POP JUMP JUMPDEST PUSH1 0x1 ISZERO ISZERO PUSH1 0x1 PUSH1 0x0 CALLER PUSH20 0xFFFFFFFFFFFFFFFFFFFFFFFFFFFFFFFFFFFFFFFF AND PUSH20 0xFFFFFFFFFFFFFFFFFFFFFFFFFFFFFFFFFFFFFFFF AND DUP2 MSTORE PUSH1 0x20 ADD SWAP1 DUP2 MSTORE PUSH1 0x20 ADD PUSH1 0x0 KECCAK256 PUSH1 0x0 ADD PUSH1 0x0 SWAP1 SLOAD SWAP1 PUSH2 0x100 EXP SWAP1 DIV PUSH1 0xFF AND ISZERO ISZERO EQ PUSH2 0x6B6 JUMPI PUSH1 0x40 MLOAD PUSH32 0x8C379A000000000000000000000000000000000000000000000000000000000 DUP2 MSTORE PUSH1 0x4 ADD PUSH2 0x6AD SWAP1 PUSH2 0x1B2F JUMP JUMPDEST PUSH1 0x40 MLOAD DUP1 SWAP2 SUB SWAP1 REVERT JUMPDEST PUSH1 0x1 PUSH1 0x5 DUP2 GT ISZERO PUSH2 0x6CA JUMPI PUSH2 0x6C9 PUSH2 0x176B JUMP JUMPDEST JUMPDEST PUSH1 0x6 PUSH1 0x0 SWAP1 SLOAD SWAP1 PUSH2 0x100 EXP SWAP1 DIV PUSH1 0xFF AND PUSH1 0x5 DUP2 GT ISZERO PUSH2 0x6EC JUMPI PUSH2 0x6EB PUSH2 0x176B JUMP JUMPDEST JUMPDEST EQ PUSH2 0x72C JUMPI PUSH1 0x40 MLOAD PUSH32 0x8C379A000000000000000000000000000000000000000000000000000000000 DUP2 MSTORE PUSH1 0x4 ADD PUSH2 0x723 SWAP1 PUSH2 0x1B9B JUMP JUMPDEST PUSH1 0x40 MLOAD DUP1 SWAP2 SUB SWAP1 REVERT JUMPDEST PUSH2 0x734 PUSH2 0x1264 JUMP JUMPDEST DUP2 DUP2 PUSH1 0x0 ADD DUP2 SWAP1 MSTORE POP PUSH1 0x3 DUP2 SWAP1 DUP1 PUSH1 0x1 DUP2 SLOAD ADD DUP1 DUP3 SSTORE DUP1 SWAP2 POP POP PUSH1 0x1 SWAP1 SUB SWAP1 PUSH1 0x0 MSTORE PUSH1 0x20 PUSH1 0x0 KECCAK256 SWAP1 PUSH1 0x2 MUL ADD PUSH1 0x0 SWAP1 SWAP2 SWAP1 SWAP2 SWAP1 SWAP2 POP PUSH1 0x0 DUP3 ADD MLOAD DUP2 PUSH1 0x0 ADD SWAP1 DUP2 PUSH2 0x77E SWAP2 SWAP1 PUSH2 0x1D67 JUMP JUMPDEST POP PUSH1 0x20 DUP3 ADD MLOAD DUP2 PUSH1 0x1 ADD SSTORE POP POP PUSH32 0x92E393E9B54E2F801D3EA4BEB0C5E71A21CC34A5D34B77D0FB8A3AA1650DC18F PUSH1 0x1 PUSH1 0x3 DUP1 SLOAD SWAP1 POP PUSH2 0x7BE SWAP2 SWAP1 PUSH2 0x1E68 JUMP JUMPDEST PUSH1 0x40 MLOAD PUSH2 0x7CB SWAP2 SWAP1 PUSH2 0x13CD JUMP JUMPDEST PUSH1 0x40 MLOAD DUP1 SWAP2 SUB SWAP1 LOG1 POP POP JUMP JUMPDEST PUSH2 0x7DF PUSH2 0x1198 JUMP JUMPDEST PUSH20 0xFFFFFFFFFFFFFFFFFFFFFFFFFFFFFFFFFFFFFFFF AND PUSH2 0x7FD PUSH2 0xEB8 JUMP JUMPDEST PUSH20 0xFFFFFFFFFFFFFFFFFFFFFFFFFFFFFFFFFFFFFFFF AND EQ PUSH2 0x853 JUMPI PUSH1 0x40 MLOAD PUSH32 0x8C379A000000000000000000000000000000000000000000000000000000000 DUP2 MSTORE PUSH1 0x4 ADD PUSH2 0x84A SWAP1 PUSH2 0x1A57 JUMP JUMPDEST PUSH1 0x40 MLOAD DUP1 SWAP2 SUB SWAP1 REVERT JUMPDEST PUSH1 0x4 PUSH1 0x5 DUP2 GT ISZERO PUSH2 0x867 JUMPI PUSH2 0x866 PUSH2 0x176B JUMP JUMPDEST JUMPDEST PUSH1 0x6 PUSH1 0x0 SWAP1 SLOAD SWAP1 PUSH2 0x100 EXP SWAP1 DIV PUSH1 0xFF AND PUSH1 0x5 DUP2 GT ISZERO PUSH2 0x889 JUMPI PUSH2 0x888 PUSH2 0x176B JUMP JUMPDEST JUMPDEST EQ PUSH2 0x8C9 JUMPI PUSH1 0x40 MLOAD PUSH32 0x8C379A000000000000000000000000000000000000000000000000000000000 DUP2 MSTORE PUSH1 0x4 ADD PUSH2 0x8C0 SWAP1 PUSH2 0x1EE8 JUMP JUMPDEST PUSH1 0x40 MLOAD DUP1 SWAP2 SUB SWAP1 REVERT JUMPDEST PUSH1 0x0 DUP1 PUSH1 0x0 SWAP1 POP JUMPDEST PUSH1 0x3 DUP1 SLOAD SWAP1 POP DUP2 LT ISZERO PUSH2 0x947 JUMPI PUSH1 0x3 DUP3 DUP2 SLOAD DUP2 LT PUSH2 0x8F2 JUMPI PUSH2 0x8F1 PUSH2 0x1F08 JUMP JUMPDEST JUMPDEST SWAP1 PUSH1 0x0 MSTORE PUSH1 0x20 PUSH1 0x0 KECCAK256 SWAP1 PUSH1 0x2 MUL ADD PUSH1 0x1 ADD SLOAD PUSH1 0x3 DUP3 DUP2 SLOAD DUP2 LT PUSH2 0x918 JUMPI PUSH2 0x917 PUSH2 0x1F08 JUMP JUMPDEST JUMPDEST SWAP1 PUSH1 0x0 MSTORE PUSH1 0x20 PUSH1 0x0 KECCAK256 SWAP1 PUSH1 0x2 MUL ADD PUSH1 0x1 ADD SLOAD GT ISZERO PUSH2 0x934 JUMPI DUP1 SWAP2 POP JUMPDEST DUP1 DUP1 PUSH2 0x93F SWAP1 PUSH2 0x1F37 JUMP JUMPDEST SWAP2 POP POP PUSH2 0x8D1 JUMP JUMPDEST POP DUP1 PUSH1 0x5 DUP2 SWAP1 SSTORE POP PUSH1 0x5 PUSH1 0x6 PUSH1 0x0 PUSH2 0x100 EXP DUP2 SLOAD DUP2 PUSH1 0xFF MUL NOT AND SWAP1 DUP4 PUSH1 0x5 DUP2 GT ISZERO PUSH2 0x975 JUMPI PUSH2 0x974 PUSH2 0x176B JUMP JUMPDEST JUMPDEST MUL OR SWAP1 SSTORE POP PUSH32 0xA97A4EE45751E2ABF3E4FC8946939630B11B371EA8AE39CCDC3056E98F5CC3F PUSH1 0x4 PUSH1 0x5 PUSH1 0x40 MLOAD PUSH2 0x9AD SWAP3 SWAP2 SWAP1 PUSH2 0x1F7F JUMP JUMPDEST PUSH1 0x40 MLOAD DUP1 SWAP2 SUB SWAP1 LOG1 POP JUMP JUMPDEST PUSH1 0x1 PUSH1 0x0 CALLER PUSH20 0xFFFFFFFFFFFFFFFFFFFFFFFFFFFFFFFFFFFFFFFF AND PUSH20 0xFFFFFFFFFFFFFFFFFFFFFFFFFFFFFFFFFFFFFFFF AND DUP2 MSTORE PUSH1 0x20 ADD SWAP1 DUP2 MSTORE PUSH1 0x20 ADD PUSH1 0x0 KECCAK256 PUSH1 0x0 ADD PUSH1 0x0 SWAP1 SLOAD SWAP1 PUSH2 0x100 EXP SWAP1 DIV PUSH1 0xFF AND PUSH2 0xA47 JUMPI PUSH1 0x40 MLOAD PUSH32 0x8C379A000000000000000000000000000000000000000000000000000000000 DUP2 MSTORE PUSH1 0x4 ADD PUSH2 0xA3E SWAP1 PUSH2 0x1FF4 JUMP JUMPDEST PUSH1 0x40 MLOAD DUP1 SWAP2 SUB SWAP1 REVERT JUMPDEST PUSH1 0x0 ISZERO ISZERO PUSH1 0x1 PUSH1 0x0 CALLER PUSH20 0xFFFFFFFFFFFFFFFFFFFFFFFFFFFFFFFFFFFFFFFF AND PUSH20 0xFFFFFFFFFFFFFFFFFFFFFFFFFFFFFFFFFFFFFFFF AND DUP2 MSTORE PUSH1 0x20 ADD SWAP1 DUP2 MSTORE PUSH1 0x20 ADD PUSH1 0x0 KECCAK256 PUSH1 0x0 ADD PUSH1 0x1 SWAP1 SLOAD SWAP1 PUSH2 0x100 EXP SWAP1 DIV PUSH1 0xFF AND ISZERO ISZERO EQ PUSH2 0xADD JUMPI PUSH1 0x40 MLOAD PUSH32 0x8C379A000000000000000000000000000000000000000000000000000000000 DUP2 MSTORE PUSH1 0x4 ADD PUSH2 0xAD4 SWAP1 PUSH2 0x2060 JUMP JUMPDEST PUSH1 0x40 MLOAD DUP1 SWAP2 SUB SWAP1 REVERT JUMPDEST PUSH1 0x1 DUP1 PUSH1 0x0 CALLER PUSH20 0xFFFFFFFFFFFFFFFFFFFFFFFFFFFFFFFFFFFFFFFF AND PUSH20 0xFFFFFFFFFFFFFFFFFFFFFFFFFFFFFFFFFFFFFFFF AND DUP2 MSTORE PUSH1 0x20 ADD SWAP1 DUP2 MSTORE PUSH1 0x20 ADD PUSH1 0x0 KECCAK256 PUSH1 0x0 ADD PUSH1 0x1 PUSH2 0x100 EXP DUP2 SLOAD DUP2 PUSH1 0xFF MUL NOT AND SWAP1 DUP4 ISZERO ISZERO MUL OR SWAP1 SSTORE POP DUP1 PUSH1 0x1 PUSH1 0x0 CALLER PUSH20 0xFFFFFFFFFFFFFFFFFFFFFFFFFFFFFFFFFFFFFFFF AND PUSH20 0xFFFFFFFFFFFFFFFFFFFFFFFFFFFFFFFFFFFFFFFF AND DUP2 MSTORE PUSH1 0x20 ADD SWAP1 DUP2 MSTORE PUSH1 0x20 ADD PUSH1 0x0 KECCAK256 PUSH1 0x1 ADD DUP2 SWAP1 SSTORE POP PUSH1 0x3 DUP2 DUP2 SLOAD DUP2 LT PUSH2 0xB92 JUMPI PUSH2 0xB91 PUSH2 0x1F08 JUMP JUMPDEST JUMPDEST SWAP1 PUSH1 0x0 MSTORE PUSH1 0x20 PUSH1 0x0 KECCAK256 SWAP1 PUSH1 0x2 MUL ADD PUSH1 0x1 ADD PUSH1 0x0 DUP2 SLOAD DUP1 SWAP3 SWAP2 SWAP1 PUSH2 0xBB4 SWAP1 PUSH2 0x1F37 JUMP JUMPDEST SWAP2 SWAP1 POP SSTORE POP PUSH32 0x4D99B957A2BC29A30EBD96A7BE8E68FE50A3C701DB28A91436490B7D53870CA4 CALLER DUP3 PUSH1 0x40 MLOAD PUSH2 0xBEA SWAP3 SWAP2 SWAP1 PUSH2 0x2080 JUMP JUMPDEST PUSH1 0x40 MLOAD DUP1 SWAP2 SUB SWAP1 LOG1 POP JUMP JUMPDEST DUP1 PUSH1 0x1 ISZERO ISZERO PUSH1 0x1 PUSH1 0x0 CALLER PUSH20 0xFFFFFFFFFFFFFFFFFFFFFFFFFFFFFFFFFFFFFFFF AND PUSH20 0xFFFFFFFFFFFFFFFFFFFFFFFFFFFFFFFFFFFFFFFF AND DUP2 MSTORE PUSH1 0x20 ADD SWAP1 DUP2 MSTORE PUSH1 0x20 ADD PUSH1 0x0 KECCAK256 PUSH1 0x0 ADD PUSH1 0x0 SWAP1 SLOAD SWAP1 PUSH2 0x100 EXP SWAP1 DIV PUSH1 0xFF AND ISZERO ISZERO EQ PUSH2 0xC8C JUMPI PUSH1 0x40 MLOAD PUSH32 0x8C379A000000000000000000000000000000000000000000000000000000000 DUP2 MSTORE PUSH1 0x4 ADD PUSH2 0xC83 SWAP1 PUSH2 0x20F5 JUMP JUMPDEST PUSH1 0x40 MLOAD DUP1 SWAP2 SUB SWAP1 REVERT JUMPDEST PUSH1 0x0 PUSH1 0x1 PUSH1 0x0 DUP5 PUSH20 0xFFFFFFFFFFFFFFFFFFFFFFFFFFFFFFFFFFFFFFFF AND PUSH20 0xFFFFFFFFFFFFFFFFFFFFFFFFFFFFFFFFFFFFFFFF AND DUP2 MSTORE PUSH1 0x20 ADD SWAP1 DUP2 MSTORE PUSH1 0x20 ADD PUSH1 0x0 KECCAK256 PUSH1 0x0 ADD PUSH1 0x0 PUSH2 0x100 EXP DUP2 SLOAD DUP2 PUSH1 0xFF MUL NOT AND SWAP1 DUP4 ISZERO ISZERO MUL OR SWAP1 SSTORE POP PUSH32 0xBA755C98E7FF88DD83065027AFF06054DB857349071EDBEF1F99757EC65D2F78 DUP3 PUSH1 0x40 MLOAD PUSH2 0xD16 SWAP2 SWAP1 PUSH2 0x180C JUMP JUMPDEST PUSH1 0x40 MLOAD DUP1 SWAP2 SUB SWAP1 LOG1 POP POP JUMP JUMPDEST PUSH1 0x60 PUSH1 0x3 DUP1 SLOAD DUP1 PUSH1 0x20 MUL PUSH1 0x20 ADD PUSH1 0x40 MLOAD SWAP1 DUP2 ADD PUSH1 0x40 MSTORE DUP1 SWAP3 SWAP2 SWAP1 DUP2 DUP2 MSTORE PUSH1 0x20 ADD PUSH1 0x0 SWAP1 JUMPDEST DUP3 DUP3 LT ISZERO PUSH2 0xE14 JUMPI DUP4 DUP3 SWAP1 PUSH1 0x0 MSTORE PUSH1 0x20 PUSH1 0x0 KECCAK256 SWAP1 PUSH1 0x2 MUL ADD PUSH1 0x40 MLOAD DUP1 PUSH1 0x40 ADD PUSH1 0x40 MSTORE SWAP1 DUP2 PUSH1 0x0 DUP3 ADD DUP1 SLOAD PUSH2 0xD79 SWAP1 PUSH2 0x19DA JUMP JUMPDEST DUP1 PUSH1 0x1F ADD PUSH1 0x20 DUP1 SWAP2 DIV MUL PUSH1 0x20 ADD PUSH1 0x40 MLOAD SWAP1 DUP2 ADD PUSH1 0x40 MSTORE DUP1 SWAP3 SWAP2 SWAP1 DUP2 DUP2 MSTORE PUSH1 0x20 ADD DUP3 DUP1 SLOAD PUSH2 0xDA5 SWAP1 PUSH2 0x19DA JUMP JUMPDEST DUP1 ISZERO PUSH2 0xDF2 JUMPI DUP1 PUSH1 0x1F LT PUSH2 0xDC7 JUMPI PUSH2 0x100 DUP1 DUP4 SLOAD DIV MUL DUP4 MSTORE SWAP2 PUSH1 0x20 ADD SWAP2 PUSH2 0xDF2 JUMP JUMPDEST DUP3 ADD SWAP2 SWAP1 PUSH1 0x0 MSTORE PUSH1 0x20 PUSH1 0x0 KECCAK256 SWAP1 JUMPDEST DUP2 SLOAD DUP2 MSTORE SWAP1 PUSH1 0x1 ADD SWAP1 PUSH1 0x20 ADD DUP1 DUP4 GT PUSH2 0xDD5 JUMPI DUP3 SWAP1 SUB PUSH1 0x1F AND DUP3 ADD SWAP2 JUMPDEST POP POP POP POP POP DUP2 MSTORE PUSH1 0x20 ADD PUSH1 0x1 DUP3 ADD SLOAD DUP2 MSTORE POP POP DUP2 MSTORE PUSH1 0x20 ADD SWAP1 PUSH1 0x1 ADD SWAP1 PUSH2 0xD46 JUMP JUMPDEST POP POP POP POP SWAP1 POP SWAP1 JUMP JUMPDEST PUSH2 0xE25 PUSH2 0x1198 JUMP JUMPDEST PUSH20 0xFFFFFFFFFFFFFFFFFFFFFFFFFFFFFFFFFFFFFFFF AND PUSH2 0xE43 PUSH2 0xEB8 JUMP JUMPDEST PUSH20 0xFFFFFFFFFFFFFFFFFFFFFFFFFFFFFFFFFFFFFFFF AND EQ PUSH2 0xE99 JUMPI PUSH1 0x40 MLOAD PUSH32 0x8C379A000000000000000000000000000000000000000000000000000000000 DUP2 MSTORE PUSH1 0x4 ADD PUSH2 0xE90 SWAP1 PUSH2 0x1A57 JUMP JUMPDEST PUSH1 0x40 MLOAD DUP1 SWAP2 SUB SWAP1 REVERT JUMPDEST PUSH2 0xEA3 PUSH1 0x0 PUSH2 0x11A0 JUMP JUMPDEST JUMP JUMPDEST PUSH1 0x6 PUSH1 0x0 SWAP1 SLOAD SWAP1 PUSH2 0x100 EXP SWAP1 DIV PUSH1 0xFF AND DUP2 JUMP JUMPDEST PUSH1 0x0 DUP1 PUSH1 0x0 SWAP1 SLOAD SWAP1 PUSH2 0x100 EXP SWAP1 DIV PUSH20 0xFFFFFFFFFFFFFFFFFFFFFFFFFFFFFFFFFFFFFFFF AND SWAP1 POP SWAP1 JUMP JUMPDEST PUSH1 0x60 PUSH1 0x4 DUP1 SLOAD DUP1 PUSH1 0x20 MUL PUSH1 0x20 ADD PUSH1 0x40 MLOAD SWAP1 DUP2 ADD PUSH1 0x40 MSTORE DUP1 SWAP3 SWAP2 SWAP1 DUP2 DUP2 MSTORE PUSH1 0x20 ADD DUP3 DUP1 SLOAD DUP1 ISZERO PUSH2 0xF65 JUMPI PUSH1 0x20 MUL DUP3 ADD SWAP2 SWAP1 PUSH1 0x0 MSTORE PUSH1 0x20 PUSH1 0x0 KECCAK256 SWAP1 JUMPDEST DUP2 PUSH1 0x0 SWAP1 SLOAD SWAP1 PUSH2 0x100 EXP SWAP1 DIV PUSH20 0xFFFFFFFFFFFFFFFFFFFFFFFFFFFFFFFFFFFFFFFF AND PUSH20 0xFFFFFFFFFFFFFFFFFFFFFFFFFFFFFFFFFFFFFFFF AND DUP2 MSTORE PUSH1 0x20 ADD SWAP1 PUSH1 0x1 ADD SWAP1 DUP1 DUP4 GT PUSH2 0xF1B JUMPI JUMPDEST POP POP POP POP POP SWAP1 POP SWAP1 JUMP JUMPDEST PUSH1 0x1 PUSH1 0x20 MSTORE DUP1 PUSH1 0x0 MSTORE PUSH1 0x40 PUSH1 0x0 KECCAK256 PUSH1 0x0 SWAP2 POP SWAP1 POP DUP1 PUSH1 0x0 ADD PUSH1 0x0 SWAP1 SLOAD SWAP1 PUSH2 0x100 EXP SWAP1 DIV PUSH1 0xFF AND SWAP1 DUP1 PUSH1 0x0 ADD PUSH1 0x1 SWAP1 SLOAD SWAP1 PUSH2 0x100 EXP SWAP1 DIV PUSH1 0xFF AND SWAP1 DUP1 PUSH1 0x1 ADD SLOAD SWAP1 POP DUP4 JUMP JUMPDEST PUSH2 0xFBB PUSH2 0x1198 JUMP JUMPDEST PUSH20 0xFFFFFFFFFFFFFFFFFFFFFFFFFFFFFFFFFFFFFFFF AND PUSH2 0xFD9 PUSH2 0xEB8 JUMP JUMPDEST PUSH20 0xFFFFFFFFFFFFFFFFFFFFFFFFFFFFFFFFFFFFFFFF AND EQ PUSH2 0x102F JUMPI PUSH1 0x40 MLOAD PUSH32 0x8C379A000000000000000000000000000000000000000000000000000000000 DUP2 MSTORE PUSH1 0x4 ADD PUSH2 0x1026 SWAP1 PUSH2 0x1A57 JUMP JUMPDEST PUSH1 0x40 MLOAD DUP1 SWAP2 SUB SWAP1 REVERT JUMPDEST DUP1 PUSH1 0x6 PUSH1 0x0 PUSH2 0x100 EXP DUP2 SLOAD DUP2 PUSH1 0xFF MUL NOT AND SWAP1 DUP4 PUSH1 0x5 DUP2 GT ISZERO PUSH2 0x1054 JUMPI PUSH2 0x1053 PUSH2 0x176B JUMP JUMPDEST JUMPDEST MUL OR SWAP1 SSTORE POP POP JUMP JUMPDEST PUSH1 0x5 SLOAD DUP2 JUMP JUMPDEST PUSH1 0x4 DUP2 DUP2 SLOAD DUP2 LT PUSH2 0x1072 JUMPI PUSH1 0x0 DUP1 REVERT JUMPDEST SWAP1 PUSH1 0x0 MSTORE PUSH1 0x20 PUSH1 0x0 KECCAK256 ADD PUSH1 0x0 SWAP2 POP SLOAD SWAP1 PUSH2 0x100 EXP SWAP1 DIV PUSH20 0xFFFFFFFFFFFFFFFFFFFFFFFFFFFFFFFFFFFFFFFF AND DUP2 JUMP JUMPDEST PUSH2 0x10A9 PUSH2 0x1198 JUMP JUMPDEST PUSH20 0xFFFFFFFFFFFFFFFFFFFFFFFFFFFFFFFFFFFFFFFF AND PUSH2 0x10C7 PUSH2 0xEB8 JUMP JUMPDEST PUSH20 0xFFFFFFFFFFFFFFFFFFFFFFFFFFFFFFFFFFFFFFFF AND EQ PUSH2 0x111D JUMPI PUSH1 0x40 MLOAD PUSH32 0x8C379A000000000000000000000000000000000000000000000000000000000 DUP2 MSTORE PUSH1 0x4 ADD PUSH2 0x1114 SWAP1 PUSH2 0x1A57 JUMP JUMPDEST PUSH1 0x40 MLOAD DUP1 SWAP2 SUB SWAP1 REVERT JUMPDEST PUSH1 0x0 PUSH20 0xFFFFFFFFFFFFFFFFFFFFFFFFFFFFFFFFFFFFFFFF AND DUP2 PUSH20 0xFFFFFFFFFFFFFFFFFFFFFFFFFFFFFFFFFFFFFFFF AND SUB PUSH2 0x118C JUMPI PUSH1 0x40 MLOAD PUSH32 0x8C379A000000000000000000000000000000000000000000000000000000000 DUP2 MSTORE PUSH1 0x4 ADD PUSH2 0x1183 SWAP1 PUSH2 0x2187 JUMP JUMPDEST PUSH1 0x40 MLOAD DUP1 SWAP2 SUB SWAP1 REVERT JUMPDEST PUSH2 0x1195 DUP2 PUSH2 0x11A0 JUMP JUMPDEST POP JUMP JUMPDEST PUSH1 0x0 CALLER SWAP1 POP SWAP1 JUMP JUMPDEST PUSH1 0x0 DUP1 PUSH1 0x0 SWAP1 SLOAD SWAP1 PUSH2 0x100 EXP SWAP1 DIV PUSH20 0xFFFFFFFFFFFFFFFFFFFFFFFFFFFFFFFFFFFFFFFF AND SWAP1 POP DUP2 PUSH1 0x0 DUP1 PUSH2 0x100 EXP DUP2 SLOAD DUP2 PUSH20 0xFFFFFFFFFFFFFFFFFFFFFFFFFFFFFFFFFFFFFFFF MUL NOT AND SWAP1 DUP4 PUSH20 0xFFFFFFFFFFFFFFFFFFFFFFFFFFFFFFFFFFFFFFFF AND MUL OR SWAP1 SSTORE POP DUP2 PUSH20 0xFFFFFFFFFFFFFFFFFFFFFFFFFFFFFFFFFFFFFFFF AND DUP2 PUSH20 0xFFFFFFFFFFFFFFFFFFFFFFFFFFFFFFFFFFFFFFFF AND PUSH32 0x8BE0079C531659141344CD1FD0A4F28419497F9722A3DAAFE3B4186F6B6457E0 PUSH1 0x40 MLOAD PUSH1 0x40 MLOAD DUP1 SWAP2 SUB SWAP1 LOG3 POP POP JUMP JUMPDEST PUSH1 0x40 MLOAD DUP1 PUSH1 0x40 ADD PUSH1 0x40 MSTORE DUP1 PUSH1 0x60 DUP2 MSTORE PUSH1 0x20 ADD PUSH1 0x0 DUP2 MSTORE POP SWAP1 JUMP JUMPDEST PUSH1 0x0 PUSH1 0x40 MLOAD SWAP1 POP SWAP1 JUMP JUMPDEST PUSH1 0x0 DUP1 REVERT JUMPDEST PUSH1 0x0 DUP1 REVERT JUMPDEST PUSH1 0x0 DUP2 SWAP1 POP SWAP2 SWAP1 POP JUMP JUMPDEST PUSH2 0x12A5 DUP2 PUSH2 0x1292 JUMP JUMPDEST DUP2 EQ PUSH2 0x12B0 JUMPI PUSH1 0x0 DUP1 REVERT JUMPDEST POP JUMP JUMPDEST PUSH1 0x0 DUP2 CALLDATALOAD SWAP1 POP PUSH2 0x12C2 DUP2 PUSH2 0x129C JUMP JUMPDEST SWAP3 SWAP2 POP POP JUMP JUMPDEST PUSH1 0x0 PUSH1 0x20 DUP3 DUP5 SUB SLT ISZERO PUSH2 0x12DE JUMPI PUSH2 0x12DD PUSH2 0x1288 JUMP JUMPDEST JUMPDEST PUSH1 0x0 PUSH2 0x12EC DUP5 DUP3 DUP6 ADD PUSH2 0x12B3 JUMP JUMPDEST SWAP2 POP POP SWAP3 SWAP2 POP POP JUMP JUMPDEST PUSH1 0x0 DUP2 MLOAD SWAP1 POP SWAP2 SWAP1 POP JUMP JUMPDEST PUSH1 0x0 DUP3 DUP3 MSTORE PUSH1 0x20 DUP3 ADD SWAP1 POP SWAP3 SWAP2 POP POP JUMP JUMPDEST PUSH1 0x0 JUMPDEST DUP4 DUP2 LT ISZERO PUSH2 0x132F JUMPI DUP1 DUP3 ADD MLOAD DUP2 DUP5 ADD MSTORE PUSH1 0x20 DUP2 ADD SWAP1 POP PUSH2 0x1314 JUMP JUMPDEST DUP4 DUP2 GT ISZERO PUSH2 0x133E JUMPI PUSH1 0x0 DUP5 DUP5 ADD MSTORE JUMPDEST POP POP POP POP JUMP JUMPDEST PUSH1 0x0 PUSH1 0x1F NOT PUSH1 0x1F DUP4 ADD AND SWAP1 POP SWAP2 SWAP1 POP JUMP JUMPDEST PUSH1 0x0 PUSH2 0x1360 DUP3 PUSH2 0x12F5 JUMP JUMPDEST PUSH2 0x136A DUP2 DUP6 PUSH2 0x1300 JUMP JUMPDEST SWAP4 POP PUSH2 0x137A DUP2 DUP6 PUSH1 0x20 DUP7 ADD PUSH2 0x1311 JUMP JUMPDEST PUSH2 0x1383 DUP2 PUSH2 0x1344 JUMP JUMPDEST DUP5 ADD SWAP2 POP POP SWAP3 SWAP2 POP POP JUMP JUMPDEST PUSH2 0x1397 DUP2 PUSH2 0x1292 JUMP JUMPDEST DUP3 MSTORE POP POP JUMP JUMPDEST PUSH1 0x0 PUSH1 0x40 DUP3 ADD SWAP1 POP DUP2 DUP2 SUB PUSH1 0x0 DUP4 ADD MSTORE PUSH2 0x13B7 DUP2 DUP6 PUSH2 0x1355 JUMP JUMPDEST SWAP1 POP PUSH2 0x13C6 PUSH1 0x20 DUP4 ADD DUP5 PUSH2 0x138E JUMP JUMPDEST SWAP4 SWAP3 POP POP POP JUMP JUMPDEST PUSH1 0x0 PUSH1 0x20 DUP3 ADD SWAP1 POP PUSH2 0x13E2 PUSH1 0x0 DUP4 ADD DUP5 PUSH2 0x138E JUMP JUMPDEST SWAP3 SWAP2 POP POP JUMP JUMPDEST PUSH1 0x0 PUSH20 0xFFFFFFFFFFFFFFFFFFFFFFFFFFFFFFFFFFFFFFFF DUP3 AND SWAP1 POP SWAP2 SWAP1 POP JUMP JUMPDEST PUSH1 0x0 PUSH2 0x1413 DUP3 PUSH2 0x13E8 JUMP JUMPDEST SWAP1 POP SWAP2 SWAP1 POP JUMP JUMPDEST PUSH2 0x1423 DUP2 PUSH2 0x1408 JUMP JUMPDEST DUP2 EQ PUSH2 0x142E JUMPI PUSH1 0x0 DUP1 REVERT JUMPDEST POP JUMP JUMPDEST PUSH1 0x0 DUP2 CALLDATALOAD SWAP1 POP PUSH2 0x1440 DUP2 PUSH2 0x141A JUMP JUMPDEST SWAP3 SWAP2 POP POP JUMP JUMPDEST PUSH1 0x0 PUSH1 0x20 DUP3 DUP5 SUB SLT ISZERO PUSH2 0x145C JUMPI PUSH2 0x145B PUSH2 0x1288 JUMP JUMPDEST JUMPDEST PUSH1 0x0 PUSH2 0x146A DUP5 DUP3 DUP6 ADD PUSH2 0x1431 JUMP JUMPDEST SWAP2 POP POP SWAP3 SWAP2 POP POP JUMP JUMPDEST PUSH1 0x0 DUP1 REVERT JUMPDEST PUSH1 0x0 DUP1 REVERT JUMPDEST PUSH32 0x4E487B7100000000000000000000000000000000000000000000000000000000 PUSH1 0x0 MSTORE PUSH1 0x41 PUSH1 0x4 MSTORE PUSH1 0x24 PUSH1 0x0 REVERT JUMPDEST PUSH2 0x14B5 DUP3 PUSH2 0x1344 JUMP JUMPDEST DUP2 ADD DUP2 DUP2 LT PUSH8 0xFFFFFFFFFFFFFFFF DUP3 GT OR ISZERO PUSH2 0x14D4 JUMPI PUSH2 0x14D3 PUSH2 0x147D JUMP JUMPDEST JUMPDEST DUP1 PUSH1 0x40 MSTORE POP POP POP JUMP JUMPDEST PUSH1 0x0 PUSH2 0x14E7 PUSH2 0x127E JUMP JUMPDEST SWAP1 POP PUSH2 0x14F3 DUP3 DUP3 PUSH2 0x14AC JUMP JUMPDEST SWAP2 SWAP1 POP JUMP JUMPDEST PUSH1 0x0 PUSH8 0xFFFFFFFFFFFFFFFF DUP3 GT ISZERO PUSH2 0x1513 JUMPI PUSH2 0x1512 PUSH2 0x147D JUMP JUMPDEST JUMPDEST PUSH2 0x151C DUP3 PUSH2 0x1344 JUMP JUMPDEST SWAP1 POP PUSH1 0x20 DUP2 ADD SWAP1 POP SWAP2 SWAP1 POP JUMP JUMPDEST DUP3 DUP2 DUP4 CALLDATACOPY PUSH1 0x0 DUP4 DUP4 ADD MSTORE POP POP POP JUMP JUMPDEST PUSH1 0x0 PUSH2 0x154B PUSH2 0x1546 DUP5 PUSH2 0x14F8 JUMP JUMPDEST PUSH2 0x14DD JUMP JUMPDEST SWAP1 POP DUP3 DUP2 MSTORE PUSH1 0x20 DUP2 ADD DUP5 DUP5 DUP5 ADD GT ISZERO PUSH2 0x1567 JUMPI PUSH2 0x1566 PUSH2 0x1478 JUMP JUMPDEST JUMPDEST PUSH2 0x1572 DUP5 DUP3 DUP6 PUSH2 0x1529 JUMP JUMPDEST POP SWAP4 SWAP3 POP POP POP JUMP JUMPDEST PUSH1 0x0 DUP3 PUSH1 0x1F DUP4 ADD SLT PUSH2 0x158F JUMPI PUSH2 0x158E PUSH2 0x1473 JUMP JUMPDEST JUMPDEST DUP2 CALLDATALOAD PUSH2 0x159F DUP5 DUP3 PUSH1 0x20 DUP7 ADD PUSH2 0x1538 JUMP JUMPDEST SWAP2 POP POP SWAP3 SWAP2 POP POP JUMP JUMPDEST PUSH1 0x0 PUSH1 0x20 DUP3 DUP5 SUB SLT ISZERO PUSH2 0x15BE JUMPI PUSH2 0x15BD PUSH2 0x1288 JUMP JUMPDEST JUMPDEST PUSH1 0x0 DUP3 ADD CALLDATALOAD PUSH8 0xFFFFFFFFFFFFFFFF DUP2 GT ISZERO PUSH2 0x15DC JUMPI PUSH2 0x15DB PUSH2 0x128D JUMP JUMPDEST JUMPDEST PUSH2 0x15E8 DUP5 DUP3 DUP6 ADD PUSH2 0x157A JUMP JUMPDEST SWAP2 POP POP SWAP3 SWAP2 POP POP JUMP JUMPDEST PUSH1 0x0 DUP2 MLOAD SWAP1 POP SWAP2 SWAP1 POP JUMP JUMPDEST PUSH1 0x0 DUP3 DUP3 MSTORE PUSH1 0x20 DUP3 ADD SWAP1 POP SWAP3 SWAP2 POP POP JUMP JUMPDEST PUSH1 0x0 DUP2 SWAP1 POP PUSH1 0x20 DUP3 ADD SWAP1 POP SWAP2 SWAP1 POP JUMP JUMPDEST PUSH1 0x0 DUP3 DUP3 MSTORE PUSH1 0x20 DUP3 ADD SWAP1 POP SWAP3 SWAP2 POP POP JUMP JUMPDEST PUSH1 0x0 PUSH2 0x1639 DUP3 PUSH2 0x12F5 JUMP JUMPDEST PUSH2 0x1643 DUP2 DUP6 PUSH2 0x161D JUMP JUMPDEST SWAP4 POP PUSH2 0x1653 DUP2 DUP6 PUSH1 0x20 DUP7 ADD PUSH2 0x1311 JUMP JUMPDEST PUSH2 0x165C DUP2 PUSH2 0x1344 JUMP JUMPDEST DUP5 ADD SWAP2 POP POP SWAP3 SWAP2 POP POP JUMP JUMPDEST PUSH2 0x1670 DUP2 PUSH2 0x1292 JUMP JUMPDEST DUP3 MSTORE POP POP JUMP JUMPDEST PUSH1 0x0 PUSH1 0x40 DUP4 ADD PUSH1 0x0 DUP4 ADD MLOAD DUP5 DUP3 SUB PUSH1 0x0 DUP7 ADD MSTORE PUSH2 0x1693 DUP3 DUP3 PUSH2 0x162E JUMP JUMPDEST SWAP2 POP POP PUSH1 0x20 DUP4 ADD MLOAD PUSH2 0x16A8 PUSH1 0x20 DUP7 ADD DUP3 PUSH2 0x1667 JUMP JUMPDEST POP DUP1 SWAP2 POP POP SWAP3 SWAP2 POP POP JUMP JUMPDEST PUSH1 0x0 PUSH2 0x16BF DUP4 DUP4 PUSH2 0x1676 JUMP JUMPDEST SWAP1 POP SWAP3 SWAP2 POP POP JUMP JUMPDEST PUSH1 0x0 PUSH1 0x20 DUP3 ADD SWAP1 POP SWAP2 SWAP1 POP JUMP JUMPDEST PUSH1 0x0 PUSH2 0x16DF DUP3 PUSH2 0x15F1 JUMP JUMPDEST PUSH2 0x16E9 DUP2 DUP6 PUSH2 0x15FC JUMP JUMPDEST SWAP4 POP DUP4 PUSH1 0x20 DUP3 MUL DUP6 ADD PUSH2 0x16FB DUP6 PUSH2 0x160D JUMP JUMPDEST DUP1 PUSH1 0x0 JUMPDEST DUP6 DUP2 LT ISZERO PUSH2 0x1737 JUMPI DUP5 DUP5 SUB DUP10 MSTORE DUP2 MLOAD PUSH2 0x1718 DUP6 DUP3 PUSH2 0x16B3 JUMP JUMPDEST SWAP5 POP PUSH2 0x1723 DUP4 PUSH2 0x16C7 JUMP JUMPDEST SWAP3 POP PUSH1 0x20 DUP11 ADD SWAP10 POP POP PUSH1 0x1 DUP2 ADD SWAP1 POP PUSH2 0x16FF JUMP JUMPDEST POP DUP3 SWAP8 POP DUP8 SWAP6 POP POP POP POP POP POP SWAP3 SWAP2 POP POP JUMP JUMPDEST PUSH1 0x0 PUSH1 0x20 DUP3 ADD SWAP1 POP DUP2 DUP2 SUB PUSH1 0x0 DUP4 ADD MSTORE PUSH2 0x1763 DUP2 DUP5 PUSH2 0x16D4 JUMP JUMPDEST SWAP1 POP SWAP3 SWAP2 POP POP JUMP JUMPDEST PUSH32 0x4E487B7100000000000000000000000000000000000000000000000000000000 PUSH1 0x0 MSTORE PUSH1 0x21 PUSH1 0x4 MSTORE PUSH1 0x24 PUSH1 0x0 REVERT JUMPDEST PUSH1 0x6 DUP2 LT PUSH2 0x17AB JUMPI PUSH2 0x17AA PUSH2 0x176B JUMP JUMPDEST JUMPDEST POP JUMP JUMPDEST PUSH1 0x0 DUP2 SWAP1 POP PUSH2 0x17BC DUP3 PUSH2 0x179A JUMP JUMPDEST SWAP2 SWAP1 POP JUMP JUMPDEST PUSH1 0x0 PUSH2 0x17CC DUP3 PUSH2 0x17AE JUMP JUMPDEST SWAP1 POP SWAP2 SWAP1 POP JUMP JUMPDEST PUSH2 0x17DC DUP2 PUSH2 0x17C1 JUMP JUMPDEST DUP3 MSTORE POP POP JUMP JUMPDEST PUSH1 0x0 PUSH1 0x20 DUP3 ADD SWAP1 POP PUSH2 0x17F7 PUSH1 0x0 DUP4 ADD DUP5 PUSH2 0x17D3 JUMP JUMPDEST SWAP3 SWAP2 POP POP JUMP JUMPDEST PUSH2 0x1806 DUP2 PUSH2 0x1408 JUMP JUMPDEST DUP3 MSTORE POP POP JUMP JUMPDEST PUSH1 0x0 PUSH1 0x20 DUP3 ADD SWAP1 POP PUSH2 0x1821 PUSH1 0x0 DUP4 ADD DUP5 PUSH2 0x17FD JUMP JUMPDEST SWAP3 SWAP2 POP POP JUMP JUMPDEST PUSH1 0x0 DUP2 MLOAD SWAP1 POP SWAP2 SWAP1 POP JUMP JUMPDEST PUSH1 0x0 DUP3 DUP3 MSTORE PUSH1 0x20 DUP3 ADD SWAP1 POP SWAP3 SWAP2 POP POP JUMP JUMPDEST PUSH1 0x0 DUP2 SWAP1 POP PUSH1 0x20 DUP3 ADD SWAP1 POP SWAP2 SWAP1 POP JUMP JUMPDEST PUSH2 0x185C DUP2 PUSH2 0x1408 JUMP JUMPDEST DUP3 MSTORE POP POP JUMP JUMPDEST PUSH1 0x0 PUSH2 0x186E DUP4 DUP4 PUSH2 0x1853 JUMP JUMPDEST PUSH1 0x20 DUP4 ADD SWAP1 POP SWAP3 SWAP2 POP POP JUMP JUMPDEST PUSH1 0x0 PUSH1 0x20 DUP3 ADD SWAP1 POP SWAP2 SWAP1 POP JUMP JUMPDEST PUSH1 0x0 PUSH2 0x1892 DUP3 PUSH2 0x1827 JUMP JUMPDEST PUSH2 0x189C DUP2 DUP6 PUSH2 0x1832 JUMP JUMPDEST SWAP4 POP PUSH2 0x18A7 DUP4 PUSH2 0x1843 JUMP JUMPDEST DUP1 PUSH1 0x0 JUMPDEST DUP4 DUP2 LT ISZERO PUSH2 0x18D8 JUMPI DUP2 MLOAD PUSH2 0x18BF DUP9 DUP3 PUSH2 0x1862 JUMP JUMPDEST SWAP8 POP PUSH2 0x18CA DUP4 PUSH2 0x187A JUMP JUMPDEST SWAP3 POP POP PUSH1 0x1 DUP2 ADD SWAP1 POP PUSH2 0x18AB JUMP JUMPDEST POP DUP6 SWAP4 POP POP POP POP SWAP3 SWAP2 POP POP JUMP JUMPDEST PUSH1 0x0 PUSH1 0x20 DUP3 ADD SWAP1 POP DUP2 DUP2 SUB PUSH1 0x0 DUP4 ADD MSTORE PUSH2 0x18FF DUP2 DUP5 PUSH2 0x1887 JUMP JUMPDEST SWAP1 POP SWAP3 SWAP2 POP POP JUMP JUMPDEST PUSH1 0x0 DUP2 ISZERO ISZERO SWAP1 POP SWAP2 SWAP1 POP JUMP JUMPDEST PUSH2 0x191C DUP2 PUSH2 0x1907 JUMP JUMPDEST DUP3 MSTORE POP POP JUMP JUMPDEST PUSH1 0x0 PUSH1 0x60 DUP3 ADD SWAP1 POP PUSH2 0x1937 PUSH1 0x0 DUP4 ADD DUP7 PUSH2 0x1913 JUMP JUMPDEST PUSH2 0x1944 PUSH1 0x20 DUP4 ADD DUP6 PUSH2 0x1913 JUMP JUMPDEST PUSH2 0x1951 PUSH1 0x40 DUP4 ADD DUP5 PUSH2 0x138E JUMP JUMPDEST SWAP5 SWAP4 POP POP POP POP JUMP JUMPDEST PUSH1 0x6 DUP2 LT PUSH2 0x1966 JUMPI PUSH1 0x0 DUP1 REVERT JUMPDEST POP JUMP JUMPDEST PUSH1 0x0 DUP2 CALLDATALOAD SWAP1 POP PUSH2 0x1978 DUP2 PUSH2 0x1959 JUMP JUMPDEST SWAP3 SWAP2 POP POP JUMP JUMPDEST PUSH1 0x0 PUSH1 0x20 DUP3 DUP5 SUB SLT ISZERO PUSH2 0x1994 JUMPI PUSH2 0x1993 PUSH2 0x1288 JUMP JUMPDEST JUMPDEST PUSH1 0x0 PUSH2 0x19A2 DUP5 DUP3 DUP6 ADD PUSH2 0x1969 JUMP JUMPDEST SWAP2 POP POP SWAP3 SWAP2 POP POP JUMP JUMPDEST PUSH32 0x4E487B7100000000000000000000000000000000000000000000000000000000 PUSH1 0x0 MSTORE PUSH1 0x22 PUSH1 0x4 MSTORE PUSH1 0x24 PUSH1 0x0 REVERT JUMPDEST PUSH1 0x0 PUSH1 0x2 DUP3 DIV SWAP1 POP PUSH1 0x1 DUP3 AND DUP1 PUSH2 0x19F2 JUMPI PUSH1 0x7F DUP3 AND SWAP2 POP JUMPDEST PUSH1 0x20 DUP3 LT DUP2 SUB PUSH2 0x1A05 JUMPI PUSH2 0x1A04 PUSH2 0x19AB JUMP JUMPDEST JUMPDEST POP SWAP2 SWAP1 POP JUMP JUMPDEST PUSH32 0x4F776E61626C653A2063616C6C6572206973206E6F7420746865206F776E6572 PUSH1 0x0 DUP3 ADD MSTORE POP JUMP JUMPDEST PUSH1 0x0 PUSH2 0x1A41 PUSH1 0x20 DUP4 PUSH2 0x1300 JUMP JUMPDEST SWAP2 POP PUSH2 0x1A4C DUP3 PUSH2 0x1A0B JUMP JUMPDEST PUSH1 0x20 DUP3 ADD SWAP1 POP SWAP2 SWAP1 POP JUMP JUMPDEST PUSH1 0x0 PUSH1 0x20 DUP3 ADD SWAP1 POP DUP2 DUP2 SUB PUSH1 0x0 DUP4 ADD MSTORE PUSH2 0x1A70 DUP2 PUSH2 0x1A34 JUMP JUMPDEST SWAP1 POP SWAP2 SWAP1 POP JUMP JUMPDEST PUSH32 0x796F752061726520616C72656164792072656769737465726564000000000000 PUSH1 0x0 DUP3 ADD MSTORE POP JUMP JUMPDEST PUSH1 0x0 PUSH2 0x1AAD PUSH1 0x1A DUP4 PUSH2 0x1300 JUMP JUMPDEST SWAP2 POP PUSH2 0x1AB8 DUP3 PUSH2 0x1A77 JUMP JUMPDEST PUSH1 0x20 DUP3 ADD SWAP1 POP SWAP2 SWAP1 POP JUMP JUMPDEST PUSH1 0x0 PUSH1 0x20 DUP3 ADD SWAP1 POP DUP2 DUP2 SUB PUSH1 0x0 DUP4 ADD MSTORE PUSH2 0x1ADC DUP2 PUSH2 0x1AA0 JUMP JUMPDEST SWAP1 POP SWAP2 SWAP1 POP JUMP JUMPDEST PUSH32 0x61646472657373206E6F742077686974656C6973746564000000000000000000 PUSH1 0x0 DUP3 ADD MSTORE POP JUMP JUMPDEST PUSH1 0x0 PUSH2 0x1B19 PUSH1 0x17 DUP4 PUSH2 0x1300 JUMP JUMPDEST SWAP2 POP PUSH2 0x1B24 DUP3 PUSH2 0x1AE3 JUMP JUMPDEST PUSH1 0x20 DUP3 ADD SWAP1 POP SWAP2 SWAP1 POP JUMP JUMPDEST PUSH1 0x0 PUSH1 0x20 DUP3 ADD SWAP1 POP DUP2 DUP2 SUB PUSH1 0x0 DUP4 ADD MSTORE PUSH2 0x1B48 DUP2 PUSH2 0x1B0C JUMP JUMPDEST SWAP1 POP SWAP2 SWAP1 POP JUMP JUMPDEST PUSH32 0x50726F706F73616C7320617265206E6F7420616C6C6F77656420796574000000 PUSH1 0x0 DUP3 ADD MSTORE POP JUMP JUMPDEST PUSH1 0x0 PUSH2 0x1B85 PUSH1 0x1D DUP4 PUSH2 0x1300 JUMP JUMPDEST SWAP2 POP PUSH2 0x1B90 DUP3 PUSH2 0x1B4F JUMP JUMPDEST PUSH1 0x20 DUP3 ADD SWAP1 POP SWAP2 SWAP1 POP JUMP JUMPDEST PUSH1 0x0 PUSH1 0x20 DUP3 ADD SWAP1 POP DUP2 DUP2 SUB PUSH1 0x0 DUP4 ADD MSTORE PUSH2 0x1BB4 DUP2 PUSH2 0x1B78 JUMP JUMPDEST SWAP1 POP SWAP2 SWAP1 POP JUMP JUMPDEST PUSH1 0x0 DUP2 SWAP1 POP DUP2 PUSH1 0x0 MSTORE PUSH1 0x20 PUSH1 0x0 KECCAK256 SWAP1 POP SWAP2 SWAP1 POP JUMP JUMPDEST PUSH1 0x0 PUSH1 0x20 PUSH1 0x1F DUP4 ADD DIV SWAP1 POP SWAP2 SWAP1 POP JUMP JUMPDEST PUSH1 0x0 DUP3 DUP3 SHL SWAP1 POP SWAP3 SWAP2 POP POP JUMP JUMPDEST PUSH1 0x0 PUSH1 0x8 DUP4 MUL PUSH2 0x1C1D PUSH32 0xFFFFFFFFFFFFFFFFFFFFFFFFFFFFFFFFFFFFFFFFFFFFFFFFFFFFFFFFFFFFFFFF DUP3 PUSH2 0x1BE0 JUMP JUMPDEST PUSH2 0x1C27 DUP7 DUP4 PUSH2 0x1BE0 JUMP JUMPDEST SWAP6 POP DUP1 NOT DUP5 AND SWAP4 POP DUP1 DUP7 AND DUP5 OR SWAP3 POP POP POP SWAP4 SWAP3 POP POP POP JUMP JUMPDEST PUSH1 0x0 DUP2 SWAP1 POP SWAP2 SWAP1 POP JUMP JUMPDEST PUSH1 0x0 PUSH2 0x1C64 PUSH2 0x1C5F PUSH2 0x1C5A DUP5 PUSH2 0x1292 JUMP JUMPDEST PUSH2 0x1C3F JUMP JUMPDEST PUSH2 0x1292 JUMP JUMPDEST SWAP1 POP SWAP2 SWAP1 POP JUMP JUMPDEST PUSH1 0x0 DUP2 SWAP1 POP SWAP2 SWAP1 POP JUMP JUMPDEST PUSH2 0x1C7E DUP4 PUSH2 0x1C49 JUMP JUMPDEST PUSH2 0x1C92 PUSH2 0x1C8A DUP3 PUSH2 0x1C6B JUMP JUMPDEST DUP5 DUP5 SLOAD PUSH2 0x1BED JUMP JUMPDEST DUP3 SSTORE POP POP POP POP JUMP JUMPDEST PUSH1 0x0 SWAP1 JUMP JUMPDEST PUSH2 0x1CA7 PUSH2 0x1C9A JUMP JUMPDEST PUSH2 0x1CB2 DUP2 DUP5 DUP5 PUSH2 0x1C75 JUMP JUMPDEST POP POP POP JUMP JUMPDEST JUMPDEST DUP2 DUP2 LT ISZERO PUSH2 0x1CD6 JUMPI PUSH2 0x1CCB PUSH1 0x0 DUP3 PUSH2 0x1C9F JUMP JUMPDEST PUSH1 0x1 DUP2 ADD SWAP1 POP PUSH2 0x1CB8 JUMP JUMPDEST POP POP JUMP JUMPDEST PUSH1 0x1F DUP3 GT ISZERO PUSH2 0x1D1B JUMPI PUSH2 0x1CEC DUP2 PUSH2 0x1BBB JUMP JUMPDEST PUSH2 0x1CF5 DUP5 PUSH2 0x1BD0 JUMP JUMPDEST DUP2 ADD PUSH1 0x20 DUP6 LT ISZERO PUSH2 0x1D04 JUMPI DUP2 SWAP1 POP JUMPDEST PUSH2 0x1D18 PUSH2 0x1D10 DUP6 PUSH2 0x1BD0 JUMP JUMPDEST DUP4 ADD DUP3 PUSH2 0x1CB7 JUMP JUMPDEST POP POP JUMPDEST POP POP POP JUMP JUMPDEST PUSH1 0x0 DUP3 DUP3 SHR SWAP1 POP SWAP3 SWAP2 POP POP JUMP JUMPDEST PUSH1 0x0 PUSH2 0x1D3E PUSH1 0x0 NOT DUP5 PUSH1 0x8 MUL PUSH2 0x1D20 JUMP JUMPDEST NOT DUP1 DUP4 AND SWAP2 POP POP SWAP3 SWAP2 POP POP JUMP JUMPDEST PUSH1 0x0 PUSH2 0x1D57 DUP4 DUP4 PUSH2 0x1D2D JUMP JUMPDEST SWAP2 POP DUP3 PUSH1 0x2 MUL DUP3 OR SWAP1 POP SWAP3 SWAP2 POP POP JUMP JUMPDEST PUSH2 0x1D70 DUP3 PUSH2 0x12F5 JUMP JUMPDEST PUSH8 0xFFFFFFFFFFFFFFFF DUP2 GT ISZERO PUSH2 0x1D89 JUMPI PUSH2 0x1D88 PUSH2 0x147D JUMP JUMPDEST JUMPDEST PUSH2 0x1D93 DUP3 SLOAD PUSH2 0x19DA JUMP JUMPDEST PUSH2 0x1D9E DUP3 DUP3 DUP6 PUSH2 0x1CDA JUMP JUMPDEST PUSH1 0x0 PUSH1 0x20 SWAP1 POP PUSH1 0x1F DUP4 GT PUSH1 0x1 DUP2 EQ PUSH2 0x1DD1 JUMPI PUSH1 0x0 DUP5 ISZERO PUSH2 0x1DBF JUMPI DUP3 DUP8 ADD MLOAD SWAP1 POP JUMPDEST PUSH2 0x1DC9 DUP6 DUP3 PUSH2 0x1D4B JUMP JUMPDEST DUP7 SSTORE POP PUSH2 0x1E31 JUMP JUMPDEST PUSH1 0x1F NOT DUP5 AND PUSH2 0x1DDF DUP7 PUSH2 0x1BBB JUMP JUMPDEST PUSH1 0x0 JUMPDEST DUP3 DUP2 LT ISZERO PUSH2 0x1E07 JUMPI DUP5 DUP10 ADD MLOAD DUP3 SSTORE PUSH1 0x1 DUP3 ADD SWAP2 POP PUSH1 0x20 DUP6 ADD SWAP5 POP PUSH1 0x20 DUP2 ADD SWAP1 POP PUSH2 0x1DE2 JUMP JUMPDEST DUP7 DUP4 LT ISZERO PUSH2 0x1E24 JUMPI DUP5 DUP10 ADD MLOAD PUSH2 0x1E20 PUSH1 0x1F DUP10 AND DUP3 PUSH2 0x1D2D JUMP JUMPDEST DUP4 SSTORE POP JUMPDEST PUSH1 0x1 PUSH1 0x2 DUP9 MUL ADD DUP9 SSTORE POP POP POP JUMPDEST POP POP POP POP POP POP JUMP JUMPDEST PUSH32 0x4E487B7100000000000000000000000000000000000000000000000000000000 PUSH1 0x0 MSTORE PUSH1 0x11 PUSH1 0x4 MSTORE PUSH1 0x24 PUSH1 0x0 REVERT JUMPDEST PUSH1 0x0 PUSH2 0x1E73 DUP3 PUSH2 0x1292 JUMP JUMPDEST SWAP2 POP PUSH2 0x1E7E DUP4 PUSH2 0x1292 JUMP JUMPDEST SWAP3 POP DUP3 DUP3 LT ISZERO PUSH2 0x1E91 JUMPI PUSH2 0x1E90 PUSH2 0x1E39 JUMP JUMPDEST JUMPDEST DUP3 DUP3 SUB SWAP1 POP SWAP3 SWAP2 POP POP JUMP JUMPDEST PUSH32 0x706C65617365206D616B65207468652073746174757320656E64656400000000 PUSH1 0x0 DUP3 ADD MSTORE POP JUMP JUMPDEST PUSH1 0x0 PUSH2 0x1ED2 PUSH1 0x1C DUP4 PUSH2 0x1300 JUMP JUMPDEST SWAP2 POP PUSH2 0x1EDD DUP3 PUSH2 0x1E9C JUMP JUMPDEST PUSH1 0x20 DUP3 ADD SWAP1 POP SWAP2 SWAP1 POP JUMP JUMPDEST PUSH1 0x0 PUSH1 0x20 DUP3 ADD SWAP1 POP DUP2 DUP2 SUB PUSH1 0x0 DUP4 ADD MSTORE PUSH2 0x1F01 DUP2 PUSH2 0x1EC5 JUMP JUMPDEST SWAP1 POP SWAP2 SWAP1 POP JUMP JUMPDEST PUSH32 0x4E487B7100000000000000000000000000000000000000000000000000000000 PUSH1 0x0 MSTORE PUSH1 0x32 PUSH1 0x4 MSTORE PUSH1 0x24 PUSH1 0x0 REVERT JUMPDEST PUSH1 0x0 PUSH2 0x1F42 DUP3 PUSH2 0x1292 JUMP JUMPDEST SWAP2 POP PUSH32 0xFFFFFFFFFFFFFFFFFFFFFFFFFFFFFFFFFFFFFFFFFFFFFFFFFFFFFFFFFFFFFFFF DUP3 SUB PUSH2 0x1F74 JUMPI PUSH2 0x1F73 PUSH2 0x1E39 JUMP JUMPDEST JUMPDEST PUSH1 0x1 DUP3 ADD SWAP1 POP SWAP2 SWAP1 POP JUMP JUMPDEST PUSH1 0x0 PUSH1 0x40 DUP3 ADD SWAP1 POP PUSH2 0x1F94 PUSH1 0x0 DUP4 ADD DUP6 PUSH2 0x17D3 JUMP JUMPDEST PUSH2 0x1FA1 PUSH1 0x20 DUP4 ADD DUP5 PUSH2 0x17D3 JUMP JUMPDEST SWAP4 SWAP3 POP POP POP JUMP JUMPDEST PUSH32 0x596F75722061646472657373206973206E6F74206F6E2074686520574C000000 PUSH1 0x0 DUP3 ADD MSTORE POP JUMP JUMPDEST PUSH1 0x0 PUSH2 0x1FDE PUSH1 0x1D DUP4 PUSH2 0x1300 JUMP JUMPDEST SWAP2 POP PUSH2 0x1FE9 DUP3 PUSH2 0x1FA8 JUMP JUMPDEST PUSH1 0x20 DUP3 ADD SWAP1 POP SWAP2 SWAP1 POP JUMP JUMPDEST PUSH1 0x0 PUSH1 0x20 DUP3 ADD SWAP1 POP DUP2 DUP2 SUB PUSH1 0x0 DUP4 ADD MSTORE PUSH2 0x200D DUP2 PUSH2 0x1FD1 JUMP JUMPDEST SWAP1 POP SWAP2 SWAP1 POP JUMP JUMPDEST PUSH32 0x416464726573732068617320616C726561647920766F74656400000000000000 PUSH1 0x0 DUP3 ADD MSTORE POP JUMP JUMPDEST PUSH1 0x0 PUSH2 0x204A PUSH1 0x19 DUP4 PUSH2 0x1300 JUMP JUMPDEST SWAP2 POP PUSH2 0x2055 DUP3 PUSH2 0x2014 JUMP JUMPDEST PUSH1 0x20 DUP3 ADD SWAP1 POP SWAP2 SWAP1 POP JUMP JUMPDEST PUSH1 0x0 PUSH1 0x20 DUP3 ADD SWAP1 POP DUP2 DUP2 SUB PUSH1 0x0 DUP4 ADD MSTORE PUSH2 0x2079 DUP2 PUSH2 0x203D JUMP JUMPDEST SWAP1 POP SWAP2 SWAP1 POP JUMP JUMPDEST PUSH1 0x0 PUSH1 0x40 DUP3 ADD SWAP1 POP PUSH2 0x2095 PUSH1 0x0 DUP4 ADD DUP6 PUSH2 0x17FD JUMP JUMPDEST PUSH2 0x20A2 PUSH1 0x20 DUP4 ADD DUP5 PUSH2 0x138E JUMP JUMPDEST SWAP4 SWAP3 POP POP POP JUMP JUMPDEST PUSH32 0x6E6F74206F6E2074686520776C00000000000000000000000000000000000000 PUSH1 0x0 DUP3 ADD MSTORE POP JUMP JUMPDEST PUSH1 0x0 PUSH2 0x20DF PUSH1 0xD DUP4 PUSH2 0x1300 JUMP JUMPDEST SWAP2 POP PUSH2 0x20EA DUP3 PUSH2 0x20A9 JUMP JUMPDEST PUSH1 0x20 DUP3 ADD SWAP1 POP SWAP2 SWAP1 POP JUMP JUMPDEST PUSH1 0x0 PUSH1 0x20 DUP3 ADD SWAP1 POP DUP2 DUP2 SUB PUSH1 0x0 DUP4 ADD MSTORE PUSH2 0x210E DUP2 PUSH2 0x20D2 JUMP JUMPDEST SWAP1 POP SWAP2 SWAP1 POP JUMP JUMPDEST PUSH32 0x4F776E61626C653A206E6577206F776E657220697320746865207A65726F2061 PUSH1 0x0 DUP3 ADD MSTORE PUSH32 0x6464726573730000000000000000000000000000000000000000000000000000 PUSH1 0x20 DUP3 ADD MSTORE POP JUMP JUMPDEST PUSH1 0x0 PUSH2 0x2171 PUSH1 0x26 DUP4 PUSH2 0x1300 JUMP JUMPDEST SWAP2 POP PUSH2 0x217C DUP3 PUSH2 0x2115 JUMP JUMPDEST PUSH1 0x40 DUP3 ADD SWAP1 POP SWAP2 SWAP1 POP JUMP JUMPDEST PUSH1 0x0 PUSH1 0x20 DUP3 ADD SWAP1 POP DUP2 DUP2 SUB PUSH1 0x0 DUP4 ADD MSTORE PUSH2 0x21A0 DUP2 PUSH2 0x2164 JUMP JUMPDEST SWAP1 POP SWAP2 SWAP1 POP JUMP INVALID LOG2 PUSH5 0x6970667358 0x22 SLT KECCAK256 SGT DUP7 AND 0xBB DUP3 DIFFICULTY 0xB4 LOG4 PUSH12 0x1A888F1C607EBBA90DC89B34 0x2E 0xFC PUSH1 0xB1 MSTORE8 0xDB 0xD5 0xC7 PUSH11 0xE59064736F6C634300080F STOP CALLER "
				},
				"gasEstimates": {
					"creation": {
						"codeDepositCost": "1733800",
						"executionCost": "infinite",
						"totalCost": "infinite"
					},
					"external": {
						"addProposal(string)": "infinite",
						"addWL(address)": "infinite",
						"addresses(uint256)": "5044",
						"changeWorkflowStatus(uint8)": "26934",
						"counterVoteBlanc()": "2475",
						"delWL(address)": "infinite",
						"getAddresses()": "infinite",
						"getProposals()": "infinite",
						"owner()": "2589",
						"proposals(uint256)": "infinite",
						"registerVote(uint256)": "infinite",
						"renounceOwnership()": "30397",
						"tallyVotes()": "infinite",
						"transferOwnership(address)": "30830",
						"voteStatus()": "2605",
						"voters(address)": "infinite",
						"winningProposalID()": "2495"
					}
				},
				"methodIdentifiers": {
					"addProposal(string)": "2fdae3c5",
					"addWL(address)": "125f48e4",
					"addresses(uint256)": "edf26d9b",
					"changeWorkflowStatus(uint8)": "b95c9663",
					"counterVoteBlanc()": "0d2328d3",
					"delWL(address)": "48f72c48",
					"getAddresses()": "a39fac12",
					"getProposals()": "62564c48",
					"owner()": "8da5cb5b",
					"proposals(uint256)": "013cf08b",
					"registerVote(uint256)": "464d4a92",
					"renounceOwnership()": "715018a6",
					"tallyVotes()": "378a2178",
					"transferOwnership(address)": "f2fde38b",
					"voteStatus()": "7ae6ee32",
					"voters(address)": "a3ec138d",
					"winningProposalID()": "bdc01431"
				}
			},
			"storageLayout": {
				"storage": [
					{
						"astId": 7,
						"contract": "contracts/voting.sol:Voting",
						"label": "_owner",
						"offset": 0,
						"slot": "0",
						"type": "t_address"
					},
					{
						"astId": 155,
						"contract": "contracts/voting.sol:Voting",
						"label": "voters",
						"offset": 0,
						"slot": "1",
						"type": "t_mapping(t_address,t_struct(Voter)138_storage)"
					},
					{
						"astId": 157,
						"contract": "contracts/voting.sol:Voting",
						"label": "counterVoteBlanc",
						"offset": 0,
						"slot": "2",
						"type": "t_uint256"
					},
					{
						"astId": 161,
						"contract": "contracts/voting.sol:Voting",
						"label": "proposals",
						"offset": 0,
						"slot": "3",
						"type": "t_array(t_struct(Proposal)143_storage)dyn_storage"
					},
					{
						"astId": 164,
						"contract": "contracts/voting.sol:Voting",
						"label": "addresses",
						"offset": 0,
						"slot": "4",
						"type": "t_array(t_address)dyn_storage"
					},
					{
						"astId": 166,
						"contract": "contracts/voting.sol:Voting",
						"label": "winningProposalID",
						"offset": 0,
						"slot": "5",
						"type": "t_uint256"
					},
					{
						"astId": 197,
						"contract": "contracts/voting.sol:Voting",
						"label": "voteStatus",
						"offset": 0,
						"slot": "6",
						"type": "t_enum(WorkflowStatus)150"
					}
				],
				"types": {
					"t_address": {
						"encoding": "inplace",
						"label": "address",
						"numberOfBytes": "20"
					},
					"t_array(t_address)dyn_storage": {
						"base": "t_address",
						"encoding": "dynamic_array",
						"label": "address[]",
						"numberOfBytes": "32"
					},
					"t_array(t_struct(Proposal)143_storage)dyn_storage": {
						"base": "t_struct(Proposal)143_storage",
						"encoding": "dynamic_array",
						"label": "struct Voting.Proposal[]",
						"numberOfBytes": "32"
					},
					"t_bool": {
						"encoding": "inplace",
						"label": "bool",
						"numberOfBytes": "1"
					},
					"t_enum(WorkflowStatus)150": {
						"encoding": "inplace",
						"label": "enum Voting.WorkflowStatus",
						"numberOfBytes": "1"
					},
					"t_mapping(t_address,t_struct(Voter)138_storage)": {
						"encoding": "mapping",
						"key": "t_address",
						"label": "mapping(address => struct Voting.Voter)",
						"numberOfBytes": "32",
						"value": "t_struct(Voter)138_storage"
					},
					"t_string_storage": {
						"encoding": "bytes",
						"label": "string",
						"numberOfBytes": "32"
					},
					"t_struct(Proposal)143_storage": {
						"encoding": "inplace",
						"label": "struct Voting.Proposal",
						"members": [
							{
								"astId": 140,
								"contract": "contracts/voting.sol:Voting",
								"label": "description",
								"offset": 0,
								"slot": "0",
								"type": "t_string_storage"
							},
							{
								"astId": 142,
								"contract": "contracts/voting.sol:Voting",
								"label": "voteCount",
								"offset": 0,
								"slot": "1",
								"type": "t_uint256"
							}
						],
						"numberOfBytes": "64"
					},
					"t_struct(Voter)138_storage": {
						"encoding": "inplace",
						"label": "struct Voting.Voter",
						"members": [
							{
								"astId": 133,
								"contract": "contracts/voting.sol:Voting",
								"label": "isRegistered",
								"offset": 0,
								"slot": "0",
								"type": "t_bool"
							},
							{
								"astId": 135,
								"contract": "contracts/voting.sol:Voting",
								"label": "hasVoted",
								"offset": 1,
								"slot": "0",
								"type": "t_bool"
							},
							{
								"astId": 137,
								"contract": "contracts/voting.sol:Voting",
								"label": "votedProposalId",
								"offset": 0,
								"slot": "1",
								"type": "t_uint256"
							}
						],
						"numberOfBytes": "64"
					},
					"t_uint256": {
						"encoding": "inplace",
						"label": "uint256",
						"numberOfBytes": "32"
					}
				}
			},
			"userdoc": {
				"kind": "user",
				"methods": {},
				"version": 1
			}
		}
	}
}