{
  "contractName": "Voting",
  "abi": [
    {
      "anonymous": false,
      "inputs": [
        {
          "indexed": true,
          "internalType": "address",
          "name": "previousOwner",
          "type": "address"
        },
        {
          "indexed": true,
          "internalType": "address",
          "name": "newOwner",
          "type": "address"
        }
      ],
      "name": "OwnershipTransferred",
      "type": "event"
    },
    {
      "anonymous": false,
      "inputs": [
        {
          "indexed": false,
          "internalType": "uint256",
          "name": "proposalId",
          "type": "uint256"
        }
      ],
      "name": "ProposalRegistered",
      "type": "event"
    },
    {
      "anonymous": false,
      "inputs": [
        {
          "indexed": false,
          "internalType": "address",
          "name": "voter",
          "type": "address"
        },
        {
          "indexed": false,
          "internalType": "uint256",
          "name": "proposalId",
          "type": "uint256"
        }
      ],
      "name": "Voted",
      "type": "event"
    },
    {
      "anonymous": false,
      "inputs": [
        {
          "indexed": false,
          "internalType": "address",
          "name": "voterAddress",
          "type": "address"
        }
      ],
      "name": "VoterRegistered",
      "type": "event"
    },
    {
      "anonymous": false,
      "inputs": [
        {
          "indexed": false,
          "internalType": "enum Voting.WorkflowStatus",
          "name": "previousStatus",
          "type": "uint8"
        },
        {
          "indexed": false,
          "internalType": "enum Voting.WorkflowStatus",
          "name": "newStatus",
          "type": "uint8"
        }
      ],
      "name": "WorkflowStatusChange",
      "type": "event"
    },
    {
      "anonymous": false,
      "inputs": [
        {
          "indexed": false,
          "internalType": "address",
          "name": "voterAddress",
          "type": "address"
        }
      ],
      "name": "unregistered",
      "type": "event"
    },
    {
      "inputs": [
        {
          "internalType": "uint256",
          "name": "",
          "type": "uint256"
        }
      ],
      "name": "addresses",
      "outputs": [
        {
          "internalType": "address",
          "name": "",
          "type": "address"
        }
      ],
      "stateMutability": "view",
      "type": "function"
    },
    {
      "inputs": [],
      "name": "counterVoteBlanc",
      "outputs": [
        {
          "internalType": "uint256",
          "name": "",
          "type": "uint256"
        }
      ],
      "stateMutability": "view",
      "type": "function"
    },
    {
      "inputs": [],
      "name": "owner",
      "outputs": [
        {
          "internalType": "address",
          "name": "",
          "type": "address"
        }
      ],
      "stateMutability": "view",
      "type": "function"
    },
    {
      "inputs": [
        {
          "internalType": "uint256",
          "name": "",
          "type": "uint256"
        }
      ],
      "name": "proposals",
      "outputs": [
        {
          "internalType": "string",
          "name": "description",
          "type": "string"
        },
        {
          "internalType": "uint256",
          "name": "voteCount",
          "type": "uint256"
        }
      ],
      "stateMutability": "view",
      "type": "function"
    },
    {
      "inputs": [],
      "name": "renounceOwnership",
      "outputs": [],
      "stateMutability": "nonpayable",
      "type": "function"
    },
    {
      "inputs": [
        {
          "internalType": "address",
          "name": "newOwner",
          "type": "address"
        }
      ],
      "name": "transferOwnership",
      "outputs": [],
      "stateMutability": "nonpayable",
      "type": "function"
    },
    {
      "inputs": [],
      "name": "voteStatus",
      "outputs": [
        {
          "internalType": "enum Voting.WorkflowStatus",
          "name": "",
          "type": "uint8"
        }
      ],
      "stateMutability": "view",
      "type": "function"
    },
    {
      "inputs": [
        {
          "internalType": "address",
          "name": "",
          "type": "address"
        }
      ],
      "name": "voters",
      "outputs": [
        {
          "internalType": "bool",
          "name": "isRegistered",
          "type": "bool"
        },
        {
          "internalType": "bool",
          "name": "hasVoted",
          "type": "bool"
        },
        {
          "internalType": "uint256",
          "name": "votedProposalId",
          "type": "uint256"
        }
      ],
      "stateMutability": "view",
      "type": "function"
    },
    {
      "inputs": [],
      "name": "winningProposalID",
      "outputs": [
        {
          "internalType": "uint256",
          "name": "",
          "type": "uint256"
        }
      ],
      "stateMutability": "view",
      "type": "function"
    },
    {
      "inputs": [
        {
          "internalType": "address",
          "name": "_voter",
          "type": "address"
        }
      ],
      "name": "addWL",
      "outputs": [],
      "stateMutability": "nonpayable",
      "type": "function"
    },
    {
      "inputs": [
        {
          "internalType": "address",
          "name": "_voter",
          "type": "address"
        }
      ],
      "name": "delWL",
      "outputs": [],
      "stateMutability": "nonpayable",
      "type": "function"
    },
    {
      "inputs": [],
      "name": "getProposals",
      "outputs": [
        {
          "components": [
            {
              "internalType": "string",
              "name": "description",
              "type": "string"
            },
            {
              "internalType": "uint256",
              "name": "voteCount",
              "type": "uint256"
            }
          ],
          "internalType": "struct Voting.Proposal[]",
          "name": "",
          "type": "tuple[]"
        }
      ],
      "stateMutability": "view",
      "type": "function"
    },
    {
      "inputs": [],
      "name": "getAddresses",
      "outputs": [
        {
          "internalType": "address[]",
          "name": "",
          "type": "address[]"
        }
      ],
      "stateMutability": "view",
      "type": "function"
    },
    {
      "inputs": [
        {
          "internalType": "enum Voting.WorkflowStatus",
          "name": "_status",
          "type": "uint8"
        }
      ],
      "name": "changeWorkflowStatus",
      "outputs": [],
      "stateMutability": "nonpayable",
      "type": "function"
    },
    {
      "inputs": [
        {
          "internalType": "uint256",
          "name": "proposalId",
          "type": "uint256"
        }
      ],
      "name": "registerVote",
      "outputs": [],
      "stateMutability": "nonpayable",
      "type": "function"
    },
    {
      "inputs": [
        {
          "internalType": "string",
          "name": "_desc",
          "type": "string"
        }
      ],
      "name": "addProposal",
      "outputs": [],
      "stateMutability": "nonpayable",
      "type": "function"
    },
    {
      "inputs": [],
      "name": "tallyVotes",
      "outputs": [],
      "stateMutability": "nonpayable",
      "type": "function"
    }
  ],
  "bytecode": "0x60806040526000600660006101000a81548160ff021916908360058111156200002d576200002c62000132565b5b02179055503480156200003f57600080fd5b5062000060620000546200006660201b60201c565b6200006e60201b60201c565b62000161565b600033905090565b60008060009054906101000a900473ffffffffffffffffffffffffffffffffffffffff169050816000806101000a81548173ffffffffffffffffffffffffffffffffffffffff021916908373ffffffffffffffffffffffffffffffffffffffff1602179055508173ffffffffffffffffffffffffffffffffffffffff168173ffffffffffffffffffffffffffffffffffffffff167f8be0079c531659141344cd1fd0a4f28419497f9722a3daafe3b4186f6b6457e060405160405180910390a35050565b7f4e487b7100000000000000000000000000000000000000000000000000000000600052602160045260246000fd5b61225380620001716000396000f3fe608060405234801561001057600080fd5b506004361061010b5760003560e01c8063715018a6116100a2578063a3ec138d11610071578063a3ec138d1461025b578063b95c96631461028d578063bdc01431146102a9578063edf26d9b146102c7578063f2fde38b146102f75761010b565b8063715018a6146101f75780637ae6ee32146102015780638da5cb5b1461021f578063a39fac121461023d5761010b565b8063378a2178116100de578063378a217814610197578063464d4a92146101a157806348f72c48146101bd57806362564c48146101d95761010b565b8063013cf08b146101105780630d2328d314610141578063125f48e41461015f5780632fdae3c51461017b575b600080fd5b61012a6004803603810190610125919061130f565b610313565b6040516101389291906113e4565b60405180910390f35b6101496103cf565b6040516101569190611414565b60405180910390f35b6101796004803603810190610174919061148d565b6103d5565b005b610195600480360381019061019091906115ef565b610620565b005b61019f6107d7565b005b6101bb60048036038101906101b6919061130f565b6109b8565b005b6101d760048036038101906101d2919061148d565b610bf5565b005b6101e1610d69565b6040516101ee9190611790565b60405180910390f35b6101ff610e64565b005b610209610eec565b6040516102169190611829565b60405180910390f35b610227610eff565b6040516102349190611853565b60405180910390f35b610245610f28565b604051610252919061192c565b60405180910390f35b6102756004803603810190610270919061148d565b610fb6565b60405161028493929190611969565b60405180910390f35b6102a760048036038101906102a291906119c5565b610ffa565b005b6102b16110a3565b6040516102be9190611414565b60405180910390f35b6102e160048036038101906102dc919061130f565b6110a9565b6040516102ee9190611853565b60405180910390f35b610311600480360381019061030c919061148d565b6110e8565b005b6003818154811061032357600080fd5b906000526020600020906002020160009150905080600001805461034690611a21565b80601f016020809104026020016040519081016040528092919081815260200182805461037290611a21565b80156103bf5780601f10610394576101008083540402835291602001916103bf565b820191906000526020600020905b8154815290600101906020018083116103a257829003601f168201915b5050505050908060010154905082565b60025481565b6103dd6111df565b73ffffffffffffffffffffffffffffffffffffffff166103fb610eff565b73ffffffffffffffffffffffffffffffffffffffff1614610451576040517f08c379a000000000000000000000000000000000000000000000000000000000815260040161044890611a9e565b60405180910390fd5b6000600660009054906101000a900460ff166005811115610475576104746117b2565b5b816005811115610488576104876117b2565b5b1461049257600080fd5b60011515600160008473ffffffffffffffffffffffffffffffffffffffff1673ffffffffffffffffffffffffffffffffffffffff16815260200190815260200160002060000160009054906101000a900460ff16151503610528576040517f08c379a000000000000000000000000000000000000000000000000000000000815260040161051f90611b0a565b60405180910390fd5b60018060008473ffffffffffffffffffffffffffffffffffffffff1673ffffffffffffffffffffffffffffffffffffffff16815260200190815260200160002060000160006101000a81548160ff0219169083151502179055506004829080600181540180825580915050600190039060005260206000200160009091909190916101000a81548173ffffffffffffffffffffffffffffffffffffffff021916908373ffffffffffffffffffffffffffffffffffffffff1602179055507fb6be2187d059cc2a55fe29e0e503b566e1e0f8c8780096e185429350acffd3dd826040516106149190611853565b60405180910390a15050565b60011515600160003373ffffffffffffffffffffffffffffffffffffffff1673ffffffffffffffffffffffffffffffffffffffff16815260200190815260200160002060000160009054906101000a900460ff161515146106b6576040517f08c379a00000000000000000000000000000000000000000000000000000000081526004016106ad90611b76565b60405180910390fd5b600160058111156106ca576106c96117b2565b5b600660009054906101000a900460ff1660058111156106ec576106eb6117b2565b5b1461072c576040517f08c379a000000000000000000000000000000000000000000000000000000000815260040161072390611be2565b60405180910390fd5b6107346112ab565b8181600001819052506003819080600181540180825580915050600190039060005260206000209060020201600090919091909150600082015181600001908161077e9190611dae565b506020820151816001015550507f92e393e9b54e2f801d3ea4beb0c5e71a21cc34a5d34b77d0fb8a3aa1650dc18f60016003805490506107be9190611eaf565b6040516107cb9190611414565b60405180910390a15050565b6107df6111df565b73ffffffffffffffffffffffffffffffffffffffff166107fd610eff565b73ffffffffffffffffffffffffffffffffffffffff1614610853576040517f08c379a000000000000000000000000000000000000000000000000000000000815260040161084a90611a9e565b60405180910390fd5b60046005811115610867576108666117b2565b5b600660009054906101000a900460ff166005811115610889576108886117b2565b5b146108c9576040517f08c379a00000000000000000000000000000000000000000000000000000000081526004016108c090611f2f565b60405180910390fd5b600080600090505b60038054905081101561094757600382815481106108f2576108f1611f4f565b5b9060005260206000209060020201600101546003828154811061091857610917611f4f565b5b9060005260206000209060020201600101541115610934578091505b808061093f90611f7e565b9150506108d1565b50806005819055506005600660006101000a81548160ff02191690836005811115610975576109746117b2565b5b02179055507f0a97a4ee45751e2abf3e4fc8946939630b11b371ea8ae39ccdc3056e98f5cc3f600460056040516109ad929190611fc6565b60405180910390a150565b600160003373ffffffffffffffffffffffffffffffffffffffff1673ffffffffffffffffffffffffffffffffffffffff16815260200190815260200160002060000160009054906101000a900460ff16610a47576040517f08c379a0000000000000000000000000000000000000000000000000000000008152600401610a3e9061203b565b60405180910390fd5b60001515600160003373ffffffffffffffffffffffffffffffffffffffff1673ffffffffffffffffffffffffffffffffffffffff16815260200190815260200160002060000160019054906101000a900460ff16151514610add576040517f08c379a0000000000000000000000000000000000000000000000000000000008152600401610ad4906120a7565b60405180910390fd5b60018060003373ffffffffffffffffffffffffffffffffffffffff1673ffffffffffffffffffffffffffffffffffffffff16815260200190815260200160002060000160016101000a81548160ff02191690831515021790555080600160003373ffffffffffffffffffffffffffffffffffffffff1673ffffffffffffffffffffffffffffffffffffffff1681526020019081526020016000206001018190555060038181548110610b9257610b91611f4f565b5b90600052602060002090600202016001016000815480929190610bb490611f7e565b91905055507f4d99b957a2bc29a30ebd96a7be8e68fe50a3c701db28a91436490b7d53870ca43382604051610bea9291906120c7565b60405180910390a150565b8060011515600160003373ffffffffffffffffffffffffffffffffffffffff1673ffffffffffffffffffffffffffffffffffffffff16815260200190815260200160002060000160009054906101000a900460ff16151514610c8c576040517f08c379a0000000000000000000000000000000000000000000000000000000008152600401610c839061213c565b60405180910390fd5b6000600160008473ffffffffffffffffffffffffffffffffffffffff1673ffffffffffffffffffffffffffffffffffffffff16815260200190815260200160002060000160006101000a81548160ff0219169083151502179055506004805480610cf957610cf861215c565b5b6001900381819060005260206000200160006101000a81549073ffffffffffffffffffffffffffffffffffffffff021916905590557fba755c98e7ff88dd83065027aff06054db857349071edbef1f99757ec65d2f7882604051610d5d9190611853565b60405180910390a15050565b60606003805480602002602001604051908101604052809291908181526020016000905b82821015610e5b5783829060005260206000209060020201604051806040016040529081600082018054610dc090611a21565b80601f0160208091040260200160405190810160405280929190818152602001828054610dec90611a21565b8015610e395780601f10610e0e57610100808354040283529160200191610e39565b820191906000526020600020905b815481529060010190602001808311610e1c57829003601f168201915b5050505050815260200160018201548152505081526020019060010190610d8d565b50505050905090565b610e6c6111df565b73ffffffffffffffffffffffffffffffffffffffff16610e8a610eff565b73ffffffffffffffffffffffffffffffffffffffff1614610ee0576040517f08c379a0000000000000000000000000000000000000000000000000000000008152600401610ed790611a9e565b60405180910390fd5b610eea60006111e7565b565b600660009054906101000a900460ff1681565b60008060009054906101000a900473ffffffffffffffffffffffffffffffffffffffff16905090565b60606004805480602002602001604051908101604052809291908181526020018280548015610fac57602002820191906000526020600020905b8160009054906101000a900473ffffffffffffffffffffffffffffffffffffffff1673ffffffffffffffffffffffffffffffffffffffff1681526020019060010190808311610f62575b5050505050905090565b60016020528060005260406000206000915090508060000160009054906101000a900460ff16908060000160019054906101000a900460ff16908060010154905083565b6110026111df565b73ffffffffffffffffffffffffffffffffffffffff16611020610eff565b73ffffffffffffffffffffffffffffffffffffffff1614611076576040517f08c379a000000000000000000000000000000000000000000000000000000000815260040161106d90611a9e565b60405180910390fd5b80600660006101000a81548160ff0219169083600581111561109b5761109a6117b2565b5b021790555050565b60055481565b600481815481106110b957600080fd5b906000526020600020016000915054906101000a900473ffffffffffffffffffffffffffffffffffffffff1681565b6110f06111df565b73ffffffffffffffffffffffffffffffffffffffff1661110e610eff565b73ffffffffffffffffffffffffffffffffffffffff1614611164576040517f08c379a000000000000000000000000000000000000000000000000000000000815260040161115b90611a9e565b60405180910390fd5b600073ffffffffffffffffffffffffffffffffffffffff168173ffffffffffffffffffffffffffffffffffffffff16036111d3576040517f08c379a00000000000000000000000000000000000000000000000000000000081526004016111ca906121fd565b60405180910390fd5b6111dc816111e7565b50565b600033905090565b60008060009054906101000a900473ffffffffffffffffffffffffffffffffffffffff169050816000806101000a81548173ffffffffffffffffffffffffffffffffffffffff021916908373ffffffffffffffffffffffffffffffffffffffff1602179055508173ffffffffffffffffffffffffffffffffffffffff168173ffffffffffffffffffffffffffffffffffffffff167f8be0079c531659141344cd1fd0a4f28419497f9722a3daafe3b4186f6b6457e060405160405180910390a35050565b604051806040016040528060608152602001600081525090565b6000604051905090565b600080fd5b600080fd5b6000819050919050565b6112ec816112d9565b81146112f757600080fd5b50565b600081359050611309816112e3565b92915050565b600060208284031215611325576113246112cf565b5b6000611333848285016112fa565b91505092915050565b600081519050919050565b600082825260208201905092915050565b60005b8381101561137657808201518184015260208101905061135b565b83811115611385576000848401525b50505050565b6000601f19601f8301169050919050565b60006113a78261133c565b6113b18185611347565b93506113c1818560208601611358565b6113ca8161138b565b840191505092915050565b6113de816112d9565b82525050565b600060408201905081810360008301526113fe818561139c565b905061140d60208301846113d5565b9392505050565b600060208201905061142960008301846113d5565b92915050565b600073ffffffffffffffffffffffffffffffffffffffff82169050919050565b600061145a8261142f565b9050919050565b61146a8161144f565b811461147557600080fd5b50565b60008135905061148781611461565b92915050565b6000602082840312156114a3576114a26112cf565b5b60006114b184828501611478565b91505092915050565b600080fd5b600080fd5b7f4e487b7100000000000000000000000000000000000000000000000000000000600052604160045260246000fd5b6114fc8261138b565b810181811067ffffffffffffffff8211171561151b5761151a6114c4565b5b80604052505050565b600061152e6112c5565b905061153a82826114f3565b919050565b600067ffffffffffffffff82111561155a576115596114c4565b5b6115638261138b565b9050602081019050919050565b82818337600083830152505050565b600061159261158d8461153f565b611524565b9050828152602081018484840111156115ae576115ad6114bf565b5b6115b9848285611570565b509392505050565b600082601f8301126115d6576115d56114ba565b5b81356115e684826020860161157f565b91505092915050565b600060208284031215611605576116046112cf565b5b600082013567ffffffffffffffff811115611623576116226112d4565b5b61162f848285016115c1565b91505092915050565b600081519050919050565b600082825260208201905092915050565b6000819050602082019050919050565b600082825260208201905092915050565b60006116808261133c565b61168a8185611664565b935061169a818560208601611358565b6116a38161138b565b840191505092915050565b6116b7816112d9565b82525050565b600060408301600083015184820360008601526116da8282611675565b91505060208301516116ef60208601826116ae565b508091505092915050565b600061170683836116bd565b905092915050565b6000602082019050919050565b600061172682611638565b6117308185611643565b93508360208202850161174285611654565b8060005b8581101561177e578484038952815161175f85826116fa565b945061176a8361170e565b925060208a01995050600181019050611746565b50829750879550505050505092915050565b600060208201905081810360008301526117aa818461171b565b905092915050565b7f4e487b7100000000000000000000000000000000000000000000000000000000600052602160045260246000fd5b600681106117f2576117f16117b2565b5b50565b6000819050611803826117e1565b919050565b6000611813826117f5565b9050919050565b61182381611808565b82525050565b600060208201905061183e600083018461181a565b92915050565b61184d8161144f565b82525050565b60006020820190506118686000830184611844565b92915050565b600081519050919050565b600082825260208201905092915050565b6000819050602082019050919050565b6118a38161144f565b82525050565b60006118b5838361189a565b60208301905092915050565b6000602082019050919050565b60006118d98261186e565b6118e38185611879565b93506118ee8361188a565b8060005b8381101561191f57815161190688826118a9565b9750611911836118c1565b9250506001810190506118f2565b5085935050505092915050565b6000602082019050818103600083015261194681846118ce565b905092915050565b60008115159050919050565b6119638161194e565b82525050565b600060608201905061197e600083018661195a565b61198b602083018561195a565b61199860408301846113d5565b949350505050565b600681106119ad57600080fd5b50565b6000813590506119bf816119a0565b92915050565b6000602082840312156119db576119da6112cf565b5b60006119e9848285016119b0565b91505092915050565b7f4e487b7100000000000000000000000000000000000000000000000000000000600052602260045260246000fd5b60006002820490506001821680611a3957607f821691505b602082108103611a4c57611a4b6119f2565b5b50919050565b7f4f776e61626c653a2063616c6c6572206973206e6f7420746865206f776e6572600082015250565b6000611a88602083611347565b9150611a9382611a52565b602082019050919050565b60006020820190508181036000830152611ab781611a7b565b9050919050565b7f796f752061726520616c72656164792072656769737465726564000000000000600082015250565b6000611af4601a83611347565b9150611aff82611abe565b602082019050919050565b60006020820190508181036000830152611b2381611ae7565b9050919050565b7f61646472657373206e6f742077686974656c6973746564000000000000000000600082015250565b6000611b60601783611347565b9150611b6b82611b2a565b602082019050919050565b60006020820190508181036000830152611b8f81611b53565b9050919050565b7f50726f706f73616c7320617265206e6f7420616c6c6f77656420796574000000600082015250565b6000611bcc601d83611347565b9150611bd782611b96565b602082019050919050565b60006020820190508181036000830152611bfb81611bbf565b9050919050565b60008190508160005260206000209050919050565b60006020601f8301049050919050565b600082821b905092915050565b600060088302611c647fffffffffffffffffffffffffffffffffffffffffffffffffffffffffffffffff82611c27565b611c6e8683611c27565b95508019841693508086168417925050509392505050565b6000819050919050565b6000611cab611ca6611ca1846112d9565b611c86565b6112d9565b9050919050565b6000819050919050565b611cc583611c90565b611cd9611cd182611cb2565b848454611c34565b825550505050565b600090565b611cee611ce1565b611cf9818484611cbc565b505050565b5b81811015611d1d57611d12600082611ce6565b600181019050611cff565b5050565b601f821115611d6257611d3381611c02565b611d3c84611c17565b81016020851015611d4b578190505b611d5f611d5785611c17565b830182611cfe565b50505b505050565b600082821c905092915050565b6000611d8560001984600802611d67565b1980831691505092915050565b6000611d9e8383611d74565b9150826002028217905092915050565b611db78261133c565b67ffffffffffffffff811115611dd057611dcf6114c4565b5b611dda8254611a21565b611de5828285611d21565b600060209050601f831160018114611e185760008415611e06578287015190505b611e108582611d92565b865550611e78565b601f198416611e2686611c02565b60005b82811015611e4e57848901518255600182019150602085019450602081019050611e29565b86831015611e6b5784890151611e67601f891682611d74565b8355505b6001600288020188555050505b505050505050565b7f4e487b7100000000000000000000000000000000000000000000000000000000600052601160045260246000fd5b6000611eba826112d9565b9150611ec5836112d9565b925082821015611ed857611ed7611e80565b5b828203905092915050565b7f706c65617365206d616b65207468652073746174757320656e64656400000000600082015250565b6000611f19601c83611347565b9150611f2482611ee3565b602082019050919050565b60006020820190508181036000830152611f4881611f0c565b9050919050565b7f4e487b7100000000000000000000000000000000000000000000000000000000600052603260045260246000fd5b6000611f89826112d9565b91507fffffffffffffffffffffffffffffffffffffffffffffffffffffffffffffffff8203611fbb57611fba611e80565b5b600182019050919050565b6000604082019050611fdb600083018561181a565b611fe8602083018461181a565b9392505050565b7f596f75722061646472657373206973206e6f74206f6e2074686520574c000000600082015250565b6000612025601d83611347565b915061203082611fef565b602082019050919050565b6000602082019050818103600083015261205481612018565b9050919050565b7f416464726573732068617320616c726561647920766f74656400000000000000600082015250565b6000612091601983611347565b915061209c8261205b565b602082019050919050565b600060208201905081810360008301526120c081612084565b9050919050565b60006040820190506120dc6000830185611844565b6120e960208301846113d5565b9392505050565b7f6e6f74206f6e2074686520776c00000000000000000000000000000000000000600082015250565b6000612126600d83611347565b9150612131826120f0565b602082019050919050565b6000602082019050818103600083015261215581612119565b9050919050565b7f4e487b7100000000000000000000000000000000000000000000000000000000600052603160045260246000fd5b7f4f776e61626c653a206e6577206f776e657220697320746865207a65726f206160008201527f6464726573730000000000000000000000000000000000000000000000000000602082015250565b60006121e7602683611347565b91506121f28261218b565b604082019050919050565b60006020820190508181036000830152612216816121da565b905091905056fea2646970667358221220c1adb2d4d8cd249da1db50cfdfbd4dd1a6738bbc9bcc6ea849b1c919e779dfb364736f6c634300080f0033",
  "immutableReferences": {},
  "source": "// SPDX-License-Identifier: MIT\npragma solidity 0.8.15;\n\nimport \"@openzeppelin/contracts/access/Ownable.sol\";\n\n\ncontract Voting is Ownable {\n\n    struct Voter {\n        bool isRegistered;\n        bool hasVoted;\n        uint votedProposalId;\n    }\n\n    struct Proposal {\n        string description;\n        uint voteCount;\n    }\n\n    enum WorkflowStatus {\n        RegisteringVoters,\n        ProposalsRegistrationStarted,\n        ProposalsRegistrationEnded,\n        VotingSessionStarted,\n        VotingSessionEnded,\n        VotesTallied\n    }\n\n\n    mapping(address => Voter) public voters;\n     // all propositions : \n\tuint public counterVoteBlanc;\n    Proposal[] public proposals;\n\taddress[] public addresses;\n    uint public winningProposalID;\n\n    event WorkflowStatusChange(WorkflowStatus previousStatus, WorkflowStatus newStatus);    \n    event VoterRegistered(address voterAddress); \n    event unregistered(address voterAddress);\n    event ProposalRegistered(uint proposalId);\n    event Voted(address voter, uint proposalId);\n    \n\n    // workflow initialisation :\n    \n    WorkflowStatus public voteStatus = WorkflowStatus.RegisteringVoters;\n\t\n\tmodifier ActualState(WorkflowStatus state) { \n  \t\trequire (state == voteStatus); \n  \t\t_; \n  \t}\n\n    modifier wlVoter(address _addr) {\n        require(voters[msg.sender].isRegistered == true, \"not on the wl\");\n        _;\n    }\n\n    // add voters to wl\n\n    function addWL(address _voter) external onlyOwner ActualState(WorkflowStatus.RegisteringVoters){\n     \n        require(voters[_voter].isRegistered != true, \"you are already registered\");\n        voters[_voter].isRegistered = true;\n\t\taddresses.push(_voter);\n        emit VoterRegistered(_voter);\n\n    }\n\n    function delWL(address _voter) external  wlVoter(_voter) {\n        voters[_voter].isRegistered = false;\n\t\taddresses.pop();\n        emit unregistered(_voter);\n    }\n\n//  Quelques get pour infos\n\n    function getProposals() external view  returns(Proposal[] memory) {\n        return proposals;\n    }\n\n\t function getAddresses() public view returns(address[] memory){\n\t\t return addresses;\n\t }\n   \n// Status \n\n    function changeWorkflowStatus(WorkflowStatus _status) external onlyOwner {\n        voteStatus = _status;\n    }\n\n\n// action \n\n//add vote :\n\n    function registerVote(uint proposalId) external   {\n        require(voters[msg.sender].isRegistered,\"Your address is not on the WL\");\n        require(voters[msg.sender].hasVoted == false, \"Address has already voted\");\n        voters[msg.sender].hasVoted = true;\n        voters[msg.sender].votedProposalId = proposalId;\n        proposals[proposalId].voteCount++;\n        emit Voted(msg.sender, proposalId);\n        }\n\n// add proposal : \n\n    function addProposal(string memory _desc) external {\n        require(voters[msg.sender].isRegistered == true, \"address not whitelisted\");\n        // voteStatus = WorkflowStatus.ProposalsRegistrationStarted;\n        require(voteStatus == WorkflowStatus.ProposalsRegistrationStarted, 'Proposals are not allowed yet');\n        Proposal memory proposal;\n        proposal.description = _desc;\n        proposals.push(proposal);\n        \n        emit ProposalRegistered(proposals.length-1);\n    }\n\n\n// dcompte des votes \n\n    function tallyVotes() external onlyOwner {\n        require(voteStatus == WorkflowStatus.VotingSessionEnded, \"please make the status ended\");\n        uint _winningProposalId;\n        for (uint i = 0; i < proposals.length; i++) {\n            if (proposals[i].voteCount > proposals[_winningProposalId].voteCount) {\n                _winningProposalId = i;\n            }\n        }\n\n        winningProposalID = _winningProposalId;\n        \n        voteStatus = WorkflowStatus.VotesTallied;\n        emit WorkflowStatusChange(WorkflowStatus.VotingSessionEnded, WorkflowStatus.VotesTallied);\n    }\n\n\n\n    \n}",
  "sourcePath": "/root/systemVote/contracts/voting.sol",
  "compiler": {
    "name": "solc",
    "version": "0.8.15+commit.e14f2714.Emscripten.clang"
  },
  "schemaVersion": "3.4.7",
  "updatedAt": "2022-06-26T16:30:55.895Z",
  "devdoc": {
    "kind": "dev",
    "methods": {
      "owner()": {
        "details": "Returns the address of the current owner."
      },
      "renounceOwnership()": {
        "details": "Leaves the contract without owner. It will not be possible to call `onlyOwner` functions anymore. Can only be called by the current owner. NOTE: Renouncing ownership will leave the contract without an owner, thereby removing any functionality that is only available to the owner."
      },
      "transferOwnership(address)": {
        "details": "Transfers ownership of the contract to a new account (`newOwner`). Can only be called by the current owner."
      }
    },
    "version": 1
  },
  "userdoc": {
    "kind": "user",
    "methods": {},
    "version": 1
  }
}